:020000040800F2
:1000000010730020D1B10008C9A80008CBA80008CF
:10001000CDA80008CFA80008D1A800080000000063
:100020000000000000000000000000008D870008B4
:10003000D3A80008000000003587000821790008D7
:1000400025B2000829B200082DB2000831B200081C
:1000500035B2000839B200083DB2000841B20008CC
:1000600045B2000849B200084DB20008D5A8000802
:1000700051B2000855B2000859B200085DB200083C
:1000800061B2000865B2000869B200086DB20008EC
:10009000DFA8000871B2000875B2000879B2000844
:1000A0007DB2000881B20008E9A8000885B2000806
:1000B00027A9000889B2000831A900088DB20008FC
:1000C00091B2000895B2000899B200089DB20008EC
:1000D000A1B20008A5B200083BA90008A9B2000817
:1000E000ADB20008B1B20008B5B20008B9B200085C
:1000F000BDB20008C1B20008C5B20008C9B200080C
:10010000000000000000000000000000CDB2000868
:10011000D1B20008D5B200088BA900089BA900083D
:10012000D9B20008DDB20008E1B20008E5B200086B
:10013000E9B20008EDB20008000000000000000075
:10014000F1B20008F5B20008F9B2000800000000A2
:10015000000000000000000000000000000000009F
:100160000000000000000000FDB2000801B300081C
:1001700005B30008000000000000000000000000BF
:100180000000000009B3000810B50400002C01D1E4
:10019000012035E094F83D00002805D1002084F8C6
:1001A0003C00200001F0CAF9022084F83D00211D26
:1001B000206800F09AFC012084F84800012084F8AF
:1001C0003E00012084F83F00012084F84000012017
:1001D00084F84100012084F84200012084F84300A3
:1001E000012084F84400012084F84500012084F8AF
:1001F0004600012084F84700012084F83D000020DB
:1002000010BD90F83D10012901D001203DE00221F0
:1002100080F83D100168C96851F001010268D160A1
:100220000168DFF8A420914217D00168B1F1804F36
:1002300013D00168DFF8942091420ED00168DFF8F6
:100240009020914209D00168DFF88820914204D0C3
:100250000168DFF88420914210D101688A68DFF8D4
:100260007C100A40062A0FD0B2F5803F0CD00168FE
:10027000096851F001010068016005E00168096842
:1002800051F0010100680160002070470168C968F1
:10029000490849000268D1600168096A41F21112F7
:1002A00011420BD10168096A40F24442114205D162
:1002B000016809684908490002681160012180F855
:1002C0003D10002070470000002C01400004004059
:1002D00000080040003401400040014007000100D8
:1002E00010B50400002C01D1012035E094F83D0048
:1002F000002805D1002084F83C00200001F0A8F877
:10030000022084F83D00211D206800F0EEFB012052
:1003100084F84800012084F83E00012084F83F0062
:10032000012084F84000012084F84100012084F875
:100330004200012084F84300012084F84400012099
:1003400084F84500012084F84600012084F8470025
:10035000012084F83D00002010BD10B504000029E4
:1003600002D194F83E0015E0042902D194F83F0030
:1003700010E0082902D194F840000BE00C2902D1CA
:1003800094F8410006E0102902D194F8420001E0FF
:1003900094F84300012801D0012081E0002904D114
:1003A000022084F83E00C0B21FE0042904D10220DC
:1003B00084F83F00C0B218E0082904D1022084F874
:1003C0004000C0B211E00C2904D1022084F84100A1
:1003D000C0B20AE0102904D1022084F84200C0B261
:1003E00003E0022084F84300C0B20122206800F03C
:1003F000CDFDDFF8B4102068884212D02068DFF805
:10040000AC2090420DD02068DFF8A420904208D0A4
:100410002068DFF8A820904203D02068214A90424B
:1004200001D1012000E00020C0B2002805D02068E2
:10043000406C50F40040226850642068884217D015
:100440002068B0F1804F13D02068DFF86810884230
:100450000ED02068DFF86010884209D02068DFF8ED
:100460004C10884204D02068DFF84410884210D134
:1004700020688168DFF84800014006290FD0B1F5F7
:10048000803F0CD02068006850F0010021680860AF
:1004900005E02068006850F0010021680860002035
:1004A00010BD000000480140002C01400034014014
:1004B00000400140000400400008004000440140AA
:1004C0000700010070B504000D00002C01D10120CF
:1004D0005EE094F83D00002805D1002084F83C003F
:1004E000200001F0D1F8022084F83D0020688168E6
:1004F000DFF8B401014020688160211D206800F010
:10050000F4FA20688168206882692068036A286894
:100510000143DFF898010240A868AE6950EA06205E
:100520000243DFF88C010240DFF888010240E868EE
:10053000EE6950EA0620024328692E6A360356EA1D
:100540000016324333F0220333F0880368686D6984
:1005500050EA0510034320688160206882612068AA
:100560000362012084F84800012084F83E00C0B2F4
:10057000012084F83F00C0B2012084F84400C0B2DA
:10058000012084F84500C0B2012084F83D0000201D
:1005900070BD000038B5040094F83E0094F83F2088
:1005A00094F8443094F84550002910D1C0B2012885
:1005B00002D1DBB2012B01D0012073E0022084F8CC
:1005C0003E00C0B2022084F84400C0B230E00429EA
:1005D00010D1D2B2012A02D1EDB2012D01D00120F9
:1005E00060E0022084F83F00C0B2022084F8450099
:1005F000C0B21DE0C0B2012808D1D2B2012A05D193
:10060000DBB2012B02D1EDB2012D01D0012049E076
:10061000022084F83E00C0B2022084F83F00C0B23D
:10062000022084F84400C0B2022084F84500C0B221
:10063000002902D004290CD017E0012200212068F3
:1006400000F0A4FC2068C06850F002002168C86077
:1006500021E001220421206800F098FC2068C06895
:1006600050F004002168C86015E0012200212068D4
:1006700000F08CFC01220421206800F087FC206837
:10068000C06850F002002168C8602068C06850F05F
:1006900004002168C8602068006850F001002168EB
:1006A0000860002032BD0000F8BFFEFFFCFCFFFF29
:1006B000F3F3FFFF0F0FFFFF10B504002068006980
:1006C00080071AD52068C068800716D57FF0020021
:1006D00021680861012020772068806910F0030FED
:1006E00003D0200001F04DF905E0200001F0A1F950
:1006F000200001F09FF90020207720680069400762
:100700001AD52068C068400716D57FF0040021681C
:100710000861022020772068806910F4407F03D0B0
:10072000200001F02EF905E0200001F082F9200000
:1007300001F080F9002020772068006900071AD5B1
:100740002068C068000716D57FF00800216808619E
:10075000042020772068C06910F0030F03D0200028
:1007600001F00FF905E0200001F063F9200001F02D
:1007700061F90020207720680069C0061AD520683A
:10078000C068C00616D57FF01000216808610820F7
:1007900020772068C06910F4407F03D0200001F06A
:1007A000F0F805E0200001F044F9200001F042F9E2
:1007B0000020207720680069C0070AD52068C0683B
:1007C000C00706D57FF0010021680861200001F014
:1007D000EAF82068006900060AD52068C0680006AB
:1007E00006D57FF0800021680861200001F023F920
:1007F00020680069C0050AD52068C068000606D5D3
:100800007FF4807021680861200001F015F92068EC
:10081000006940060AD52068C068400606D57FF00A
:10082000400021680861200001F007F92068006994
:1008300080060AD52068C068800606D57FF02000B3
:1008400021680861200001F0F9F810BD38B50400F6
:100850000D0094F83C00012801D10220A0E0012005
:1008600084F83C00002A0AD0042A1FD0082A35D078
:100870000C2A4AD0102A60D0142A75D08CE02900A6
:10088000206800F08DF92068806950F00800216828
:1008900088612068806930F00400216888612068E0
:1008A0008169286901432068816175E02900206819
:1008B00000F0C4F92068806950F400602168886104
:1008C0002068806930F480602168886120688069D0
:1008D000296950EA0120216888615DE029002068CB
:1008E00000F0F0F92068C06950F008002168C86184
:1008F0002068C06930F004002168C8612068C169BF
:10090000286901432068C16146E02900206800F0A1
:1009100019FA2068C06950F400602168C861206835
:10092000C06930F480602168C8612068C0692969A5
:1009300050EA01202168C8612EE02900206800F0FB
:1009400030FA2068406D50F0080021684865206842
:10095000406D30F00400216848652068416D2869C9
:1009600001432068416517E02900206800F045FA3E
:100970002068406D50F40060216848652068406D33
:1009800030F48060216848652068406D296950EA2C
:10099000012021684865FFE7002084F83C00002022
:1009A00032BD10B5040094F83C00012801D10220AA
:1009B0006BE0012084F83C00022084F83D002068B0
:1009C0008268DFF82C05024032F47F4220688260A2
:1009D000086800284DD010284BD0202849D0302856
:1009E00047D040283BD0502825D060282DD07028F3
:1009F00007D0B0F5805F03D0B0F5005F0ED03DE0CA
:100A00003CE0CB684A688968206800F0B4FA206846
:100A1000806850F07700216888602FE0CB684A68D2
:100A20008968206800F0A7FA2068806850F4804048
:100A30002168886022E0CA684968206800F06EFA80
:100A40005021206800F08FFA18E0CA6849682068D1
:100A500000F076FA6021206800F085FA0EE0CA689E
:100A60004968206800F05AFA4021206800F07BFABB
:100A700004E00968206800F076FAFFE7012084F8B6
:100A80003D00002084F83C00002010BD10B504009B
:100A900094F83C00012801D1022025E0012084F8CF
:100AA0003C00022084F83D00200000F0D3F900282B
:100AB00007D0012084F83D00002084F83C0001208C
:100AC00012E02068C06830F040002168C8602068EB
:100AD000C06830F480402168C860012084F83D007F
:100AE000002084F83C00002010BD10B40468DFF83A
:100AF000043498420ED0B0F1804F0BD0DFF8F823C9
:100B0000904207D0DFF8F423904203D0DFF8F023BF
:100B1000904203D134F070044A68144398421AD0CA
:100B2000B0F1804F17D0DFF8D023904213D0DFF818
:100B3000CC2390420FD0DFF8C82390420BD0DFF8CF
:100B4000C423904207D0DFF8C023904203D0DFF8DF
:100B5000BC23904203D134F44074CA68144334F087
:100B600080044A69144304608A68C2620A68826227
:100B700098420FD0DFF8882390420BD0DFF884230F
:100B8000904207D0DFF88023904203D0DFF87C2327
:100B9000904201D1096901630121416110BC704794
:100BA00070B4026A520852000262056A436884699E
:100BB000DFF85C231440A408A4000A68144335F04D
:100BC00002058A681543DFF82C63B0420FD0DFF8C6
:100BD000302390420BD0DFF82C23904207D0DFF86F
:100BE0002823904203D0DFF82423904205D135F02A
:100BF0000805CA68154335F00405B0420FD0DFF888
:100C0000002390420BD0DFF8FC22904207D0DFF89F
:100C1000F822904203D0DFF8F422904207D133F457
:100C2000807333F400734A6913438A691343436042
:100C3000846149684163056270BC704770B4026AA0
:100C400032F010020262056A43688469DFF8C42248
:100C5000144034F440740A6854EA022435F0200544
:100C60008A6855EA0215DFF88C22904203D0DFF83B
:100C70009062B04206D135F08005CE6855EA06157F
:100C800035F0400590420CD0DFF87422904208D035
:100C90009C4A904205D09C4A904202D09B4A904286
:100CA00009D133F4806333F400634A6953EA820361
:100CB0008A6953EA820343608461496881630562FB
:100CC00070BC704770B4026A32F480720262056AC6
:100CD0004368C4698E4A1440A408A4000A681443F7
:100CE00035F400758A6855EA0225824A904202D09E
:100CF000834EB04206D135F40065CE6855EA06252C
:100D000035F4806590420BD07D4A904208D07D4AF0
:100D1000904205D07C4A904202D07C4A904209D150
:100D200033F4805333F400534A6953EA02138A6957
:100D300053EA02134360C4614968C163056270BC31
:100D40007047000030B4026A32F480520262036AD3
:100D50004568C4696F4A144034F440740A6854EA20
:100D6000022433F400538A6853EA0233614A904202
:100D70000BD0634A904208D0624A904205D0624A42
:100D8000904202D0614A904204D135F480454A69CC
:100D900055EA82154560C46149680164036230BC4C
:100DA000704730B4026A32F480320262036A4568E6
:100DB000446D574A14400A68144333F400338A6878
:100DC00053EA02434B4A90420BD04D4A904208D01E
:100DD0004C4A904205D04C4A904202D04B4A904235
:100DE00004D135F480354A6955EA022545604465E9
:100DF00049688165036230BC704730B4026A32F4DE
:100E000080120262036A4568446D424A14400A68CF
:100E100054EA022433F400138A6853EA0253354A31
:100E200090420BD0364A904208D0364A904205D0C4
:100E3000354A904202D0354A904204D135F480259B
:100E40004A6955EA8225456044654968C16503627F
:100E500030BC704710B50268936833F070034A687D
:100E600013432D4A13400A681343026893604A688B
:100E7000002A39D0102A37D0202A35D0302A33D052
:100E8000402A0CD0502A23D0602A27D0702A2CD197
:100E90000B698A68C968006800F06DF825E00A6887
:100EA000052A01D1012021E00268136A0268126A52
:100EB00052085200046822620268926932F0F0021D
:100EC000096952EA011201688A61006803620CE054
:100ED0000A698968006800F021F806E00A698968F3
:100EE000006800F02DF800E0FFE7002010BD0000D2
:100EF00088FFFEFF002C0140000400400008004075
:100F000000340140004001400044014000480140DD
:100F10008FFFFEFFFF8FFFFEF8FFFEFF10B4046A95
:100F2000036A5B085B000362836933F0F00353EAF2
:100F3000021334F00A0421438361016210BC70473C
:100F400010B4036A33F0100303628369046A33F454
:100F5000704353EA023334F0A00454EA011483616D
:100F6000046210BC7047826832F0700251F00701D1
:100F700011438160704710B4846834F47F44114396
:100F800051EA03212143816010BC704710B4012451
:100F900011F01F0314FA03F3046A34EA0303036233
:100FA000036A11F01F0112FA01F11943016210BC2A
:100FB000704730B4002513E050F8042BD30744BF2A
:100FC000A9F101039A18091F042942F8045BFAD217
:100FD00013468C0744BF15809B1CC90748BF1D7072
:100FE00050F8041B0029E7D130BC704718B595B004
:100FF0000C220021684600F022FD1C22002103A8DB
:1010000000F01DFD2C2200210AA800F018FDDFF8D9
:101010006447DFF864072060092060600020A0605A
:101020004FF4B470E0600020206100206061002077
:10103000A0612000FFF754F9002801D000F0F8FC6F
:1010400000200090002001900020029069462000BE
:1010500000F000FD002801D000F0EAFC60200390C1
:1010600000200490002005900020069000200790AA
:101070000020089000200990002203A92000FFF71B
:10108000E5FB002801D000F0D3FC042203A92000D6
:10109000FFF7DCFB002801D000F0CAFC082203A9FE
:1010A0002000FFF7D3FB002801D000F0C1FC0C2288
:1010B00003A92000FFF7CAFB002801D000F0B8FC0C
:1010C00000200A9000200B9000200C9000200D9032
:1010D00000200E904FF400500F9000201090002040
:1010E00011905FF000701290002013900020149077
:1010F0000AA9200000F0F7FC002801D000F098FCBD
:10110000200000F0F1FA16B010BD18B587B010221B
:10111000002103A800F093FC0C220021684600F097
:101120008EFCDFF858465FF080402060472060600A
:101130000020A06042F21070E060002020610020DA
:10114000A0612000FFF720F8002801D000F070FC1B
:101150004FF48050039003A92000FFF722FC0028E1
:1011600001D000F065FC002000900020029069464C
:10117000200000F06FFC002801D000F059FC08B0FE
:1011800010BD10B58CB02422002103A800F057FC3C
:101190000C220021684600F052FCDFF8E445DFF83D
:1011A000E4052060002060600020A0600020E06076
:1011B000002020610020A061012003900020049005
:1011C0000120059000200690002007900020089044
:1011D0000120099000200A9000200B9003A9200014
:1011E000FFF770F9002801D000F022FC00200090E9
:1011F000002002906946200000F02CFC002801D05D
:1012000000F016FC0CB010BD10B588B014220021FF
:1012100003A800F014FC0C220021684600F00FFC2B
:10122000DFF86445DFF8640520600120606000207D
:10123000A0600020E060002020610020A06120006C
:10124000FEF7A2FF002801D000F0F2FB0720039078
:101250000020049003A92000FFF718FC002801D00B
:1012600000F0E6FB0020009000200290694620007C
:1012700000F0F0FB002801D000F0DAFB08B010BD50
:101280001FB50C220021684600F0D9FBDFF80045AD
:10129000DFF800052060472060600020A06000208B
:1012A000E0600020A0612000FEF76EFF002801D062
:1012B00000F0BEFB00200090002002906946200054
:1012C00000F0C8FB002801D000F0B2FB1FBD18B52C
:1012D00095B00C220021684600F0B1FB1C220021D1
:1012E00003A800F0ACFB2C2200210AA800F0A7FB09
:1012F000DFF8A444DFF8A404206009206060002027
:10130000A0604FF4B470E0600020206100206061B4
:101310000020A0612000FEF7E3FF002801D000F0CC
:1013200087FB002000900020019000200290694679
:10133000200000F08FFB002801D000F079FB602036
:1013400003900020049000200590002006900020CB
:1013500007900020089000200990002203A9200097
:10136000FFF774FA002801D000F062FB042203A901
:101370002000FFF76BFA002801D000F059FB08228B
:1013800003A92000FFF762FA002801D000F050FB0B
:101390000C2203A92000FFF759FA002801D000F021
:1013A00047FB00200A9000200B9000200C900020AA
:1013B0000D9000200E904FF400500F9000201090E0
:1013C000002011905FF00070129000201390002018
:1013D00014900AA9200000F086FB002801D000F03C
:1013E00027FB200000F080F916B010BD80B5DFF8B3
:1013F000B003DFF8B013016000214160002181607B
:101400000021C16000210161002141610021816151
:10141000FEF7BAFE002801D000F00AFB01BD80B53E
:10142000DFF88403DFF884130160002141600021AC
:1014300081600021C1600021016100214161002122
:101440008161FEF7A1FE002801D000F0F1FA01BD94
:1014500010B586B0040014220021684600F0EFFAAF
:101460002068DFF8141388422DD1DFF844030168A7
:1014700051F400610160006810F400600590059867
:10148000DFF83003016851F400310160006810F4A6
:101490000030059005984020009002200190002027
:1014A0000290002003900620049069465FF090406F
:1014B00000F06CFB002205211A2000F0ABFC1A2082
:1014C00000F0B9FC38E02068DFF8D012884233D150
:1014D000DFF8DC02016851F400510160006810F48B
:1014E000005005900598DFF8CC02016851F4802186
:1014F0000160006810F4802005900598402000905D
:101500000220019000200290002003900A20049005
:10151000DFF8A4426946200000F038FB80200090EC
:1015200002200190002002900020039005200490EA
:101530006946200000F02AFB06B010BD10B586B049
:10154000040014220021684600F079FA2068B0F106
:10155000804F2BD1DFF86402016851F00101016076
:10156000006810F00100059005989248016851F458
:1015700080110160006810F4801005900598982093
:101580000090022001900020029000200390022091
:10159000049069468A4800F0F9FA002205211C20CF
:1015A00000F038FC1C2000F046FC6BE02068774916
:1015B000884212D18148016851F00401016000683D
:1015C00010F0040005900598002205211E2000F06F
:1015D00021FC1E2000F02FFC54E020686D49884259
:1015E00012D17648016851F010010160006810F0D6
:1015F00010000590059800220521362000F00AFC15
:10160000362000F018FC3DE02068664988420AD187
:101610006748016851F400310160006810F400303F
:10162000059005982EE02068604988422AD16048DC
:10163000016851F480210160006810F48020059059
:1016400005985C48016851F400310160006810F4AD
:101650000030059005988020009002200190002025
:101660000290002003900120049069465FF09040B2
:1016700000F08CFA002205211A2000F0CBFB1A2082
:1016800000F0D9FB06B010BD10B586B004001422DE
:10169000002101A800F0D3F920683A49884221D1FD
:1016A0004648016851F002010160006810F0020034
:1016B000009000983F48016851F480210160006863
:1016C00010F48020009000983020019002200290B9
:1016D00000200390002004900220059001A93648C4
:1016E00000F054FA06B010BD10B586B00400142204
:1016F0000021684600F0A3F920681F49884219D1EB
:101700002C48016851F400110160006810F40010C9
:10171000059005984FF4D4400090022001900020DD
:10172000029000200390022004906946254800F0B2
:101730002DFA1CE020681949884218D11D4801681B
:1017400051F400210160006810F400200590059814
:101750004FF4707000900220019000200290002051
:101760000390042004906946174800F00FFA06B071
:1017700010BD0000E4690020002C0140306A002008
:101780007C6A002000040040C86A00200008004075
:10179000146B002000100040606B002000340140FA
:1017A000AC6B002000440140F86B00200048014071
:1017B0001810024014100240000400481C1002409F
:1017C000000C0048001000480008004880B585481B
:1017D0000090854B854A8649864800F077FD86480B
:1017E00000F03DFE854800F03AFE854800F037FEE7
:1017F00001BD8448016851F0807101608248016830
:1018000051F00101016070473EB500F03FFE00F06D
:1018100065F800F04DFE00F039FF00F04DFF00F0DC
:10182000C2FF01F08DF801F0EFF8FFF7DFFBFFF7E3
:101830006CFCFFF7A6FCFFF74AFD01F049F901F047
:10184000A9F901F0C4F901F0DFF9FFF7DDFCFFF7BA
:1018500017FDFFF7CBFDFFF7E2FDFFF7CAFF6B4C6B
:101860006B4D2900200001F0A5FA2068002801D165
:10187000012000E00020216811F1010F01D10121B8
:1018800000E00021C0B2C9B20843624909780843A8
:10189000002817D05FF4E13020600D202071002077
:1018A000A0604FF49660E060C82020610120606174
:1018B0000295210084B06846182201F0F1FA0FBCAD
:1018C00001F058FA4B48544908604FF4FA7001F09F
:1018D0002BFB01F046FB01F089FDFEE710B59EB041
:1018E0002821002205AC200001F0D6FD14210022A1
:1018F0006C46200001F0D0FD3C2100220FAC2000FE
:1019000001F0CAFD012005905FF4803006900021AF
:1019100007910121099102210C910D905FF4801033
:101920000E9005A801F0ECFD002801D000F080F831
:101930000F20009002200190002002904FF4806060
:101940000390002004900221684602F013F9002859
:1019500001D000F06DF831480F90002012904FF444
:101960008070189000201D9000201B9000201C907B
:101970000FA802F075FA002801D000F059F81EB047
:1019800010BD80B50068B0F1804F05D122490868CC
:1019900009680968896C884701BD80B5002116482F
:1019A00000F051FD01BD10B5040020681C498842BB
:1019B00007D1194A1B480168106812681268526DF5
:1019C000904720681849884205D11349086809687A
:1019D0000968096D884720681449884201D102F0DE
:1019E00067FB10BD7C6A0020306A0020E46900209B
:1019F000606B0020D4670020186D0020486D002027
:101A0000786D0020FCED00E0001000E008000020F0
:101A100000FC0308046F0020886E00208230020062
:101A2000000800402408004000100040001400405E
:101A3000704770477047704770477047704710B5E0
:101A4000044610460A460146204601F025FD204680
:101A500010BD000070B490F83C20012A01D1022092
:101A60003FE0012280F83C20022280F83D200268FD
:101A7000546802689368404D0268AA4203D0026825
:101A8000404EB24203D134F470044A68144334F037
:101A900070040A681443026854600268AA4213D0B2
:101AA0000268B2F1804F0FD00268344CA2420BD0D2
:101AB0000268334CA24207D00268324CA24203D0E3
:101AC0000268314CA24205D133F0800389680B4390
:101AD00001688B60012180F83D10002180F83C10E6
:101AE000002070BC704710B4002390F83C20012AFD
:101AF00001D102203EE0012280F83C201B0A1B029B
:101B0000CA68134333F440738A68134333F4806321
:101B10004A68134333F400630A68134333F4805371
:101B20000A69134333F400534A69134333F480437F
:101B30008A6A134333F470238A6953EA02430268C2
:101B40000D4CA24203D002680E4CA2420CD133F4D9
:101B500070034A6A53EA025333F08073CA6913432D
:101B600033F00073096A0B4301684B64002180F86D
:101B70003C10002010BC7047002C014000040040C5
:101B8000000800400034014000400140F8B4020069
:101B9000002433E0052704E0DFF8A8319A42F9D1A8
:101BA000042714F00303DBB29B009F403E43230055
:101BB0009B0845F82360DFF890512B6883434E68FB
:101BC000F60300D503432B60604D2B6883434E68BA
:101BD000B60300D503432B605D4D2B6883434E68ED
:101BE000F60200D503432B605A4D2B6883434E68A1
:101BF000B60201D5184303002B60641C0868E0405E
:101C0000002800F094800125086815FA04F31840B4
:101C10000028F2D04B68012B08D04B68022B05D06E
:101C20004B68112B02D04B68122B16D196680327F4
:101C30002300DBB25B009F40BE43CF682300DBB2D2
:101C40005B009F403E4396605368A540AB434D68A0
:101C5000C5F30015A5402B435360D6680325230028
:101C6000DBB25B0015FA03F39E438F682300DBB2FF
:101C70005B009F403E43D6604B68022B02D04B680E
:101C8000122B17D12300DB0802EB83031E6A0F27F8
:101C900014F00703DBB29B009F40BE430F6914F0B2
:101CA0000703DBB29B009F403E432300DB0802EBAF
:101CB00083031E6216682300DBB25B009D40AE43C7
:101CC0000D7915F003052300DBB25B009D402E4328
:101CD00016604B68DB0090D51F4B1D6855F0010561
:101CE0001D601B6813F001030093009B1B4D230034
:101CF0009B0855F823600F2714F00303DBB29B0009
:101D00009F40BE43B2F1904F01D1002749E7144BE9
:101D10009A4201D1012744E7124B9A4201D102278E
:101D20003FE7114B9A427FF437AF032739E7F1BC05
:101D30007047D2B2002A02D089B2816101E089B233
:101D40008162704700100048000401400404014013
:101D5000080401400C040140181002400800014032
:101D60000004004800080048000C004810F007007C
:101D7000334B1A684FF6FF010A40324951EA0021FD
:101D80000A431A6070472E480068C0F3022070476B
:101D9000010049B2002908D4012210F01F018A4035
:101DA000294940B2400941F820207047020052B250
:101DB000002A04D40901254A40B2115407E0090160
:101DC000234A40B210F00F00104400F8041C704782
:101DD00010B410F00700D0F10703052B01D3042342
:101DE00001E0D0F10703041D072C01D2002000E020
:101DF000C01E012414FA03F35B1E1940814014FA3B
:101E000000F0401E1040084310BC704780B5FFF73B
:101E1000ADFF01BD70B504000D0016000020FFF7F6
:101E2000B2FF32002900FFF7D3FF0100200040B2CB
:101E3000FFF7BCFF70BD80B540B2FFF7A9FF01BD41
:101E40000CED00E00000FA0500E100E000E400E035
:101E500018ED00E010B52DED088B0400080001001E
:101E6000C9B2652900DB64209FED714B9FED723B89
:101E70009FED712B9FED721BB0EE418AF0EE618AEF
:101E8000B0EE429AF0EE629AB0EE43AAF0EE63AA88
:101E9000B0EE44BAF0EE64BAC0B202F015F941EC0B
:101EA000100BB0EE4B4AF0EE6B4AB0EE4A3AF0EE51
:101EB0006A3AB0EE492AF0EE692AB0EE481AF0EE1E
:101EC000681A200002F03AF951EC100B02F072F996
:101ED0002085BDEC088B10BD002903D0022905D058
:101EE00002D305E0016403E0016401E00164FFE75F
:101EF000704701627047704780F85810704740681B
:101F00007047406A704780B5002141620168896C62
:101F1000884701BD0021C26D1268D1630021C26DE6
:101F2000126851630021026E1268D163012141627F
:101F3000704780B50168C96B884701BD80B5C9B2DB
:101F4000002906D001220121DFF8C803FFF7F1FEC6
:101F500005E000220121DFF8BC03FFF7EAFE01BD26
:101F6000704710B504000A2120002268526990478A
:101F70000120206401F010FFDFF89C13B0FBF1F0AA
:101F8000401EE16D0968886201F006FFDFF88813E2
:101F9000B0FBF1F0401E216E096888620021E06DFF
:101FA000FEF7DBF90421E06DFEF7D7F90821E06DBB
:101FB000FEF7D3F90C21E06DFEF7CFF90021206E7A
:101FC000FEF7CBF90421206EFEF7C7F90821206E39
:101FD000FEF7C3F90C21206EFEF7BFF9206E0068F2
:101FE000C06A401C20650021A06EFEF7D3FA0421D0
:101FF000A06EFEF7CFFA00224FF48061DFF81403E1
:10200000FFF797FEDFF8144300224FF480612000B1
:10201000FFF78FFE00221021DFF80403FFF789FE8F
:1020200001224FF400412000FFF783FE10BD0000A5
:1020300000000000008066400000000000005940E1
:10204000000000000000F03F7047DFF8D8120022C7
:102050000A60C26A012A11D0C0F02F81032A55D02C
:1020600030D3052A00F09A8074D3072A00F0DE806E
:10207000C0F0B880082A00F0FD801EE1026DC36D3B
:102080001B681A640022C36D1B689A630022036EEA
:102090001B681A640022036E1B689A63026DC36D8D
:1020A0001B68DA63028DC36D1B685A630022036EDE
:1020B0001B68DA630022036E1B685A63C26A521CF3
:1020C000C262FCE0026DC36D1B681A640022C36D1E
:1020D0001B689A63026D036E1B681A640022036E0C
:1020E0001B689A63026DC36D1B68DA63028DC36D52
:1020F0001B685A63026D036E1B68DA63028D036E00
:102100001B685A63C26A521CC262D8E0026DC36D7A
:102110001B681A640022C36D1B689A63026D036E0C
:102120001B681A640022036E1B689A630022C36D49
:102130001B68DA630022C36D1B685A63026D036E6D
:102140001B68DA63028D036E1B685A63C26A521CF5
:10215000C262B4E00022C36D1B681A64026DC36DD5
:102160001B689A63026D036E1B681A640022036E7B
:102170001B689A63028DC36D1B68DA63026DC36DC1
:102180001B685A63026D036E1B68DA63028D036E6F
:102190001B685A63C26A521CC26290E00022C36D7F
:1021A0001B681A64026DC36D1B689A63026D036E2F
:1021B0001B681A640022036E1B689A63028DC36D4C
:1021C0001B68DA63026DC36D1B685A630022036EDD
:1021D0001B68DA630022036E1B685A63C26A521CD2
:1021E000C2626CE00022C36D1B681A64026DC36D8D
:1021F0001B689A630022036E1B681A64026D036EEB
:102200001B689A63028DC36D1B68DA63026DC36D30
:102210001B685A63028D036E1B68DA63026D036EDE
:102220001B685A63C26A521CC26248E00022C36D36
:102230001B681A64026DC36D1B689A630022036EEB
:102240001B681A64026D036E1B689A630022C36DDB
:102250001B68DA630022C36D1B685A63028D036E2C
:102260001B68DA63026D036E1B685A63C26A521CF4
:10227000C26224E0026DC36D1B681A640022C36D44
:102280001B689A630022036E1B681A64026D036E5A
:102290001B689A63026DC36D1B68DA63028DC36DA0
:1022A0001B685A63028D036E1B68DA63026D036E4E
:1022B0001B685A630122C26201E00122C2620868FF
:1022C000DFF8641008607047704770472DE9F041EF
:1022D00004000D0016001F00DDF81880200001F03A
:1022E00000FF12482060002060640020A0640020ED
:1022F000E064002020654FF4C8706065012084F818
:102300005800E56526666766C4F868802000BDE869
:10231000F0810000000C004800DD6D000010004856
:1023200000080048041000E0846E00206CAF000834
:1023300010B50400606A00286BD1E069002827D03E
:10234000022830D064D22069616888421CD1206A9A
:1023500000280DD10122A18DA06AFFF7EAFC616976
:10236000A069091A216100206060012020620EE04E
:102370000022A18DA06AFFF7DCFCA069206100208B
:1023800060600020206202E06068401C60603FE006
:10239000206A012806D10022A18DA06AFFF7C9FC9E
:1023A0000020206234E02069616888422CD1206AD4
:1023B00000281DD10122A18DA06AFFF7BAFC616936
:1023C000A069091A21610020606001202062A068D4
:1023D000E168884208D1012060620020E0610020AD
:1023E000A0600020E06012E0A068401CA0600EE049
:1023F0000022A18DA06AFFF79CFCA069206100204B
:1024000060600020206202E06068401C6060FFE7BE
:1024100008E00122A18DA06AFFF78BFC002060601C
:102420000120206210BD10B5040008001100A06258
:10243000A185012289B2FFF77CFC0120206010BD3C
:10244000002141627047002242620222C261C268DA
:102450008918C1607047C161426183617047002182
:10246000016000214160002181600021C1600021E4
:1024700001614FF47A714161642181610121C1617F
:1024800001210162012141627047000080B50748C7
:10249000016851F0100101600320FFF7B7FC002034
:1024A00001F0A6FE01F0E4FE002002BD0020024083
:1024B0002DE9F84F86B0142200216846FFF7BFFAD5
:1024C0006D48016851F400110160016811F40011B8
:1024D00005910599016851F400210160016811F42A
:1024E000002105910599016851F48001016001689E
:1024F00011F4800105910599016851F400310160E2
:10250000016811F4003105910599016851F48021A9
:102510000160016811F4802105910599016851F469
:1025200080110160006810F48010059005984EF24B
:10253000100B524C002259462000FFF7FAFB41F6DF
:1025400007454F4E002229003000FFF7F2FB48F20A
:102550008057DFF83081002239004046FFF7E9FB61
:1025600040F26749DFF820A1002249465046FFF7B4
:10257000E0FB00224FF400715FF09040FFF7D9FBC1
:102580007020009000200190002002906946404693
:10259000FFF7FCFACDF800B0012001900020029076
:1025A0000020039069462000FFF7F0FA20200090F9
:1025B000002001900020029069462000FFF7E6FA13
:1025C00000950120019000200290002003906946B0
:1025D0003000FFF7DBFA0097012001900020029005
:1025E0000020039069464046FFF7D0FA4FF4985018
:1025F0000090022001900020029003200390072009
:10260000049069465046FFF7C1FACDF800900120CA
:102610000190002002900020039069465046FFF789
:10262000B5FA4FF400700090012001900020029054
:102630000020039069465FF09040FFF7A7FA08205A
:102640000090002001900020029069463000FFF7C2
:102650009DFA4FF4407000900220019000200290FB
:10266000032003900920049069463000FFF78EFA9A
:1026700007B0BDE8F08F00BF14100240000800480A
:102680000004004800100048000C004880B50948CC
:10269000016851F001010160006810F00100009034
:1026A0000098002205210B20FFF7B4FB0B20FFF759
:1026B000C2FB01BD1410024018B589B00C220021E4
:1026C00006A8FFF7BCF9182200216846FFF7B7F902
:1026D000934C5FF0A0402060002060600020A0606C
:1026E0000120206101206076002084F82000002075
:1026F000E0620120A0620020E0600420E06101208F
:1027000084F830000420606100202076002060639F
:10271000200001F0CDFD002801D0FFF789F900204D
:10272000069006A9200002F05BF9002801D0FFF70F
:102730007FF90620009001200190002003900420E2
:10274000029000200490002005906946200001F0CE
:1027500029FF002801D0FFF76BF907200090022025
:1027600001906946200001F01DFF002801D0FFF70D
:102770005FF908200090032001906946200001F0D5
:1027800011FF002801D0FFF753F909200090042021
:1027900001906946200001F005FF002801D0FFF7F5
:1027A00047F90AB010BD10B586B01822002168465E
:1027B000FFF745F95B4C5C4820600020606000201A
:1027C000A0600020206100206076002084F82000B6
:1027D0000020E0620120A0620020E0600120E061B2
:1027E000002084F830000420606100202076002062
:1027F0006063200001F05CFD002801D0FFF718F9AC
:1028000009200090012001900020039000200290F8
:1028100000200490002005906946200001F0C2FECF
:10282000002801D0FFF704F906B010BD38B586B016
:1028300004001422002101A8FFF701F92068B0F17B
:10284000A04F41D139480168491C01600068012846
:1028500009D13748016851F080510160006810F0DB
:102860008050009000983248016851F400210160C6
:10287000006810F40020009000980F2001900320C1
:1028800002900020039001A92A48FFF77FF92A4D02
:102890002A482860002068600020A8608020E86046
:1028A0004FF4807028614FF4806068612020A86137
:1028B0000020E861280002F09BF9002801D0FFF712
:1028C000B7F8A5636C6228E020681749884224D1D4
:1028D00016480168491C01600068012809D11448A4
:1028E000016851F080510160006810F08050009044
:1028F00000980F48016851F400210160006810F44D
:102900000020009000980F200190032002900020EA
:10291000039001A90748FFF739F907B030BD00005F
:10292000F86800204869002000010050606E002017
:102930001410024000080048446C002008000240C7
:102940001FB50C2200216846FFF779F82A4C2B4866
:102950002060200002F04CFA002801D0FFF768F850
:10296000002000900020019000226946200002F023
:102970008EFA002801D0FFF75BF81022694620008C
:1029800002F085FA002801D0FFF752F81FBD10B5FC
:1029900086B004001422002101A8FFF750F8206837
:1029A0001649884226D11648016851F0005101604D
:1029B000006810F00050009000981248016851F42F
:1029C00000310160006810F4003000900098302061
:1029D0000190032002900020039001A95FF0904035
:1029E000FFF7D4F8002205213620FFF713FA36202E
:1029F000FFF721FA06B010BDE06D00200074004022
:102A00001C1002401410024080B52C482C49016073
:102A10004FF482714160002181604FF4E061C16038
:102A200000210161002141614FF400718161382171
:102A3000C161002101620021416200218162072100
:102A4000C162002101630821416302F049FA0028B4
:102A500001D0FEF7EDFF01BD10B586B004001422D1
:102A6000002101A8FEF7EBFF20681549884222D11A
:102A70001448016851F480410160006810F48040FE
:102A8000009000981048016851F4802101600068AE
:102A900010F48020009000984FF4604001900220D4
:102AA000029000200390032004900520059001A9C6
:102AB0000648FFF76BF806B010BD00004068002024
:102AC000003800401C10024014100240000400486E
:102AD00080B52C482C4901605FF4E1314160002150
:102AE00081600021C160002101610C214161002150
:102AF00081610021C1610021016200214162002346
:102B00000022002102F06EFA002801D0FEF790FFAB
:102B100001BD10B586B004001422002101A8FEF703
:102B20008EFF2068184988422AD11848016851F45C
:102B300000310160006810F40030009000981448E3
:102B4000016851F400310160006810F40030009019
:102B500000980E2001900220029000200390032094
:102B600004900720059001A95FF09040FFF70EF850
:102B7000002205212620FFF74DF92620FFF75BF9FB
:102B800006B010BD50670020004400401C100240F9
:102B90001410024080B56F486F49016050214160B8
:102BA000802181607F21C16000210161002141619C
:102BB000002181610021C161002101620021416287
:102BC00002F05AFA002801D0FEF732FF01BD80B5AD
:102BD00062486349016050214160002181607F218A
:102BE000C16000210161002141610021816100215A
:102BF000C161002101620021416202F03DFA00281A
:102C000001D0FEF715FF01BD80B556485649016059
:102C100050214160002181607F21C160002101615C
:102C200000214161002181610021C1610021016217
:102C30000021416202F020FA002801D0FEF7F8FEE0
:102C400001BD10B586B00400142200216846FEF7CD
:102C5000F6FE2068404988422ED14448016851F46C
:102C600080110160016811F48011059105990168D6
:102C700051F400310160006810F4003005900598AF
:102C80004FF480400090032001900020029069469C
:102C90003748FEF77BFF4FF48070009002200190D0
:102CA00000200290002003900820049069465FF005
:102CB0009040FEF76BFF4BE02068294988422ED1F7
:102CC0002A48016851F480110160016811F48011F3
:102CD00005910599016851F400310160006810F414
:102CE0000030059005984FF400600090032001909B
:102CF0000020029069461E48FEF748FF4FF48060AE
:102D000000900220019000200290002003900820F3
:102D1000049069465FF09040FEF738FF18E02068A5
:102D20001149884214D11148016851F40031016001
:102D3000006810F4003005900598012000900320F1
:102D400001900020029069465FF09040FEF71EFF60
:102D500006B010BD886C002024000140B86C002033
:102D600030000140E86C00203400014014100240A3
:102D7000000C00480FB4F8B50C9C062606AF00F016
:102D800049F8200000F031F800250AE02800C0B220
:102D900057F820102800C0B214EB800000F046F86D
:102DA0006D1C2800C0B2B042F0D300F039F8F1BC7D
:102DB0005DF814FB30B40622002308E01C00A4B226
:102DC00051F824401D00ADB240F825405B1C1C00AA
:102DD000A4B29442F2D330BC70472348006810F08C
:102DE000010090F00100C0B2704710B51F4C21687F
:102DF00051F0020121601E490860206850F0400037
:102E00002060FFF7EAFF0028FBD0206830F00200C6
:102E1000206010BD174818490160184901607047CB
:102E20001248016851F080010160704770B50400DC
:102E30000D000E4E306850F001003060FFF7CDFFFE
:102E40000028FBD02580FFF7C8FF0028FBD0A41C7A
:102E50002D0C2580FFF7C1FF0028FBD0306840080B
:102E60004000306070BD00000C2002401020024085
:102E7000142002400420024023016745AB89EFCDB6
:102E800062B38B0708D0521E11F8013B00F8013BDA
:102E900000F024808B07F6D1830740F0208000BF2C
:102EA000103A07D330B4B1E83810103AA0E838101F
:102EB000F9D230BC530724BFB1E80810A0E80810CD
:102EC00044BF51F8043B40F8043BD20724BF31F81B
:102ED000022B20F8022B44BF0B7803707047121F9F
:102EE00017D35B0009D151F8043B20F8023B1B0CBF
:102EF000121F20F8023BF6D20BE051F8043B00F819
:102F0000013B1B0A20F8023B1B0C121F00F8013B7F
:102F1000F3D238BF121D521E24BF11F8013B00F836
:102F2000013BF8D87047000038B5040002F00AF9F8
:102F3000050014F1010F02D004480078241802F0B3
:102F400001F9401BA042FAD331BD00BF210200208D
:102F5000DFF820340360DFF8200408608020106070
:102F6000704780B58EB007A8DFF810141C22FFF759
:102F700097FF002107A800F049FADFF80414086061
:102F80006846DFF800141C22FFF78AFF002168461C
:102F900000F03CFADFF8F01308600FB000BD2DE937
:102FA000FC4102F0D5F8142000F05FFA01224FF442
:102FB00000715FF09040FEF7BCFE142000F055FA5F
:102FC00000224FF400715FF09040FEF7B2FEDFF890
:102FD000BC43206821680968496B8847DFF8B00363
:102FE0004169206822681268D2699047DFF8A453CB
:102FF000DFF8A4834FF4004241462800FFF713FA9C
:10300000DFF898634FF4005241463000FFF70BFAA7
:10301000DFF88C734FF4804241463800FFF703FA23
:1030200064234FF4FA6201213800FFF714FA3800E4
:10303000FFF706FADFF86C8301224FF48061404607
:10304000FEF777FE01224FF400614046FEF771FE65
:1030500000F0D1F9009015E0012120682268126883
:10306000D26C9047DFF84003006800F0FEF918F1D9
:103070000108DFF8380300688045EDD30121684678
:1030800000F0FEF92800FFF753F93000FFF750F980
:103090003800FFF74DF9DFF81883D8F80000012851
:1030A00007D10020C8F80000206821680968C96BB2
:1030B0008847D8F80000022807D10020C8F800008F
:1030C000206821680968096C8847D8F8000003283F
:1030D0000BD10020C8F80000B6480268B348016868
:1030E000206823681B681B6B9847D8F800000428E9
:1030F00007D10020C8F80000206821680968896BA2
:103100008847D8F800000528B8D10020C8F800008A
:103110005FF00008ADE780B59D480021009103688D
:1031200003220179002002F03FF802F08AF802F051
:1031300098F8FCE70020C0B270477FB50600080091
:1031400080B2002800D0491E0024DBB2002B02D040
:10315000012B2ED008E189B200290FD002290FD00F
:103160000DD304291CD013D306291BD019D3082949
:103170001AD018D30A2919D017D318E018E017E08D
:103180008249086809680968896A884730700FE0D1
:103190007E49086809680968496A8847307007E00D
:1031A00006E005E004E003E002E001E000E00124C5
:1031B000DBE089B2002913D002295DD03BD304297A
:1031C0005CD05AD306297BD060D3082900F0B180A7
:1031D000C0F090800A2900F0C180C0F0B680C1E044
:1031E0007078002813D1694D286829680968896AB0
:1031F000884700281ED1286829680968096C884713
:10320000002128682A681268526C904712E05F4DCE
:10321000286829680968896A884701280AD1012134
:1032200028682A681268526C9047286829680968DB
:10323000896B884797E0707800280ED1534D286835
:1032400029680968896A8847012806D10021286809
:103250002A681268126890470DE04C4D286829686A
:103260000968896A8847012805D1012128682A68E8
:1032700012681268904776E075E074E0434A71780E
:10328000106812681268526990476CE00025307827
:1032900055EA0025707805433C4A290010681268F9
:1032A0001268D26890473A49CD604348029084B092
:1032B00068461822FFF7F4FD0FBCFFF75BFD52E0F4
:1032C0000025307855EA0025707805432F4A2900FB
:1032D000106812681268126990472D490D613648CE
:1032E000029084B068461822FFF7DAFD0FBCFFF7A2
:1032F00041FD38E00025307855EA00257078054317
:10330000002D01D0012100E00021204AC9B210683F
:1033100012681268926990471D494D6126480290D3
:1033200084B068461822FFF7BBFD0FBCFFF722FDF3
:1033300019E021480290164984B068461822FFF728
:10334000AFFD0FBCFFF716FD0DE03078717851EA44
:1033500000210A2041430E48016004E070780C49C6
:10336000087100E0012400E002242000C0B204B093
:1033700070BD0000A4680020C4610020C4B0000833
:103380006C6E0020E0B00008706E0020886E002097
:1033900008000020186D002000080048486D00203B
:1033A000786D002000040048040000200000002088
:1033B000646E0020686E002000FC03080120704746
:1033C00001207047010000200A0012B2842A03D0B5
:1033D00009B2C91C091808007047EFF305800028DE
:1033E00001D0012000E00020C0B2704780B502F09B
:1033F0006FF9002002BD80B5FFF7EFFF002802D073
:1034000002F029FA01E002F022FA02BD38B584B0D8
:1034100004000D006069002815D0A069002812D0B2
:10342000B4F90800FFF7CEFFA1690291616901912B
:1034300000902B0022692168606801F0B5FF0390BD
:10344000039805B030BDB4F90800FFF7BBFF03A92E
:10345000019100902B00226992B22168606801F00E
:10346000E4FF0128ECD00020EBE780B50121B0FBA0
:10347000F1F0002800D1012002F004F9002002BD83
:1034800080B50122B1FBF2F1002900D1012102F047
:10349000A7F8002002BD000062F30F2262F31F4272
:1034A000401810F0030308D0C91A1FD3DB0748BF28
:1034B00000F8012D28BF20F8022D130030B4144667
:1034C0001546103928BF20E93C00FAD8490728BF23
:1034D00020E90C0048BF40F8042D890028BF20F8DF
:1034E000022D48BF00F8012D30BC7047C91818BF25
:1034F00000F8012DCB0728BF00F8012D7047000010
:103500002DE9F8430400002C01D1012030E320789C
:10351000C00740F1BE80DFF80009016811F00C011E
:1035200004290AD0016811F00C01082928D100688B
:1035300010F48030B0F5803F22D14FF48040B0FAD3
:1035400080F151F02001C9B24909012903D1DFF806
:10355000C418096806E0B0FA80F1B0FA80F1DFF82B
:10356000D0180968B0FA80F010F01F00C140C807F9
:1035700040F18F806068002840F08B800120F7E2E6
:103580006068B0F5803F06D1DFF88808016851F423
:103590008031016026E0606800280AD1DFF87408F5
:1035A000016831F480310160016831F480210160EB
:1035B00018E06068B0F5A02F0AD1DFF8580801685C
:1035C00051F480210160016851F48031016009E00B
:1035D000DFF84008016831F480310160016831F49E
:1035E00080210160DFF840180A6812091201A06802
:1035F00002430A606068002825D001F0A3FD0500A1
:103600004FF48040B0FA80F151F02001C9B249096D
:10361000012903D1DFF8FC17096806E0B0FA80F150
:10362000B0FA80F1DFF808180968B0FA80F010F0FD
:103630001F00C140C8072CD401F084FD401B652841
:10364000DED3032094E201F07DFD05004FF48040BD
:10365000B0FA80F151F02001C9B24909012903D122
:10366000DFF8B017096806E0B0FA80F1B0FA80F12F
:10367000DFF8BC170968B0FA80F010F01F00C140F5
:10368000C80706D501F05EFD401B6528DED3032088
:103690006EE2207880073CD5DFF87C07016811F0E6
:1036A0000C0F07D0016811F00C01082960D10068E7
:1036B000C0035DD45FF08040B0FA80F151F020018A
:1036C000C9B24909012903D1DFF84817096806E0A2
:1036D000B0FA80F1B0FA80F1DFF854170968B0FA57
:1036E00080F010F01F00C140C80704D520690128F0
:1036F00001D001203CE2DFF81C0701685FF0F852BE
:10370000B2FA82F231F0F801636913FA02F211435E
:1037100001602078000740F1C480A069002800F013
:103720009A8001205FF00041B1FA81F1DFF8FC26B8
:1037300012EB8102106001F005FD05005FF0804092
:10374000B0FA80F1B0FA80F1B0FA80F1DFF8E0165B
:103750000968B0FA80F010F01F00C140C80700F1FE
:10376000A08001F0EFFC401B0328E7D30320FFE11A
:10377000206900283ED001205FF00041B1FA81F1BC
:10378000DFF8B02612EB8102106001F0DBFC0500CF
:103790005FF08040B0FA80F151F02001C9B24909D0
:1037A000012903D1DFF86C16096806E0B0FA80F150
:1037B000B0FA80F1DFF878160968B0FA80F010F0FE
:1037C0001F00C140C80706D401F0BCFC401B032801
:1037D000DED30320CCE1DFF83C0601685FF0F8524D
:1037E000B2FA82F231F0F801636913FA02F211437E
:1037F00001608EE700205FF00041B1FA81F1DFF84F
:10380000342612EB8102106001F09CFC05005FF091
:103810008040B0FA80F151F02001C9B24909012974
:1038200003D1DFF8F015096806E0B0FA80F1B0FACC
:1038300080F1DFF8FC150968B0FA80F010F01F0085
:10384000C140C8077FF565AF01F07CFC401B032831
:10385000DDD303208CE100205FF00041B1FA81F15B
:10386000DFF8C82512EB8102106001F06BFC050047
:103870005FF08040B0FA80F1B0FA80F1B0FA80F1E8
:10388000DFF8AC150968B0FA80F010F01F00C140F5
:10389000C80706D501F056FC401B0328E8D30320D7
:1038A00066E12078400740F1B1800026DFF88855B6
:1038B0002868C00009D4286850F080502860286823
:1038C00010F08050009000980126DFF8707538687D
:1038D000C00511D4386850F48070386001F032FCB3
:1038E00080463868C00507D401F02CFCB0EB080016
:1038F0006528F6D303203BE1E068012806D1DFF814
:103900004005016851F00101016025E0E0680028F0
:103910000AD1DFF82C0501684908490001600168F7
:1039200031F00401016017E0E06805280AD1DFF8F2
:103930001005016851F004010160016851F00101B6
:10394000016009E0DFF8F8040168490849000160F6
:10395000016831F004010160E068002827D001F01F
:10396000F1FB07005FF08040B0FA80F1B0FA80F11F
:1039700051F04001C9B24909022903D1DFF8C0144E
:10398000096804E0B0FA80F1DFF8A4140968B0FA1D
:1039900080F010F01F00C140C80730D401F0D2FB06
:1039A000C01B41F289318842DCD30320E0E001F002
:1039B000C9FB07005FF08040B0FA80F1B0FA80F1F7
:1039C00051F04001C9B24909022903D1DFF870144E
:1039D000096804E0B0FA80F1DFF854140968B0FA1D
:1039E00080F010F01F00C140C80708D501F0AAFB05
:1039F000C01B41F289318842DCD30320B8E0F6B223
:103A0000012E03D1286830F080502860E06900283A
:103A100000F0AD80DFF80064306810F00C0008287A
:103A200000F09380E069022861D18027DFF80484E8
:103A30000020B7FA87F118EB8101086001F082FBE2
:103A400081464025B5FA85F050F02000C0B240090B
:103A5000012803D1DFF8BC03006806E0B5FA85F061
:103A6000B5FA85F0DFF8C8030068B5FA85F111F002
:103A70001F01C840C00707D501F064FBB0EB090087
:103A80000328DED3032073E0316831F47411606AD7
:103A90000143206A014331600120B7FA87F118EB36
:103AA0008108C8F8000001F04DFB0400B5FA85F06C
:103AB00050F02000C0B24009012803D1DFF85403C0
:103AC000006806E0B5FA85F0B5FA85F0DFF8600326
:103AD0000068B5FA85F111F01F01C840C00746D44F
:103AE00001F030FB001B0328E0D3032040E000205E
:103AF0008021B1FA81F1DFF83C2312EB81021060E2
:103B000001F020FB04004020B0FA80F151F02001C8
:103B1000C9B24909012903D1DFF8F812096806E0A2
:103B2000B0FA80F1B0FA80F1DFF804130968B0FA56
:103B300080F010F01F00C140C80718D501F002FB4B
:103B4000001B0328DFD3032012E0E069012801D124
:103B500001200DE0306810F48031226A914204D1D6
:103B600010F47010616A884201D0012000E000204A
:103B7000BDE8F2832DE9F04104000D000020002C87
:103B800001D10120D2E0DFF8BC62306810F00700FC
:103B9000A8420BD23068C008C000284330603068AB
:103BA00010F00700A84201D00120BFE02078800774
:103BB00007D5DFF864120A6832F0F002A068024309
:103BC0000A602078C00776D5606801281DD14FF4BF
:103BD0008040B0FA80F151F02001C9B249090129B1
:103BE00003D1DFF83012096806E0B0FA80F1B0FACC
:103BF00080F1DFF83C120968B0FA80F010F01F0085
:103C0000C140C8073CD4012090E0606802281BD165
:103C10004020B0FA80F151F02001C9B249090129D0
:103C200002D17C49096806E0B0FA80F1B0FA80F16F
:103C3000DFF8FC110968B0FA80F010F01F00C140F5
:103C4000C8071DD4012071E05FF08040B0FA80F118
:103C500051F02001C9B24909012902D16D49096811
:103C600005E0B0FA80F1B0FA80F171490968B0FA64
:103C700080F010F01F00C140C80701D4012055E0BA
:103C8000654F39688908890060680143396001F02F
:103C900059FA8046386810F00C006168B0EB810F6B
:103CA00009D001F04FFAB0EB080041F289318842A7
:103CB000F0D303203AE0306810F0070085420BD2C1
:103CC0003068C008C00028433060306810F007003A
:103CD000A84201D0012029E02078400706D54E49AE
:103CE0000A6832F4E062E06802430A602078000764
:103CF00007D54948016831F46051226951EAC2018F
:103D0000016000F015F8444909684F4A11F0F001CC
:103D10005FF07063B3FA83F3D940515CC840404907
:103D200008604048006800F063FA0020BDE8F081B8
:103D300010B4002000200020002000203648016838
:103D400011F00C00042802D0082802D021E03F48DE
:103D500020E03F4811F470124FF47053B3FA83F32C
:103D6000DA40805C304A12683A4B12F00F025FF082
:103D70007044B4FA84F4E2409A5CC90306D533492E
:103D8000B1FBF2F201001000484301E03249484320
:103D900000E0224810BC704721480068704780B599
:103DA000FFF7FAFF1C4909682C4A11F4E0615FF43F
:103DB0006003B3FA83F3D940515CC84002BD80B5BB
:103DC000FFF7EAFF14490968244A11F460515FF4CF
:103DD000E013B3FA83F3D940515CC84002BD0F220F
:103DE00002600D4A136813F003034360136813F075
:103DF000F0038360136813F4E063C3601268D208B1
:103E000012F4E06202610F48006810F007000860D9
:103E100070470000001002400410024000127A00B7
:103E2000AC000020A80000202C1002408004424278
:103E300024100240000042421C100240007000406A
:103E40002010024000200240B0B10008001BB70063
:103E500090B10008A0B1000800093D000CB20008B4
:103E60002DE9FC4104000020002000262068C0034A
:103E70007CD5DFF81C522868C00009D4286850F0AF
:103E800080502860286810F080500090009801262B
:103E9000DFF800723868C00511D4386850F48070BB
:103EA000386001F04FF980463868C00507D401F04A
:103EB00049F9B0EB08006528F6D30320E6E0DFF807
:103EC000D871386810F44070002842D0616811F44D
:103ED000407188423DD0386830F44070DFF8BC1142
:103EE0004FF400420123B2FA82FC11EB8C0CCCF8A7
:103EF00000300023B2FA82F211EB82010B603860CD
:103F0000C00726D501F01EF980465FF08040B0FA68
:103F100080F1B0FA80F151F04001C9B2490902299B
:103F200001D1396804E0B0FA80F1DFF87411096852
:103F3000B0FA80F010F01F00C140C80709D401F0AA
:103F400001F9B0EB080041F289318842DDD303204A
:103F50009CE0396831F44071606801433960F6B221
:103F6000012E03D1286830F0805028602078C007E7
:103F700007D5DFF830110A6892089200A068024362
:103F80000A602078800707D5DFF818110A6832F434
:103F90004032E06802430A602078400707D5DFF826
:103FA00004110A6832F44022206902430A60207832
:103FB000800607D5DFF8EC100A6832F01002E069DD
:103FC00002430A602068800307D5DFF8DC100A6826
:103FD00032F48002A06B02430A602078400607D5C5
:103FE000DFF8C0100A6832F02002206A02430A603B
:103FF0002078000707D5DFF8AC100A6832F44012C9
:10400000606902430A602078C00607D5DFF8941083
:104010000A6832F44002A06902430A602068800501
:1040200007D5DFF884100A6832F40002E06A024320
:104030000A602078000607D5DFF870100A6832F4AD
:10404000F872606A02430A602068C00507D5DFF88D
:104050005C100A6832F47852A06A02430A60206851
:10406000C00407D5DFF83C100A6832F48072206B78
:1040700002430A602068800407D5DFF828100A6828
:1040800032F40072606B02430A600020BDE8F681E2
:104090001C10024000700040201002400004424208
:1040A0002410024030100240041002402C10024044
:1040B00003480168034A127889180160704700BFFD
:1040C000B86E002021020020014648B1B0FA80F10C
:1040D0008840C91CC1F58461090501EBD021400568
:1040E000704780B500F001F802BD00214160002159
:1040F00081600521C16040F20911018240F2DC5269
:1041000042828182C28240F6B83101834FF4167137
:10411000C1614021016201214162D7210185002155
:10412000C1620221016300214163002181630021FA
:10413000C1630221016470474160704738B52DEDBD
:10414000088BB0EE418AF0EE618AB0EE429AF0EE52
:10415000629AB0EE43AAF0EE63AAB0EE44BAF0EE73
:1041600064BA51EC100B53EC182B01F035FD040030
:104170000D0051EC1B0B53EC1A2B01F02DFD22000E
:104180002B0001F09BFD04000D0051EC190B53ECCA
:10419000182B01F021FD02000B002000290001F086
:1041A0005FFE53EC1A2B01F07FFF41EC100BBDECCE
:1041B000088B31BDC1F30A5340F2FE329B1A14DD65
:1041C000D3F120034FEAE17208DDC90241EA505100
:1041D00041F00040D84080185040704703F2E13071
:1041E00010B1D24382F000407047002070470000B9
:1041F00018B587B001000020002000223720FDF70D
:1042000009FE3720FDF717FE1548016851F020011F
:104210000160006810F020000090009801A902A839
:10422000FFF7DDFDFFF7BBFD40000E49B0FBF1F0ED
:10423000401E0D4C0D49216040F2E731E1606060A5
:10424000002020610020A0602000FBF79DFF0028D7
:1042500003D12000FBF7D5FF00E0012008B010BD1E
:104260001C10024040420F009869002000140040DA
:1042700080B50D48016851F001010160006810F03F
:104280000100009000980948016851F080510160D8
:10429000006810F080500090009800220F217FF0FD
:1042A0000100FDF7B7FD01BD181002401C100240CF
:1042B00078B595B004000025002600200090002C61
:1042C00001D101205AE12069002802D094F8200091
:1042D0000028206CC00653D4206C00283DD100205B
:1042E00060640020E0640020A064002084F83C00AA
:1042F0002000FEF79BFA20688068C0002DD42000C3
:1043000000F028FC0500206CC00626D42800C0B2AE
:10431000002822D1206C30F4885050F00200206434
:104320002068806830F0405021688860206880688C
:1043300050F0805021688860DFF844020068DFF8A0
:104340004412B0FBF1F10A204143009102E00098D1
:10435000401E009000980028F9D120688068C000B5
:1043600003D52068806880000AD5206C30F00200F8
:1043700050F010002064606C50F001006064012572
:10438000206CC00600F1F1802800C0B2002840F087
:10439000EC8020688068400700F1E780206C30F4F2
:1043A000807050F0020020642068B0F1A04F04D06B
:1043B0002068DFF8D411884202D1DFF8D01101E083
:1043C000DFF8CC112068B0F1A04F04D1DFF8B801BC
:1043D000019001981EE02068DFF8AC21904204D1E2
:1043E0005FF0A0400190019814E0DFF8A801226876
:1043F000824204D1DFF8A001019001980AE022680E
:10440000DFF894319A4202D10190019802E0002035
:10441000019001982068806810F00300012804D101
:104420002068006810F0010000E00020002816D18C
:10443000019800280DD00198806810F00300012831
:1044400004D10198006810F0010000E0002000286D
:1044500005D18A6832F44032606802438A60606B3A
:10446000012802D04FF4805100E00021607E51EA23
:104470004031E0680143A06801430E4394F82000F6
:10448000012813D1607E002806D1606A401E4004D6
:1044900050F48030064309E0206C30F0020050F008
:1044A00020002064606C50F001006064A06A012864
:1044B00024D02068DFF8DC10884204D02068DFF8C0
:1044C000D810884216D1A06AB0F5307F02D14FF4DF
:1044D000E07110E0A06AB0F5807F02D14FF4307136
:1044E00009E0A06AB0F5E07F02D14FF4807102E0EC
:1044F000A16A00E0A16AE06A01430E432068806877
:1045000010F00C0F0DD12068C168DFF89000014059
:104510002068C160207E94F83010490051EA803153
:104520000E432068C168DFF8780001400E43206820
:10453000C6602069012809D12068006B00090001CC
:10454000E169491E08432168086305E02068006BA3
:10455000000900012168086300206064206C30F0CD
:10456000020050F00100206406E0206C30F00200F0
:1045700050F01000206401252800C0B216B070BDB4
:10458000AC00002040420F0000010050000300502A
:10459000000700500004005000050050FDBFFFFF61
:1045A00007C0F0FF70B495B002000B00002100209E
:1045B0000090D8680128FFD192F83C00012801D171
:1045C000022003E2012082F83C0010688068400766
:1045D00000F1F2815868052811D206201468246B76
:1045E0001F255E684643B540AC431D685E6800FB0E
:1045F00006F015FA00F020431468206340E0586884
:104600000A2813D206241068456B1F265868401FDD
:1046100010FB04F08640B5431E685868401F10FB2D
:1046200004F0864035431068456329E058680F2838
:1046300013D206241068856B1F2658680A3810FBB1
:1046400004F08640B5431E6858680A3810FB04F031
:10465000864035431068856312E006241068C56BF8
:104660001F2658680F3810FB04F08640B5431E68BB
:1046700058680F3810FB04F0864035431068C56356
:104680001068806810F00C0F40F0AB8018680A28A2
:1046900014D310688469072518680A38032610FBAC
:1046A00006F08540AC439D6818680A38032610FB65
:1046B00006F085402C43106884610FE0106844695F
:1046C00007251E6803204643B540AC439D681E681D
:1046D00003204643B5402C43106844615869146870
:1046E000E468C4F3C104E4B2640010FA04F4186985
:1046F000012806D03DD303281FD010D304282AD088
:1047000037E01068056EDFF840040540186855EA88
:1047100080652C4354F000441068046661E0106822
:10472000456EDFF824040540186855EA80652C437F
:1047300054F000441068446653E01068856EDFF85A
:1047400008040540186855EA80652C4354F000447D
:104750001068846645E01068C56EDFF8EC0305401C
:10476000186855EA80652C4354F000441068C4660C
:1047700037E01068006E10F0F8401C68B0EB846FF2
:1047800005D11068006E20F00040146820661068A3
:10479000406E10F0F8401C68B0EB846F05D11068D3
:1047A000406E20F00040146860661068806E10F063
:1047B000F8401C68B0EB846F05D11068806E20F063
:1047C00000401468A0661068C06E10F0F8401C68C5
:1047D000B0EB846F05D11068C06E20F00040146803
:1047E000E0661068806810F00300012804D11068AA
:1047F000006810F0010000E00020002840F0E18097
:10480000D86801280AD01068D0F8B040012518688F
:104810008540AC431068C0F8B04035E01068D0F86F
:10482000B0400125186885402C431068C0F8B0409E
:1048300018680A2814D3106884690725186809388D
:10484000032610FB06F08540AC439D6818680938C4
:10485000032610FB06F085402C431068846113E0AA
:104860001068446907251868401C032610FB06F0F1
:104870008540AC439D681868401C032610FB06F079
:1048800085402C43106844611068B0F1A04F03D0FC
:104890001068504CA04202D1DFF8B04201E0DFF8CE
:1048A000B0421868102802D1A06800020CD5186820
:1048B000112802D1A068C00106D51868122840F05E
:1048C0008080A06840027CD41068B0F1A04F03D172
:1048D0004048019001981AE010683E4DA84204D16A
:1048E0005FF0A0400190019811E03B4815688542B7
:1048F00003D13A480190019809E01568374EB54256
:1049000002D10190019802E0002001900198106806
:10491000806810F00300012804D11068006810F0CE
:10492000010000E00020002840D1019800280DD0AF
:104930000198806810F00300012804D101980068F4
:1049400010F0010000E0002000282FD11868102886
:1049500018D11068B0F1A04F14D1A06850F4000035
:10496000A060DFF874020068DFF87032B0FBF3F388
:104970000A20434300930098002822D00098401E4C
:104980000090F8E71868112808D11068B0F1A04F1E
:1049900004D1A06850F08070A06012E0186812285E
:1049A0000FD1A06850F48000A0600AE0106C50F0B5
:1049B00020001064012104E0106C50F0200010640D
:1049C0000121002082F83C000800C0B215B070BC84
:1049D0007047000000010050000400500005005026
:1049E00030B494B000220B68002B0368B3F1A04FE1
:1049F00004D1DFF8F4310093009B1EE00368DFF878
:104A0000E841A34204D15FF0A0430093009B14E06F
:104A1000DFF8CC3104689C4204D1DFF8C831009340
:104A2000009B0AE00468DFF8BC51AC4202D100935D
:104A3000009B02E000230093009B009B002B01D110
:104A400001207DE090F83C30012B01D1022077E07D
:104A5000012380F83C3003689B685B0766D4009BA9
:104A60009B685B0762D40368B3F1A04F04D003686E
:104A7000DFF87441A34201D1344C00E0344C0B68A0
:104A8000002B2ED0A56835F460454B681D4390F887
:104A9000303055EA4335A56003689B6813F0030383
:104AA000012B04D103681B6813F0010300E000230D
:104AB000002B40D1009B9B6813F00303012B04D112
:104AC000009B1B6813F0010300E00023002B32D190
:104AD000A568464B1D400B681D4389680D43A560C2
:104AE00029E0A16831F46041A1600168896811F092
:104AF0000301012904D10168096811F0010100E0F6
:104B00000021002917D10099896811F003010129BA
:104B100004D10099096811F0010100E00021002989
:104B200009D1A36831490B40A36004E0016C51F046
:104B3000200101640122002180F83C101000C0B265
:104B400014B030BC7047000000F0FF830003005039
:104B50000007005038B5040000202068806810F07D
:104B60000300012804D12068006810F0010000E073
:104B7000002000282ED02068806810F00D00012849
:104B80001ED12068806850F00200216888600320F0
:104B90002168086000F0D6FA050020688068C00728
:104BA00018D500F0CFFA401B0328F6D3206C50F044
:104BB00010002064606C50F00100606401200AE085
:104BC000206C50F010002064606C50F001006064B4
:104BD000012000E0002032BDAC00002040420F0068
:104BE000000400500005005000010050E0F0FFFFFD
:104BF00010B504000020002C01D1012022E0022089
:104C000084F82100206801686FF30D116268A068C4
:104C10000243E06802432069024360690243A069DD
:104C20000243E0690243114320680160200000F064
:104C3000BAF80020A063012084F82100002084F845
:104C40002000002010BD90F82110022906D0042178
:104C50008163002180F82010012017E001680968B5
:104C600031F00E01026811600168096849084900C5
:104C7000026811600122016C8A40C16B4A60012107
:104C800080F82110002180F820100020704710B516
:104C9000002490F82110022903D00421816301240B
:104CA0001BE00168096831F00E01026811600168BB
:104CB000096849084900026811600122016C8A40B4
:104CC000C16B4A60012180F82110002180F820107A
:104CD000416B002901D0416B88472000C0B210BD54
:104CE00010B5C16B0B6801680C680422016C12FAE4
:104CF00001F10B4215D0610713D5016809688906D7
:104D000005D40168096831F0040103681960016C79
:104D10008A40C16B4A60C16A002943D0C16A884792
:104D200040E00222016C12FA01F10B421BD0A107F4
:104D300019D501680968890608D40168096831F045
:104D40000A0103681960012180F82110016C8A4072
:104D5000C16B4A60002180F82010816A002921D0AF
:104D6000816A88471EE00822016C8A40134219D0EC
:104D7000210717D50168096831F00E01026811603A
:104D80000122016C8A40C16B4A60012181630121CB
:104D900080F82110002180F82010016B002901D03B
:104DA000016B884710BD01680C4A91420AD2026823
:104DB0000B498A181421B2FBF1F1890001640949F9
:104DC000C16309E0026808498A181421B2FBF1F1B5
:104DD000890001640549C16370470000080402406E
:104DE000F8FFFDBF00000240F8FBFDBF00040240D9
:104DF00010B50400002C01D101200EE0207900281C
:104E000004D1002060712000FDF7C1FD0220207157
:104E10000020206101202071002010BD10B5040089
:104E200020680068800416D52068406B800412D585
:104E300004202071206950F0010020614FF40050DF
:104E4000216848632068006830F480502168086059
:104E5000200001F0E6F920680068800016D520687F
:104E6000406B800012D504202071206950F00200B0
:104E700020615FF00050216848632068006830F0CE
:104E8000805021680860200001F0CCF910BD10B4FA
:104E9000002300234379012B01D102201EE00123CE
:104EA00043710223037103681B6840F6FE7494404B
:104EB000A3430C6849680C439440234301680B608A
:104EC00001680968C02313FA02F231EA020201689C
:104ED0000A600121017100214171002010BC70475E
:104EE00010B50400002C01D101207AE0606A00288E
:104EF00006D16068B0F5827F06D00020E06103E053
:104F000000202061002060610020A06294F85D0014
:104F1000002805D1002084F85C002000FDF79CFDEE
:104F2000022084F85D002068006830F040002168AD
:104F30000860E06840F20171884201D3002001E07E
:104F40004FF48050E168B1F5706F05D0E168B1F5BC
:104F5000E06F01D00021A162616811F48271A26842
:104F600012F404421143227C12F002021143227D0A
:104F700012F001021143A26912F400721143227F60
:104F800012F03802114394F8202012F080021143ED
:104F9000A26A12F40052114322681160A169090C3F
:104FA00011F0040194F8242012F01002114394F837
:104FB000342012F008021143E26812F470621143C7
:104FC00010F480500843216848602068C06930F4BC
:104FD00000602168C86100202066012084F85D001F
:104FE000002010BDF8B504000D0016001F00002CB5
:104FF00001D101203DE0A06F002805D1002084F8F8
:1050000074002000FDF785FD2420A067206800685B
:105010004008400021680860200001F0F4FA0128EF
:1050200001D1012025E0606A002802D0200001F0B3
:1050300023FC2068806850F48040216888602068E4
:10504000806830F40040054320688560760556EAA4
:105050000746206800686FF3194006432068066021
:105060002068006850F0010021680860200001F00D
:1050700070FCF2BD7047000038B504000025002C1C
:1050800003D094F82900C00601D5012555E0206A17
:105090000028DFF8AC00016851F0010101600068F0
:1050A00010F00100009000982000FDF7CAFD94F870
:1050B0002900002802D1002084F828006068606080
:1050C00000200090206800680090009931F0700185
:1050D000606801430091009931F08201A0680143AA
:1050E0000091009931F44021A0690143009100989A
:1050F00030F47050E16811F4705108430090009949
:1051000031F40041206901430091009931F44031AC
:10511000606901430091009931F00C01E06901439D
:105120000091009931F40071206A014300910098C8
:1051300021680860012084F829002800C0B232BD2F
:105140001810024001480068704700BFB86E002088
:1051500010B5114C00221149200001F0C1FC0028BB
:1051600001D0FCF765FC0E49200001F0D1FC0028BD
:1051700001D0FCF75DFC0B49200001F0DBFF0028AB
:1051800001D0FCF755FC200001F0CCFC002801D038
:10519000FCF74EFC10BD00BFE05C0020D0010020F9
:1051A000BC000020C001002070B5050014001A00EA
:1051B00000200800C0B2002807D00800C0B20028B4
:1051C00003D00800C0B2F82801DB022436E05E4EAE
:1051D00031702800C0B2002820D1049B5B485C4994
:1051E00008605C485C4908605C485D4908605D484F
:1051F0005D49086000205D4908605D485D490860C0
:105200005D485E4908605E485E490860DBB2210087
:10521000C9B2307801F0C2FF040000E0022420008F
:10522000C0B200280AD102F01BF9002801D10324E2
:1052300004E0554805700120544908702000C0B2B0
:1052400070BD38B50024514D2878012805D140485B
:10525000006880470020287000E006242000C0B2CB
:1052600032BD7CB5002049480078002801D00620D6
:1052700068E0684602F000F9012862D19DF800005C
:10528000002805D002281AD003D3032859D058E0AB
:1052900057E0404C404A41492000334B1B68984737
:1052A000C0B200280AD1207827490978884202D064
:1052B0002078002802D1022002F0D7F841E0384CD3
:1052C000364D286800782070364E0120307000225C
:1052D00005E013F832002178884208D0521C102AC9
:1052E0000CDA2B4B13F832000028F2D106E02A49E1
:1052F000286803EBC2025268904730702548007856
:1053000000281DD03078002812D0234800210180C9
:10531000217851F080012A680388D1540188491C02
:10532000018031782A680388D1540188491C0180A2
:1053300019480288296804480078094B1B68984777
:10534000FFE7002076BD0000056F0020E371000834
:10535000906E0020FD710008946E00207B720008A2
:105360008C6E002011720008986E00209C6E002048
:10537000DB720008A06E002065730008A46E002098
:10538000D3730008A86E0020066F002020020020C2
:1053900020000020076F0020F86E0020AC6E002077
:1053A000086F0020096F002078B585B005000B98C4
:1053B000002807D1502080F31188BFF34F8FBFF32F
:1053C0006F8FFEE70C9C002C07D1502080F31188D2
:1053D000BFF34F8FBFF36F8FFEE754260096009EFA
:1053E000542E07D0502080F31188BFF34F8FBFF3A6
:1053F0006F8FFEE7002C13D0002811D0206302200D
:1054000084F8510000200390029404A801900A98A7
:105410000090280000F042F8200000F094F801E02D
:1054200000200490049806B070BD2DE9F84384B0C4
:105430000700884616009946300080B2800002F0CE
:1054400033F80500002D0BD0542002F02DF8040095
:10545000002C01D0256304E0280002F0AFF800E042
:105460000024002C15D0002084F851000020039067
:1054700002940D9801900C9800904B46B6B2320001
:105480004146380000F00AF8200000F05CF80120E6
:1054900001E05FF0FF3005B0BDE8F0832DE9F8438F
:1054A00005001E000A9F386B00EB8200B0F1040873
:1054B0005FEAD8085FEAC80818F00700002807D09C
:1054C000502080F31188BFF34F8FBFF36F8FFEE73B
:1054D000002200E0521C102A07D2885C07EB02036E
:1054E00083F83400885C0028F4D1DDF82090002097
:1054F00087F84300B9F1070F01D35FF00609099C53
:10550000C7F82C90C7F844900020B864381D02F00A
:105510000AF917F1180002F006F93F61D9F10709FD
:10552000C7F818907F620020F864002087F85000C8
:1055300032002900404602F033F93860002C00D0D8
:105540002760BDE8F18338B5040002F0B9F9DFF84F
:1055500074140868401C0860DFF86C542868002840
:1055600006D12C60086801280DD100F049FA0AE044
:10557000DFF858040068002805D1E06A2968C96A84
:10558000884200D32C60DFF848040168491C0160A0
:10559000DFF840140A680123E06A83401A430A6076
:1055A000211DDFF83424E36A1420434302EB030097
:1055B00002F0BCF802F09EF9DFF810040068002841
:1055C0000DD02868C06AE16A884208D25FF0805036
:1055D000DFF830150860BFF34F8FBFF36F8F31BD19
:1055E00070B504000E000025002C07D1502080F378
:1055F0001188BFF34F8FBFF36F8FFEE7002E07D1E7
:10560000502080F31188BFF34F8FBFF36F8FFEE7F9
:10561000DFF840040068002807D0502080F311888C
:10562000BFF34F8FBFF36F8FFEE700F098F8DFF8FE
:1056300064040068216876182168884206D22168CF
:105640008E4209D2B04207D2012505E021688E4280
:1056500001D3B04200D201252660002D04D00021E4
:10566000361A300000F066FA00F07FF8002808D102
:105670005FF08050DFF88C140860BFF34F8FBFF3EA
:105680006F8F70BD10B504000020002C14D0DFF81F
:10569000C4030068002807D0502080F31188BFF3AE
:1056A0004F8FBFF36F8FFEE700F059F80021200005
:1056B00000F040FA00F059F8002808D15FF080505F
:1056C000DFF840140860BFF34F8FBFF36F8F10BD3A
:1056D00010B586B0002004900020039005AA03A90D
:1056E00004A8FDF735FCDFF82844049802900398DD
:1056F0000190002000900023059ADFF818140FF2A3
:10570000DD20FFF751FE20602068002801D0012035
:1057100000E00020012817D1502080F31188BFF34A
:105720004F8FBFF36F8F5FF0FF30DFF8F01308602B
:105730000120DFF8981208600020DFF85813086095
:1057400002F057F806B010BD10F1010FFAD1502049
:1057500080F31188BFF34F8FBFF36F8FFEE7DFF841
:10576000F4020168491C0160704770B500240025EF
:10577000DFF8E0623068002807D1502080F31188FC
:10578000BFF34F8FBFF36F8FFEE702F099F83068D9
:10579000401E30603068002855D1DFF828020068CC
:1057A000002826D14FE0C868C46814F1180001F041
:1057B000E4FF201D01F0E1FFDFF818120A68012361
:1057C000E06A83401A430A60211DDFF80C22E36A75
:1057D0001420434302EB030001F0A8FFE06ADFF866
:1057E000E8110968C96A884203D30120DFF8401331
:1057F0000860DFF8241308680028D4D1002C01D0F9
:1058000000F06BF9DFF818633468002C0CD000F05E
:105810002AF8002803D00120DFF814130860641E62
:10582000002CF4D100203060DFF804030068002869
:1058300009D001255FF08050DFF8C8120860BFF37F
:105840004F8FBFF36F8F02F055F8280070BDDFF85F
:1058500044020068704780B502F076F80020DFF857
:105860004403006802BDF8B50025DFF8E8010068D0
:10587000002864D1DFF81C020468641C0460002C5A
:105880001AD1DFF8A01208680068002807D050205D
:1058900080F31188BFF34F8FBFF36F8FFEE7086867
:1058A000DFF8842213680B601060DFF88002016863
:1058B000491C016000F011F9DFF860623068844231
:1058C0002ED320E0381D01F058FFB86A002803D01D
:1058D00017F1180001F051FF3E490A680123F86AE8
:1058E00083401A430A60391D3B4AFB6A1420434334
:1058F00002EB030001F01AFFF86A33490968C96A2C
:10590000884200D30125DFF81C12086800680028CF
:1059100011D00868C068C76878688442D2D2306005
:10592000294800682C49C26A14204243885802283A
:105930000AD3012508E05FF0FF303060F0E7DFF8C0
:10594000E0010168491C0160DFF8E40100680028FB
:1059500000D001252800F2BD3E480068002804D090
:105960000120DFF8CC1108602AE00020DFF8C01128
:10597000086018480068B0FA80F1D1F11F011422C4
:10598000154B02FB01F01858002807D1502080F376
:105990001188BFF34F8FBFF36F8FFEE7514303EBC7
:1059A0000100416849684160416810F10802914274
:1059B00002D14168496841604068C0680249086096
:1059C00070470000CC6E0020BC6E0020D86E002016
:1059D000E86E0020D46E0020C466002080B500F080
:1059E0003BF8DFF8CC0100680228F8D35FF0805064
:1059F000DFF818110860BFF34F8FBFF36F8FEEE72A
:105A000038B5002408E0DFF8A801142101FB04F1F7
:105A1000084401F079FE641C072CF4D3DFF89441AC
:105A2000200001F071FEDFF89051280001F06CFEBB
:105A3000DFF8E40001F068FEDFF8800101F064FEA9
:105A4000314801F061FEDFF8DC000460DFF870012E
:105A5000056031BDF46E002038B515E001F030FF6F
:105A6000DFF85801C068C468201D01F086FEDFF829
:105A700038010168491E01602868401E286001F055
:105A800039FF200000F008F8DFF8385128680028B6
:105A9000E4D131BDD06E002010B5040094F851005F
:105AA000002806D1206B01F089FD200001F086FD61
:105AB00010BD94F85100012803D1200001F07EFDB3
:105AC000F6E794F851000228F2D0502080F31188B4
:105AD000BFF34F8FBFF36F8FFEE7DFF84810086802
