:020000040800F2
:1000000010730020B1B20008A5A90008A7A9000834
:10001000A9A90008ABA90008ADA9000800000000CC
:1000200000000000000000000000000069880008D7
:10003000AFA900080000000011880008FD79000841
:1000400005B3000809B300080DB3000811B3000898
:1000500015B3000819B300081DB3000821B3000848
:1000600025B3000829B300082DB30008B1A9000882
:1000700031B3000835B3000839B300083DB30008B8
:1000800041B3000845B3000849B300084DB3000868
:10009000BBA9000851B3000855B3000859B30008C4
:1000A0005DB3000861B30008C5A9000865B3000886
:1000B00003AA000869B300080DAA00086DB3000880
:1000C00071B3000875B3000879B300087DB3000868
:1000D00081B3000885B3000817AA000889B3000897
:1000E0008DB3000891B3000895B3000899B30008D8
:1000F0009DB30008A1B30008A5B30008A9B3000888
:10010000000000000000000000000000ADB3000887
:10011000B1B30008B5B3000867AA000877AA0008C1
:10012000B9B30008BDB30008C1B30008C5B30008E7
:10013000C9B30008CDB300080000000000000000B3
:10014000D1B30008D5B30008D9B3000800000000FF
:10015000000000000000000000000000000000009F
:100160000000000000000000DDB30008E1B300085B
:10017000E5B30008000000000000000000000000DF
:1001800000000000E9B3000810B50400002C01D104
:10019000012035E094F83D00002805D1002084F8C6
:1001A0003C00200001F0E5F9022084F83D00211D0B
:1001B000206800F00BFD012084F84800012084F83D
:1001C0003E00012084F83F00012084F84000012017
:1001D00084F84100012084F84200012084F84300A3
:1001E000012084F84400012084F84500012084F8AF
:1001F0004600012084F84700012084F83D000020DB
:1002000010BD90F83D10012901D001203DE00221F0
:1002100080F83D100168C96851F001010268D160A1
:100220000168DFF81C21914217D00168B1F1804FBD
:1002300013D00168DFF80C2191420ED00168DFF87D
:100240000821914209D00168DFF80021914204D0D1
:100250000168DFF8FC20914210D101688A68DFF85C
:10026000F4100A40062A0FD0B2F5803F0CD0016886
:10027000096851F001010068016005E00168096842
:1002800051F0010100680160002070470168C968F1
:10029000490849000268D1600168096A41F21112F7
:1002A00011420BD10168096A40F24442114205D162
:1002B000016809684908490002681160012180F855
:1002C0003D100020704710B50400002C01D1012022
:1002D00035E094F83D00002805D1002084F83C006A
:1002E000200001F00AF9022084F83D00211D206859
:1002F00000F06CFC012084F84800012084F83E00E6
:10030000012084F83F00012084F84000012084F897
:100310004100012084F84200012084F843000120BC
:1003200084F84400012084F84500012084F8460048
:10033000012084F84700012084F83D00002010BD12
:10034000002C01400004004000080040003401403F
:10035000004001400700010010B50400002C01D14D
:10036000012035E094F83D00002805D1002084F8F4
:100370003C00200001F0D7F9022084F83D00211D47
:10038000206800F023FC012084F84800012084F854
:100390003E00012084F83F00012084F84000012045
:1003A00084F84100012084F84200012084F84300D1
:1003B000012084F84400012084F84500012084F8DD
:1003C0004600012084F84700012084F83D00002009
:1003D00010BD10B50400002902D194F83E0015E0CC
:1003E000042902D194F83F0010E0082902D194F8C2
:1003F00040000BE00C2902D194F8410006E01029DE
:1004000002D194F8420001E094F84300012801D0A1
:10041000012081E0002904D1022084F83E00C0B20E
:100420001FE0042904D1022084F83F00C0B218E084
:10043000082904D1022084F84000C0B211E00C2940
:1004400004D1022084F84100C0B20AE0102904D18E
:10045000022084F84200C0B203E0022084F8430086
:10046000C0B20122206800F001FEDFF8B41020685D
:10047000884212D02068DFF8AC2090420DD020686E
:10048000DFF8A420904208D02068DFF8A82090422E
:1004900003D02068214A904201D1012000E00020D1
:1004A000C0B2002805D02068406C50F4004022689B
:1004B00050642068884217D02068B0F1804F13D074
:1004C0002068DFF8681088420ED02068DFF86010DE
:1004D000884209D02068DFF84C10884204D0206898
:1004E000DFF84410884210D120688168DFF84800A6
:1004F000014006290FD0B1F5803F0CD0206800687C
:1005000050F001002168086005E02068006850F0A4
:10051000010021680860002010BD00000048014073
:10052000002C014000340140004001400004004024
:1005300000080040004401400700010070B50400BD
:100540000D00002C01D101205EE094F83D00002850
:1005500005D1002084F83C00200001F0B4F802200E
:1005600084F83D0020688168DFF8B401014020680C
:100570008160211D206800F029FB206881682068C7
:1005800082692068036A28680143DFF89801024005
:10059000A868AE6950EA06200243DFF88C010240E9
:1005A000DFF888010240E868EE6950EA062002435D
:1005B00028692E6A360356EA0016324333F02203C6
:1005C00033F0880368686D6950EA051003432068BA
:1005D00081602068826120680362012084F84800FD
:1005E000012084F83E00C0B2012084F83F00C0B270
:1005F000012084F84400C0B2012084F84500C0B254
:10060000012084F83D00002070BD000038B50400D2
:1006100094F83E0094F83F2094F8443094F8455004
:10062000002910D1C0B2012802D1DBB2012B01D0C8
:10063000012073E0022084F83E00C0B2022084F85A
:100640004400C0B230E0042910D1D2B2012A02D154
:10065000EDB2012D01D0012060E0022084F83F00BE
:10066000C0B2022084F84500C0B21DE0C0B201282B
:1006700008D1D2B2012A05D1DBB2012B02D1EDB2F1
:10068000012D01D0012049E0022084F83E00C0B2D3
:10069000022084F83F00C0B2022084F84400C0B2B7
:1006A000022084F84500C0B2002902D004290CD0F1
:1006B00017E001220021206800F0D8FC2068C06803
:1006C00050F002002168C86021E001220421206866
:1006D00000F0CCFC2068C06850F004002168C860BD
:1006E00015E001220021206800F0C0FC0122042155
:1006F000206800F0BBFC2068C06850F00200216850
:10070000C8602068C06850F004002168C860206894
:10071000006850F0010021680860002032BD000030
:10072000F8BFFEFFFCFCFFFFF3F3FFFF0F0FFFFF1F
:1007300010B504002068006980071AD52068C068D9
:10074000800716D57FF0020021680861012020771C
:100750002068806910F0030F03D0200001F06FF9CA
:1007600005E0200001F0C3F9200001F0C1F90020EC
:1007700020772068006940071AD52068C0684007C4
:1007800016D57FF0040021680861022020772068D8
:10079000806910F4407F03D0200001F050F905E09B
:1007A000200001F0A4F9200001F0A2F90020207738
:1007B0002068006900071AD52068C068000716D5B0
:1007C0007FF0080021680861042020772068C06954
:1007D00010F0030F03D0200001F031F905E02000F4
:1007E00001F085F9200001F083F9002020772068CE
:1007F0000069C0061AD52068C068C00616D57FF00B
:10080000100021680861082020772068C06910F472
:10081000407F03D0200001F012F905E0200001F034
:1008200066F9200001F064F9002020772068006953
:10083000C0070AD52068C068C00706D57FF0010050
:1008400021680861200001F00CF9206800690006A9
:100850000AD52068C068000606D57FF080002168B0
:100860000861200001F045F920680069C0050AD53B
:100870002068C068000606D57FF480702168086192
:10088000200001F037F92068006940060AD5206889
:10089000C068400606D57FF040002168086120004E
:1008A00001F029F92068006980060AD52068C0682F
:1008B000800606D57FF0200021680861200001F045
:1008C0001BF910BD10B5040094F83C00012801D1BB
:1008D00002202BE0012084F83C00002A0AD0042AE0
:1008E0000CD0082A0ED00C2A10D0102A12D0142AAC
:1008F00014D017E0206800F0C4F913E0206800F07D
:100900000EFA0FE0206800F04EFA0BE0206800F0CD
:100910008AFA07E0206800F0B5FA03E0206800F0EA
:10092000DDFAFFE7002084F83C00002010BD38B558
:1009300004000D0094F83C00012801D10220A0E041
:10094000012084F83C00002A0AD0042A1FD0082A7B
:1009500035D00C2A4AD0102A60D0142A75D08CE0E9
:100960002900206800F08DF92068806950F00800A7
:10097000216888612068806930F0040021688861FE
:1009800020688169286901432068816175E0290038
:10099000206800F0C4F92068806950F40060216884
:1009A00088612068806930F48060216888612068EF
:1009B0008069296950EA0120216888615DE0290089
:1009C000206800F0F0F92068C06950F00800216844
:1009D000C8612068C06930F004002168C8612068DF
:1009E000C169286901432068C16146E02900206887
:1009F00000F019FA2068C06950F400602168C861ED
:100A00002068C06930F480602168C8612068C069CE
:100A1000296950EA01202168C8612EE02900206878
:100A200000F030FA2068406D50F0080021684865F9
:100A30002068406D30F00400216848652068416DF1
:100A4000286901432068416517E02900206800F00B
:100A500045FA2068406D50F40060216848652068C0
:100A6000406D30F48060216848652068406D2969D8
:100A700050EA012021684865FFE7002084F83C0027
:100A8000002032BD10B5040094F83C00012801D1CB
:100A900002206BE0012084F83C00022084F83D0035
:100AA00020688268DFF82805024032F47F4220681F
:100AB0008260086800284DD010284BD0202849D0EB
:100AC000302847D040283BD0502825D060282DD052
:100AD000702807D0B0F5805F03D0B0F5005F0ED06E
:100AE0003DE03CE0CB684A688968206800F0B3FAD2
:100AF0002068806850F07700216888602FE0CB681C
:100B00004A688968206800F0A6FA2068806850F476
:100B100080402168886022E0CA684968206800F047
:100B20006DFA5021206800F08EFA18E0CA68496812
:100B3000206800F075FA6021206800F084FA0EE069
:100B4000CA684968206800F059FA4021206800F01E
:100B50007AFA04E00968206800F075FAFFE70120DE
:100B600084F83D00002084F83C00002010BD10B542
:100B7000040094F83C00012801D1022025E0012066
:100B800084F83C00022084F83D00200000F0D3F9F6
:100B9000002807D0012084F83D00002084F83C00A4
:100BA000012012E02068C06830F040002168C86071
:100BB0002068C06830F480402168C860012084F853
:100BC0003D00002084F83C00002010BD10B40468F3
:100BD000DFF8003498420ED0B0F1804F0BD0DFF830
:100BE000F823904207D0DFF8F423904203D0DFF8D7
:100BF000F023904203D134F070044A6814439842C1
:100C00001AD0B0F1804F17D0DFF8CC23904213D028
:100C1000DFF8C82390420FD0DFF8C42390420BD0F6
:100C2000DFF8C023904207D0DFF8BC23904203D006
:100C3000DFF8B823904203D134F44074CA681443F7
:100C400034F080044A69144304608A68C2620A6806
:100C5000826298420FD0DFF8882390420BD0DFF8F1
:100C60008423904207D0DFF88023904203D0DFF83E
:100C70007C23904201D1096901630121416110BCCB
:100C8000704770B4026A520852000262056A4368F3
:100C90008469DFF85C231440A408A4000A681443A4
:100CA00035F002058A681543DFF82863B0420FD09B
:100CB000DFF82C2390420BD0DFF82823904207D096
:100CC000DFF82423904203D0DFF82023904205D19F
:100CD00035F00805CA68154335F00405B0420FD059
:100CE000DFF8FC2290420BD0DFF8F822904207D0C8
:100CF000DFF8F422904203D0DFF8F022904207D1CF
:100D000033F4807333F400734A6913438A691343DD
:100D10004360846149684163056270BC704770B488
:100D2000026A32F010020262056A43688469DFF8E1
:100D3000C422144034F440740A6854EA022435F0A2
:100D400020058A6855EA0215DFF88822904203D010
:100D5000DFF88C62B04206D135F08005CE6855EAE6
:100D6000061535F0400590420CD0DFF87422904211
:100D700008D09C4A904205D09B4A904202D09B4AA0
:100D8000904209D133F4806333F400634A6953EA33
:100D900082038A6953EA82034360846149688163FC
:100DA000056270BC704770B4026A32F480720262ED
:100DB000056A4368C4698E4A1440A408A4000A68FE
:100DC000144335F400758A6855EA0225814A904239
:100DD00002D0834EB04206D135F40065CE6855EAA4
:100DE000062535F4806590420BD07D4A904208D0AC
:100DF0007C4A904205D07C4A904202D07B4A904285
:100E000009D133F4805333F400534A6953EA02138F
:100E10008A6953EA02134360C4614968C163056289
:100E200070BC7047000030B4026A32F48052026233
:100E3000036A4568C4696F4A144034F440740A6810
:100E400054EA022433F400538A6853EA0233614AB5
:100E500090420BD0624A904208D0624A904205D03C
:100E6000614A904202D0614A904204D135F48045F3
:100E70004A6955EA82154560C461496801640362A4
:100E800030BC704730B4026A32F480320262036AC6
:100E90004568446D564A14400A68144333F40033DD
:100EA0008A6853EA02434B4A90420BD04C4A904224
:100EB00008D04C4A904205D04B4A904202D04B4A4F
:100EC000904204D135F480354A6955EA02254560DF
:100ED000446549688165036230BC704730B4026A7A
:100EE00032F480120262036A4568446D414A14403C
:100EF0000A6854EA022433F400138A6853EA02535E
:100F0000344A90420BD0364A904208D0354A90423B
:100F100005D0354A904202D0344A904204D135F48B
:100F200080254A6955EA8225456044654968C1655E
:100F3000036230BC704710B50268936833F07003E9
:100F40004A6813432C4A13400A68134302689360AB
:100F50004A68002A39D0102A37D0202A35D0302AC2
:100F600033D0402A0CD0502A23D0602A27D0702AB0
:100F70002CD10B698A68C968006800F06CF825E01C
:100F80000A68052A01D1012021E00268136A02687B
:100F9000126A52085200046822620268926932F0B2
:100FA000F002096952EA011201688A61006803626D
:100FB0000CE00A698968006800F020F806E00A6918
:100FC0008968006800F02CF800E0FFE7002010BD01
:100FD00088FFFEFF002C0140000400400008004094
:100FE00000340140004001400044014000480140FD
:100FF0008FFFFEFFFF8FFFFEF8FFFEFF10B4046AB5
:10100000036A5B085B000362836933F0F00353EA11
:10101000021334F00A0421438361016210BC70475B
:1010200010B4036A33F0100303628369046A33F473
:10103000704353EA023334F0A00454EA011483618C
:10104000046210BC7047826832F0700251F00701F0
:1010500011438160704710B4846834F47F441143B5
:1010600051EA03212143816010BC704710B4012470
:1010700011F01F0314FA03F3046A34EA0303036252
:10108000036A11F01F0112FA01F11943016210BC49
:10109000704730B4002513E050F8042BD30744BF49
:1010A000A9F101039A18091F042942F8045BFAD236
:1010B00013468C0744BF15809B1CC90748BF1D7091
:1010C00050F8041B0029E7D130BC704718B595B023
:1010D0000C220021684600F010FD1C2200210EA801
:1010E00000F00BFD2C22002103A800F006FDDFF824
:1010F0004047DFF840072060472060600020A06084
:1011000040F21F30E06000202061002060618020FC
:10111000A0612000FFF7D7F8002801D000F0E6FC1E
:10112000402000900020019000200290694620009D
:1011300000F0EEFC002801D000F0D8FC30200E902A
:1011400064200F9000201090002011900020129039
:10115000002013900020149000220EA92000FFF719
:10116000B1FB002801D000F0C1FC0020039000205A
:1011700004900020059000200690002007904FF476
:10118000005008900020099000200A905FF0007045
:101190000B9000200C9000200D9003A9200000F07F
:1011A00000FD002801D000F0A1FC200000F0FAFAB8
:1011B00016B010BD18B587B01022002103A800F0AA
:1011C0009CFC0C220021684600F097FCDFF8684682
:1011D0005FF080402060472060600020A06042F205
:1011E0001070E060002020610020A0612000FEF768
:1011F000CBFF002801D000F079FC4FF48050039021
:1012000003A92000FFF73EFC002801D000F06EFC8F
:1012100000200090002002906946200000F078FC39
:10122000002801D000F062FC08B010BD10B58CB0F1
:101230002422002103A800F060FC0C220021684653
:1012400000F05BFCDFF8F445DFF8F40520600020D7
:1012500060600020A0600020E0600020206100208D
:10126000A06101200390002004900120059000203F
:10127000069000200790002008900120099000208F
:101280000A9000200B9003A92000FFF757F90028CF
:1012900001D000F02BFC0020009000200290694655
:1012A000200000F035FC002801D000F01FFC0CB03D
:1012B00010BD10B588B01422002103A800F01DFC59
:1012C0000C220021684600F018FCDFF87845DFF8B2
:1012D00078052060012060600020A0600020E060B0
:1012E000002020610020A0612000FEF74DFF0028B3
:1012F00001D000F0FBFB072003900020049003A91D
:101300002000FFF734FC002801D000F0EFFB0020A4
:101310000090002002906946200000F0F9FB0028B0
:1013200001D000F0E3FB08B010BD1FB50C22002176
:10133000684600F0E2FBDFF81445DFF81405206092
:10134000472060600020A0600020E0600020A061D5
:101350002000FEF719FF002801D000F0C7FB002095
:101360000090002002906946200000F0D1FB002888
:1013700001D000F0BBFB1FBD18B595B00C220021B9
:10138000684600F0BAFB1C22002103A800F0B5FB60
:101390002C2200210AA800F0B0FBDFF8B844DFF8E7
:1013A000B8042060092060600020A0604FF4B47091
:1013B000E06000202061002060610020A06120002A
:1013C000FEF7CAFF002801D000F090FB002000903B
:1013D00000200190002002906946200000F098FB58
:1013E000002801D000F082FB6020039000200490D0
:1013F0000020059000200690002007900020089013
:1014000000200990002203A92000FFF790FA00288D
:1014100001D000F06BFB042203A92000FFF787FA3C
:10142000002801D000F062FB082203A92000FFF78A
:101430007EFA002801D000F059FB0C2203A92000FD
:10144000FFF775FA002801D000F050FB00200A9049
:1014500000200B9000200C9000200D9000200E909A
:101460004FF400500F9000201090002011905FF07A
:101470000070129000201390002014900AA9200000
:1014800000F08FFB002801D000F030FB200000F0BE
:1014900089F916B010BD80B5DFF8C003DFF8C013BE
:1014A000016000214160002181600021C1600021B4
:1014B00001610021416100218161FEF765FE002884
:1014C00001D000F013FB01BD80B5DFF89803DFF811
:1014D0009813016000214160002181600021C160FA
:1014E000002101610021416100218161FEF74CFE74
:1014F000002801D000F0FAFA01BD10B586B0040052
:101500001422002101A800F0F8FA2068DFF8241363
:1015100088422CD1DFF85403016851F40061016066
:10152000006810F4006000900098DFF84403016840
:1015300051F400310160006810F400300090009810
:10154000402001900220029000200390002004908F
:101550000620059001A95FF0904000F075FB002285
:1015600005211A2000F0B4FC1A2000F0C2FC06B0DD
:1015700010BD10B586B0040014220021684600F0AA
:10158000BCFA2068B0F1804F2DD1DFF8E802016885
:1015900051F001010160006810F00100059005980C
:1015A000DFF8CC02016851F480110160006810F48A
:1015B000801005900598982000900220019000204E
:1015C000029000200390022004906946DFF8A802F0
:1015D00000F03AFB002205211C2000F079FC1C20C1
:1015E00000F087FC6DE02068DFF85C12884213D1C0
:1015F000DFF88002016851F004010160006810F01A
:10160000040005900598002205211E2000F060FCD2
:101610001E2000F06EFC54E020688D49884212D1F3
:101620009448016851F010010160006810F010004A
:101630000590059800220521362000F049FC36204F
:1016400000F057FC3DE02068854988420AD1874870
:10165000016851F400310160006810F40030059019
:1016600005982EE02068804988422AD17F48016889
:1016700051F480210160006810F4802005900598E5
:101680007B48016851F400310160006810F40030BB
:101690000590059880200090022001900020029083
:1016A000002003900120049069465FF0904000F014
:1016B000CBFA002205211A2000F00AFC1A2000F0C3
:1016C00018FC06B010BD10B586B00400142200212D
:1016D00001A800F012FA20685949884221D16548D2
:1016E000016851F002010160006810F002000090F2
:1016F00000985F48016851F480210160006810F48F
:10170000802000900098302001900220029000205C
:101710000390002004900220059001A9574800F092
:1017200093FA06B010BD10B586B004001422002153
:10173000684600F0E2F920684749884230D14B48BA
:10174000016851F400510160006810F400500590E8
:1017500005984748016851F480210160006810F441
:1017600080200590059840200090022001900020E4
:101770000290002003900A200490404C694620000B
:1017800000F062FA80200090022001900020029078
:1017900000200390052004906946200000F054FAD0
:1017A00006B010BD10B586B00400142200216846B2
:1017B00000F0A3F920681F49884219D12C4801681C
:1017C00051F400110160006810F4001005900598B4
:1017D0004FF4007000900220019000200290002041
:1017E0000390022004906946254800F02DFA1CE081
:1017F00020681949884218D11D48016851F4002118
:101800000160006810F40020059005984FF4707096
:1018100000900220019000200290002003900420FC
:1018200004906946174800F00FFA06B010BD00009A
:10183000E4690020002C0140306A00207C6A00200E
:1018400000040040C86A002000080040146B00201B
:1018500000100040606B002000340140AC6B0020A1
:1018600000440140F86B002000480140181002407D
:10187000141002401C100240000C004800040048F4
:10188000001000480008004880B585480090854B4E
:10189000854A8649864800F08EFD864800F059FE4C
:1018A000854800F056FE854800F053FE01BD84488F
:1018B000016851F0807101608248016851F00101B6
:1018C000016070473EB500F05BFE00F065F800F087
:1018D00069FE00F055FF00F069FF00F0DEFF01F047
:1018E000A9F801F00BF9FFF7F1FBFFF763FCFFF735
:1018F0009DFCFFF741FD01F065F901F0C5F901F02C
:10190000E0F901F0FBF9FFF7D4FCFFF70EFDFFF75C
:10191000C2FDFFF7D9FDFFF7CAFF6B4C6B4D2900E5
:10192000200001F0C1FA2068002801D1012000E068
:101930000020216811F1010F01D1012100E00021F7
:10194000C0B2C9B20843624909780843002817D0D9
:101950005FF4E13020600D2020710020A0604FF482
:101960009660E060C820206101206061029521003E
:1019700084B06846182201F00DFB0FBC01F074FA28
:101980004B48544908604FF4FA7001F047FB01F0EE
:1019900062FB01F099FDFEE710B59EB02821002200
:1019A00005AC200001F0E6FD142100226C46200069
:1019B00001F0E0FD3C2100220FAC200001F0DAFD37
:1019C000012005905FF480300690002107910121ED
:1019D000099102210C910D905FF480100E9005A8E2
:1019E00001F0FCFD002801D000F080F80F200090ED
:1019F00002200190002002904FF4806003900020AC
:101A000004900221684602F023F9002801D000F07A
:101A10006DF831480F90002012904FF480701890AC
:101A200000201D9000201B9000201C900FA802F0A9
:101A300085FA002801D000F059F81EB010BD80B51D
:101A40000068B0F1804F05D122490868096809682B
:101A5000896C884701BD80B50021164800F06DFDF6
:101A600001BD10B5040020681C49884207D1194AFD
:101A70001B480168106812681268526D9047206810
:101A80001849884205D11349086809680968096D31
:101A9000884720681449884201D102F077FB10BDC5
:101AA0007C6A0020306A0020E4690020606B00201E
:101AB000D0670020186D0020486D0020786D002050
:101AC000FCED00E0001000E00400002000FC030832
:101AD000046F0020886E0020823002000008004061
:101AE0002408004000100040001400407047704778
:101AF0007047704770477047704710B504461046EE
:101B00000A460146204601F035FD204610BD000082
:101B100070B490F83C20012A01D102203FE001225C
:101B200080F83C20022280F83D2002685468026858
:101B30009368404D0268AA4203D00268404EB24208
:101B400003D134F470044A68144334F070040A6812
:101B50001443026854600268AA4213D00268B2F1CA
:101B6000804F0FD00268344CA2420BD00268334C35
:101B7000A24207D00268324CA24203D00268314C24
:101B8000A24205D133F0800389680B4301688B6062
:101B9000012180F83D10002180F83C10002070BC2D
:101BA000704710B4002390F83C20012A01D1022094
:101BB0003EE0012280F83C201B0A1B02CA68134346
:101BC00033F440738A68134333F480634A681343E1
:101BD00033F400630A68134333F480530A691343F0
:101BE00033F400534A69134333F480438A6A13433E
:101BF00033F470238A6953EA024302680D4CA2420F
:101C000003D002680E4CA2420CD133F470034A6A2E
:101C100053EA025333F08073CA69134333F00073FD
:101C2000096A0B4301684B64002180F83C100020D6
:101C300010BC7047002C0140000400400008004028
:101C40000034014000400140F8B40200002433E0B9
:101C5000052704E0DFF8A8319A42F9D1042714F0EF
:101C60000303DBB29B009F403E4323009B0845F8E3
:101C70002360DFF890512B6883434E68F60300D54C
:101C800003432B60604D2B6883434E68B60300D539
:101C900003432B605D4D2B6883434E68F60200D5ED
:101CA00003432B605A4D2B6883434E68B60201D51F
:101CB000184303002B60641C0868E040002800F013
:101CC00094800125086815FA04F318400028F2D022
:101CD0004B68012B08D04B68022B05D04B68112BA9
:101CE00002D04B68122B16D1966803272300DBB273
:101CF0005B009F40BE43CF682300DBB25B009F4088
:101D00003E4396605368A540AB434D68C5F300154C
:101D1000A5402B435360D66803252300DBB25B004C
:101D200015FA03F39E438F682300DBB25B009F40EC
:101D30003E43D6604B68022B02D04B68122B17D162
:101D40002300DB0802EB83031E6A0F2714F007034E
:101D5000DBB29B009F40BE430F6914F00703DBB268
:101D60009B009F403E432300DB0802EB83031E627F
:101D700016682300DBB25B009D40AE430D7915F081
:101D800003052300DBB25B009D402E4316604B68C9
:101D9000DB0090D51F4B1D6855F001051D601B68C9
:101DA00013F001030093009B1B4D23009B0855F883
:101DB00023600F2714F00303DBB29B009F40BE4358
:101DC000B2F1904F01D1002749E7144B9A4201D15B
:101DD000012744E7124B9A4201D102273FE7114BFA
:101DE0009A427FF437AF032739E7F1BC7047D2B28C
:101DF000002A02D089B2816101E089B28162704714
:101E0000001000480004014004040140080401409F
:101E10000C04014018100240080001400004004872
:101E200000080048000C004810F00700334B1A6807
:101E30004FF6FF010A40324951EA00210A431A6075
:101E400070472E480068C0F302207047010049B275
:101E5000002908D4012210F01F018A40294940B20C
:101E6000400941F820207047020052B2002A04D4F1
:101E70000901254A40B2115407E00901234A40B242
:101E800010F00F00104400F8041C704710B410F05C
:101E90000700D0F10703052B01D3042301E0D0F1A3
:101EA0000703041D072C01D2002000E0C01E0124FE
:101EB00014FA03F35B1E1940814014FA00F0401E2F
:101EC0001040084310BC704780B5FFF7ADFF01BD5F
:101ED00070B504000D0016000020FFF7B2FF3200BD
:101EE0002900FFF7D3FF0100200040B2FFF7BCFF3D
:101EF00070BD80B540B2FFF7A9FF01BD0CED00E059
:101F00000000FA0500E100E000E400E018ED00E068
:101F100010B52DED088B040008000100C9B2652939
:101F200000DB64209FED744B9FED753B9FED742BA0
:101F30009FED751BB0EE418AF0EE618AB0EE429AD9
:101F4000F0EE629AB0EE43AAF0EE63AAB0EE44BAA5
:101F5000F0EE64BAC0B202F025F941EC100BB0EE1D
:101F60004B4AF0EE6B4AB0EE4A3AF0EE6A3AB0EE07
:101F7000492AF0EE692AB0EE481AF0EE681A2000FD
:101F800002F04AF951EC100B02F082F92085BDEC09
:101F9000088B10BD002903D0022905D002D305E02B
:101FA000016403E0016401E00164FFE7704701623E
:101FB0007047704780F85C10704740687047406A0F
:101FC000704780B5002141620168896C884701BD76
:101FD0000021026E1268D1630021026E1268516303
:101FE0000021426E1268D163012141620021C16467
:101FF000704780B50168C96B884701BD80B5C9B21B
:10200000002906D001220121DFF8FC03FFF7EFFED3
:1020100005E000220121DFF8F003FFF7E8FE01BD33
:10202000704710B504000A212000226852699047C9
:102030000120206401F01EFFDFF8D013B0FBF1F0A7
:10204000401E216E0968886201F014FFDFF8BC139E
:10205000B0FBF1F0401E616E096888620021206EBD
:10206000FEF7B7F90421206EFEF7B3F90821206EC0
:10207000FEF7AFF90C21206EFEF7ABF90021606E80
:10208000FEF7A7F90421606EFEF7A3F90821606E40
:10209000FEF79FF90C21606EFEF79BF9606E0068F9
:1020A000C06A401C60650021E06EFEF7AFFA0421B3
:1020B000E06EFEF7ABFAA06EFEF7A3F800224FF435
:1020C0008061DFF84403FFF792FEDFF8444300220B
:1020D0004FF480612000FFF78AFE00221021DFF814
:1020E0003403FFF784FE01224FF400412000FFF784
:1020F0007EFE10BD00000000000000000080664071
:102100000000000000005940000000000000F03F07
:102110007047DFF8041300220A60B0F85E20012A3D
:1021200011D0C0F03E81032A59D032D3052A00F0E5
:10213000A2807AD3072A00F0EA80C0F0C280082A81
:1021400000F00B812DE1426D036E1B681A640022C2
:10215000036E1B689A630022436E1B681A64002298
:10216000436E1B689A63426D036E1B68DA63028DCF
:10217000036E1B685A630022436E1B68DA630022F9
:10218000436E1B685A63B0F85E20521CA0F85E20B4
:102190000AE1426D036E1B681A640022036E1B681D
:1021A0009A63426D436E1B681A640022436E1B687B
:1021B0009A63426D036E1B68DA63028D036E1B68BF
:1021C0005A63426D436E1B68DA63028D436E1B686F
:1021D0005A63B0F85E20521CA0F85E20E4E0426D25
:1021E000036E1B681A640022036E1B689A63426DBB
:1021F000436E1B681A640022436E1B689A630022B8
:10220000036E1B68DA630022036E1B685A63426D1B
:10221000436E1B68DA63028D436E1B685A63B0F825
:102220005E20521CA0F85E20BEE00022036E1B68F8
:102230001A64426D036E1B689A63426D436E1B689D
:102240001A640022436E1B689A63028D036E1B683A
:10225000DA63426D036E1B685A63426D436E1B68FE
:10226000DA63028D436E1B685A63B0F85E20521C1D
:10227000A0F85E2098E00022036E1B681A64426D8D
:10228000036E1B689A63426D436E1B681A640022DA
:10229000436E1B689A63028D036E1B68DA63426D9E
:1022A000036E1B685A630022436E1B68DA630022C8
:1022B000436E1B685A63B0F85E20521CA0F85E2083
:1022C00072E00022036E1B681A64426D036E1B6885
:1022D0009A630022436E1B681A64426D436E1B684A
:1022E0009A63028D036E1B68DA63426D036E1B688E
:1022F0005A63028D436E1B68DA63426D436E1B683E
:102300005A63B0F85E20521CA0F85E204CE0002218
:10231000036E1B681A64426D036E1B689A63002289
:10232000436E1B681A64426D436E1B689A630022F9
:10233000036E1B68DA630022036E1B685A63028D0A
:10234000436E1B68DA63426D436E1B685A63B0F8D4
:102350005E20521CA0F85E2026E0426D036E1B68D2
:102360001A640022036E1B689A630022436E1B6886
:102370001A64426D436E1B689A63426D036E1B685C
:10238000DA63028D036E1B685A63028D436E1B680D
:10239000DA63426D436E1B685A630122A0F85E2027
:1023A00002E00122A0F85E200868DFF870100860E3
:1023B0007047704770472DE9F04104000D0016008A
:1023C0001F00DDF81880200001F0F9FE144820609D
:1023D000002060640020A0640020E06400202065EC
:1023E000002060654FF4C870A065012084F85C008F
:1023F0000020A4F85E0025666666A766C4F86C80B7
:102400002000BDE8F0810000000C004880EE36009E
:102410000010004800080048041000E0846E00200E
:102420004CB0000810B50400606A00286BD1E06968
:10243000002827D0022830D064D220696168884201
:102440001CD1206A00280DD10122A18DA06AFFF7BE
:10245000CEFC6169A069091A216100206060012039
:1024600020620EE00022A18DA06AFFF7C0FCA069E7
:102470002061002060600020206202E06068401C53
:1024800060603FE0206A012806D10022A18DA06A89
:10249000FFF7ADFC0020206234E0206961688842CB
:1024A0002CD1206A00281DD10122A18DA06AFFF73E
:1024B0009EFC6169A069091A216100206060012009
:1024C0002062A068E168884208D101206062002093
:1024D000E0610020A0600020E06012E0A068401CE5
:1024E000A0600EE00022A18DA06AFFF780FCA06929
:1024F0002061002060600020206202E06068401CD3
:102500006060FFE708E00122A18DA06AFFF76FFC81
:10251000002060600120206210BD10B5040008009A
:102520001100A062A185012289B2FFF760FC0120A1
:10253000206010BD002141627047002242620222E9
:10254000C261C2688918C1607047C161426183611C
:10255000704700210160002141600021816000215D
:10256000C160002101614FF47A7141616421816190
:102570000121C16101210162012141627047000016
:1025800080B50748016851F0100101600320FFF792
:102590009BFC002001F09AFE01F0D8FE002002BD55
:1025A000002002402DE9F84F86B014220021684631
:1025B000FFF7A3FA6D48016851F40011016001684A
:1025C00011F4001105910599016851F40021016091
:1025D000016811F4002105910599016851F4800109
:1025E0000160016811F4800105910599016851F4B9
:1025F00000310160016811F400310591059901680D
:1026000051F480210160016811F480210591059940
:10261000016851F480110160006810F48010059089
:1026200005984EF2100B524C002259462000FFF73D
:10263000DEFB41F607454F4E002229003000FFF730
:10264000D6FB48F28057DFF830810022390040463F
:10265000FFF7CDFB40F26749DFF820A10022494691
:102660005046FFF7C4FB00224FF400715FF090402A
:10267000FFF7BDFB70200090002001900020029029
:1026800069464046FFF7E0FACDF800B0012001901E
:10269000002002900020039069462000FFF7D4FA42
:1026A0002020009000200190002002906946200028
:1026B000FFF7CAFA00950120019000200290002047
:1026C000039069463000FFF7BFFA009701200190A0
:1026D000002002900020039069464046FFF7B4FABC
:1026E0004FF49850009002200190002002900320A7
:1026F00003900720049069465046FFF7A5FACDF8ED
:102700000090012001900020029000200390694673
:102710005046FFF799FA4FF40070009001200190A5
:10272000002002900020039069465FF09040FFF780
:102730008BFA08200090002001900020029069464A
:102740003000FFF781FA4FF44070009002200190B2
:102750000020029003200390092004906946300075
:10276000FFF772FA07B0BDE8F08F00BF1410024007
:10277000000800480004004800100048000C004811
:1027800080B50948016851F001010160006810F04E
:10279000010000900098002205210B20FFF798FB14
:1027A0000B20FFF7A6FB01BD1410024018B589B03D
:1027B0000C22002106A8FFF7A0F918220021684684
:1027C000FFF79BF9934C5FF0A04020600020606011
:1027D0000020A0600120206101206076002084F8A4
:1027E00020000020E0620120A0620020E0600420C0
:1027F000E061012084F83000042060610020207630
:1028000000206063200001F0C1FD002801D0FFF727
:102810006DF90020069006A9200002F04FF900286B
:1028200001D0FFF763F906200090012001900020FD
:102830000390042002900020049000200590694637
:10284000200001F01DFF002801D0FFF74FF90720FD
:102850000090022001906946200001F011FF00283D
:1028600001D0FFF743F9082000900320019069464A
:10287000200001F005FF002801D0FFF737F90920FB
:102880000090042001906946200001F0F9FE002824
:1028900001D0FFF72BF90AB010BD10B586B0182291
:1028A00000216846FFF729F95B4C5C482060002056
:1028B00060600020A0600020206100206076002081
:1028C00084F820000020E0620120A0620020E06087
:1028D0000120E061002084F83000042060610020C5
:1028E000207600206063200001F050FD002801D018
:1028F000FFF7FCF8092000900120019000200390D0
:1029000000200290002004900020059069462000DD
:1029100001F0B6FE002801D0FFF7E8F806B010BDC0
:1029200038B586B004001422002101A8FFF7E5F8AD
:102930002068B0F1A04F41D139480168491C0160BD
:102940000068012809D13748016851F080510160C1
:10295000006810F08050009000983248016851F4EF
:1029600000210160006810F40020009000980F2002
:102970000190032002900020039001A92A48FFF74C
:1029800063F92A4D2A482860002068600020A8606A
:102990008020E8604FF4807028614FF480606861A7
:1029A0002020A8610020E861280002F08FF90028AB
:1029B00001D0FFF79BF8A5636C6228E020681749F7
:1029C000884224D116480168491C0160006801282A
:1029D00009D11448016851F080510160006810F07D
:1029E0008050009000980F48016851F40021016068
:1029F000006810F40020009000980F200190032040
:102A000002900020039001A90748FFF71DF907B0C5
:102A100030BD0000F8680020486900200001005027
:102A2000606E00201410024000080048446C002032
:102A3000080002401FB50C2200216846FFF75DF830
:102A40002A4C2B482060200002F040FA002801D0D8
:102A5000FFF74CF80020009000200190002269460A
:102A6000200002F082FA002801D0FFF73FF8102280
:102A70006946200002F079FA002801D0FFF736F805
:102A80001FBD10B586B004001422002101A8FFF775
:102A900034F820681649884226D11648016851F05A
:102AA00000510160006810F000500090009812483A
:102AB000016851F400310160006810F400300090AA
:102AC000009830200190032002900020039001A97B
:102AD0005FF09040FFF7B8F8002205213620FFF79D
:102AE000F7F93620FFF705FA06B010BDE06D0020BB
:102AF000007400401C1002401410024080B52C48A5
:102B00002C4901604FF482714160002181604FF4D3
:102B1000E061C16000210161002141614FF4007159
:102B200081613821C16100210162002141620021DF
:102B300081620721C162002101630821416302F023
:102B40003DFA002801D0FEF7D1FF01BD10B586B0D7
:102B500004001422002101A8FEF7CFFF20681549C8
:102B6000884222D11448016851F480410160006814
:102B700010F48040009000981048016851F48021C2
:102B80000160006810F48020009000984FF46040CD
:102B90000190022002900020039003200490052061
:102BA000059001A90648FFF74FF806B010BD0000D8
:102BB00040680020003800401C1002401410024001
:102BC0000004004880B52C482C4901605FF4E131D5
:102BD0004160002181600021C160002101610C2160
:102BE0004161002181610021C16100210162002158
:102BF000416200230022002102F062FA002801D085
:102C0000FEF774FF01BD10B586B004001422002148
:102C100001A8FEF772FF2068184988422AD1184897
:102C2000016851F400310160006810F40030009038
:102C300000981448016851F400310160006810F4F4
:102C40000030009000980E20019002200290002099
:102C50000390032004900720059001A95FF09040A5
:102C6000FEF7F2FF002205212620FFF731F926208A
:102C7000FFF73FF906B010BD4C670020004400404C
:102C80001C1002401410024080B56F486F4901606B
:102C900050214160802181607F21C160002101615C
:102CA00000214161002181610021C1610021016297
:102CB0000021416202F04EFA002801D0FEF716FF13
:102CC00001BD80B562486349016050214160002127
:102CD00081607F21C16000210161002141610021EB
:102CE00081610021C161002101620021416202F085
:102CF00031FA002801D0FEF7F9FE01BD80B5564833
:102D00005649016050214160002181607F21C160EE
:102D10000021016100214161002181610021C16127
:102D2000002101620021416202F014FA002801D062
:102D3000FEF7DCFE01BD10B586B0040014220021B0
:102D40006846FEF7DAFE2068404988422ED14448A2
:102D5000016851F480110160016811F4801105913E
:102D60000599016851F400310160006810F40030E9
:102D7000059005984FF480400090032001900020BA
:102D8000029069463748FEF75FFF4FF4807000906D
:102D9000022001900020029000200390082004905F
:102DA00069465FF09040FEF74FFF4BE020682949ED
:102DB00088422ED12A48016851F4801101600168CF
:102DC00011F4801105910599016851F400310160F9
:102DD000006810F40030059005984FF400600090F2
:102DE000032001900020029069461E48FEF72CFF48
:102DF0004FF480600090022001900020029000209B
:102E000003900820049069465FF09040FEF71CFF95
:102E100018E020681149884214D11148016851F422
:102E200000310160006810F4003005900598012021
:102E30000090032001900020029069465FF09040CE
:102E4000FEF702FF06B010BD886C00202400014090
:102E5000B86C002030000140E86C002034000140D4
:102E600014100240000C00480FB4F8B50C9C062664
:102E700006AF00F049F8200000F031F800250AE024
:102E80002800C0B257F820102800C0B214EB800010
:102E900000F046F86D1C2800C0B2B042F0D300F03C
:102EA00039F8F1BC5DF814FB30B40622002308E0C9
:102EB0001C00A4B251F824401D00ADB240F82540DA
:102EC0005B1C1C00A4B29442F2D330BC7047234870
:102ED000006810F0010090F00100C0B2704710B51A
:102EE0001F4C216851F0020121601E4908602068D2
:102EF00050F040002060FFF7EAFF0028FBD0206878
:102F000030F00200206010BD1748184901601849D0
:102F1000016070471248016851F0800101607047FC
:102F200070B504000D000E4E306850F001003060A6
:102F3000FFF7CDFF0028FBD02580FFF7C8FF002852
:102F4000FBD0A41C2D0C2580FFF7C1FF0028FBD06F
:102F5000306840084000306070BD00000C20024026
:102F60001020024014200240042002402301674543
:102F7000AB89EFCD62B38B0708D0521E11F8013B2D
:102F800000F8013B00F024808B07F6D1830740F066
:102F9000208000BF103A07D330B4B1E83810103A9F
:102FA000A0E83810F9D230BC530724BFB1E80810AC
:102FB000A0E8081044BF51F8043B40F8043BD20796
:102FC00024BF31F8022B20F8022B44BF0B7803708A
:102FD0007047121F17D35B0009D151F8043B20F84A
:102FE000023B1B0C121F20F8023BF6D20BE051F8FB
:102FF000043B00F8013B1B0A20F8023B1B0C121F8C
:1030000000F8013BF3D238BF121D521E24BF11F845
:10301000013B00F8013BF8D87047000038B50400C8
:1030200002F0FEF8050014F1010F02D00448007808
:10303000241802F0F5F8401BA042FAD331BD00BFBE
:103040001D020020DFF80C340360DFF80C04086078
:1030500080201060704780B58EB007A8DFF8FC13A1
:103060001C22FFF797FF002107A800F03DFADFF8C8
:10307000F01308606846DFF8EC131C22FFF78AFFA4
:103080000021684600F030FADFF8DC1308600FB06A
:1030900000BD2DE9FC4102F0C9F8142000F053FAFC
:1030A00001224FF400715FF09040FEF7A0FE142063
:1030B00000F049FA00224FF400715FF09040FEF7F3
:1030C00096FEDFF8A843206821680968496B8847A5
:1030D000DFF89C034169206822681268D269904732
:1030E000DFF89053DFF890834FF400424146280008
:1030F000FFF713FADFF884634FF4005241463000C3
:10310000FFF70BFADFF878734FF48042414638003E
:10311000FFF703FA64234FF4FA6201213800FFF746
:1031200014FA3800FFF706FADFF8588301224FF44B
:1031300080614046FEF75BFE01224FF4006140468D
:10314000FEF755FE00F0C5F900902800FFF76AF978
:103150003000FFF767F93800FFF764F9DFF82883DC
:10316000D8F80000012807D10020C8F80000206826
:1031700021680968C96B8847D8F80000022807D180
:103180000020C8F80000206821680968096C884799
:10319000D8F8000003280BD10020C8F80000BB4875
:1031A0000268BB480168206823681B681B6B98474E
:1031B000D8F80000042807D10020C8F800002068D3
:1031C00021680968896B8847D8F80000052807D16D
:1031D0000020C8F80000206821680968096C884749
:1031E0000121684600F0BAF9AFE780B5A048002198
:1031F0000091036803220179002002F043F802F0F5
:103200008EF802F09CF8FCE70020C0B270477FB552
:103210000600080080B2002800D0491E0024DBB25E
:10322000002B02D0012B35D00FE189B200290FD03D
:10323000022916D014D3042923D01AD3062922D068
:1032400020D3082921D01FD30A2920D01ED31FE064
:10325000864A0121106812681268D26C904718E003
:1032600017E08249086809680968896A88473070E8
:103270000FE07E49086809680968496A8847307024
:1032800007E006E005E004E003E002E001E000E022
:103290000124DBE089B2002913D002295DD03BD3A1
:1032A00004295CD05AD306297BD060D3082900F0CA
:1032B000B180C0F090800A2900F0C180C0F0B680D3
:1032C000C1E07078002813D1684D28682968096822
:1032D000896A884700281ED1286829680968096C0E
:1032E0008847002128682A681268526C904712E0CB
:1032F0005E4D286829680968896A884701280AD1CB
:10330000012128682A681268526C90472868296849
:103310000968896B884797E0707800280ED1534D73
:10332000286829680968896A8847012806D1002128
:1033300028682A681268126890470DE04B4D28688B
:1033400029680968896A8847012805D10121286808
:103350002A6812681268904776E075E074E0434A84
:103360007178106812681268526990476CE0002505
:10337000307855EA0025707805433C4A29001068EA
:1033800012681268D26890473949CD60414802906E
:1033900084B068461822FFF7FDFD0FBCFFF764FDFF
:1033A00052E00025307855EA0025707805432F4A11
:1033B0002900106812681268126990472C490D6143
:1033C0003448029084B068461822FFF7E3FD0FBC32
:1033D000FFF74AFD38E00025307855EA002570787F
:1033E0000543002D01D0012100E000211F4AC9B290
:1033F000106812681268926990471D494D6125480E
:10340000029084B068461822FFF7C4FD0FBCFFF796
:103410002BFD19E01F480290154984B06846182218
:10342000FFF7B8FD0FBCFFF71FFD0DE03078717896
:1034300051EA00210A2041430D48016004E0707800
:103440000B49087100E0012400E002242000C0B212
:1034500004B070BDA4680020C0610020A4B10008C1
:103460006C6E0020C0B10008706E0020886E0020D5
:1034700004000020186D002000080048486D00205E
:10348000786D002000040048646E0020686E002003
:103490000000002000FC0308012070470120704755
:1034A000010000200A0012B2842A03D009B2C91C0C
:1034B000091808007047EFF30580002801D00120AB
:1034C00000E00020C0B2704780B502F06FF9002024
:1034D00002BD80B5FFF7EFFF002802D002F029FA05
:1034E00001E002F022FA02BD38B584B004000D00FC
:1034F0006069002815D0A069002812D0B4F908002E
:10350000FFF7CEFFA16902916169019100902B0044
:1035100022692168606801F0B5FF0390039805B047
:1035200030BDB4F90800FFF7BBFF03A9019100907B
:103530002B00226992B22168606801F0E4FF012843
:10354000ECD00020EBE780B50121B0FBF1F00028C2
:1035500000D1012002F004F9002002BD80B5012253
:10356000B1FBF2F1002900D1012102F0A7F80020FF
:1035700002BD000062F30F2262F31F42401810F0F8
:10358000030308D0C91A1FD3DB0748BF00F8012D79
:1035900028BF20F8022D130030B414461546103908
:1035A00028BF20E93C00FAD8490728BF20E90C00D1
:1035B00048BF40F8042D890028BF20F8022D48BFDD
:1035C00000F8012D30BC7047C91818BF00F8012D54
:1035D000CB0728BF00F8012D704700002DE9F84304
:1035E0000400002C01D1012030E32078C00740F115
:1035F000BE80DFF80009016811F00C0104290AD02F
:10360000016811F00C01082928D1006810F48030FD
:10361000B0F5803F22D14FF48040B0FA80F151F0F4
:103620002001C9B24909012903D1DFF8C41809688A
:1036300006E0B0FA80F1B0FA80F1DFF8D01809683E
:10364000B0FA80F010F01F00C140C80740F18F8031
:103650006068002840F08B800120F7E26068B0F5D8
:10366000803F06D1DFF88808016851F4803101609D
:1036700026E0606800280AD1DFF87408016831F498
:1036800080310160016831F48021016018E06068D8
:10369000B0F5A02F0AD1DFF85808016851F4802155
:1036A0000160016851F48031016009E0DFF84008F1
:1036B000016831F480310160016831F480210160DA
:1036C000DFF840180A6812091201A06802430A6074
:1036D0006068002825D001F0A3FD05004FF480406C
:1036E000B0FA80F151F02001C9B24909012903D192
:1036F000DFF8FC17096806E0B0FA80F1B0FA80F153
:10370000DFF808180968B0FA80F010F01F00C14017
:10371000C8072CD401F084FD401B6528DED30320AC
:1037200094E201F07DFD05004FF48040B0FA80F195
:1037300051F02001C9B24909012903D1DFF8B017BE
:10374000096806E0B0FA80F1B0FA80F1DFF8BC1742
:103750000968B0FA80F010F01F00C140C80706D514
:1037600001F05EFD401B6528DED303206EE2207869
:1037700080073CD5DFF87C07016811F00C0F07D0FB
:10378000016811F00C01082960D10068C0035DD404
:103790005FF08040B0FA80F151F02001C9B24909D0
:1037A000012903D1DFF84817096806E0B0FA80F173
:1037B000B0FA80F1DFF854170968B0FA80F010F021
:1037C0001F00C140C80704D52069012801D001208D
:1037D0003CE2DFF81C0701685FF0F852B2FA82F2AF
:1037E00031F0F801636913FA02F2114301602078A5
:1037F000000740F1C480A069002800F09A800120F1
:103800005FF00041B1FA81F1DFF8FC2612EB810292
:10381000106001F005FD05005FF08040B0FA80F116
:10382000B0FA80F1B0FA80F1DFF8E0160968B0FA7A
:1038300080F010F01F00C140C80700F1A08001F027
:10384000EFFC401B0328E7D30320FFE12069002899
:103850003ED001205FF00041B1FA81F1DFF8B026DF
:1038600012EB8102106001F0DBFC05005FF080408C
:10387000B0FA80F151F02001C9B24909012903D100
:10388000DFF86C16096806E0B0FA80F1B0FA80F152
:10389000DFF878160968B0FA80F010F01F00C14018
:1038A000C80706D401F0BCFC401B0328DED303206C
:1038B000CCE1DFF83C0601685FF0F852B2FA82F220
:1038C00031F0F801636913FA02F2114301608EE7E7
:1038D00000205FF00041B1FA81F1DFF8342612EBED
:1038E0008102106001F09CFC05005FF08040B0FA9E
:1038F00080F151F02001C9B24909012903D1DFF853
:10390000F015096806E0B0FA80F1B0FA80F1DFF84E
:10391000FC150968B0FA80F010F01F00C140C8071C
:103920007FF565AF01F07CFC401B0328DDD303204D
:103930008CE100205FF00041B1FA81F1DFF8C82589
:1039400012EB8102106001F06BFC05005FF080401B
:10395000B0FA80F1B0FA80F1B0FA80F1DFF8AC157E
:103960000968B0FA80F010F01F00C140C80706D502
:1039700001F056FC401B0328E8D3032066E12078C1
:10398000400740F1B1800026DFF888552868C00064
:1039900009D4286850F080502860286810F08050C2
:1039A000009000980126DFF870753868C00511D4C2
:1039B000386850F48070386001F032FC8046386816
:1039C000C00507D401F02CFCB0EB08006528F6D345
:1039D00003203BE1E068012806D1DFF840050168DB
:1039E00051F00101016025E0E06800280AD1DFF80C
:1039F0002C050168490849000160016831F00401A3
:103A0000016017E0E06805280AD1DFF810050168B9
:103A100051F004010160016851F00101016009E009
:103A2000DFF8F8040168490849000160016831F0D5
:103A300004010160E068002827D001F0F1FB0700D5
:103A40005FF08040B0FA80F1B0FA80F151F04001AF
:103A5000C9B24909022903D1DFF8C014096804E09A
:103A6000B0FA80F1DFF8A4140968B0FA80F010F021
:103A70001F00C140C80730D401F0D2FBC01B41F287
:103A800089318842DCD30320E0E001F0C9FB070064
:103A90005FF08040B0FA80F1B0FA80F151F040015F
:103AA000C9B24909022903D1DFF87014096804E09A
:103AB000B0FA80F1DFF854140968B0FA80F010F021
:103AC0001F00C140C80708D501F0AAFBC01B41F286
:103AD00089318842DCD30320B8E0F6B2012E03D14D
:103AE000286830F080502860E069002800F0AD8040
:103AF000DFF80064306810F00C00082800F09380B4
:103B0000E069022861D18027DFF804840020B7FA39
:103B100087F118EB8101086001F082FB81464025A6
:103B2000B5FA85F050F02000C0B24009012803D159
:103B3000DFF8BC03006806E0B5FA85F0B5FA85F059
:103B4000DFF8C8030068B5FA85F111F01F01C8401D
:103B5000C00707D501F064FBB0EB09000328DED3F2
:103B6000032073E0316831F47411606A0143206A04
:103B7000014331600120B7FA87F118EB8108C8F8DA
:103B8000000001F04DFB0400B5FA85F050F0200074
:103B9000C0B24009012803D1DFF85403006806E0F1
:103BA000B5FA85F0B5FA85F0DFF860030068B5FA7C
:103BB00085F111F01F01C840C00746D401F030FB69
:103BC000001B0328E0D3032040E000208021B1FA4D
:103BD00081F1DFF83C2312EB8102106001F020FB41
:103BE00004004020B0FA80F151F02001C9B2490927
:103BF000012903D1DFF8F812096806E0B0FA80F174
:103C0000B0FA80F1DFF804130968B0FA80F010F020
:103C10001F00C140C80718D501F002FB001B032894
:103C2000DFD3032012E0E069012801D101200DE07B
:103C3000306810F48031226A914204D110F470107F
:103C4000616A884201D0012000E00020BDE8F283D3
:103C50002DE9F04104000D000020002C01D10120CD
:103C6000D2E0DFF8BC62306810F00700A8420BD247
:103C70003068C008C00028433060306810F007008A
:103C8000A84201D00120BFE02078800707D5DFF8E7
:103C900064120A6832F0F002A06802430A602078D9
:103CA000C00776D5606801281DD14FF48040B0FA76
:103CB00080F151F02001C9B24909012903D1DFF88F
:103CC0003012096806E0B0FA80F1B0FA80F1DFF84E
:103CD0003C120968B0FA80F010F01F00C140C8071C
:103CE0003CD4012090E0606802281BD14020B0FA4B
:103CF00080F151F02001C9B24909012902D17C4962
:103D0000096806E0B0FA80F1B0FA80F1DFF8FC1142
:103D10000968B0FA80F010F01F00C140C8071DD438
:103D2000012071E05FF08040B0FA80F151F0200195
:103D3000C9B24909012902D16D49096805E0B0FA03
:103D400080F1B0FA80F171490968B0FA80F010F0A2
:103D50001F00C140C80701D4012055E0654F3968F4
:103D60008908890060680143396001F059FA80468A
:103D7000386810F00C006168B0EB810F09D001F0D9
:103D80004FFAB0EB080041F289318842F0D30320AA
:103D90003AE0306810F0070085420BD23068C00866
:103DA000C00028433060306810F00700A84201D0FE
:103DB000012029E02078400706D54E490A6832F4F0
:103DC000E062E06802430A602078000707D54948AE
:103DD000016831F46051226951EAC201016000F0CA
:103DE00015F8444909684F4A11F0F0015FF070631B
:103DF000B3FA83F3D940515CC84040490860404859
:103E0000006800F063FA0020BDE8F08110B40020E3
:103E100000200020002000203648016811F00C002E
:103E2000042802D0082802D021E03F4820E03F4883
:103E300011F470124FF47053B3FA83F3DA40805CDC
:103E4000304A12683A4B12F00F025FF07044B4FA35
:103E500084F4E2409A5CC90306D53349B1FBF2F21F
:103E600001001000484301E03249484300E0224885
:103E700010BC704721480068704780B5FFF7FAFF13
:103E80001C4909682C4A11F4E0615FF46003B3FA3D
:103E900083F3D940515CC84002BD80B5FFF7EAFF0B
:103EA00014490968244A11F460515FF4E013B3FA2D
:103EB00083F3D940515CC84002BD0F2202600D4A15
:103EC000136813F003034360136813F0F003836077
:103ED000136813F4E063C3601268D20812F4E0625E
:103EE00002610F48006810F007000860704700008A
:103EF000001002400410024000127A00A8000020C6
:103F0000A40000202C1002408004424224100240F1
:103F1000000042421C10024000700040201002408D
:103F20000020024090B20008001BB70070B20008E9
:103F300080B2000800093D00ECB200082DE9FC4108
:103F400004000020002000262068C0037CD5DFF894
:103F50001C522868C00009D4286850F0805028609E
:103F6000286810F08050009000980126DFF8007259
:103F70003868C00511D4386850F48070386001F09A
:103F80004FF980463868C00507D401F049F9B0EB15
:103F900008006528F6D30320E6E0DFF8D87138681A
:103FA00010F44070002842D0616811F440718842DA
:103FB0003DD0386830F44070DFF8BC114FF4004257
:103FC0000123B2FA82FC11EB8C0CCCF800300023F8
:103FD000B2FA82F211EB82010B603860C00726D57D
:103FE00001F01EF980465FF08040B0FA80F1B0FA2F
:103FF00080F151F04001C9B24909022901D1396863
:1040000004E0B0FA80F1DFF874110968B0FA80F0CA
:1040100010F01F00C140C80709D401F001F9B0EB4E
:10402000080041F289318842DDD303209CE03968E1
:1040300031F44071606801433960F6B2012E03D15A
:10404000286830F0805028602078C00707D5DFF856
:1040500030110A6892089200A06802430A60207832
:10406000800707D5DFF818110A6832F44032E0689B
:1040700002430A602078400707D5DFF804110A6878
:1040800032F44022206902430A602078800607D576
:10409000DFF8EC100A6832F01002E06902430A60AF
:1040A0002068800307D5DFF8DC100A6832F480024C
:1040B000A06B02430A602078400607D5DFF8C010E5
:1040C0000A6832F02002206A02430A602078000762
:1040D00007D5DFF8AC100A6832F440126069024379
:1040E0000A602078C00607D5DFF894100A6832F419
:1040F0004002A06902430A602068800507D5DFF806
:1041000084100A6832F40002E06A02430A602078F0
:10411000000607D5DFF870100A6832F4F872606A9A
:1041200002430A602068C00507D5DFF85C100A6802
:1041300032F47852A06A02430A602068C00407D5AE
:10414000DFF83C100A6832F48072206B02430A6088
:104150002068800407D5DFF828100A6832F400725E
:10416000606B02430A600020BDE8F6811C1002402B
:10417000007000402010024000044242241002401F
:1041800030100240041002402C1002400348016825
:10419000034A127889180160704700BFB86E00208A
:1041A0001D020020014648B1B0FA80F18840C91CC8
:1041B000C1F58461090501EBD0214005704780B548
:1041C00000F001F802BD002141600021816005215D
:1041D000C16040F20911018240F2DC5242828182C8
:1041E000C28240F6B83101834FF41671C16140219B
:1041F000016201214162D72101850021C1620221B2
:10420000016300214163002181630021C163022118
:10421000016470474160704738B52DED088BB0EEF2
:10422000418AF0EE618AB0EE429AF0EE629AB0EE08
:1042300043AAF0EE63AAB0EE44BAF0EE64BA51ECD1
:10424000100B53EC182B01F035FD04000D0051EC60
:104250001B0B53EC1A2B01F02DFD22002B0001F05B
:104260009BFD04000D0051EC190B53EC182B01F0D1
:1042700021FD02000B002000290001F05FFE53EC3D
:104280001A2B01F07FFF41EC100BBDEC088B31BD08
:10429000C1F30A5340F2FE329B1A14DDD3F120031E
:1042A0004FEAE17208DDC90241EA505141F0004095
:1042B000D84080185040704703F2E13010B1D2432B
:1042C00082F00040704700207047000018B587B0AA
:1042D00001000020002000223720FDF7F9FD3720E3
:1042E000FDF707FE1548016851F0200101600068E4
:1042F00010F020000090009801A902A8FFF7DDFD52
:10430000FFF7BBFD40000E49B0FBF1F0401E0D4C25
:104310000D49216040F2E731E160606000202061DA
:104320000020A0602000FBF72FFF002803D1200011
:10433000FBF767FF00E0012008B010BD1C10024031
:1043400040420F00986900200014004080B50D48DD
:10435000016851F001010160006810F00100009057
:1043600000980948016851F080510160006810F020
:1043700080500090009800220F217FF00100FDF78F
:10438000A7FD01BD181002401C10024078B595B081
:1043900004000025002600200090002C01D10120FF
:1043A0005AE12069002802D094F820000028206CEF
:1043B000C00653D4206C00283DD10020606400204A
:1043C000E0640020A064002084F83C002000FEF798
:1043D000A7FA20688068C0002DD4200000F028FCD7
:1043E0000500206CC00626D42800C0B2002822D1C7
:1043F000206C30F4885050F00200206420688068FF
:1044000030F04050216888602068806850F080500B
:1044100021688860DFF844020068DFF84412B0FBCE
:10442000F1F10A204143009102E00098401E009003
:1044300000980028F9D120688068C00003D5206862
:10444000806880000AD5206C30F0020050F0100027
:104450002064606C50F0010060640125206CC0068F
:1044600000F1F1802800C0B2002840F0EC80206804
:104470008068400700F1E780206C30F4807050F0D5
:10448000020020642068B0F1A04F04D02068DFF85B
:10449000D411884202D1DFF8D01101E0DFF8CC114D
:1044A0002068B0F1A04F04D1DFF8B8010190019865
:1044B0001EE02068DFF8AC21904204D15FF0A040FC
:1044C0000190019814E0DFF8A8012268824204D12B
:1044D000DFF8A001019001980AE02268DFF894312A
:1044E0009A4202D10190019802E0002001900198C7
:1044F0002068806810F00300012804D1206800685B
:1045000010F0010000E00020002816D101980028DA
:104510000DD00198806810F00300012804D10198A3
:10452000006810F0010000E00020002805D18A6832
:1045300032F44032606802438A60606B012802D026
:104540004FF4805100E00021607E51EA4031E06884
:104550000143A06801430E4394F82000012813D1C1
:10456000607E002806D1606A401E400450F480300E
:10457000064309E0206C30F0020050F02000206477
:10458000606C50F001006064A06A012824D02068AB
:10459000DFF8DC10884204D02068DFF8D8108842A9
:1045A00016D1A06AB0F5307F02D14FF4E07110E06F
:1045B000A06AB0F5807F02D14FF4307109E0A06AA3
:1045C000B0F5E07F02D14FF4807102E0A16A00E013
:1045D000A16AE06A01430E432068806810F00C0F66
:1045E0000DD12068C168DFF8900001402068C160EB
:1045F000207E94F83010490051EA80310E43206843
:10460000C168DFF8780001400E432068C660206969
:10461000012809D12068006B00090001E169491EE9
:1046200008432168086305E02068006B0009000169
:104630002168086300206064206C30F0020050F0B4
:104640000100206406E0206C30F0020050F0100001
:10465000206401252800C0B216B070BDA80000205B
:1046600040420F00000100500003005000070050BE
:104670000004005000050050FDBFFFFF07C0F0FF21
:1046800070B495B002000B00002100200090D868A3
:104690000128FFD192F83C00012801D1022003E259
:1046A000012082F83C0010688068400700F1F28128
:1046B0005868052811D206201468246B1F255E68EF
:1046C0004643B540AC431D685E6800FB06F015FA32
:1046D00000F020431468206340E058680A2813D291
:1046E00006241068456B1F265868401F10FB04F015
:1046F0008640B5431E685868401F10FB04F0864092
:1047000035431068456329E058680F2813D2062402
:104710001068856B1F2658680A3810FB04F0864025
:10472000B5431E6858680A3810FB04F086403543CC
:104730001068856312E006241068C56B1F26586850
:104740000F3810FB04F08640B5431E6858680F38D8
:1047500010FB04F0864035431068C563106880681C
:1047600010F00C0F40F0AB8018680A2814D31068C2
:104770008469072518680A38032610FB06F085406F
:10478000AC439D6818680A38032610FB06F0854084
:104790002C43106884610FE01068446907251E6887
:1047A00003204643B540AC439D681E680320464342
:1047B000B5402C431068446158691468E468C4F338
:1047C000C104E4B2640010FA04F41869012806D0A8
:1047D0003DD303281FD010D304282AD037E0106817
:1047E000056EDFF840040540186855EA80652C43E3
:1047F00054F000441068046661E01068456EDFF80C
:1048000024040540186855EA80652C4354F00044A0
:104810001068446653E01068856EDFF808040540B0
:10482000186855EA80652C4354F00044106884668B
:1048300045E01068C56EDFF8EC030540186855EADE
:1048400080652C4354F000441068C46637E010685B
:10485000006E10F0F8401C68B0EB846F05D1106852
:10486000006E20F00040146820661068406E10F062
:10487000F8401C68B0EB846F05D11068406E20F0E2
:104880000040146860661068806E10F0F8401C6884
:10489000B0EB846F05D11068806E20F00040146882
:1048A000A0661068C06E10F0F8401C68B0EB846F12
:1048B00005D11068C06E20F000401468E0661068F2
:1048C000806810F00300012804D11068006810F01F
:1048D000010000E00020002840F0E180D8680128B5
:1048E0000AD01068D0F8B040012518688540AC4364
:1048F0001068C0F8B04035E01068D0F8B04001252D
:10490000186885402C431068C0F8B04018680A2821
:1049100014D310688469072518680938032610FB2A
:1049200006F08540AC439D6818680938032610FBE3
:1049300006F085402C431068846113E010684469D8
:1049400007251868401C032610FB06F08540AC4381
:104950009D681868401C032610FB06F085402C4318
:10496000106844611068B0F1A04F03D01068504C3B
:10497000A04202D1DFF8B04201E0DFF8B04218688F
:10498000102802D1A06800020CD51868112802D1A5
:10499000A068C00106D51868122840F08080A06881
:1049A00040027CD41068B0F1A04F03D14048019080
:1049B00001981AE010683E4DA84204D15FF0A04073
:1049C0000190019811E03B481568854203D13A48AF
:1049D0000190019809E01568374EB54202D1019067
:1049E000019802E00020019001981068806810F0A2
:1049F0000300012804D11068006810F0010000E0F5
:104A00000020002840D1019800280DD0019880682E
:104A100010F00300012804D10198006810F0010093
:104A200000E0002000282FD11868102818D1106845
:104A3000B0F1A04F14D1A06850F40000A060DFF8DE
:104A400074020068DFF87032B0FBF3F30A204343CE
:104A500000930098002822D00098401E0090F8E7AC
:104A60001868112808D11068B0F1A04F04D1A068CF
:104A700050F08070A06012E0186812280FD1A06872
:104A800050F48000A0600AE0106C50F02000106428
:104A9000012104E0106C50F020001064012100207E
:104AA00082F83C000800C0B215B070BC704700002E
:104AB00000010050000400500005005030B494B0D4
:104AC00000220B68002B0368B3F1A04F04D1DFF87C
:104AD000F4310093009B1EE00368DFF8E841A34235
:104AE00004D15FF0A0430093009B14E0DFF8CC31C9
:104AF00004689C4204D1DFF8C8310093009B0AE0AF
:104B00000468DFF8BC51AC4202D10093009B02E084
:104B100000230093009B009B002B01D101207DE02E
:104B200090F83C30012B01D1022077E0012380F87E
:104B30003C3003689B685B0766D4009B9B685B07FF
:104B400062D40368B3F1A04F04D00368DFF8744166
:104B5000A34201D1344C00E0344C0B68002B2ED022
:104B6000A56835F460454B681D4390F8303055EA30
:104B70004335A56003689B6813F00303012B04D140
:104B800003681B6813F0010300E00023002B40D1F1
:104B9000009B9B6813F00303012B04D1009B1B684F
:104BA00013F0010300E00023002B32D1A568464B2F
:104BB0001D400B681D4389680D43A56029E0A1686D
:104BC00031F46041A1600168896811F00301012995
:104BD00004D10168096811F0010100E000210029F9
:104BE00017D10099896811F00301012904D10099B6
:104BF000096811F0010100E00021002909D1A36832
:104C000031490B40A36004E0016C51F020010164C4
:104C10000122002180F83C101000C0B214B030BC5A
:104C20007047000000F0FF830003005000070050B1
:104C300038B5040000202068806810F003000128C7
:104C400004D12068006810F0010000E00020002876
:104C50002ED02068806810F00D0001281ED1206839
:104C6000806850F002002168886003202168086095
:104C700000F0D6FA050020688068C00718D500F05B
:104C8000CFFA401B0328F6D3206C50F010002064AC
:104C9000606C50F00100606401200AE0206C50F06C
:104CA00010002064606C50F001006064012000E09E
:104CB000002032BDA800002040420F000004005038
:104CC0000005005000010050E0F0FFFF10B50400A7
:104CD0000020002C01D1012022E0022084F82100D4
:104CE000206801686FF30D116268A0680243E068F4
:104CF00002432069024360690243A0690243E069FC
:104D00000243114320680160200000F0BAF800203F
:104D1000A063012084F82100002084F820000020F6
:104D200010BD90F82110022906D0042181630021D2
:104D300080F82010012017E00168096831F00E01A9
:104D40000268116001680968490849000268116039
:104D50000122016C8A40C16B4A60012180F8211058
:104D6000002180F820100020704710B5002490F832
:104D70002110022903D00421816301241BE0016872
:104D8000096831F00E01026811600168096849087C
:104D90004900026811600122016C8A40C16B4A60BF
:104DA000012180F82110002180F82010416B00299A
:104DB00001D0416B88472000C0B210BD10B5C16B57
:104DC0000B6801680C680422016C12FA01F10B42B5
:104DD00015D0610713D501680968890605D40168F3
:104DE000096831F0040103681960016C8A40C16BE5
:104DF0004A60C16A002943D0C16A884740E0022264
:104E0000016C12FA01F10B421BD0A10719D5016800
:104E10000968890608D40168096831F00A01036845
:104E20001960012180F82110016C8A40C16B4A6031
:104E3000002180F82010816A002921D0816A8847EA
:104E40001EE00822016C8A40134219D0210717D5B1
:104E50000168096831F00E01026811600122016CDD
:104E60008A40C16B4A6001218163012180F82110D1
:104E7000002180F82010016B002901D0016B8847C8
:104E800010BD01680C4A91420AD202680B498A1887
:104E90001421B2FBF1F1890001640949C16309E001
:104EA000026808498A181421B2FBF1F189000164F3
:104EB0000549C1637047000008040240F8FFFDBFC8
:104EC00000000240F8FBFDBF0004024010B50400E2
:104ED000002C01D101200EE02079002804D100200F
:104EE00060712000FDF7CDFD0220207100202061BF
:104EF00001202071002010BD10B50400206800685A
:104F0000800416D52068406B800412D504202071DF
:104F1000206950F0010020614FF40050216848637F
:104F20002068006830F4805021680860200001F09B
:104F3000E6F920680068800016D52068406B800084
:104F400012D504202071206950F0020020615FF02A
:104F50000050216848632068006830F08050216864
:104F60000860200001F0CCF910BD10B4002300232C
:104F70004379012B01D102201EE00123437102235A
:104F8000037103681B6840F6FE749440A3430C68E9
:104F900049680C439440234301680B600168096829
:104FA000C02313FA02F231EA020201680A60012109
:104FB000017100214171002010BC704710B5040040
:104FC000002C01D101207AE0606A002806D16068D7
:104FD000B0F5827F06D00020E06103E00020206170
:104FE000002060610020A06294F85D00002805D1D7
:104FF000002084F85C002000FDF7A8FD022084F862
:105000005D002068006830F0400021680860E068BA
:1050100040F20171884201D3002001E04FF480503A
:10502000E168B1F5706F05D0E168B1F5E06F01D0CE
:105030000021A162616811F48271A26812F4044235
:105040001143227C12F002021143227D12F0010270
:105050001143A26912F400721143227F12F0380248
:10506000114394F8202012F080021143A26A12F436
:105070000052114322681160A169090C11F004016A
:1050800094F8242012F01002114394F8342012F006
:1050900008021143E26812F47062114310F4805068
:1050A0000843216848602068C06930F400602168C6
:1050B000C86100202066012084F85D00002010BD3A
:1050C000F8B504000D0016001F00002C01D10120CE
:1050D0003DE0A06F002805D1002084F87400200076
:1050E000FDF791FD2420A06720680068400840007B
:1050F00021680860200001F0F4FA012801D10120A4
:1051000025E0606A002802D0200001F023FC20681E
:10511000806850F48040216888602068806830F49E
:105120000040054320688560760556EA07462068FA
:1051300000686FF319400643206806602068006825
:1051400050F0010021680860200001F070FCF2BD01
:105150007047000038B504000025002C03D094F8F7
:105160002900C00601D5012555E0206A0028DFF896
:10517000AC00016851F001010160006810F001000D
:10518000009000982000FDF7D6FD94F82900002833
:1051900002D1002084F82800606860600020009040
:1051A000206800680090009931F070016068014348
:1051B0000091009931F08201A068014300910099AB
:1051C00031F44021A06901430091009830F47050FF
:1051D000E16811F4705108430090009931F40041E6
:1051E000206901430091009931F440316069014325
:1051F0000091009931F00C01E069014300910099A0
:1052000031F40071206A0143009100982168086020
:10521000012084F829002800C0B232BD18100240D5
:1052200001480068704700BFB86E002010B5114CEF
:1052300000221149200001F0C1FC002801D0FCF738
:1052400055FC0E49200001F0D1FC002801D0FCF7EC
:105250004DFC0B49200001F0DBFF002801D0FCF7DA
:1052600045FC200001F0CCFC002801D0FCF73EFCFE
:1052700010BD00BFDC5C0020CC010020B800002085
:10528000BC01002070B5050014001A0000200800C1
:10529000C0B2002807D00800C0B2002803D0080020
:1052A000C0B2F82801DB022436E05E4E31702800DF
:1052B000C0B2002820D1049B5B485C4908605C4870
:1052C0005C4908605C485D4908605D485D4908606C
:1052D00000205D4908605D485D4908605D485E49A1
:1052E00008605E485E490860DBB22100C9B23078D0
:1052F00001F0C2FF040000E002242000C0B2002838
:105300000AD102F01BF9002801D1032404E055481A
:1053100005700120544908702000C0B270BD38B536
:105320000024514D2878012805D140480068804765
:105330000020287000E006242000C0B232BD7CB5F9
:10534000002049480078002801D0062068E068461F
:1053500002F000F9012862D19DF80000002805D074
:1053600002281AD003D3032859D058E057E0404C04
:10537000404A41492000334B1B689847C0B200287F
:105380000AD1207827490978884202D0207800285D
:1053900002D1022002F0D7F841E0384C364D28689F
:1053A00000782070364E01203070002205E013F89E
:1053B00032002178884208D0521C102A0CDA2B4B7C
:1053C00013F832000028F2D106E02A49286803EBDE
:1053D000C2025268904730702548007800281DD0DE
:1053E0003078002812D0234800210180217851F024
:1053F00080012A680388D1540188491C01803178D2
:105400002A680388D1540188491C01801948028800
:10541000296804480078094B1B689847FFE700207B
:1054200076BD0000056F0020BF720008906E00205E
:10543000D9720008946E0020577300088C6E00200B
:10544000ED720008986E00209C6E0020B773000873
:10545000A06E002041740008A46E0020AF74000804
:10546000A86E0020066F00201C0200201C000020F7
:10547000076F0020F86E0020AC6E0020086F00203F
:10548000096F002078B585B005000B98002807D17A
:10549000502080F31188BFF34F8FBFF36F8FFEE76B
:1054A0000C9C002C07D1502080F31188BFF34F8F44
:1054B000BFF36F8FFEE754260096009E542E07D050
:1054C000502080F31188BFF34F8FBFF36F8FFEE73B
:1054D000002C13D0002811D02063022084F8510042
:1054E00000200390029404A801900A9800902800DC
:1054F00000F042F8200000F094F801E00020049051
:10550000049806B070BD2DE9F84384B007008846C2
:1055100016009946300080B2800002F033F8050092
:10552000002D0BD0542002F02DF80400002C01D0E7
:10553000256304E0280002F0AFF800E00024002C0E
:1055400015D0002084F851000020039002940D989B
:1055500001900C9800904B46B6B23200414638009C
:1055600000F00AF8200000F05CF8012001E05FF094
:10557000FF3005B0BDE8F0832DE9F84305001E00BB
:105580000A9F386B00EB8200B0F104085FEAD8088C
:105590005FEAC80818F00700002807D0502080F301
:1055A0001188BFF34F8FBFF36F8FFEE7002200E03B
:1055B000521C102A07D2885C07EB020383F83400E0
:1055C000885C0028F4D1DDF82090002087F84300A3
:1055D000B9F1070F01D35FF00609099CC7F82C90B9
:1055E000C7F844900020B864381D02F00AF917F19A
:1055F000180002F006F93F61D9F10709C7F81890C1
:105600007F620020F864002087F8500032002900F3
:10561000404602F033F93860002C00D02760BDE826
:10562000F18338B5040002F0B9F9DFF874140868A2
:10563000401C0860DFF86C542868002806D12C60F4
:10564000086801280DD100F049FA0AE0DFF8580493
:105650000068002805D1E06A2968C96A884200D339
:105660002C60DFF848040168491C0160DFF8401431
:105670000A680123E06A83401A430A60211DDFF8AB
:105680003424E36A1420434302EB030002F0BCF825
:1056900002F09EF9DFF81004006800280DD0286899
:1056A000C06AE16A884208D25FF08050DFF83015A6
:1056B0000860BFF34F8FBFF36F8F31BD70B504002B
:1056C0000E000025002C07D1502080F31188BFF375
:1056D0004F8FBFF36F8FFEE7002E07D1502080F36E
:1056E0001188BFF34F8FBFF36F8FFEE7DFF84004E1
:1056F0000068002807D0502080F31188BFF34F8F37
:10570000BFF36F8FFEE700F098F8DFF864040068DD
:10571000216876182168884206D221688E4209D213
:10572000B04207D2012505E021688E4201D3B04284
:1057300000D201252660002D04D00021361A300049
:1057400000F066FA00F07FF8002808D15FF0805082
:10575000DFF88C140860BFF34F8FBFF36F8F70BDFD
:1057600010B504000020002C14D0DFF8C40300683A
:10577000002807D0502080F31188BFF34F8FBFF36C
:105780006F8FFEE700F059F80021200000F040FA8A
:1057900000F059F8002808D15FF08050DFF840147D
:1057A0000860BFF34F8FBFF36F8F10BD10B586B089
:1057B000002004900020039005AA03A904A8FDF787
:1057C00041FCDFF8284404980290039801900020DF
:1057D00000900023059ADFF818140FF2DD20FFF780
:1057E00051FE20602068002801D0012000E0002048
:1057F000012817D1502080F31188BFF34F8FBFF3DA
:105800006F8F5FF0FF30DFF8F01308600120DFF8E2
:10581000981208600020DFF85813086002F057F86B
:1058200006B010BD10F1010FFAD1502080F311889D
:10583000BFF34F8FBFF36F8FFEE7DFF8F40201680D
:10584000491C0160704770B500240025DFF8E06254
:105850003068002807D1502080F31188BFF34F8FA4
:10586000BFF36F8FFEE702F099F83068401E30609A
:105870003068002855D1DFF828020068002826D1BA
:105880004FE0C868C46814F1180001F0E4FF201D5F
:1058900001F0E1FFDFF818120A680123E06A834093
:1058A0001A430A60211DDFF80C22E36A14204343E7
:1058B00002EB030001F0A8FFE06ADFF8E8110968D5
:1058C000C96A884203D30120DFF840130860DFF87B
:1058D000241308680028D4D1002C01D000F06BF903
:1058E000DFF818633468002C0CD000F02AF8002888
:1058F00003D00120DFF814130860641E002CF4D1DB
:1059000000203060DFF804030068002809D001257A
:105910005FF08050DFF8C8120860BFF34F8FBFF30D
:105920006F8F02F055F8280070BDDFF84402006860
:10593000704780B502F076F80020DFF84403006875
:1059400002BDF8B50025DFF8E8010068002864D141
:10595000DFF81C020468641C0460002C1AD1DFF814
:10596000A01208680068002807D0502080F3118832
:10597000BFF34F8FBFF36F8FFEE70868DFF8842215
:1059800013680B601060DFF880020168491C016039
:1059900000F011F9DFF86062306884422ED320E015
:1059A000381D01F058FFB86A002803D017F118001D
:1059B00001F051FF3E490A680123F86A83401A4307
:1059C0000A60391D3B4AFB6A1420434302EB030083
:1059D00001F01AFFF86A33490968C96A884200D39E
:1059E0000125DFF81C1208680068002811D008683B
:1059F000C068C76878688442D2D23060294800689D
:105A00002C49C26A14204243885802280AD301252F
:105A100008E05FF0FF303060F0E7DFF8E001016898
:105A2000491C0160DFF8E4010068002800D001256E
:105A30002800F2BD3E480068002804D00120DFF8AD
:105A4000CC1108602AE00020DFF8C0110860184877
:105A50000068B0FA80F1D1F11F011422154B02FB4E
:105A600001F01858002807D1502080F31188BFF3A7
:105A70004F8FBFF36F8FFEE7514303EB0100416887
:105A800049684160416810F10802914202D14168C1
:105A9000496841604068C06802490860704700007A
:105AA000CC6E0020BC6E0020D86E0020E86E002076
:105AB000D46E0020C066002080B500F03BF8DFF80F
:105AC000CC0100680228F8D35FF08050DFF818118D
:105AD0000860BFF34F8FBFF36F8FEEE738B5002438
