:020000040800F2
:100000001873002035B4000835AB000837AB000882
:1000100039AB00083BAB00083DAB00080000000016
:10002000000000000000000000000000F989000846
:100030003FAB000800000000A18900088D7B00088C
:1000400089B400088DB4000891B4000895B4000884
:1000500099B400089DB40008A1B40008A5B4000834
:10006000A9B40008ADB40008B1B4000841AB000861
:10007000B5B40008B9B40008BDB40008C1B40008A4
:10008000C5B40008C9B40008CDB40008D1B4000854
:100090004BAB0008D5B40008D9B40008DDB40008A3
:1000A000E1B40008E5B4000855AB0008E9B4000865
:1000B00093AB0008EDB400089DAB0008F1B4000854
:1000C000F5B40008F9B40008FDB4000801B5000853
:1000D00005B5000809B50008A7AB00080DB5000874
:1000E00011B5000815B5000819B500081DB50008C0
:1000F00021B5000825B5000829B500082DB5000870
:1001000000000000000000000000000031B5000801
:1001100035B5000839B50008F7AB000807AC000892
:100120003DB5000841B5000845B5000849B50008CF
:100130004DB5000851B500080000000000000000A7
:1001400055B5000859B500085DB50008000000006D
:10015000000000000000000000000000000000009F
:10016000000000000000000061B5000865B500084F
:1001700069B5000800000000000000000000000059
:10018000000000006DB5000810B50400002C01D17E
:10019000012035E094F83D00002805D1002084F8C6
:1001A0003C00200001F0E8F9022084F83D00211D08
:1001B000206800F076FC012084F84800012084F8D3
:1001C0003E00012084F83F00012084F84000012017
:1001D00084F84100012084F84200012084F84300A3
:1001E000012084F84400012084F84500012084F8AF
:1001F0004600012084F84700012084F83D000020DB
:1002000010BD90F83D10012901D001203DE00221F0
:1002100080F83D100168C96851F001010268D160A1
:100220000168DFF85023914217D00168B1F1804F87
:1002300013D00168DFF8402391420ED00168DFF847
:100240003C23914209D00168DFF83423914204D065
:100250000168DFF83023914210D101688A68DFF825
:1002600028130A40062A0FD0B2F5803F0CD001684F
:10027000096851F001010068016005E00168096842
:1002800051F0010100680160002070470168C968F1
:10029000490849000268D1600168096A41F21112F7
:1002A00011420BD10168096A40F24442114205D162
:1002B000016809684908490002681160012180F855
:1002C0003D100020704710B50400002C01D1012022
:1002D00035E094F83D00002805D1002084F83C006A
:1002E000200001F09FF8022084F83D00211D2068C5
:1002F00000F0D7FB012084F84800012084F83E007C
:10030000012084F83F00012084F84000012084F897
:100310004100012084F84200012084F843000120BC
:1003200084F84400012084F84500012084F8460048
:10033000012084F84700012084F83D00002010BD12
:1003400010B50400002902D194F83E0015E00429FC
:1003500002D194F83F0010E0082902D194F840003F
:100360000BE00C2902D194F8410006E0102902D1DB
:1003700094F8420001E094F84300012801D00120E4
:1003800082E0002904D1022084F83E00C0B21FE0C0
:10039000042904D1022084F83F00C0B218E00829E3
:1003A00004D1022084F84000C0B211E00C2904D12D
:1003B000022084F84100C0B20AE0102904D10220D2
:1003C00084F84200C0B203E0022084F84300C0B2C7
:1003D0000122206800F0E0FDDFF8981120688842D3
:1003E00013D02068DFF8982190420ED02068DFF803
:1003F0009421904209D02068DFF89021904204D0E7
:100400002068DFF80822904201D1012000E000209E
:10041000C0B2002805D02068406C50F4004022682B
:1004200050642068884217D02068B0F1804F13D004
:100430002068DFF8441188420ED02068DFF83C11B4
:10044000884209D02068DFF83811884204D020683B
:10045000DFF83011884210D120688168DFF8280168
:10046000014006290FD0B1F5803F0CD0206800680C
:1004700050F001002168086005E02068006850F035
:10048000010021680860002010BD38B505000C008F
:1004900000222100286800F07FFD2868DFF8D410D2
:1004A000884213D02868DFF8D81088420ED0286818
:1004B000DFF8D010884209D02868DFF8D0108842D1
:1004C00004D02868DFF84411884201D1012000E0FF
:1004D0000020C0B2002811D02868006A41F2111132
:1004E00008420BD12868006A40F24441084205D115
:1004F0002868406C30F40040296848642868006A25
:1005000041F2111108420BD12868006A40F24441BF
:10051000084205D128680068400840002968086042
:10052000002C04D1012085F83E00C0B21FE0042C4D
:1005300004D1012085F83F00C0B218E0082C04D196
:10054000012085F84000C0B211E00C2C04D101203C
:1005500085F84100C0B20AE0102C04D1012085F8D2
:100560004200C0B203E0012085F84300C0B2002081
:1005700032BD0000002C0140000400400008004093
:1005800000340140004001400700010000440140E8
:1005900010B50400002C01D1012035E094F83D0095
:1005A000002805D1002084F83C00200001F05AF812
:1005B000022084F83D00211D206800F072FA01201D
:1005C00084F84800012084F83E00012084F83F00B0
:1005D000012084F84000012084F84100012084F8C3
:1005E0004200012084F84300012084F844000120E7
:1005F00084F84500012084F84600012084F8470073
:10060000012084F83D00002010BD0000004801409A
:1006100070B504000D00002C01D101205EE094F8BB
:100620003D00002805D1002084F83C00200000F0A7
:1006300070FF022084F83D0020688168DFF8A00088
:10064000014020688160211D206800F02AFA20689E
:100650008168206882692068036A28680143DFF89E
:1006600084000240A868AE6950EA06200243DFF821
:1006700078000240DFF874000240E868EE6950EA52
:100680000620024328692E6A360356EA00163243D2
:1006900033F0220333F0880368686D6950EA05106F
:1006A0000343206881602068826120680362012022
:1006B00084F84800012084F83E00C0B2012084F88C
:1006C0003F00C0B2012084F84400C0B2012084F889
:1006D0004500C0B2012084F83D00002070BD00003C
:1006E000F8BFFEFFFCFCFFFFF3F3FFFF0F0FFFFF60
:1006F00010B504002068006980071AD52068C0681A
:10070000800716D57FF0020021680861012020775C
:100710002068806910F0030F03D0200001F035F944
:1007200005E0200001F08BF9200001F089F900209C
:1007300020772068006940071AD52068C068400704
:1007400016D57FF004002168086102202077206818
:10075000806910F4407F03D0200001F016F905E015
:10076000200001F06CF9200001F06AF900202077E8
:100770002068006900071AD52068C068000716D5F0
:100780007FF0080021680861042020772068C06994
:1007900010F0030F03D0200001F0F7F805E020006F
:1007A00001F04DF9200001F04BF90020207720687E
:1007B0000069C0061AD52068C068C00616D57FF04B
:1007C000100021680861082020772068C06910F4B3
:1007D000407F03D0200001F0D8F805E0200001F0B0
:1007E0002EF9200001F02CF9002020772068006904
:1007F000C0070AD52068C068C00706D57FF0010091
:1008000021680861200001F0D2F820680069000624
:100810000AD52068C068000606D57FF080002168F0
:100820000861200001F00DF920680069C0050AD5B3
:100830002068C068000606D57FF4807021680861D2
:10084000200001F0FFF82068006940060AD5206802
:10085000C068400606D57FF040002168086120008E
:1008600001F0F1F82068006980060AD52068C068A8
:10087000800606D57FF0200021680861200001F085
:10088000E3F810BD10B5040094F83C00012801D134
:1008900002202BE0012084F83C00002A0AD0042A20
:1008A0000CD0082A0ED00C2A10D0102A12D0142AEC
:1008B00014D017E0206800F04FF913E0206800F032
:1008C00099F90FE0206800F0D9F90BE0206800F0FA
:1008D00015FA07E0206800F040FA03E0206800F015
:1008E00068FAFFE7002084F83C00002010BD38B50E
:1008F00004000D0094F83C00012801D10220A0E082
:10090000012084F83C00002A0AD0042A1FD0082ABB
:1009100035D00C2A4AD0102A60D0142A75D08CE029
:100920002900206800F018F92068806950F008005C
:10093000216888612068806930F00400216888613E
:1009400020688169286901432068816175E0290078
:10095000206800F04FF92068806950F40060216839
:1009600088612068806930F480602168886120682F
:100970008069296950EA0120216888615DE02900C9
:10098000206800F07BF92068C06950F008002168F9
:10099000C8612068C06930F004002168C86120681F
:1009A000C169286901432068C16146E029002068C7
:1009B00000F0A4F92068C06950F400602168C861A3
:1009C0002068C06930F480602168C8612068C0690F
:1009D000296950EA01202168C8612EE029002068B9
:1009E00000F0BBF92068406D50F0080021684865B0
:1009F0002068406D30F00400216848652068416D32
:100A0000286901432068416517E02900206800F04B
:100A1000D0F92068406D50F4006021684865206876
:100A2000406D30F48060216848652068406D296918
:100A300050EA012021684865FFE7002084F83C0067
:100A4000002032BD10B5040094F83C00012801D10B
:100A5000022025E0012084F83C00022084F83D00BB
:100A6000200000F0D3F9002807D0012084F83D00D1
:100A7000002084F83C00012012E02068C06830F0BB
:100A800040002168C8602068C06830F48040216858
:100A9000C860012084F83D00002084F83C0000205C
:100AA00010BD10B40468DFF8683498420ED0B0F17D
:100AB000804F0BD0DFF85C24904207D0DFF8582439
:100AC000904203D0DFF85424904203D134F07004F4
:100AD0004A68144398421AD0B0F1804F17D0DFF81B
:100AE0003424904213D0DFF8302490420FD0DFF846
:100AF0002C2490420BD0DFF82824904207D0DFF856
:100B00002424904203D0DFF82024904203D134F40F
:100B10004074CA68144334F080044A691443046082
:100B20008A68C2620A68826298420FD0DFF8EC23BA
:100B300090420BD0DFF8E823904207D0DFF8E4239F
:100B4000904203D0DFF8E023904201D109690163AC
:100B50000121416110BC704770B4026A5208520012
:100B60000262056A43688469DFF8C0231440A40860
:100B7000A4000A68144335F002058A681543DFF8BB
:100B80009063B0420FD0DFF8942390420BD0DFF88F
:100B90009023904207D0DFF88C23904203D0DFF8F7
:100BA0008823904205D135F00805CA68154335F011
:100BB0000405B0420FD0DFF8642390420BD0DFF879
:100BC0006023904207D0DFF85C23904203D0DFF827
:100BD0005823904207D133F4807333F400734A6989
:100BE00013438A6913434360846149684163056222
:100BF00070BC704770B4026A32F010020262056A7B
:100C000043688469DFF82823144034F440740A6888
:100C100054EA022435F020058A6855EA0215DFF807
:100C2000F022904203D0DFF8F462B04206D135F0F2
:100C30008005CE6855EA061535F0400590420CD087
:100C4000DFF8D822904208D0B54A904205D0B54A84
:100C5000904202D0B44A904209D133F4806333F415
:100C600000634A6953EA82038A6953EA8203436054
:100C7000846149688163056270BC704770B4026A20
:100C800032F480720262056A4368C469A74A14405C
:100C9000A408A4000A68144335F400758A6855EA6C
:100CA00002259B4A904202D09C4EB04206D135F4B8
:100CB0000065CE6855EA062535F4806590420BD074
:100CC000964A904208D0964A904205D0954A904262
:100CD00002D0954A904209D133F4805333F4005343
:100CE0004A6953EA02138A6953EA02134360C461F2
:100CF0004968C163056270BC7047000030B4026A85
:100D000032F480520262036A4568C469884A14401A
:100D100034F440740A6854EA022433F400538A68B5
:100D200053EA02337A4A90420BD07C4A904208D070
:100D30007B4A904205D07B4A904202D07A4A904248
:100D400004D135F480454A6955EA82154560C4618D
:100D500049680164036230BC704730B4026A32F4FF
:100D600080320262036A4568446D704A14400A6822
:100D7000144333F400338A6853EA0243644A9042CE
:100D80000BD0664A904208D0654A904205D0654A29
:100D9000904202D0644A904204D135F480354A69C9
:100DA00055EA02254560446549688165036230BCA7
:100DB000704730B4026A32F480120262036A4568F6
:100DC000446D5B4A14400A6854EA022433F4001369
:100DD0008A6853EA02534E4A90420BD04F4A9042DF
:100DE00008D04F4A904205D04E4A904202D04E4A17
:100DF000904204D135F480254A6955EA8225456040
:100E000044654968C165036230BC704710B502682B
:100E1000936833F070034A681343464A13400A68E4
:100E20001343026893604A68002A39D0102A37D0E9
:100E3000202A35D0302A33D0402A0CD0502A23D053
:100E4000602A27D0702A2CD10B698A68C96800688B
:100E500000F097F825E00A68052A01D1012021E079
:100E60000268136A0268126A520852000468226219
:100E70000268926932F0F002096952EA01120168CF
:100E80008A61006803620CE00A698968006800F002
:100E900053F806E00A698968006800F05FF800E02E
:100EA000FFE7002010BD70B4046A640864000462A7
:100EB0008569066A164CA0420ED0B0F1804F0BD067
:100EC000144CA04208D0144CA04205D0134CA042B0
:100ED00002D0134CA04201D1012400E00024E4B26E
:100EE000002C03D0AD08AD002A4302E02A0052F0E6
:100EF000010232F0F0021B0113F0F0031A4336F046
:100F00000A0611F00A0131438261016270BC704728
:100F1000002C014000040040000800400034014063
:100F20000040014000440140004801408FFFFEFFA7
:100F3000FF8FFFFEF8FFFEFF10B4046A036A5B0830
:100F40005B000362836933F0F00353EA021334F069
:100F50000A0421438361016210BC704710B4036A24
:100F600033F0100303628369046A33F4704353EA75
:100F7000023334F0A00454EA01148361046210BC0B
:100F8000704710B4846834F47F44114351EA03215C
:100F90002143816010BC704710B4012411F01F037D
:100FA00014FA03F3046A34EA03030362036A11F0D8
:100FB0001F0112FA01F11943016210BC704730B4ED
:100FC000002513E050F8042BD30744BFA9F1010317
:100FD0009A18091F042942F8045BFAD213468C07B9
:100FE00044BF15809B1CC90748BF1D7050F8041BE7
:100FF0000029E7D130BC704718B595B00C2200210C
:10100000684600F022FD1C2200210EA800F01DFD04
:101010002C22002103A800F018FDDFF85047DFF86C
:1010200050072060472060600020A06040F21F3021
:10103000E06000202061002060618020A06120002D
:10104000FFF741F9002801D000F0F8FC40200090A3
:1010500000200190002002906946200000F084FDED
:10106000002801D000F0EAFC30200E9064200F90A0
:10107000002010900020119000201290002013906A
:101080000020149000220EA92000FFF7FBFB00288F
:1010900001D000F0D3FC0020039000200490002039
:1010A000059000200690002007904FF40050089013
:1010B0000020099000200A905FF000700B90002043
:1010C0000C9000200D9003A9200000F096FD002850
:1010D00001D000F0B3FC200000F003FB16B010BDFF
:1010E00018B587B01022002103A800F0AEFC0C2236
:1010F0000021684600F0A9FCDFF878465FF08040E8
:10110000206040F60F6060600020A06044F6206020
:10111000E060002020618020A0610020039000207A
:101120000490002005900020069003A9200000F004
:1011300097FC002801D000F081FC50200090002096
:1011400002906946200000F00FFD002801D000F059
:1011500075FC08B010BD10B58CB02422002103A886
:1011600000F073FC0C220021684600F06EFCDFF8F2
:101170000846DFF808062060002060600020A060BC
:101180000020E060002020610020A0610120039089
:101190000020049001200590002006900020079078
:1011A000002008900120099000200A9000200B9058
:1011B00003A92000FFF72CFA002801D000F03EFC24
:1011C00000200090002002906946200000F0CCFC36
:1011D000002801D000F032FC0CB010BD10B588B072
:1011E0001422002103A800F030FC0C2200216846E4
:1011F00000F02BFCDFF88845DFF88805206001202F
:1012000060600020A0600020E060002020610020DD
:10121000A0612000FEF7B8FF002801D000F00EFC0E
:10122000072003900020049003A92000FFF70AFC88
:10123000002801D000F002FC002000900020029065
:101240006946200000F090FC002801D000F0F6FB79
:1012500008B010BD1FB50C220021684600F0F5FB58
:10126000DFF82445DFF82405206047206060002077
:10127000A0600020E0600020A0612000FEF784FF55
:10128000002801D000F0DAFB00200090002002903E
:101290006946200000F068FC002801D000F0CEFB79
:1012A0001FBD18B595B00C220021684600F0CDFB9B
:1012B0001C22002103A800F0C8FB2C2200210AA850
:1012C00000F0C3FBDFF8C844DFF8C8042060092041
:1012D00060600020A0604FF4B470E06000202061E6
:1012E000002060610020A0612000FFF751F9002874
:1012F00001D000F0A3FB002000900020019000200E
:1013000002906946200000F02FFC002801D000F078
:1013100095FB6020039000200490002005900020A1
:1013200006900020079000200890002009900022DD
:1013300003A92000FFF7DBFA002801D000F07EFBB4
:10134000042203A92000FFF7D2FA002801D000F000
:1013500075FB082203A92000FFF7C9FA002801D075
:1013600000F06CFB0C2203A92000FFF7C0FA002854
:1013700001D000F063FB00200A9000200B900020B9
:101380000C9000200D9000200E904FF400500F9014
:1013900000201090002011905FF00070129000204B
:1013A0001390002014900AA9200000F026FC0028C9
:1013B00001D000F043FB200000F093F916B010BDFF
:1013C00080B5DFF8D403DFF8D41301600021416059
:1013D000002181600021C160002101610021416183
:1013E00000218161FEF7D0FE002801D000F026FB2D
:1013F00001BD80B5DFF8A803DFF8A8130160002164
:101400004160002181600021C16000210161002153
:10141000416100218161FEF7B7FE002801D000F094
:101420000DFB01BD10B586B004001422002101A8F7
:1014300000F00BFB2068DFF8381388422CD1DFF86E
:101440006803016851F400610160006810F40060F5
:1014500000900098DFF85403016851F400310160F6
:10146000006810F4003000900098402001900220A5
:10147000029000200390002004900620059001A90E
:101480005FF0904000F00CFC002205211A2000F0D3
:101490004BFD1A2000F059FD06B010BD10B586B006
:1014A00004001422002101A800F0CFFA2068B0F156
:1014B000804F2CD1DFF8F802016851F00101016082
:1014C000006810F0010000900098DFF8E002016869
:1014D00051F480110160006810F4801000900098B1
:1014E0009820019002200290002003900020049098
:1014F0000220059001A9DFF8BC0200F0D1FB002218
:1015000005211C2000F010FD1C2000F01EFD06B07F
:1015100010BD10B586B004001422002101A800F00F
:1015200094FA2068DFF85412884223D1DFF8800251
:10153000016851F002010160006810F002000090A3
:101540000098DFF86802016851F4802101600068AA
:1015500010F480200090009830200190022002902A
:1015600000200390002004900220059001A99248D9
:1015700000F096FB06B010BD10B586B00400142232
:10158000002101A800F061FA20687E49884212D14A
:101590008748016851F004010160006810F0040000
:1015A00000900098002205211E2000F0BDFC1E20A6
:1015B00000F0CBFC54E020687449884212D17C488A
:1015C000016851F010010160006810F010000090F7
:1015D000009800220521362000F0A6FC362000F0FD
:1015E000B4FC3DE020686D4988420AD16E4801682C
:1015F00051F400310160006810F400300090009850
:101600002EE02068674988422AD16748016851F472
:1016100080210160006810F48020009000986348E9
:10162000016851F400310160006810F4003000904E
:10163000009880200190022002900020039000205A
:1016400004900120059001A95FF0904000F028FB74
:10165000002205211A2000F067FC1A2000F075FC1A
:1016600006B010BD10B586B00400142200216846F3
:1016700000F0EBF920684749884230D14A480168B8
:1016800051F400510160006810F400500590059875
:101690004648016851F480210160006810F4802000
:1016A00005900598402000900220019000200290B3
:1016B000002003900A2004903F4C6946200000F06F
:1016C000EFFA80200090022001900020029000207C
:1016D0000390052004906946200000F0E1FA06B06E
:1016E00010BD10B586B0040014220021684600F039
:1016F000ACF920681E49884219D12C48016851F480
:1017000000110160006810F40010059005984FF476
:1017100000700090022001900020029000200390B1
:10172000022004906946254800F0BAFA1CE02068BF
:101730001849884218D11D48016851F40021016000
:10174000006810F40020059005984FF47070009028
:1017500002200190002002900020039004200490B9
:101760006946174800F09CFA06B010BDF0690020E9
:10177000002C01403C6A0020886A002000040040E0
:10178000D46A002000080040206B002000100040B8
:101790006C6B002000340140B86B00200044014015
:1017A000046C002000480140181002401410024050
:1017B0001C100240000C00480004004800100048C3
:1017C00000080048E0B58948029000200190884850
:1017D0000090884B00228849884800F045FE8848E0
:1017E00000F01BFF874800F018FF874800F015FF46
:1017F00007BD8648016851F0807101608448016826
:1018000051F00101016070473EB500F01DFF00F08E
:1018100069F800F02BFF01F017F801F02BF801F048
:10182000A0F801F06BF901F0CDF9FFF7E5FBFFF748
:1018300057FCFFF790FCFFF734FD01F027FA01F0A9
:1018400087FA01F0A2FA01F0BDFAFFF7C7FCFFF733
:1018500001FDFFF7B5FDFFF7CCFDFFF7CAFF012241
:1018600004216C4800F0EFFA6B4C6C4D290020000D
:1018700001F07EFB2068002801D1012000E000205B
:10188000216811F1010F01D1012100E00021C0B256
:10189000C9B20843624909780843002816D05FF4AA
:1018A000E13020600D2020710020A0603220E06037
:1018B000C8202061012060610295210084B0684643
:1018C000182201F0CBFB0FBC01F032FB4B4855490D
:1018D00008604FF4FA7001F005FC01F020FC01F003
:1018E0006FFEFEE710B59EB02821002205AC200057
:1018F00001F0BCFE142100226C46200001F0B6FE6F
:101900003C2100220FAC200001F0B0FE0120059028
:101910005FF4803006900021079101210991022196
:101920000C910D905FF480100E9005A801F0D2FE8E
:10193000002801D000F082F80F20009002200190D2
:10194000002002904FF48060039000200490022158
:10195000684602F0F9F9002801D000F06FF832482B
:101960000F90002012904FF48070189000201D906E
:1019700000201B9000201C900FA802F05BFB0028A9
:1019800001D000F05BF81EB010BD80B50068B0F16A
:10199000804F05D12349086809680968C96B8847E1
:1019A00001BD80B50021164800F02BFE01BD10B529
:1019B000040020681D49884207D11A4A1C48016862
:1019C000106812681268926C904720681949884222
:1019D00005D11449086809680968496C8847206876
:1019E0001549884201D102F04DFC10BD206B00204A
:1019F000F0690020D46A0020EC6D0020D067002040
:101A0000246D0020546D0020846D0020FCED00E06A
:101A1000001000E0001000480400002000FC030853
:101A20000C6F0020906E0020823002000008004001
:101A30002408004000100040001400407047704728
:101A40007047704770477047704710B5044610469E
:101A50000A460146204601F009FE204610BD00005E
:101A600030B587B004000D00002C01D1012076E0D4
:101A700094F83D00002805D1002084F83C002000A7
:101A8000FFF70CFD022084F83D00211D2068FFF7C0
:101A900008F8AB68032229682068FFF704FA206879
:101AA000806930F00C00216888612068816968686D
:101AB0000143206881612068406850F080002168FF
:101AC00048602068806830F0700021688860206875
:101AD000806850F040002168886020688168DFF8E5
:101AE00084000140206881602068806850F0040014
:101AF00021688860002004900020059070200090EC
:101B0000002006900020039000200290E8680190D9
:101B100069462068FFF76EF82068406830F0700072
:101B2000216848602068406850F050002168486093
:101B3000012084F84800012084F83E00C0B2012052
:101B400084F83F00C0B2012084F84400C0B20120F4
:101B500084F84500C0B2012084F83D00002007B0A1
:101B600030BD0000F8FFFEFF70B490F83C20012A61
:101B700001D102203FE0012280F83C20022280F8BF
:101B80003D200268546802689368404D0268AA428A
:101B900003D00268404EB24203D134F470044A6864
:101BA000144334F070040A681443026854600268F5
:101BB000AA4213D00268B2F1804F0FD00268344CB1
:101BC000A2420BD00268334CA24207D00268324CCA
:101BD000A24203D00268314CA24205D133F0800307
:101BE00089680B4301688B60012180F83D1000215A
:101BF00080F83C10002070BC704710B4002390F8AF
:101C00003C20012A01D102203EE0012280F83C2044
:101C10001B0A1B02CA68134333F440738A681343D8
:101C200033F480634A68134333F400630A68134350
:101C300033F480530A69134333F400534A6913435E
:101C400033F480438A6A134333F470238A6953EA76
:101C5000024302680D4CA24203D002680E4CA2421D
:101C60000CD133F470034A6A53EA025333F08073A1
:101C7000CA69134333F00073096A0B4301684B646C
:101C8000002180F83C10002010BC7047002C01405F
:101C900000040040000800400034014000400140C2
:101CA000F8B40200002433E0052704E0DFF8A8318F
:101CB0009A42F9D1042714F00303DBB29B009F4042
:101CC0003E4323009B0845F82360DFF890512B68C2
:101CD00083434E68F60300D503432B60604D2B68A9
:101CE00083434E68B60300D503432B605D4D2B68DC
:101CF00083434E68F60200D503432B605A4D2B6890
:101D000083434E68B60201D5184303002B60641C60
:101D10000868E040002800F094800125086815FA62
:101D200004F318400028F2D04B68012B08D04B6810
:101D3000022B05D04B68112B02D04B68122B16D109
:101D4000966803272300DBB25B009F40BE43CF6849
:101D50002300DBB25B009F403E4396605368A54082
:101D6000AB434D68C5F30015A5402B435360D668BF
:101D700003252300DBB25B0015FA03F39E438F6853
:101D80002300DBB25B009F403E43D6604B68022BD2
:101D900002D04B68122B17D12300DB0802EB830320
:101DA0001E6A0F2714F00703DBB29B009F40BE435F
:101DB0000F6914F00703DBB29B009F403E432300F2
:101DC000DB0802EB83031E6216682300DBB25B00B4
:101DD0009D40AE430D7915F003052300DBB25B0097
:101DE0009D402E4316604B68DB0090D51F4B1D684D
:101DF00055F001051D601B6813F001030093009B63
:101E00001B4D23009B0855F823600F2714F0030394
:101E1000DBB29B009F40BE43B2F1904F01D100273F
:101E200049E7144B9A4201D1012744E7124B9A42E9
:101E300001D102273FE7114B9A427FF437AF0327C6
:101E400039E7F1BC7047D2B2002A02D089B2816171
:101E500001E089B28162704700100048000401402F
:101E600004040140080401400C0401401810024021
:101E7000080001400004004800080048000C004829
:101E800010F00700334B1A684FF6FF010A40324941
:101E900051EA00210A431A6070472E480068C0F3D7
:101EA00002207047010049B2002908D4012210F035
:101EB0001F018A40294940B2400941F8202070475B
:101EC000020052B2002A04D40901254A40B211543A
:101ED00007E00901234A40B210F00F00104400F857
:101EE000041C704710B410F00700D0F10703052B55
:101EF00001D3042301E0D0F10703041D072C01D214
:101F0000002000E0C01E012414FA03F35B1E1940F8
:101F1000814014FA00F0401E1040084310BC704786
:101F200080B5FFF7ADFF01BD70B504000D001600D0
:101F30000020FFF7B2FF32002900FFF7D3FF0100B6
:101F4000200040B2FFF7BCFF70BD80B540B2FFF784
:101F5000A9FF01BD0CED00E00000FA0500E100E082
:101F600000E400E018ED00E038B52DED088B050029
:101F70000C00200080B240F2E931884201DB4FF4CE
:101F80007A7495F86C00002846D0B5F86E0002F01F
:101F900085F941EC140BB0EE448AF0EE648AB5F892
:101FA000700002F07BF941EC130BB0EE484AF0EE02
:101FB000684A9FEDC12B9FEDC21BB0EE418AF0EE47
:101FC000618AB0EE429AF0EE629AB0EE43AAF0EE69
:101FD00063AAB0EE44BAF0EE64BAA4B2200002F0F4
:101FE0005DF941EC100BB0EE4B4AF0EE6B4AB0EEEF
:101FF0004A3AF0EE6A3AB0EE492AF0EE692AB0EEBB
:10200000481AF0EE681A280002F086F951EC100B1D
:1020100002F0BEF9A88243E0288A02F03FF941ECC1
:10202000140BB0EE448AF0EE648A688A02F036F946
:1020300041EC130BB0EE484AF0EE684A9FED9E2B40
:102040009FED9F1BB0EE418AF0EE618AB0EE429A9E
:10205000F0EE629AB0EE43AAF0EE63AAB0EE44BA94
:10206000F0EE64BAA4B2200002F018F941EC100BB3
:10207000B0EE4B4AF0EE6B4AB0EE4A3AF0EE6A3AF6
:10208000B0EE492AF0EE692AB0EE481AF0EE681A6E
:10209000280002F041F951EC100B02F079F9A88206
:1020A000BDEC088B31BD002903D0022903D001D338
:1020B00002E001E000E0FFE770470162704780F84E
:1020C0006C10704740687047406A704710B5040054
:1020D000E3690022616D606C02F078F90020E16C28
:1020E00009684862E08AE16C0968C8620020216DD5
:1020F00009684862208B216D0968C8620120606709
:1021000002206062A16DE06CFEF71AF9206DFEF707
:1021100078F810BD10B50400A16DE06CFEF7B5F9BC
:10212000012084F86D0010BD80B503214162006D6F
:10213000FEF767F801BD80B5C9B2002906D00122BB
:102140000121DFF89403FFF77EFE05E00022012164
:10215000DFF88403FFF777FE01BD10B5040000200F
:1021600084F86D00481E206600206066491EA06C41
:102170000068C1626260002060676068002807D163
:1021800001224FF48071DFF85403FFF75CFE09E091
:102190006068012806D100224FF48071DFF83C030B
:1021A000FFF751FE0020A16C0968486220002168F9
:1021B000C96A884710BD0EB430B5040094F86C00AD
:1021C000002803D0B4F86E00A08201E0208AA0822B
:1021D00001206062002020630699200002F096F83A
:1021E000616D606C02F007F9236A0022616D606C1A
:1021F00002F0ECF86068002807D101224FF48071EA
:10220000DFF8D802FFF71FFE09E06068012806D159
:1022100000224FF48071DFF8C402FFF714FEA068BB
:1022200000280AD101228021DFF8B002FFF70BFE5F
:102230000120A16C096888620CE0A068012809D11E
:1022400000228021DFF89402FFF7FDFD0320A16C3E
:102250000968886200224FF48061DFF87C02FFF792
:10226000F2FDDFF8785201224FF480612800FFF779
:10227000EAFD01221021DFF86802FFF7E4FD0022E9
:102280004FF400412800FFF7DEFDDFF8585200222E
:1022900001212800FFF7D7FD012204212800FFF7C4
:1022A000D2FD002202212800FFF7CDFDA06CFDF732
:1022B000A8FF30BC5DF810FB0000000000408F401C
:1022C000000000000000000038B5040094F86D0024
:1022D000002845D1606A00280ED1616EA06E4118B9
:1022E0006166216E606E091AA06C0068C1622000F0
:1022F0002168496B884733E0606A032830D1A16DBB
:10230000E06CFEF7C2F8774D012204212800FFF7A8
:102310009AFD002202212800FFF795FD206DFDF7B0
:10232000B5FF236A0022616D606C02F04FF8012056
:1023300060620020A16C09684862002020660020CD
:1023400060660020E065012204212800FFF77BFD84
:10235000002202212800FFF776FD012084F86D009D
:1023600031BD704738B50400606A022802D00328E6
:102370002ED078E0A18AE06C0068C26AE068121A88
:1023800091421CD3A06C0068406AE065616EE06D0C
:1023900041186166A08AE16C0968C8620020606229
:1023A000206DFDF773FF206E401CE16D891CB0EBC2
:1023B0004100A066A06EA16C0968C86207E0E06CED
:1023C0000068C16AE068091AE06C0068C1624AE00E
:1023D000E06C0068C16AE0684118E08A814239D344
:1023E000E08AE16C0968C862606F01282ED1A16D96
:1023F000E06CFEF74AF83B4D002204212800FFF76D
:1024000022FD012202212800FFF71DFD206DFDF7AE
:102410003DFF236A0022616D606C01F0D7FF01204F
:1024200060620020A16C09684862002020660020DC
:1024300060660020E065012204212800FFF703FD0B
:10244000002202212800FFF7FEFC0BE0206DFDF7C3
:102450001DFF07E0E06C0068C16AE0684118E06CAD
:102460000068C162FFE731BD2DE9F04704000D00AF
:1024700016001F00DDF82080DDF82490DDF828A08C
:10248000200001F018FF184820606564A764C4F8B4
:102490004C80C4F850A06665C4F858900020E065F0
:1024A00000202066002060660020A066012084F8DD
:1024B0006C00012084F86D0040F26310A4F86E00F7
:1024C00040F2DC50A4F87000012060674020A06753
:1024D0002000BDE8F0870000000C00480010004814
:1024E0000008004800040048DCB1000810B50400F2
:1024F000606A00286BD1E069002827D0022830D01C
:1025000064D22069616888421CD1206A00280DD1FC
:102510000122A18DA06AFFF796FC6169A069091AE2
:10252000216100206060012020620EE00022A18D68
:10253000A06AFFF788FCA06920610020606000208D
:10254000206202E06068401C60603FE0206A012871
:1025500006D10022A18DA06AFFF775FC0020206241
:1025600034E02069616888422CD1206A00281DD19E
:102570000122A18DA06AFFF766FC6169A069091AB2
:1025800021610020606001202062A068E16888422B
:1025900008D1012060620020E0610020A0600020DE
:1025A000E06012E0A068401CA0600EE00022A18D57
:1025B000A06AFFF748FCA06920610020606000204D
:1025C000206202E06068401C6060FFE708E00122D2
:1025D000A18DA06AFFF737FC002060600120206217
:1025E00010BD10B5040008001100A062A1850122F1
:1025F00089B2FFF728FC0120206010BD0021416254
:102600007047002242620222C261C2688918C1601A
:102610007047C16142618361704700210160002100
:102620004160002181600021C160002101614FF4FF
:102630007A714161642181610121C16101210162DD
:10264000012141627047000080B50748016851F0E0
:10265000100101600320FFF763FC002001F060FF20
:1026600001F09EFF002002BD002002402DE9F84F3E
:1026700086B0142200216846FFF7E7F96D4801682B
:1026800051F400110160016811F4001105910599E0
:10269000016851F400210160016811F400210591E5
:1026A0000599016851F480010160016811F480010D
:1026B00005910599016851F400310160016811F438
:1026C000003105910599016851F48021016001688C
:1026D00011F4802105910599016851F48011016080
:1026E000006810F480100590059848F2845B524C05
:1026F000002259462000FFF7A6FB4EF210054F4E70
:10270000002229003000FFF79EFB41F60747DFF863
:102710003081002239004046FFF795FB40F26749BF
:10272000DFF820A1002249465046FFF78CFB00222B
:102730004FF400715FF09040FFF785FBCDF800B0DB
:1027400001200190002002900020039069462000A3
:10275000FFF7A6FA70200090002001900020029060
:1027600069462000FFF79CFA0095012001900020A7
:1027700002900020039069463000FFF791FA202074
:102780000090002001900020029069463000FFF781
:1027900087FA00970120019000200290002003900A
:1027A00069464046FFF77CFA4FF4985000900220AB
:1027B00001900020029003200390072004906946B6
:1027C0005046FFF76DFACDF80090012001900020EF
:1027D00002900020039069465046FFF761FA4FF4DB
:1027E00000700090012001900020029000200390D2
:1027F00069465FF09040FFF753FA082000900020F0
:1028000001900020029069464046FFF749FA4FF4D4
:10281000407000900220019000200290032003905D
:102820000920049069464046FFF73AFA07B0BDE830
:10283000F08F00BF1410024000100048000800484C
:1028400000040048000C004880B50948016851F0B8
:1028500001010160006810F0010000900098002262
:1028600005210B20FFF760FB0B20FFF76EFB01BD7E
:102870001410024018B589B00C22002106A8FFF7F9
:10288000E4F8182200216846FFF7DFF8934C5FF068
:10289000A0402060002060600020A0600120206136
:1028A00001206076002084F820000020E0620120F2
:1028B000A0620020E0600420E061012084F8300084
:1028C000042060610020207600206063200001F079
:1028D00087FE002801D0FFF7B1F80020069006A976
:1028E000200002F015FA002801D0FFF7A7F8062013
:1028F000009001200190002003900420029000200D
:102900000490002005906946200001F0E3FF0028B4
:1029100001D0FFF793F8072000900220019069464C
:10292000200001F0D7FF002801D0FFF787F808202A
:102930000090032001906946200001F0CBFF0028A1
:1029400001D0FFF77BF80920009004200190694630
:10295000200001F0BFFF002801D0FFF76FF80AB098
:1029600010BD10B586B0182200216846FFF76DF83B
:102970005B4C5C482060002060600020A06000206C
:10298000206100206076002084F820000020E062B2
:102990000120A0620020E0600120E061002084F8B6
:1029A0003000042060610020207600206063200059
:1029B00001F016FE002801D0FFF740F80920009032
:1029C000012001900020039000200290002004903C
:1029D000002005906946200001F07CFF002801D00E
:1029E000FFF72CF806B010BD38B586B004001422ED
:1029F000002101A8FFF729F82068B0F1A04F41D1CC
:102A000039480168491C01600068012809D137482C
:102A1000016851F080510160006810F08050009012
:102A200000983248016851F400210160006810F4F8
:102A30000020009000980F200190032002900020B9
:102A4000039001A92A48FFF72BF92A4D2A4828604C
:102A5000002068600020A8608020E8604FF480704B
:102A600028614FF4806068612020A8610020E8613F
:102A7000280002F055FA002801D0FEF7DFFFA56319
:102A80006C6228E020681749884224D11648016802
:102A9000491C01600068012809D11448016851F0FF
:102AA00080510160006810F08050009000980F483D
:102AB000016851F400210160006810F400200090CA
:102AC00000980F200190032002900020039001A99C
:102AD0000748FFF7E5F807B030BD000004690020A3
:102AE00054690020000100506C6E00201410024058
:102AF00000080048506C0020080002401FB50C225E
:102B000000216846FEF7A1FF2A4C2B4820602000D8
:102B100002F006FB002801D0FEF790FF0020009095
:102B20000020019000226946200001F0CFFC00281F
:102B300001D0FEF783FF10226946200001F0C6FC99
:102B4000002801D0FEF77AFF1FBD10B586B0040043
:102B50001422002101A8FEF778FF20681649884258
:102B600026D11648016851F000510160006810F04C
:102B70000050009000981248016851F40031016043
:102B8000006810F40030009000983020019003207D
:102B900002900020039001A95FF09040FFF780F8B9
:102BA000002205213620FFF7BFF93620FFF7CDF9C7
:102BB00006B010BDEC6D0020007400401C100240F7
:102BC0001410024080B52C482C4901604FF48271EA
:102BD0004160002181604FF4E061C160002101612A
:102BE000002141614FF4007181613821C1610021F0
:102BF000016200214162002181620721C16200213E
:102C000001630821416302F0A1FA002801D0FEF718
:102C100015FF01BD10B586B004001422002101A8E3
:102C2000FEF713FF20681549884222D11448016835
:102C300051F480410160006810F4804000900098D9
:102C40001048016851F480210160006810F4802070
:102C5000009000984FF46040019002200290002004
:102C60000390032004900520059001A90648FFF772
:102C700017F806B010BD00004C6800200038004076
:102C80001C100240141002400004004880B52C487B
:102C90002C4901605FF4E131416000218160002135
:102CA000C160002101610C2141610021816100218D
:102CB000C161002101620021416200230022002144
:102CC00002F0C6FA002801D0FEF7B8FE01BD10B52B
:102CD00086B004001422002101A8FEF7B6FE206889
:102CE000184988422AD11848016851F4003101601E
:102CF000006810F40030009000981448016851F406
:102D000000310160006810F40030009000980E203F
:102D100001900220029000200390032004900720DD
:102D2000059001A95FF09040FEF7BAFF002205214F
:102D30002620FFF7F9F82620FFF707F906B010BDA7
:102D40004C670020004400401C1002401410024058
:102D500080B56F486F4901605021416080218160DA
:102D60007F21C16000210161002141610021816159
:102D70000021C161002101620021416202F0B2FA2A
:102D8000002801D0FEF75AFE01BD80B562486349B4
:102D9000016050214160002181607F21C1600021DC
:102DA000016100214161002181610021C161002197
:102DB00001620021416202F095FA002801D0FEF77D
:102DC0003DFE01BD80B55648564901605021416025
:102DD000002181607F21C1600021016100214161EA
:102DE000002181610021C161002101620021416255
:102DF00002F078FA002801D0FEF720FE01BD10B5E0
:102E000086B00400142200216846FEF71EFE2068EA
:102E1000404988422ED14448016851F48011016034
:102E2000016811F4801105910599016851F4003190
:102E30000160006810F40030059005984FF4804060
:102E40000090032001900020029069463748FEF769
:102E500027FF4FF480700090022001900020029024
:102E6000002003900820049069465FF09040FEF730
:102E700017FF4BE02068294988422ED12A48016873
:102E800051F480110160016811F4801105910599D8
:102E9000016851F400310160006810F400300590C1
:102EA00005984FF4006000900320019000200290EC
:102EB00069461E48FEF7F4FE4FF480600090022041
:102EC00001900020029000200390082004906946A1
:102ED0005FF09040FEF7E4FE18E020681149884258
:102EE00014D11148016851F400310160006810F4F8
:102EF00000300590059801200090032001900020EB
:102F0000029069465FF09040FEF7CAFE06B010BD21
:102F1000946C002024000140C46C0020300001406B
:102F2000F46C00203400014014100240000C0048F2
:102F30000FB4F8B50C9C062606AF00F049F8200047
:102F400000F031F800250AE02800C0B257F8201040
:102F50002800C0B214EB800000F046F86D1C280079
:102F6000C0B2B042F0D300F039F8F1BC5DF814FB08
:102F700030B40622002308E01C00A4B251F824401B
:102F80001D00ADB240F825405B1C1C00A4B2944269
:102F9000F2D330BC70472348006810F0010090F075
:102FA0000100C0B2704710B51F4C216851F00201FA
:102FB00021601E490860206850F040002060FFF743
:102FC000EAFF0028FBD0206830F00200206010BD2E
:102FD0001748184901601849016070471248016894
:102FE00051F080010160704770B504000D000E4E75
:102FF000306850F001003060FFF7CDFF0028FBD0B3
:103000002580FFF7C8FF0028FBD0A41C2D0C2580CD
:10301000FFF7C1FF0028FBD0306840084000306057
:1030200070BD00000C20024010200240142002401D
:103030000420024023016745AB89EFCD62B38B07C3
:1030400008D0521E11F8013B00F8013B00F024802B
:103050008B07F6D1830740F0208000BF103A07D3DA
:1030600030B4B1E83810103AA0E83810F9D230BCCA
:10307000530724BFB1E80810A0E8081044BF51F876
:10308000043B40F8043BD20724BF31F8022B20F860
:10309000022B44BF0B7803707047121F17D35B00DD
:1030A00009D151F8043B20F8023B1B0C121F20F8F9
:1030B000023BF6D20BE051F8043B00F8013B1B0A3F
:1030C00020F8023B1B0C121F00F8013BF3D238BF63
:1030D000121D521E24BF11F8013B00F8013BF8D825
:1030E0007047000038B5040002F062F9050014F1E1
:1030F000010F02D004480078241802F059F9401B4F
:10310000A042FAD331BD00BF1D020020DFF83C34DD
:103110000360DFF83C04086080201060704780B5D1
:103120008EB007A8DFF82C141C22FFF797FF0021B0
:1031300007A800F055FADFF8201408606846DFF8A9
:103140001C141C22FFF78AFF0021684600F048FA91
:10315000DFF80C1408600FB000BD2DE9FF4102F04C
:103160002DF9142000F06BFA01224FF400715FF08A
:103170009040FEF768FE142000F061FA00224FF440
:1031800000715FF09040FEF75EFEDFF8D843DFF895
:10319000D853290083B068461822FFF75FFF0EBCA2
:1031A000206826683668B66AB04769692068226870
:1031B000126812699047DFF8B453DFF8B4834FF414
:1031C000004241462800FFF70CFADFF8A8634FF4ED
:1031D000005241463000FFF704FADFF89C734FF4C9
:1031E000804241463800FFF7FCF964234FF4FA624D
:1031F00001213800FFF70DFA3800FFF7FFF9DFF87B
:103200007C8301224FF480614046FEF71CFE0122C0
:103210004FF400614046FEF716FE00F0D6F900902C
:103220002800FFF763F93000FFF760F93800FFF777
:103230005DF9DFF84C83D8F80000012807D10020A1
:10324000C8F80000206821680968096B8847D8F829
:103250000000022807D10020C8F80000206821687B
:103260000968496B8847D8F8000003280DD1002071
:10327000C8F80000DFF80C030268DFF80C030168EF
:10328000206823681B685B6A9847D8F80000042808
:1032900007D10020C8F80000206821680968C96AC1
:1032A0008847D8F80000052807D10020C8F800009A
:1032B000206821680968496B88470121684600F049
:1032C000C9F9ADE780B5A848002100910368032241
:1032D0000179002002F09EF802F0E9F802F0F7F818
:1032E000FCE70020C0B270477FB50600080080B23E
:1032F000002800D0491E0024DBB2002B02D0012B95
:103300002ED01DE189B200290FD002290FD00DD394
:1033100004291CD013D306291BD019D308291AD08D
:1033200018D30A2919D017D318E018E017E08D49EF
:10333000086809680968C969884770700FE0894999
:1033400008680968096889698847707007E006E0BD
:1033500005E004E003E002E001E000E00124F0E029
:1033600089B2002914D0022952D03CD304296DD04F
:103370004FD3062900F0908076D3082900F0C5804D
:10338000C0F0A4800A2900F0D580C0F0CA80D5E042
:103390007078002813D1734D286829680968C969B5
:1033A000884700281ED1286829680968496B884722
:1033B000002128682A681268926B904712E0694DD4
:1033C000286829680968C969884701280AD1012144
:1033D00028682A681268926B9047286829680968EB
:1033E000C96A8847ABE00025307855EA0025707837
:1033F00005435C490E680868096809688969884757
:103400000200ADB22900300033685B6A984796E04D
:1034100095E0707800280CD1524D28682968096819
:10342000C9698847012804D10021286800F06CFF91
:103430000BE04C4D286829680968C969884701284C
:1034400003D10121286800F05FFF78E00021307887
:1034500051EA002170780143424A89B2106812682B
:103460001268926890476AE00025307855EA002596
:103470007078054329003B48006800F047FF3A494F
:10348000CD604248029084B068461822FFF7E6FDFE
:103490000FBCFFF74DFD52E00025307855EA0025BE
:1034A000707805432F4A2900106812681268526824
:1034B00090472D490D613548029084B06846182226
:1034C000FFF7CCFD0FBCFFF733FD38E00025307867
:1034D00055EA002570780543002D01D0012100E058
:1034E0000021204AC9B2106812681268D268904759
:1034F0001D494D612548029084B068461822FFF7A7
:10350000ADFD0FBCFFF714FD19E0204802901649ED
:1035100084B068461822FFF7A1FD0FBCFFF708FD35
:103520000DE03078717851EA00210A2041430E48BD
:10353000016004E070780C49087100E0012400E0AB
:1035400002242000C0B204B070BD0000B0680020AA
:10355000C061002028B30008786E002044B3000842
:103560007C6E0020906E002004000020246D00205E
:1035700000080048546D0020846D002000040048BD
:10358000706E0020746E00200000002000FC030814
:103590000120704701207047010000200A0012B28C
:1035A000842A03D009B2C91C091808007047EFF338
:1035B0000580002801D0012000E00020C0B2704743
:1035C00080B502F0BBF9002002BD80B5FFF7EFFF28
:1035D000002802D002F075FA01E002F06EFA02BD96
:1035E00038B584B004000D006069002815D0A069CA
:1035F000002812D0B4F90800FFF7CEFFA1690291AC
:103600006169019100902B0022692168606802F0D5
:1036100001F80390039805B030BDB4F90800FFF736
:10362000BBFF03A9019100902B00226992B221688F
:10363000606802F030F80128ECD00020EBE780B59C
:103640000121B0FBF1F0002800D1012002F050F977
:10365000002002BD80B50122B1FBF2F1002900D1AA
:10366000012102F0F3F8002002BD000062F30F22F6
:1036700062F31F42401810F0030308D0C91A1FD389
:10368000DB0748BF00F8012D28BF20F8022D1300EA
:1036900030B414461546103928BF20E93C00FAD84A
:1036A000490728BF20E90C0048BF40F8042D8900D5
:1036B00028BF20F8022D48BF00F8012D30BC70470C
:1036C000C91818BF00F8012DCB0728BF00F8012D3D
:1036D000704700002DE9F8430400002C01D10120BF
:1036E00030E32078C00740F1BE80DFF800090168B0
:1036F00011F00C0104290AD0016811F00C0108290D
:1037000028D1006810F48030B0F5803F22D14FF40A
:103710008040B0FA80F151F02001C9B24909012975
:1037200003D1DFF8C418096806E0B0FA80F1B0FAF6
:1037300080F1DFF8D0180968B0FA80F010F01F00AF
:10374000C140C80740F18F806068002840F08B803E
:103750000120F7E26068B0F5803F06D1DFF8880805
:10376000016851F48031016026E0606800280AD1C8
:10377000DFF87408016831F480310160016831F4C8
:103780008021016018E06068B0F5A02F0AD1DFF851
:103790005808016851F480210160016851F48031BA
:1037A000016009E0DFF84008016831F48031016010
:1037B000016831F480210160DFF840180A681209BD
:1037C0001201A06802430A606068002825D001F059
:1037D000EFFD05004FF48040B0FA80F151F0200178
:1037E000C9B24909012903D1DFF8FC17096806E0CD
:1037F000B0FA80F1B0FA80F1DFF808180968B0FA81
:1038000080F010F01F00C140C8072CD401F0D0FD9B
:10381000401B6528DED3032094E201F0C9FD0500BA
:103820004FF48040B0FA80F151F02001C9B249094B
:10383000012903D1DFF8B017096806E0B0FA80F17A
:10384000B0FA80F1DFF8BC170968B0FA80F010F028
:103850001F00C140C80706D501F0AAFD401B65281E
:10386000DED303206EE2207880073CD5DFF87C07AA
:10387000016811F00C0F07D0016811F00C01082944
:1038800060D10068C0035DD45FF08040B0FA80F181
:1038900051F02001C9B24909012903D1DFF84817C5
:1038A000096806E0B0FA80F1B0FA80F1DFF8541749
:1038B0000968B0FA80F010F01F00C140C80704D5B5
:1038C0002069012801D001203CE2DFF81C070168D3
:1038D0005FF0F852B2FA82F231F0F801636913FA3C
:1038E00002F2114301602078000740F1C480A06912
:1038F000002800F09A8001205FF00041B1FA81F1C8
:10390000DFF8FC2612EB8102106001F051FD05008A
:103910005FF08040B0FA80F1B0FA80F1B0FA80F147
:10392000DFF8E0160968B0FA80F010F01F00C1401F
:10393000C80700F1A08001F03BFD401B0328E7D33E
:103940000320FFE1206900283ED001205FF0004104
:10395000B1FA81F1DFF8B02612EB8102106001F0BC
:1039600027FD05005FF08040B0FA80F151F02001A2
:10397000C9B24909012903D1DFF86C16096806E0CC
:10398000B0FA80F1B0FA80F1DFF878160968B0FA81
:1039900080F010F01F00C140C80706D401F008FDF8
:1039A000401B0328DED30320CCE1DFF83C0601688E
:1039B0005FF0F852B2FA82F231F0F801636913FA5B
:1039C00002F2114301608EE700205FF00041B1FA7E
:1039D00081F1DFF8342612EB8102106001F0E8FC7F
:1039E00005005FF08040B0FA80F151F02001C9B2CB
:1039F0004909012903D1DFF8F015096806E0B0FA9A
:103A000080F1B0FA80F1DFF8FC150968B0FA80F0B7
:103A100010F01F00C140C8077FF565AF01F0C8FC7A
:103A2000401B0328DDD303208CE100205FF0004120
:103A3000B1FA81F1DFF8C82512EB8102106001F0C4
:103A4000B7FC05005FF08040B0FA80F1B0FA80F179
:103A5000B0FA80F1DFF8AC150968B0FA80F010F028
:103A60001F00C140C80706D501F0A2FC401B032877
:103A7000E8D3032066E12078400740F1B1800026BA
:103A8000DFF888552868C00009D4286850F08050B5
:103A90002860286810F08050009000980126DFF818
:103AA00070753868C00511D4386850F4807038607B
:103AB00001F07EFC80463868C00507D401F078FC30
:103AC000B0EB08006528F6D303203BE1E06801284D
:103AD00006D1DFF84005016851F00101016025E0E1
:103AE000E06800280AD1DFF82C0501684908490080
:103AF0000160016831F00401016017E0E068052809
:103B00000AD1DFF81005016851F004010160016875
:103B100051F00101016009E0DFF8F804016849088B
:103B200049000160016831F004010160E06800288B
:103B300027D001F03DFC07005FF08040B0FA80F133
:103B4000B0FA80F151F04001C9B24909022903D10C
:103B5000DFF8C014096804E0B0FA80F1DFF8A414BB
:103B60000968B0FA80F010F01F00C140C80730D4D7
:103B700001F01EFCC01B41F289318842DCD30320D6
:103B8000E0E001F015FC07005FF08040B0FA80F142
:103B9000B0FA80F151F04001C9B24909022903D1BC
:103BA000DFF87014096804E0B0FA80F1DFF854140B
:103BB0000968B0FA80F010F01F00C140C80708D5AE
:103BC00001F0F6FBC01B41F289318842DCD30320AF
:103BD000B8E0F6B2012E03D1286830F0805028609A
:103BE000E069002800F0AD80DFF80064306810F074
:103BF0000C00082800F09380E069022861D180273A
:103C0000DFF804840020B7FA87F118EB810108601F
:103C100001F0CEFB81464025B5FA85F050F020003A
:103C2000C0B24009012803D1DFF8BC03006806E0F8
:103C3000B5FA85F0B5FA85F0DFF8C8030068B5FA83
:103C400085F111F01F01C840C00707D501F0B0FB96
:103C5000B0EB09000328DED3032073E0316831F4B0
:103C60007411606A0143206A014331600120B7FA90
:103C700087F118EB8108C8F8000001F099FB0400F7
:103C8000B5FA85F050F02000C0B24009012803D1F8
:103C9000DFF85403006806E0B5FA85F0B5FA85F060
:103CA000DFF860030068B5FA85F111F01F01C84024
:103CB000C00746D401F07CFB001B0328E0D303209F
:103CC00040E000208021B1FA81F1DFF83C2312EBC3
:103CD0008102106001F06CFB04004020B0FA80F11A
:103CE00051F02001C9B24909012903D1DFF8F812C6
:103CF000096806E0B0FA80F1B0FA80F1DFF8041349
:103D00000968B0FA80F010F01F00C140C80718D54C
:103D100001F04EFB001B0328DFD3032012E0E06913
:103D2000012801D101200DE0306810F48031226AB1
:103D3000914204D110F47010616A884201D00120D0
:103D400000E00020BDE8F2832DE9F04104000D0001
:103D50000020002C01D10120D2E0DFF8BC623068E5
:103D600010F00700A8420BD23068C008C0002843FA
:103D70003060306810F00700A84201D00120BFE099
:103D80002078800707D5DFF864120A6832F0F00265
:103D9000A06802430A602078C00776D560680128D1
:103DA0001DD14FF48040B0FA80F151F02001C9B22A
:103DB0004909012903D1DFF83012096806E0B0FA99
:103DC00080F1B0FA80F1DFF83C120968B0FA80F0B7
:103DD00010F01F00C140C8073CD4012090E060688B
:103DE00002281BD14020B0FA80F151F02001C9B265
:103DF0004909012902D17C49096806E0B0FA80F13D
:103E0000B0FA80F1DFF8FC110968B0FA80F010F028
:103E10001F00C140C8071DD4012071E05FF0804041
:103E2000B0FA80F151F02001C9B24909012902D14B
:103E30006D49096805E0B0FA80F1B0FA80F1714986
:103E40000968B0FA80F010F01F00C140C80701D423
:103E5000012055E0654F3968890889006068014391
:103E6000396001F0A5FA8046386810F00C006168EE
:103E7000B0EB810F09D001F09BFAB0EB080041F2E2
:103E800089318842F0D303203AE0306810F007000F
:103E900085420BD23068C008C000284330603068CB
:103EA00010F00700A84201D0012029E02078400747
:103EB00006D54E490A6832F4E062E06802430A60BF
:103EC0002078000707D54948016831F4605122691C
:103ED00051EAC201016000F015F8444909684F4AEF
:103EE00011F0F0015FF07063B3FA83F3D940515CD5
:103EF000C840404908604048006800F011FB0020BD
:103F0000BDE8F08110B40020002000200020002037
:103F10003648016811F00C00042802D0082802D0AD
:103F200021E03F4820E03F4811F470124FF47053F5
:103F3000B3FA83F3DA40805C304A12683A4B12F0ED
:103F40000F025FF07044B4FA84F4E2409A5CC90353
:103F500006D53349B1FBF2F201001000484301E0FD
:103F60003249484300E0224810BC704721480068AD
:103F7000704780B5FFF7FAFF1C4909682C4A11F415
:103F8000E0615FF46003B3FA83F3D940515CC84049
:103F900002BD80B5FFF7EAFF14490968244A11F40D
:103FA00060515FF4E013B3FA83F3D940515CC84029
:103FB00002BD0F2202600D4A136813F00303436031
:103FC000136813F0F0038360136813F4E063C360B5
:103FD0001268D20812F4E06202610F48006810F023
:103FE0000700086070470000001002400410024003
:103FF00000127A00A8000020A40000202C1002402B
:104000008004424224100240000042421C10024040
:1040100000700040201002400020024014B400084C
:10402000001BB700F4B3000804B4000800093D0009
:1040300070B400082DE9FC41040000200020002697
:104040002068C0037CD5DFF81C522868C00009D462
:10405000286850F080502860286810F08050009048
:1040600000980126DFF800723868C00511D438685E
:1040700050F48070386001F09BF980463868C005C4
:1040800007D401F095F9B0EB08006528F6D30320BA
:10409000E6E0DFF8D871386810F44070002842D0AC
:1040A000616811F4407188423DD0386830F4407046
:1040B000DFF8BC114FF400420123B2FA82FC11EB8D
:1040C0008C0CCCF800300023B2FA82F211EB8201A2
:1040D0000B603860C00726D501F06AF980465FF0B2
:1040E0008040B0FA80F1B0FA80F151F04001C9B2DD
:1040F0004909022901D1396804E0B0FA80F1DFF8FA
:1041000074110968B0FA80F010F01F00C140C807B0
:1041100009D401F04DF9B0EB080041F28931884231
:10412000DDD303209CE0396831F4407160680143BD
:104130003960F6B2012E03D1286830F08050286033
:104140002078C00707D5DFF830110A68920892007E
:10415000A06802430A602078800707D5DFF81811AD
:104160000A6832F44032E06802430A60207840076F
:1041700007D5DFF804110A6832F4402220690243AF
:104180000A602078800607D5DFF8EC100A6832F064
:104190001002E06902430A602068800307D5DFF857
:1041A000DC100A6832F48002A06B02430A602078B7
:1041B000400607D5DFF8C0100A6832F02002206AF6
:1041C00002430A602078000707D5DFF8AC100A68C0
:1041D00032F44012606902430A602078C00607D5B5
:1041E000DFF894100A6832F44002A06902430A60C2
:1041F0002068800507D5DFF884100A6832F40002D1
:10420000E06A02430A602078000607D5DFF87010E4
:104210000A6832F4F872606A02430A602068C005D6
:1042200007D5DFF85C100A6832F47852A06A0243BE
:104230000A602068C00407D5DFF83C100A6832F431
:104240008072206B02430A602068800407D5DFF883
:1042500028100A6832F40072606B02430A60002082
:10426000BDE8F6811C1002400070004020100240A2
:104270000004424224100240301002400410024068
:104280002C10024003480168034A12788918016023
:10429000704700BFC06E00201D020020014648B1DB
:1042A000B0FA80F18840C91CC1F58461090501EBB1
:1042B000D0214005704780B500F001F802BD002113
:1042C0004160002181600521C16040F20911018235
:1042D00040F6B83242828182C28202834FF4167164
:1042E000C1614021016201214162D7210185002184
:1042F000C162022101630021416300218163002129
:10430000C1630221016470474160704740F2E932A5
:10431000914200D2C160704738B52DED088BB0EEE8
:10432000418AF0EE618AB0EE429AF0EE629AB0EE07
:1043300043AAF0EE63AAB0EE44BAF0EE64BA51ECD0
:10434000100B53EC182B01F07DFD04000D0051EC17
:104350001B0B53EC1A2B01F075FD22002B0001F012
:10436000E3FD04000D0051EC190B53EC182B01F088
:1043700069FD02000B002000290001F0A7FE53ECAC
:104380001A2B01F0C7FF41EC100BBDEC088B31BDBF
:10439000C1F30A5340F2FE329B1A14DDD3F120031D
:1043A0004FEAE17208DDC90241EA505141F0004094
:1043B000D84080185040704703F2E13010B1D2432A
:1043C00082F00040704700207047000018B40024BD
:1043D000009400680090002904D100980832121857
:1043E000009203E0009814321218009200980360C3
:1043F000002012BC70474279012A01D102202BE033
:1044000001224271022202710268126801238B406C
:104410001A4303681A6000290CD10168096811F079
:104420003C013C2913D10168496851F0010102683F
:1044300051600CE00168096811F47011B1F5701F4A
:1044400005D10168496851F00201026851600121FB
:104450000171002141710020704710B504002068EF
:104460000068800416D52068406B800412D50420B3
:104470002071206950F0010020614FF40050216844
:1044800048632068006830F480502168086020008C
:1044900001F0FDFF20680068800016D52068406BA1
:1044A000800012D504202071206950F002002061A4
:1044B0005FF00050216848632068006830F0805049
:1044C00021680860200001F0E3FF10BD10B4002354
:1044D00000234379012B01D102201EE00123437107
:1044E0000223037103681B6840F6FE749440A343E3
:1044F0000C6849680C439440234301680B600168D1
:104500000968C02313FA02F231EA020201680A6064
:104510000121017100214171002010BC7047000091
:1045200018B587B001000020002000223720FDF7D9
:10453000FBFC3720FDF709FD1548016851F020010B
:104540000160006810F020000090009801A902A806
:10455000FFF72FFDFFF70DFD40000E49B0FBF1F016
:10456000401E0D4C0D49216040F2E731E160606072
:10457000002020610020A0602000FBF705FE00283D
:1045800003D12000FBF73DFE00E0012008B010BD84
:104590001C10024040420F00A4690020001400409B
:1045A00080B50D48016851F001010160006810F00C
:1045B0000100009000980948016851F080510160A5
:1045C000006810F080500090009800220F217FF0CA
:1045D0000100FDF7A9FC01BD181002401C100240AB
:1045E00078B595B004000025002600200090002C2E
:1045F00001D101205AE12069002802D094F820005E
:104600000028206CC00653D4206C00283DD1002027
:1046100060640020E0640020A064002084F83C0076
:104620002000FEF7E1F920688068C0002DD420004A
:1046300000F028FC0500206CC00626D42800C0B27B
:10464000002822D1206C30F4885050F00200206401
:104650002068806830F04050216888602068806859
:1046600050F0805021688860DFF844020068DFF86D
:104670004412B0FBF1F10A204143009102E000989E
:10468000401E009000980028F9D120688068C00082
:1046900003D52068806880000AD5206C30F00200C5
:1046A00050F010002064606C50F00100606401253F
:1046B000206CC00600F1F1802800C0B2002840F054
:1046C000EC8020688068400700F1E780206C30F4BF
:1046D000807050F0020020642068B0F1A04F04D038
:1046E0002068DFF8D411884202D1DFF8D01101E050
:1046F000DFF8CC112068B0F1A04F04D1DFF8B80189
:10470000019001981EE02068DFF8AC21904204D1AE
:104710005FF0A0400190019814E0DFF8A801226842
:10472000824204D1DFF8A001019001980AE02268DA
:10473000DFF894319A4202D10190019802E0002002
:10474000019001982068806810F00300012804D1CE
:104750002068006810F0010000E00020002816D159
:10476000019800280DD00198806810F003000128FE
:1047700004D10198006810F0010000E0002000283A
:1047800005D18A6832F44032606802438A60606B07
:10479000012802D04FF4805100E00021607E51EAF0
:1047A0004031E0680143A06801430E4394F82000C3
:1047B000012813D1607E002806D1606A401E4004A3
:1047C00050F48030064309E0206C30F0020050F0D5
:1047D00020002064606C50F001006064A06A012831
:1047E00024D02068DFF8DC10884204D02068DFF88D
:1047F000D810884216D1A06AB0F5307F02D14FF4AC
:10480000E07110E0A06AB0F5807F02D14FF4307102
:1048100009E0A06AB0F5E07F02D14FF4807102E0B8
:10482000A16A00E0A16AE06A01430E432068806843
:1048300010F00C0F0DD12068C168DFF89000014026
:104840002068C160207E94F83010490051EA803120
:104850000E432068C168DFF8780001400E432068ED
:10486000C6602069012809D12068006B0009000199
:10487000E169491E08432168086305E02068006B70
:10488000000900012168086300206064206C30F09A
:10489000020050F00100206406E0206C30F00200BD
:1048A00050F01000206401252800C0B216B070BD81
:1048B000A800002040420F000001005000030050FB
:1048C000000700500004005000050050FDBFFFFF2E
:1048D00007C0F0FF70B495B002000B00002100206B
:1048E0000090D8680128FFD192F83C00012801D13E
:1048F000022003E2012082F83C0010688068400733
:1049000000F1F2815868052811D206201468246B42
:104910001F255E684643B540AC431D685E6800FBDA
:1049200006F015FA00F020431468206340E0586850
:104930000A2813D206241068456B1F265868401FAA
:1049400010FB04F08640B5431E685868401F10FBFA
:1049500004F0864035431068456329E058680F2805
:1049600013D206241068856B1F2658680A3810FB7E
:1049700004F08640B5431E6858680A3810FB04F0FE
:10498000864035431068856312E006241068C56BC5
:104990001F2658680F3810FB04F08640B5431E6888
:1049A00058680F3810FB04F0864035431068C56323
:1049B0001068806810F00C0F40F0AB8018680A286F
:1049C00014D310688469072518680A38032610FB79
:1049D00006F08540AC439D6818680A38032610FB32
:1049E00006F085402C43106884610FE0106844692C
:1049F00007251E6803204643B540AC439D681E68EA
:104A000003204643B5402C4310684461586914683C
:104A1000E468C4F3C104E4B2640010FA04F4186951
:104A2000012806D03DD303281FD010D304282AD054
:104A300037E01068056EDFF840040540186855EA55
:104A400080652C4354F000441068046661E01068EF
:104A5000456EDFF824040540186855EA80652C434C
:104A600054F000441068446653E01068856EDFF827
:104A700008040540186855EA80652C4354F000444A
:104A80001068846645E01068C56EDFF8EC030540E9
:104A9000186855EA80652C4354F000441068C466D9
:104AA00037E01068006E10F0F8401C68B0EB846FBF
:104AB00005D11068006E20F0004014682066106870
:104AC000406E10F0F8401C68B0EB846F05D11068A0
:104AD000406E20F00040146860661068806E10F030
:104AE000F8401C68B0EB846F05D11068806E20F030
:104AF00000401468A0661068C06E10F0F8401C6892
:104B0000B0EB846F05D11068C06E20F000401468CF
:104B1000E0661068806810F00300012804D1106876
:104B2000006810F0010000E00020002840F0E18063
:104B3000D86801280AD01068D0F8B040012518685C
:104B40008540AC431068C0F8B04035E01068D0F83C
:104B5000B0400125186885402C431068C0F8B0406B
:104B600018680A2814D3106884690725186809385A
:104B7000032610FB06F08540AC439D681868093891
:104B8000032610FB06F085402C431068846113E077
:104B90001068446907251868401C032610FB06F0BE
:104BA0008540AC439D681868401C032610FB06F046
:104BB00085402C43106844611068B0F1A04F03D0C9
:104BC0001068504CA04202D1DFF8B04201E0DFF89B
:104BD000B0421868102802D1A06800020CD51868ED
:104BE000112802D1A068C00106D51868122840F02B
:104BF0008080A06840027CD41068B0F1A04F03D13F
:104C00004048019001981AE010683E4DA84204D136
:104C10005FF0A0400190019811E03B481568854283
:104C200003D13A480190019809E01568374EB54222
:104C300002D10190019802E00020019001981068D3
:104C4000806810F00300012804D11068006810F09B
:104C5000010000E00020002840D1019800280DD07C
:104C60000198806810F00300012804D101980068C1
:104C700010F0010000E0002000282FD11868102853
:104C800018D11068B0F1A04F14D1A06850F4000002
:104C9000A060DFF874020068DFF87032B0FBF3F355
:104CA0000A20434300930098002822D00098401E19
:104CB0000090F8E71868112808D11068B0F1A04FEB
:104CC00004D1A06850F08070A06012E0186812282B
:104CD0000FD1A06850F48000A0600AE0106C50F082
:104CE00020001064012104E0106C50F020001064DA
:104CF0000121002082F83C000800C0B215B070BC51
:104D000070470000000100500004005000050050F2
:104D100030B494B000220B68002B0368B3F1A04FAD
:104D200004D1DFF8F4310093009B1EE00368DFF844
:104D3000E841A34204D15FF0A0430093009B14E03C
:104D4000DFF8CC3104689C4204D1DFF8C83100930D
:104D5000009B0AE00468DFF8BC51AC4202D100932A
:104D6000009B02E000230093009B009B002B01D1DD
:104D700001207DE090F83C30012B01D1022077E04A
:104D8000012380F83C3003689B685B0766D4009B76
:104D90009B685B0762D40368B3F1A04F04D003683B
:104DA000DFF87441A34201D1344C00E0344C0B686D
:104DB000002B2ED0A56835F460454B681D4390F854
:104DC000303055EA4335A56003689B6813F0030350
:104DD000012B04D103681B6813F0010300E00023DA
:104DE000002B40D1009B9B6813F00303012B04D1DF
:104DF000009B1B6813F0010300E00023002B32D15D
:104E0000A568464B1D400B681D4389680D43A5608E
:104E100029E0A16831F46041A1600168896811F05E
:104E20000301012904D10168096811F0010100E0C2
:104E30000021002917D10099896811F00301012987
:104E400004D10099096811F0010100E00021002956
:104E500009D1A36831490B40A36004E0016C51F013
:104E6000200101640122002180F83C101000C0B232
:104E700014B030BC7047000000F0FF830003005006
:104E80000007005038B5040000202068806810F04A
:104E90000300012804D12068006810F0010000E040
:104EA000002000282ED02068806810F00D00012816
:104EB0001ED12068806850F00200216888600320BD
:104EC0002168086000F074FA050020688068C00757
:104ED00018D500F06DFA401B0328F6D3206C50F073
:104EE00010002064606C50F00100606401200AE052
:104EF000206C50F010002064606C50F00100606481
:104F0000012000E0002032BDA800002040420F0038
:104F1000000400500005005000010050E0F0FFFFC9
:104F200010B504000020002C01D1012022E0022055
:104F300084F82100206801686FF30D116268A06891
:104F40000243E06802432069024360690243A069AA
:104F50000243E0690243114320680160200000F031
:104F6000BAF80020A063012084F82100002084F812
:104F70002000002010BD90F82110022906D0042145
:104F80008163002180F82010012017E00168096882
:104F900031F00E0102681160016809684908490092
:104FA000026811600122016C8A40C16B4A600121D4
:104FB00080F82110002180F820100020704710B5E3
:104FC000002490F82110022903D0042181630124D8
:104FD0001BE00168096831F00E0102681160016888
:104FE000096849084900026811600122016C8A4081
:104FF000C16B4A60012180F82110002180F8201047
:10500000416B002901D0416B88472000C0B210BD20
:1050100010B5C16B0B6801680C680422016C12FAB0
:1050200001F10B4215D0610713D5016809688906A3
:1050300005D40168096831F0040103681960016C46
:105040008A40C16B4A60C16A002943D0C16A88475F
:1050500040E00222016C12FA01F10B421BD0A107C1
:1050600019D501680968890608D40168096831F012
:105070000A0103681960012180F82110016C8A403F
:10508000C16B4A60002180F82010816A002921D07C
:10509000816A88471EE00822016C8A40134219D0B9
:1050A000210717D50168096831F00E010268116007
:1050B0000122016C8A40C16B4A6001218163012198
:1050C00080F82110002180F82010016B002901D008
:1050D000016B884710BD01680C4A91420AD20268F0
:1050E0000B498A181421B2FBF1F1890001640949C6
:1050F000C16309E0026808498A181421B2FBF1F182
:10510000890001640549C16370470000080402403A
:10511000F8FFFDBF00000240F8FBFDBF00040240A5
:1051200010B50400002C01D101200EE020790028E8
:1051300004D1002060712000FDF707FD02202071DE
:105140000020206101202071002010BD10B5040056
:10515000002C01D101207AE0606A002806D1606845
:10516000B0F5827F06D00020E06103E000202061DE
:10517000002060610020A06294F85D00002805D145
:10518000002084F85C002000FDF744FD022084F834
:105190005D002068006830F0400021680860E06829
:1051A00040F20171884201D3002001E04FF48050A9
:1051B000E168B1F5706F05D0E168B1F5E06F01D03D
:1051C0000021A162616811F48271A26812F40442A4
:1051D0001143227C12F002021143227D12F00102DF
:1051E0001143A26912F400721143227F12F03802B7
:1051F000114394F8202012F080021143A26A12F4A5
:105200000052114322681160A169090C11F00401D8
:1052100094F8242012F01002114394F8342012F074
:1052200008021143E26812F47062114310F48050D6
:105230000843216848602068C06930F40060216834
:10524000C86100202066012084F85D00002010BDA8
:10525000F8B504000D0016001F00002C01D101203C
:105260003DE0A06F002805D1002084F874002000E4
:10527000FDF72DFD2420A06720680068400840004D
:1052800021680860200001F0F4FA012801D1012012
:1052900025E0606A002802D0200001F023FC20688D
:1052A000806850F48040216888602068806830F40D
:1052B0000040054320688560760556EA0746206869
:1052C00000686FF319400643206806602068006894
:1052D00050F0010021680860200001F070FCF2BD70
:1052E0007047000038B504000025002C03D094F866
:1052F0002900C00601D5012555E0206A0028DFF805
:10530000AC00016851F001010160006810F001007B
:10531000009000982000FDF772FD94F82900002805
:1053200002D1002084F828006068606000200090AE
:10533000206800680090009931F0700160680143B6
:105340000091009931F08201A06801430091009919
:1053500031F44021A06901430091009830F470506D
:10536000E16811F4705108430090009931F4004154
:10537000206901430091009931F440316069014393
:105380000091009931F00C01E0690143009100990E
:1053900031F40071206A014300910098216808608F
:1053A000012084F829002800C0B232BD1810024044
:1053B00001480068704700BFC06E002010B5114C56
:1053C00000221149200001F0C1FC002801D0FCF7A7
:1053D00035FB0E49200001F0D1FC002801D0FCF77C
:1053E0002DFB0B49200001F0DBFF002801D0FCF76A
:1053F00025FB200001F0CCFC002801D0FCF71EFBAF
:1054000010BD00BFDC5C0020CC010020B8000020F3
:10541000BC01002070B5050014001A00002008002F
:10542000C0B2002807D00800C0B2002803D008008E
:10543000C0B2F82801DB022436E05E4E317028004D
:10544000C0B2002820D1049B5B485C4908605C48DE
:105450005C4908605C485D4908605D485D490860DA
:1054600000205D4908605D485D4908605D485E490F
:1054700008605E485E490860DBB22100C9B230783E
:1054800001F0C2FF040000E002242000C0B20028A6
:105490000AD102F01BF9002801D1032404E0554889
:1054A00005700120544908702000C0B270BD38B5A5
:1054B0000024514D2878012805D1404800688047D4
:1054C0000020287000E006242000C0B232BD7CB568
:1054D000002049480078002801D0062068E068468E
:1054E00002F000F9012862D19DF80000002805D0E3
:1054F00002281AD003D3032859D058E057E0404C73
:10550000404A41492000334B1B689847C0B20028ED
:105510000AD1207827490978884202D020780028CB
:1055200002D1022002F0D7F841E0384C364D28680D
:1055300000782070364E01203070002205E013F80C
:1055400032002178884208D0521C102A0CDA2B4BEA
:1055500013F832000028F2D106E02A49286803EB4C
:10556000C2025268904730702548007800281DD04C
:105570003078002812D0234800210180217851F092
:1055800080012A680388D1540188491C0180317840
:105590002A680388D1540188491C0180194802886F
:1055A000296804480078094B1B689847FFE70020EA
:1055B00076BD00000D6F00204F740008986E00202B
:1055C000697400089C6E0020E7740008946E002047
:1055D0007D740008A06E0020A46E002047750008AE
:1055E000A86E0020D1750008AC6E00203F76000840
:1055F000B06E00200E6F00201C0200201C00002056
:105600000F6F0020006F0020B46E0020106F00208C
:10561000116F002078B585B005000B98002807D1E0
:10562000502080F31188BFF34F8FBFF36F8FFEE7D9
:105630000C9C002C07D1502080F31188BFF34F8FB2
:10564000BFF36F8FFEE754260096009E542E07D0BE
:10565000502080F31188BFF34F8FBFF36F8FFEE7A9
:10566000002C13D0002811D02063022084F85100B0
:1056700000200390029404A801900A98009028004A
:1056800000F042F8200000F094F801E000200490BF
:10569000049806B070BD2DE9F84384B00700884631
:1056A00016009946300080B2800002F033F8050001
:1056B000002D0BD0542002F02DF80400002C01D056
:1056C000256304E0280002F0AFF800E00024002C7D
:1056D00015D0002084F851000020039002940D980A
:1056E00001900C9800904B46B6B23200414638000B
:1056F00000F00AF8200000F05CF8012001E05FF003
:10570000FF3005B0BDE8F0832DE9F84305001E0029
:105710000A9F386B00EB8200B0F104085FEAD808FA
:105720005FEAC80818F00700002807D0502080F36F
:105730001188BFF34F8FBFF36F8FFEE7002200E0A9
:10574000521C102A07D2885C07EB020383F834004E
:10575000885C0028F4D1DDF82090002087F8430011
:10576000B9F1070F01D35FF00609099CC7F82C9027
:10577000C7F844900020B864381D02F00AF917F108
:10578000180002F006F93F61D9F10709C7F818902F
:105790007F620020F864002087F850003200290062
:1057A000404602F033F93860002C00D02760BDE895
:1057B000F18338B5040002F0B9F9DFF87414086811
:1057C000401C0860DFF86C542868002806D12C6063
:1057D000086801280DD100F049FA0AE0DFF8580402
:1057E0000068002805D1E06A2968C96A884200D3A8
:1057F0002C60DFF848040168491C0160DFF84014A0
:105800000A680123E06A83401A430A60211DDFF819
:105810003424E36A1420434302EB030002F0BCF893
:1058200002F09EF9DFF81004006800280DD0286807
:10583000C06AE16A884208D25FF08050DFF8301514
:105840000860BFF34F8FBFF36F8F31BD70B5040099
:105850000E000025002C07D1502080F31188BFF3E3
:105860004F8FBFF36F8FFEE7002E07D1502080F3DC
:105870001188BFF34F8FBFF36F8FFEE7DFF840044F
:105880000068002807D0502080F31188BFF34F8FA5
:10589000BFF36F8FFEE700F098F8DFF8640400684C
:1058A000216876182168884206D221688E4209D282
:1058B000B04207D2012505E021688E4201D3B042F3
:1058C00000D201252660002D04D00021361A3000B8
:1058D00000F066FA00F07FF8002808D15FF08050F1
:1058E000DFF88C140860BFF34F8FBFF36F8F70BD6C
:1058F00010B504000020002C14D0DFF8C4030068A9
:10590000002807D0502080F31188BFF34F8FBFF3DA
:105910006F8FFEE700F059F80021200000F040FAF8
:1059200000F059F8002808D15FF08050DFF84014EB
:105930000860BFF34F8FBFF36F8F10BD10B586B0F7
:10594000002004900020039005AA03A904A8FDF7F5
:10595000DDFBDFF8284404980290039801900020B2
:1059600000900023059ADFF818140FF2DD20FFF7EE
:1059700051FE20602068002801D0012000E00020B6
:10598000012817D1502080F31188BFF34F8FBFF348
:105990006F8F5FF0FF30DFF8F01308600120DFF851
:1059A000981208600020DFF85813086002F057F8DA
:1059B00006B010BD10F1010FFAD1502080F311880C
:1059C000BFF34F8FBFF36F8FFEE7DFF8F40201687C
:1059D000491C0160704770B500240025DFF8E062C3
:1059E0003068002807D1502080F31188BFF34F8F13
:1059F000BFF36F8FFEE702F099F83068401E306009
:105A00003068002855D1DFF828020068002826D128
:105A10004FE0C868C46814F1180001F0E4FF201DCD
:105A200001F0E1FFDFF818120A680123E06A834001
:105A30001A430A60211DDFF80C22E36A1420434355
:105A400002EB030001F0A8FFE06ADFF8E811096843
:105A5000C96A884203D30120DFF840130860DFF8E9
:105A6000241308680028D4D1002C01D000F06BF971
:105A7000DFF818633468002C0CD000F02AF80028F6
:105A800003D00120DFF814130860641E002CF4D149
:105A900000203060DFF804030068002809D00125E9
:105AA0005FF08050DFF8C8120860BFF34F8FBFF37C
:105AB0006F8F02F055F8280070BDDFF844020068CF
:105AC000704780B502F076F80020DFF844030068E4
:105AD00002BDF8B50025DFF8E8010068002864D1B0
