:020000040800F2
:10000000205F002081890008D9810008DB81000879
:10001000DD810008DF810008E181000800000000A8
:100020000000000000000000000000008D7D0008BE
:10003000E381000800000000357D00082D7A0008EB
:10004000E9890008ED890008F1890008F5890008B0
:10005000F9890008FD890008018A0008058A00085E
:10006000098A00080D8A0008118A0008158A00080C
:10007000198A00081D8A0008218A0008258A0008BC
:10008000298A00082D8A0008318A0008358A00086C
:10009000398A00083D8A0008418A0008458A00081C
:1000A000E5810008498A0008EF8100082D820008D8
:1000B000378200084D8A000841820008518A0008F2
:1000C000558A0008598A00085D8A0008618A00087C
:1000D000658A0008698A00084B8200086D8A00085A
:1000E0009B820008718A0008758A0008798A0008D6
:1000F0007D8A0008818A0008858A0008898A0008AC
:100100000000000000000000000000008D8A0008D0
:10011000918A0008958A0008A7820008B782000823
:10012000998A00089D8A0008A18A0008A58A00080B
:10013000A98A0008AD8A0008000000000000000045
:10014000B18A0008B58A0008B98A000800000000DA
:10015000000000000000000000000000000000009F
:100160000000000000000000BD8A0008C18A0008ED
:10017000C58A000800000000000000000000000028
:1001800000000000C98A000810B50400002C01D14D
:10019000012014E094F83D00002805D1002084F8E7
:1001A0003C00200001F0C3F8022084F83D00211D2E
:1001B000206800F082FB012084F83D00002010BD83
:1001C0000168C96851F001010268D16001688A685C
:1001D000DFF8D0110A40062A08D0B2F5803F05D0DA
:1001E0000168096851F00101006801600020704752
:1001F0000168C968490849000268D1600168096A54
:1002000041F2111211420BD10168096A40F24442D5
:10021000114205D101680968490849000068016078
:100220000020704710B50400002C01D1012014E01B
:1002300094F83D00002805D1002084F83C002000FF
:1002400001F01BF8022084F83D00211D206800F019
:1002500034FB012084F83D00002010BD10B50400DF
:100260000122206800F070FD2068DFF83C11884210
:1002700013D02068DFF8341188420ED02068DFF8F0
:100280003011884209D02068DFF82811884204D054
:100290002068DFF82411884201D1012000E000200D
:1002A000C0B2002805D02068406C50F4004021689E
:1002B000486420688168DFF8EC000140062908D016
:1002C000B1F5803F05D02068006850F0010021683A
:1002D0000860002010BD10B504000022206800F066
:1002E00033FD2068DFF8C010884213D02068DFF8A3
:1002F000BC1088420ED02068DFF8B410884209D0C4
:100300002068DFF8B010884204D02068DFF8A81019
:10031000884201D1012000E00020C0B2002811D0A5
:100320002068006A41F2111108420BD12068006A6E
:1003300040F24441084205D12068406C30F400404E
:10034000216848642068006A41F2111108420BD10B
:100350002068006A40F24441084205D120680068E4
:100360004008400021680860002010BD10B504005E
:10037000002C01D1012014E094F83D00002805D1A3
:10038000002084F83C00200001F03DF8022084F8B1
:100390003D00211D206800F090FA012084F83D0006
:1003A000002010BD07000100002C01400034014076
:1003B00000400140004401400048014070B5040085
:1003C0000D00002C01D101204BE094F83D000028E5
:1003D00005D1002084F83C00200001F0A9F802209B
:1003E00084F83D0020688168DFF8600401402068DF
:1003F0008160211D206800F060FA20688168206813
:1004000082692068036A28680143DFF844040240D7
:10041000A868AE6950EA06200243DFF838040240BB
:10042000DFF834040240E868EE6950EA062002432F
:1004300028692E6A360356EA0016324333F0220347
:1004400033F0880368686D6950EA0510034320683B
:1004500081602068826120680362012084F83D0089
:10046000002070BD10B50400002902D004290CD072
:1004700017E001220021206800F066FC2068C068B7
:1004800050F002002168C86021E0012204212068A8
:1004900000F05AFC2068C06850F004002168C86071
:1004A00015E001220021206800F04EFC0122042109
:1004B000206800F049FC2068C06850F00200216804
:1004C000C8602068C06850F004002168C8602068D7
:1004D000006850F0010021680860002010BD10B5D0
:1004E00004002068006980071AD52068C06880076A
:1004F00016D57FF00200216808610120207720686E
:10050000806910F0030F03D0200001F012F805E01D
:10051000200001F00FF8200001F00DF800202077F6
:100520002068006940071AD52068C068400716D5C2
:100530007FF004002168086102202077206880692C
:1005400010F4407F03D0200000F0F3FF05E020000E
:1005500000F0F0FF200000F0EEFF00202077206880
:10056000006900071AD52068C068000716D57FF01B
:10057000080021680861042020772068C06910F015
:10058000030F03D0200000F0D4FF05E0200000F0AE
:10059000D1FF200000F0CFFF002020772068006905
:1005A000C0061AD52068C068C00616D57FF01000B6
:1005B00021680861082020772068C06910F4407F16
:1005C00003D0200000F0B5FF05E0200000F0B2FFEE
:1005D000200000F0B0FF0020207720680069C007ED
:1005E0000AD52068C068C00706D57FF001002168E1
:1005F0000861200001F064F82068006900060AD54F
:100600002068C068000606D57FF080002168086178
:10061000200001F0A0F820680069C0050AD5206814
:10062000C068000606D57FF480702168086120004C
:1006300001F092F82068006940060AD52068C06879
:10064000400606D57FF0400021680861200001F0D7
:1006500084F82068006980060AD52068C068800692
:1006600006D57FF0200021680861200001F076F8AF
:1006700010BD10B5040094F83C00012801D10220FF
:1006800031E0012084F83C00022084F83D00002A7B
:100690000AD0042A0CD0082A0ED00C2A10D0102A16
:1006A00012D0142A14D017E0206800F061F913E08A
:1006B000206800F0ABF90FE0206800F0ECF90BE0E7
:1006C000206800F027FA07E0206800F052FA03E003
:1006D000206800F07AFAFFE7012084F83D0000204E
:1006E00084F83C00002010BD38B504000D0094F8DB
:1006F0003C00012801D10220A6E0012084F83C0042
:10070000022084F83D00002A0AD0042A1FD0082ABB
:1007100035D00C2A4AD0102A60D0142A75D08CE02B
:100720002900206800F024F92068806950F0080052
:10073000216888612068806930F004002168886140
:1007400020688169286901432068816175E029007A
:10075000206800F05BF92068806950F4006021682F
:1007600088612068806930F4806021688861206831
:100770008069296950EA0120216888615DE02900CB
:10078000206800F088F92068C06950F008002168EE
:10079000C8612068C06930F004002168C861206821
:1007A000C169286901432068C16146E029002068C9
:1007B00000F0B0F92068C06950F400602168C86199
:1007C0002068C06930F480602168C8612068C06911
:1007D000296950EA01202168C8612EE029002068BB
:1007E00000F0C7F92068406D50F0080021684865A6
:1007F0002068406D30F00400216848652068416D34
:10080000286901432068416517E02900206800F04D
:10081000DCF92068406D50F400602168486520686C
:10082000406D30F48060216848652068406D29691A
:1008300050EA012021684865FFE7012084F83D0067
:10084000002084F83C00002032BD0000F8BFFEFF0D
:10085000FCFCFFFFF3F3FFFF0F0FFFFF10B50400D9
:1008600094F83C00012801D1022025E0012084F801
:100870003C00022084F83D00200000F0D4F900285C
:1008800007D0012084F83D00002084F83C000120BE
:1008900012E02068C06830F040002168C86020681D
:1008A000C06830F480402168C860012084F83D00B1
:1008B000002084F83C00002010BD10B40468DFF86C
:1008C000003498420ED0B0F1804F0BD0DFF8F42303
:1008D000904207D0DFF8F023904203D0DFF8EC23FA
:1008E000904203D134F070044A68144398421AD0FD
:1008F000B0F1804F17D0DFF8CC23904213D0DFF84F
:10090000C82390420FD0DFF8C42390420BD0DFF809
:10091000C023904207D0DFF8BC23904203D0DFF819
:10092000B823904203D134F44074CA68144334F0BD
:1009300080044A69144304608A68C2620A68826259
:1009400098420FD0DFF8842390420BD0DFF8802349
:10095000904207D0DFF87C23904203D0DFF8782361
:10096000904201D1096901630121416110BC7047C6
:1009700070B4026A520852000262056A43688469D0
:10098000DFF858231440A408A4000A68144335F083
:1009900002058A681543DFF82863B0420FD0DFF8FC
:1009A0002C2390420BD0DFF82823904207D0DFF8A9
:1009B0002423904203D0DFF82023904205D135F064
:1009C0000805CA68154335F00405B0420FD0DFF8BA
:1009D000FC2290420BD0DFF8F822904207D0DFF8DB
:1009E000F422904203D0DFF8F022904207D133F492
:1009F000807333F400734A6913438A691343436075
:100A0000846149684163056270BC704770B4026AD2
:100A100032F010020262056A43688469DFF8C0227E
:100A2000144034F440740A6854EA022435F0200576
:100A30008A6855EA0215DFF88822904203D0DFF871
:100A40008C62B04206D135F08005CE6855EA0615B5
:100A500035F0400590420CD0DFF87022904208D06B
:100A60009B4A904205D09B4A904202D09A4A9042BB
:100A700009D133F4806333F400634A6953EA820393
:100A80008A6953EA8203436084614968816305622D
:100A900070BC7047000070B4026A32F48072026267
:100AA000056A4368C4698D4A1440A408A4000A6812
:100AB000144335F400758A6855EA0225804A90424D
:100AC00002D0824EB04206D135F40065CE6855EAB8
:100AD000062535F4806590420BD07C4A904208D0C0
:100AE0007B4A904205D07B4A904202D07A4A90429B
:100AF00009D133F4805333F400534A6953EA0213A3
:100B00008A6953EA02134360C4614968C16305629C
:100B100070BC704730B4026A32F480520262036AD9
:100B20004568C4696E4A144034F440740A6854EA53
:100B3000022433F400538A6853EA0233604A904235
:100B40000BD0624A904208D0614A904205D0614A77
:100B5000904202D0604A904204D135F480454A69FF
:100B600055EA82154560C46149680164036230BC7E
:100B7000704730B4026A32F480320262036A456818
:100B8000446D564A14400A68144333F400338A68AB
:100B900053EA02434A4A90420BD04C4A904208D052
:100BA0004B4A904205D04B4A904202D04A4A90426A
:100BB00004D135F480354A6955EA0225456044651B
:100BC00049688165036230BC704730B4026A32F410
:100BD00080120262036A4568446D414A14400A6803
:100BE00054EA022433F400138A6853EA0253344A65
:100BF00090420BD0354A904208D0354A904205D0F9
:100C0000344A904202D0344A904204D135F48025CF
:100C10004A6955EA8225456044654968C1650362B1
:100C200030BC7047000010B50268936833F0700361
:100C30004A6813432B4A13400A68134302689360BF
:100C40004A68002A39D0102A37D0202A35D0302AD5
:100C500033D0402A0CD0502A23D0602A27D0702AC3
:100C60002CD10B698A68C968006800F062F825E039
:100C70000A68052A01D1012021E00268136A02688E
:100C8000126A52085200046822620268926932F0C5
:100C9000F002096952EA011201688A610068036280
:100CA0000CE00A698968006800F01EF806E00A692D
:100CB0008968006800F02AF800E0FFE7002010BD16
:100CC000002C0140000400400008004000340140B6
:100CD0000040014000440140004801408FFFFEFFFA
:100CE000FF8FFFFEF8FFFEFF10B4046A036A5B0883
:100CF0005B000362836933F0F00353EA021334F0BC
:100D00000A0421438361016210BC704710B4036A76
:100D100033F0100303628369046A33F4704353EAC7
:100D2000023334F0A00454EA01148361046210BC5D
:100D3000704710B4846834F47F44114351EA0321AE
:100D40002143816010BC704710B4012411F01F03CF
:100D500014FA03F3046A34EA03030362036A11F02A
:100D60001F0112FA01F11943016210BC704730B43F
:100D7000002513E050F8042BD30744BFA9F1010369
:100D80009A18091F042942F8045BFAD213468C070B
:100D900044BF15809B1CC90748BF1D7050F8041B39
:100DA0000029E7D130BC704710B59EB02422002145
:100DB00015A800F0D4FC0C220021684600F0CFFCFE
:100DC0001C2200210EA800F0CAFC2C22002103A83E
:100DD00000F0C5FCDFF80847DFF8080720600020B6
:100DE00060600020A0604FF6FF70E060002020618E
:100DF000002060610020A0612000FFF713FA0028A6
:100E000001D000F0A7FC03201590022016900120CD
:100E10001790002018900A20199002201A900120A3
:100E20001B9000201C900A201D9015A92000FFF7A0
:100E3000C5FA002801D000F08DFC002000900020B1
:100E40000190002002906946200000F093FC0028E9
:100E500001D000F07FFC00200E904FF4FA700F904C
:100E6000002010900020139014220EA92000FFF7FC
:100E700000FC002801D000F06DFC00200390002051
:100E800004900020059000200690002007904FF469
:100E9000005008900A20099000200A905FF000702E
:100EA0000B9000200C9000200D9003A9200000F072
:100EB000ABFC002801D000F04DFC1EB010BD10B5F9
:100EC00088B01422002103A800F049FC0C22002164
:100ED000684600F044FCDFF810465FF08040206078
:100EE000012060600020A0603220E06000202061CE
:100EF0000020A0612000FFF747F9002801D000F092
:100F000029FC072003901020049003A92000FFF77C
:100F1000A5FC002801D000F01DFC0020009000205E
:100F200002906946200000F025FC002801D000F066
:100F300011FC08B010BD10B58AB00C220021684623
:100F400000F00DFC1C22002103A800F008FCDFF8D3
:100F50009C45DFF89C052060092060600020A060AF
:100F600040F26710E060002020610020A0612000B6
:100F7000FFF7FCF9002801D000F0ECFB0020009006
:100F8000002002906946200000F0F4FB002801D008
:100F900000F0E0FB6020039000200490002005900A
:100FA00000200790002203A92000FFF79DFB0028E6
:100FB00001D000F0CFFB042203A92000FFF794FB2F
:100FC000002801D000F0C6FB082203A92000FFF78B
:100FD0008BFB002801D000F0BDFB200000F024FABC
:100FE0000AB010BD10B588B01422002103A800F08B
:100FF000B6FB0C220021684600F0B1FBDFF8F44498
:10100000DFF8F4042060012060600020A060002070
:10101000E060002020610020A0612000FFF7B4F80C
:10102000002801D000F096FB0720039030200490A8
:1010300003A92000FFF712FC002801D000F08AFB72
:1010400000200090002002906946200000F092FBF2
:10105000002801D000F07EFB08B010BD1FB50C22A7
:101060000021684600F07BFBDFF89044DFF8900435
:101070002060472060600020A0600020E060002029
:10108000A0612000FFF780F8002801D000F062FB8B
:1010900000200090002002906946200000F06AFBCA
:1010A000002801D000F056FB1FBD18B595B00C22EA
:1010B0000021684600F053FB1C2200210EA800F01E
:1010C0004EFB2C22002103A800F049FBDFF834443A
:1010D000DFF834042060472060600020A06040F208
:1010E0001F30E06000202061002060618020A0614E
:1010F0002000FFF797F8002801D000F02BFB7020AC
:10110000009000200190002002906946200000F02D
:1011100031FB002801D000F01DFB30200E90642030
:101120000F900020109000201290002013900020BB
:1011300014900C220EA92000FFF79BFA002801D082
:1011400000F008FB00200390002004900020059090
:1011500000200690002007904FF4005008900020D7
:10116000099000200A905FF000700B9000200C9016
:1011700000200D9003A9200000F046FB002801D0BC
:1011800000F0E8FA200000F04FF916B010BD10B5DD
:1011900092B01C2200210BA800F0E1FA2C220021C1
:1011A000684600F0DCFADFF86443DFF8640320608F
:1011B000002060600020A0600020E060002020612E
:1011C000002060610020A0612000FEF7DDFF002804
:1011D00001D000F0BFFA2000FFF7C8F8002801D0C6
:1011E00000F0B8FA60200B9000200C9000200D90C9
:1011F00000200E9000200F900020109000201190F1
:1012000000220BA92000FFF76FFA002801D000F0A0
:10121000A1FA002000900020019000200290002000
:101220000390002004904FF4005005900020069099
:1012300000200A906946200000F0E6FA002801D05C
:1012400000F088FA12B010BD80B5DFF8C802DFF8F0
:10125000C812016000214160002181600021C1604D
:10126000002101610021416100218161FEF78CFFB5
:10127000002801D000F06EFA01BD10B586B0040060
:101280001422002101A800F06AFA206895498842DA
:101290003DD1DFF88802016851F400610160006807
:1012A00010F40060009000989D48016851F40031EE
:1012B0000160006810F40030009000984FF4407016
:1012C000019002200290002003900020049006204C
:1012D000059001A95FF0904000F0EAFA0022052194
:1012E000182000F043FC182000F051FC00220521DA
:1012F0001A2000F03BFC1A2000F049FC00220521D6
:101300001B2000F033FC1B2000F041FC0DE02068A6
:101310007D49884209D18148016851F4005101603A
:10132000006810F400500090009806B010BD80B521
:101330000168B1F1804F12D17A48016851F0010182
:101340000160006810F00100009000980022052163
:101350001C2000F00BFC1C2000F019FC52E001687E
:10136000654A914212D16F48016851F00401016051
:10137000006810F0040000900098002205211E2053
:1013800000F0F4FB1E2000F002FC3BE001685C4A28
:10139000914212D16348016851F010010160006868
:1013A00010F010000090009800220521362000F077
:1013B000DDFB362000F0EBFB24E00168544A91424B
:1013C0000AD15648016851F400310160006810F4F8
:1013D00000300090009815E000684F49884211D114
:1013E0004E48016851F480210160006810F48020AB
:1013F00000900098002205211A2000F0B7FB1A2067
:1014000000F0C5FB01BD81B000683949884209D1AF
:101410004448016851F002010160006810F00200C8
:101420000090009801B0704710B586B004001422F7
:101430000021684600F093F920682D49884230D198
:101440003748016851F400310160016811F400313E
:1014500005910599016851F480210160006810F43C
:10146000802005900598C020009002200190002067
:101470000290002003900220049069465FF09040A3
:1014800000F016FA01200090022001900020029046
:1014900000200390022004906946234800F008FAD7
:1014A0001CE020681849884218D11D48016851F491
:1014B00000210160006810F40020059005984FF4A9
:1014C0000070009002200190002002900020039004
:1014D000042004906946154800F0EAF906B010BDF2
:1014E000AC560020002C0140EC5600202C57002068
:1014F000000400406C57002000080040AC5700205A
:1015000000100040EC570020003401402C5800200F
:10151000004401406C58002000480140181002406F
:10152000141002401C10024000040048000800484B
:101530007047704770477047F8B5724803900C20A9
:1015400002907148019071480090714B00227149DE
:10155000714800F0B9FC7149714800F0BBFE714858
:1015600000F06EFF704800F06BFF704800F068FFFD
:1015700005B000BD3EB500F079FF00F04FF800F077
:1015800087FF01F027F801F081F801F0E1F801F0A0
:1015900077F9FFF794FCFFF7CEFCFFF7F8FDFFF7B4
:1015A00053FEFFF782FDFFF7FFFBFFF757FDFFF745
:1015B00019FD01F0C7F95E4C5E4D2900200001F0D5
:1015C00045FA2068002801D1012000E000202168B0
:1015D00011F1010F01D1012100E00021C0B2C9B217
:1015E0000843002812D05FF4E13020600D20207104
:1015F0000020A060022060610295210084B068464E
:10160000182201F099FA0FBC01F000FA42484A4949
:10161000086001F001FB01F005FFFEE710B59EB088
:101620002822002105A800F09AF81422002168461B
:1016300000F095F83C2200210FA800F090F8092056
:1016400005905FF4803406940020079001200990F3
:1016500001200B9002200C900D945FF480100E90EE
:1016600005A801F045FF002801D000F073F80F2015
:10167000009002200190002002904FF480600390BF
:10168000002004900221684602F06CFA002801D084
:1016900000F060F829480F9012944FF48070189071
:1016A0004FF40070109000201B9000201C900FA899
:1016B00002F0CEFB002801D000F04CF81EB010BDA7
:1016C00010B504002068B0F1804F04D11C480168B7
:1016D000114800F077FB20681A49884204D11A4863
:1016E00001680D4800F076FB20681849884202D155
:1016F000094800F089FB20681549884201D102F0B1
:10170000CFFC10BDAC570020EC5700206C570020D8
:10171000EC560020D0590020205500202C570020E6
:1017200024560020AC580020DC5800200C59002022
:101730000400002000FC0308985A002082300100B9
:101740002400004000080040240800400010004031
:10175000001400407047704770477047704710B5DD
:10176000044610460A460146204602F0A5FC2046E3
:1017700010BD000070B490F83C20012A01D1022075
:101780003FE0012280F83C20022280F83D200268E0
:10179000546802689368414D0268AA4203D0026807
:1017A0003F4EB24203D134F470044A68144334F01B
:1017B00070040A681443026854600268AA4213D095
:1017C0000268B2F1804F0FD00268364CA2420BD0B3
:1017D0000268354CA24207D00268314CA24203D0C5
:1017E0000268324CA24205D133F0800389680B4372
:1017F00001688B60012180F83D10002180F83C10C9
:10180000002070BC7047000010B4002390F83C200A
:10181000012A01D102203EE0012280F83C201B0A6F
:101820001B02CA68134333F440738A68134333F4CA
:1018300080634A68134333F400630A68134333F444
:1018400080530A69134333F400534A69134333F452
:1018500080438A6A134333F470238A6953EA02434C
:1018600002680E4CA24203D002680D4CA2420CD179
:1018700033F470034A6A53EA025333F08073CA693F
:10188000134333F00073096A0B4301684B64002172
:1018900080F83C10002010BC70470000002C014074
:1018A00000340140000400400008004000400140B6
:1018B000F8B40200002433E0052704E0DFF8D83153
:1018C0009A42F9D1042714F00303DBB29B009F4036
:1018D0003E4323009B0845F82360DFF8C0512B6886
:1018E00083434E68F60300D503432B606C4D2B6891
:1018F00083434E68B60300D503432B60694D2B68C4
:1019000083434E68F60200D503432B60664D2B6877
:1019100083434E68B60201D5184303002B60641C54
:101920000868E040002800F094800125086815FA56
:1019300004F318400028F2D04B68012B08D04B6804
:10194000022B05D04B68112B02D04B68122B16D1FD
:10195000966803272300DBB25B009F40BE43CF683D
:101960002300DBB25B009F403E4396605368A54076
:10197000AB434D68C5F30015A5402B435360D668B3
:1019800003252300DBB25B0015FA03F39E438F6847
:101990002300DBB25B009F403E43D6604B68022BC6
:1019A00002D04B68122B17D12300DB0802EB830314
:1019B0001E6A0F2714F00703DBB29B009F40BE4353
:1019C0000F6914F00703DBB29B009F403E432300E6
:1019D000DB0802EB83031E6216682300DBB25B00A8
:1019E0009D40AE430D7915F003052300DBB25B008B
:1019F0009D402E4316604B68DB0090D52B4B1D6835
:101A000055F001051D601B6813F001030093009B56
:101A1000274D23009B0855F823600F2714F003037C
:101A2000DBB29B009F40BE43B2F1904F01D1002733
:101A300049E7204B9A4201D1012744E71E4B9A42C5
:101A400001D102273FE71D4B9A427FF437AF0327AE
:101A500039E7F1BC7047006989B2084201D0012022
:101A600000E00020C0B27047D2B2002A02D089B292
:101A7000816101E089B28162704780B510490A68CE
:101A800003009BB21A4205D0020092B20A6080B2F3
:101A900001F038FC01BD00000010004800040140C6
:101AA00004040140080401400C04014018100240E5
:101AB000080001400004004800080048000C0048ED
:101AC0001404014010F00700334B1A684FF6FF0171
:101AD0000A40324951EA00210A431A6070472E48F1
:101AE0000068C0F302207047010049B2002908D401
:101AF000012210F01F018A40294940B2400941F8F3
:101B000020207047020052B2002A04D40901254A5D
:101B100040B2115407E00901234A40B210F00F000F
:101B2000104400F8041C704710B410F00700D0F106
:101B30000703052B01D3042301E0D0F10703041DA3
:101B4000072C01D2002000E0C01E012414FA03F388
:101B50005B1E1940814014FA00F0401E10400843FB
:101B600010BC704780B5FFF7ADFF01BD70B5040034
:101B70000D0016000020FFF7B2FF32002900FFF72A
:101B8000D3FF0100200040B2FFF7BCFF70BD80B55D
:101B900040B2FFF7A9FF01BD0CED00E00000FA051F
:101BA00000E100E000E400E018ED00E010B52DEDEC
:101BB000088B040008000100C9B2652900DB64201D
:101BC0009FEDB94B9FEDBA3B9FEDBB2B9FEDBC1B2F
:101BD000B0EE418AF0EE618AB0EE429AF0EE629A7F
:101BE000B0EE43AAF0EE63AAB0EE44BAF0EE64BAE7
:101BF000C0B202F095FA41EC100BB0EE4B4AF0EE99
:101C00006B4AB0EE4A3AF0EE6A3AB0EE492AF0EE8C
:101C1000692AB0EE481AF0EE681A200002F0B5FA10
:101C200051EC100B02F0EEFAA084BDEC088B10BD55
:101C3000C0687047006A704710B50400E36900226D
:101C4000216DE06B02F0FCFA0020A16C096848628B
:101C50006089A16C0968C8620020E16C096848626B
:101C6000208BE16C0968C86202202062616DA06C63
:101C7000FEF7F4FAE06CFEF7A3FA10BD10B504000D
:101C8000616DA06CFEF727FB40230022216DE06B05
:101C900002F0D6FA0120206210BD80B50321016256
:101CA000C06CFEF78DFA01BD80B5C9B2002906D01F
:101CB00001224FF480419748FFF7D6FE05E000224D
:101CC0004FF480419348FFF7CFFE01BD10B50400EB
:101CD000491E606C0068C162E260E068002806D1BD
:101CE00001224FF480718B48FFF7BEFE08E0E068E8
:101CF000012805D100224FF480718648FFF7B4FE19
:101D00000020216C096848620020616C0968486203
:101D100020002168096A884710BD38B504000120F9
:101D200020620020E062216DE06B02F09EFAE36D1C
:101D30000022216DE06B02F083FAE068002806D1F2
:101D400001224FF480717348FFF78EFE08E0E068CF
:101D5000012805D100224FF480716E48FFF784FE00
:101D60002069002809D1012280216A48FFF77CFE02
:101D70000120216C096888620BE02069012808D1E4
:101D8000002280216348FFF76FFE0320216C096861
:101D90008862614D01224FF480412800FFF764FE04
:101DA000012240215B48FFF75FFE01224FF4004112
:101DB0002800FFF759FE206CFEF702FA606CFEF770
:101DC000FFF931BD80B5016A002902D10168896A35
:101DD000884701BD10B50400206A032813D1616D46
:101DE000A06CFEF778FA40230022216DE06B02F030
:101DF00027FA012020620020216C09684862002037
:101E0000616C0968486210BD10B50400206A0228A0
:101E100002D003282ED046E02189A06C0068C26A57
:101E20006069121A91421CD3606C0068406AA06518
:101E30000020216C096848622089A16C0968C86289
:101E400000202062E06CFEF7D3F9606C0068C06A85
:101E5000401CA16D891CB0EB4100216C0968C8626F
:101E600007E0A06C0068C16A6069091AA06C00688C
:101E7000C16218E0A06C0068C16A6069411860899D
:101E8000814207D36089A16C0968C862E06CFEF7E3
:101E9000AFF907E0A06C0068C16A60694118A06CE6
:101EA0000068C162FFE710BD0000000000907640AE
:101EB0000000000000E06A400000000000005940FF
:101EC00000000000000000002DE9F84F04000D00A4
:101ED00016001F00DDF82880DDF82C90DDF830A01A
:101EE000DDF834B0200002F028F90C482060E563EA
:101EF0002764C4F84480C4F84890C4F84CB0266500
:101F0000C4F854A00020A0654020E0652000BDE892
:101F1000F28F000000080048000400483C870008D9
:101F200010B52DED088B040008000100C9B2652929
:101F300000DB64209FED344B9FED353B9FED362B4E
:101F40009FED371BB0EE418AF0EE618AB0EE429A07
:101F5000F0EE629AB0EE43AAF0EE63AAB0EE44BA95
:101F6000F0EE64BAC0B202F0DBF841EC100BB0EE58
:101F70004B4AF0EE6B4AB0EE4A3AF0EE6A3AB0EEF7
:101F8000492AF0EE692AB0EE481AF0EE681A2000ED
:101F900002F0FBF851EC100B02F034F9A084BDEC18
:101FA000088B10BDC0687047006A704780B500217B
:101FB00001620168096B884701BD0021DFF8342305
:101FC00011600021DFF8302311600021DFF82C239D
:101FD0001160012101620021C163704780B5C9B25F
:101FE000002907D001224FF48041DFF81403FFF7E6
:101FF0003BFD06E000224FF48041DFF80403FFF7C9
:1020000033FD01BD0000000000000000009076409C
:102010000000000000E06A4000000000000059409D
:102020000000000000000000704738B504000020E8
:10203000A062B4480068000404D5A06A50F0010012
:10204000A06201E0A06AA062AF480068400504D524
:10205000A06A50F00200A06201E0A06AA062206ABB
:10206000002840F03681E068002803D0012800F005
:1020700089800EE1A06A01281ED0C0F0828003286A
:102080002ED042D3052803D067D3062851D078E05C
:10209000A08C98490860A08C974908600020974957
:1020A0000860012202219948FFF7DEFC002220216E
:1020B0009348FFF7D9FC64E0A08C8E4908600020AB
:1020C0008D490860A08C8D490860012202218F484B
:1020D000FFF7CAFC002210218948FFF7C5FC50E039
:1020E000002084490860A08C83490860A08C834943
:1020F0000860834D012220212800FFF7B5FC002253
:1021000010212800FFF7B0FC3BE0A08C7949086063
:10211000A08C7949086000207849086000220221DB
:102120007A48FFF7A1FC012220217548FFF79CFCAB
:1021300027E0A08C6F49086000206F490860A08CE0
:102140006E490860002202217048FFF78DFC0122D1
:1021500010216B48FFF788FC13E0002065490860F8
:10216000A08C65490860A08C64490860644D002219
:1021700020212800FFF778FC012210212800FFF71A
:1021800073FC86E0A06A01281ED0C0F0828003287C
:102190002ED042D3052803D067D3062851D078E04B
:1021A000A08C54490860A08C534908600020534912
:1021B0000860002202215548FFF756FC0122202129
:1021C0004F48FFF751FC64E0A08C4A4908600020AA
:1021D00049490860A08C49490860002202214B4807
:1021E000FFF742FC012210214548FFF73DFC50E07B
:1021F000002040490860A08C3F490860A08C3F49FE
:1022000008603F4D002220212800FFF72DFC01220D
:1022100010212800FFF728FC3BE0A08C354908601E
:10222000A08C354908600020344908600122022151
:102230003648FFF719FC002220213148FFF714FC33
:1022400027E0A08C2B49086000202B490860A08C57
:102250002A490860012202212C48FFF705FC0022D0
:1022600010212748FFF700FC13E0002021490860F7
:10227000A08C21490860A08C20490860204D0122D3
:1022800020212800FFF7F0FB002210212800FFF793
:10229000EBFB206C002803D102F07CF8206418E0EE
:1022A00002F078F80500206C281A01F039FF0022AE
:1022B000174B02F075F802000B000020154902F0E0
:1022C00041F90022144B02F06BF802F05FFAE06370
:1022D000256431BD38B504000D00200001F02DFF4C
:1022E0000E4820600020E063002020646564200028
:1022F00032BD0000380400403C040040340400407B
:102300000008004810000048100800480004004879
:102310000000284000408F4000004E40FC8600082E
:1023200010B50400606A00286BD1E069002827D04E
:10233000022830D064D22069616888421CD1206AAA
:1023400000280DD10122A18DA06AFFF78DFB6169E4
:10235000A069091A216100206060012020620EE05E
:102360000022A18DA06AFFF77FFBA06920610020F9
:1023700060600020206202E06068401C60603FE016
:10238000206A012806D10022A18DA06AFFF76CFB0C
:102390000020206234E02069616888422CD1206AE4
:1023A00000281DD10122A18DA06AFFF75DFB6169A4
:1023B000A069091A21610020606001202062A068E4
:1023C000E168884208D1012060620020E0610020BD
:1023D000A0600020E06012E0A068401CA0600EE059
:1023E0000022A18DA06AFFF73FFBA06920610020B9
:1023F00060600020206202E06068401C6060FFE7CF
:1024000008E00122A18DA06AFFF72EFB002060608A
:102410000120206210BD10B5040008001100A06268
:10242000A185012289B2FFF71FFB0120206010BDAA
:10243000002141627047012141627047C1617047CC
:102440000021016000214160002181600021C16004
:10245000002101614FF47A714161642181610121A0
:10246000C1610121016201214162704780B50748C5
:10247000016851F0100101600320FFF773FB002099
:1024800002F0B8F902F0F6F9002002BD0020024087
:10249000F8B586B0142200216846FFF760F9494874
:1024A000016851F400210160016811F400210591D7
:1024B0000599016851F480010160016811F48001FF
:1024C00005910599016851F400310160016811F42A
:1024D000003105910599016851F48021016000687F
:1024E00010F480200590059844F2FE17364C002227
:1024F00039002000FFF7B8FA4DF2C646334D0022EE
:1025000031002800FFF7B0FA009701200190002069
:1025100002900020039069462000FFF7C9F9009659
:1025200001200190002002900020039069462800BD
:10253000FFF7BEF94FF420500090002001900020DA
:10254000029069462800FFF7B3F94FF4006000904D
:102550001F4801900020029069465FF09040FFF70D
:10256000A7F94FF400400090002001900120029054
:1025700069465FF09040FFF79BF94FF44060009090
:10258000002001900120029069462000FFF790F999
:102590004FF4407000900220019000200290032030
:1025A00003900920049069462800FFF781F9002272
:1025B00005212820FFF7DAFA2820FFF7E8FA07B00C
:1025C000F0BD00BF1410024000080048000400489D
:1025D000000011101FB50C2200216846FFF7BFF85C
:1025E000264C27482060200002F064F9002801D022
:1025F000FFF7B0F80020009000200190002269460B
:10260000200001F09DFE002801D0FFF7A3F81FBDB8
:1026100010B586B004001422002101A8FFF79FF82E
:1026200020681749884226D11648016851F00051A8
:102630000160006810F00050009000981248016896
:1026400051F400310160006810F4003000900098EF
:1026500010200190032002900020039001A95FF058
:102660009040FFF725F9002205213620FFF77EFA7A
:102670003620FFF78CFA06B010BD0000D0590020BC
:10268000007400401C1002401410024080B52C4819
:102690002C4901605FF4E13141600021816000213B
:1026A000C160002101610C21416100218161002193
:1026B000C16100210162002141620023002200214A
:1026C00002F00EF9002801D0FFF744F801BD10B563
:1026D00086B004001422002101A8FFF740F820680A
:1026E000184988422AD11848016851F40031016024
:1026F000006810F40030009000981448016851F40C
:1027000000310160006810F40030009000980E2045
:1027100001900220029000200390032004900720E3
:10272000059001A95FF09040FFF7C2F80022052153
:102730002620FFF71BFA2620FFF729FA06B010BD66
:102740003C540020004400401C1002401410024081
:1027500018B589B00C22002106A8FFF700F818224E
:1027600000216846FEF7FBFF424C5FF0A04020606E
:10277000002060600020A0600020206100206076C2
:10278000002084F820000020E0620120A0620020E8
:10279000E0600120E061002084F8300004206061E6
:1027A0000020207600206063200002F0E3F800287B
:1027B00001D0FEF7CFFF0020069006A9200002F00E
:1027C00071FC002801D0FEF7C5FF01200090012018
:1027D000019000200390002002900020049000202F
:1027E00005906946200002F03FFA002801D0FEF76C
:1027F000B1FF0AB010BD10B586B00400142200214C
:1028000001A8FEF7ACFF2068B0F1A04F30D11A4804
:10281000016851F080510160016811F08051009110
:102820000099016851F400310160016811F4003130
:1028300000910099016851F480010160006810F472
:102840008000009000980120019003200290002059
:10285000039001A95FF09040FFF72AF81020019043
:10286000032002900020039001A90448FFF720F8FC
:1028700006B010BDD45500201410024000140048CA
:1028800080B52B482B4901604FF4827141600021D3
:1028900081604FF44071C1600021016100214161FC
:1028A0004FF4007181610821C161002101620021A2
:1028B0004162002181620721C16200210163082178
:1028C000416302F0F7FC002801D0FEF743FF01BD91
:1028D00010B586B004001422002101A8FEF73FFFC6
:1028E00020681449884221D11348016851F480516D
:1028F0000160006810F48050009000980F48016853
:1029000051F480210160006810F48020009000984C
:1029100038200190022002900020039003200490B0
:102920000520059001A90648FEF7C2FF06B010BDBC
:10293000BC54002000300140181002401410024026
:102940000004004810B586B01422002101A8FEF74B
:1029500006FF042200216846FEF701FF284C2948A3
:102960002060002060607F20A06040F23710E060AF
:1029700000202061002060610020A061200002F0A2
:1029800001FD002801D0FEF7E5FE00208DF80400CF
:1029900000208DF8050000208DF80600002004902E
:1029A00000200590012201A9200002F051FD00281D
:1029B00001D0FEF7CFFE01208DF8000001208DF838
:1029C000010001208DF8020000208DF80300012293
:1029D0006946200002F0BFFD002801D0FEF7BAFED4
:1029E00006B010BD00680749884208D101205FF495
:1029F0008031B1FA81F1044A12EB81021060704714
:102A00005C59002000280040000442420FB4F8B591
:102A10000C9C062606AF00F049F8200000F031F8C3
:102A200000250AE02800C0B257F820102800C0B2E4
:102A300014EB800000F046F86D1C2800C0B2B042D4
:102A4000F0D300F039F8F1BC5DF814FB30B4062285
:102A5000002308E01C00A4B251F824401D00ADB2D0
:102A600040F825405B1C1C00A4B29442F2D330BC59
:102A700070472348006810F0010090F00100C0B2D8
:102A8000704710B51F4C216851F0020121601E49AA
:102A90000860206850F040002060FFF7EAFF00283F
:102AA000FBD0206830F00200206010BD17481849A4
:102AB00001601849016070471248016851F08001B7
:102AC0000160704770B504000D000E4E306850F084
:102AD00001003060FFF7CDFF0028FBD02580FFF715
:102AE000C8FF0028FBD0A41C2D0C2580FFF7C1FFD8
:102AF0000028FBD0306840084000306070BD000006
:102B00000C20024010200240142002400420024009
:102B100023016745AB89EFCD62B38B0708D0521E06
:102B200011F8013B00F8013B00F024808B07F6D13F
:102B3000830740F0208000BF103A07D330B4B1E8DB
:102B40003810103AA0E83810F9D230BC530724BF2F
:102B5000B1E80810A0E8081044BF51F8043B40F861
:102B6000043BD20724BF31F8022B20F8022B44BFCC
:102B70000B7803707047121F17D35B0009D151F80F
:102B8000043B20F8023B1B0C121F20F8023BF6D23C
:102B90000BE051F8043B00F8013B1B0A20F8023B14
:102BA0001B0C121F00F8013BF3D238BF121D521E3E
:102BB00024BF11F8013B00F8013BF8D87047000032
:102BC0001CB50020009000234FF400425FF09041BC
:102BD000DFF8840702F07CFDDFF8804700200090DA
:102BE00000234FF480622100DFF8740702F070FDCB
:102BF0000020009000234FF400622100DFF86407FA
:102C000002F066FD13BDDFF860370360DFF85C0794
:102C1000086080201060704780B594B0DFF85007DE
:102C2000D0E90023CDE90423012104A800F039FCF8
:102C3000DFF840170860DFF84007D0E90023CDE94E
:102C40000223012102A800F02CFCDFF830170860F5
:102C5000DFF82C07D0E90023CDE9002301216846E5
:102C600000F01FFCDFF81C1708600DA8DFF818172C
:102C70001C22FFF761FF00210DA800F0E3FBDFF845
:102C80000C17086006A8DFF808171C22FFF754FF8E
:102C9000002106A800F0D6FBDFF8F816086015B092
:102CA00000BD2DE9F84FDFF8F04600220421200096
:102CB000FEF7DAFE01224FF480512000FEF7D4FE29
:102CC00001224FF480612000FEF7CEFEDFF8CC46F3
:102CD0002000FFF722F83C21DFF8C406FDF7C2FB15
:102CE000DFF8787604223900DFF8B806FFF793FBA7
:102CF000DFF8B456022239002800FFF78CFBDFF81A
:102D0000AC66082239003000FFF785FB0021DFF8B0
:102D10009406FFF793FB00212800FFF78FFB0021AB
:102D20003000FFF78BFBDFF88876DFF8888600211C
:102D3000404602F0AEFD38600121404602F0A9FD98
:102D4000DFF874160860386800281DD0DFF86806C0
:102D50000068002818D00020DFF8601608603000F6
:102D6000FFF766FB3868DFF858160860DFF854068E
:102D7000A188426911FB02F12181E1884069400884
:102D800011FB00F0608103E00320DFF830160860DB
:102D900000F04DFB00905FE00168022924D1012181
:102DA0003960396801603A680021404602F06AFDE6
:102DB0001AE03868002817D12000FEF73BFF0128F1
:102DC00012D1DFF8F805006800280DD1DFF8F00512
:102DD00001680129E0D102213960396801603A684F
:102DE0000021404602F04EFDDFF8DC95D9F80000E6
:102DF000012805D10020C9F800002000FEF71CFFC3
:102E0000D9F80000022805D10020C9F800002000F0
:102E1000FEF743FFD9F8000003280BD10020C9F8C2
:102E20000000DFF8A8050268DFF8A40501682000AB
:102E3000FEF74CFFD9F80000042809D10020C9F89A
:102E400000000122DFF8880501682000FEF73EFF40
:102E50000121684600F04AFBDFF8FCB4584602F056
:102E600070FCDFF8FC0402F06CFCDFF8F8944846D4
:102E700002F067FCDFF82CA55046FFF751FA280056
:102E8000FFF74EFA3000FFF74BFA584602F04AFCC3
:102E900000286CD0DFF83C050068002867D1DFF817
:102EA0001C050168002905D0022926D018D3032962
:102EB00052D05CE0A188142211FB02F12181E1884B
:102EC00089B2490061810168491C01605046FFF7E1
:102ED000AFFA2800FFF7AFFA3000FFF7ACFA46E090
:102EE0000168491C01605046FFF7A5FA2800FFF76A
:102EF0009FFA3000FFF79FFA39E000210160504649
:102F0000FFF799FA2800FFF796FA3000FFF790FADA
:102F1000DFF8C4040168DFF8A02411600268012111
:102F2000404602F0AFFC022038603868DFF89014A9
:102F300008603A680021404602F0A4FCDFF88404EF
:102F4000A188426911FB02F12181E18840694008B2
:102F500011FB00F060810AE0002101605046FFF79C
:102F600067FA2800FFF764FA3000FFF761FADFF82C
:102F7000F00302F0D7FB002857D0DFF840A4DAF8BE
:102F80000000002851D0DFF84C14086800280CD14C
:102F900001200860DFF8443400224FF4FA61186819
:102FA0001B681B689B6998473FE000200860DFF8BA
:102FB0002CB4DBF80000DBF800100968496A884788
:102FC000DAF80000022812D1DBF80000DBF800106C
:102FD0000968C9688847012809D1DFF8FC130A6825
:102FE000DFF8FC030068406A82180A601DE0DAF826
:102FF0000000022819D1DBF80000DBF80010096896
:10300000C9688847002810D1DFF8D403DFF8C81357
:103010000A6803685B6A9A4205D30A680068406AD6
:10302000121A0A6001E000200860484602F07AFBAC
:10303000002857D0DFF88493D9F80000002851D039
:10304000DFF89013086800280CD101200860DFF831
:103050008C3301224FF4FA6118681B681B689B6966
:1030600098473FE000200860DFF870A3DAF800001E
:10307000DAF800100968496A8847D9F80000022880
:1030800012D1DAF80000DAF800100968C968884738
:10309000012809D1DFF840130A68DFF8440300680B
:1030A000406A82180A601DE0D9F80000022819D190
:1030B000DAF80000DAF800100968C96888470028C3
:1030C00010D1DFF81C03DFF810130A6803685B6A8D
:1030D0009A4205D30A680068406A121A0A6001E041
:1030E00000200860DFF8FC02016801297FF461AE6E
:1030F000002101603868012802D002280ED058E66D
:10310000002038603A680021404602F0BBFB0122F3
:10311000A94801682000FEF7D9FD4AE60020386082
:103120003A680021404602F0ADFB0022A248016847
:103130002000FEF7CBFD3CE680B5A24800210091BF
:10314000036803220179002002F0AAFB02F0F5FBDC
:1031500002F003FC5FF08050A3490860BFF34F8F7B
:10316000BFF36F8FF4E70020C0B270473EB5050093
:10317000080080B2002800D0491E0024DBB2002BDA
:1031800002D0012B28D0B5E089B200290FD0022946
:103190000FD00DD3042916D010D3062915D013D380
:1031A000082914D012D30A2913D011D312E012E047
:1031B00011E08E48FEF7F8FE28700CE08B48FEF711
:1031C000F1FE287007E006E005E004E003E002E01D
:1031D00001E000E001248EE089B200290FD002292D
:1031E0004DD029D304294CD04AD3062958D050D3E6
:1031F000082964D062D30A2976D06CD378E0687845
:1032000000280CD1754D286829680968496A8847E3
:10321000002128682A681268D26A90470BE06F4D37
:10322000012128682A681268D26A904728682968AC
:103230000968096A88475CE0687800280FD1674D03
:10324000286829680968496A88470021286800F0C9
:103250009AFF286829680968096A88470EE05F4D67
:10326000286829680968496A88470121286800F0A8
:103270008AFF286829680968096A884739E038E0C0
:1032800037E0564A697810681268126812689047E9
:103290002FE054490868002801D10120086028E087
:1032A0004849687848615248029084B068461822BC
:1032B000FFF742FC0FBCFFF7A9FB1AE019E04C48EE
:1032C0000290404984B068461822FFF735FC0FBCD5
:1032D000FFF79CFB0DE02878697851EA00210A206D
:1032E00041433848016004E068783649087100E0DD
:1032F000012400E002242000C0B23EBD012070473E
:103300000120704710B50400200080B2B0F5004FD6
:1033100001D1012000E00020210089B2B1F5806FC9
:1033200001D1012100E00021C0B2C9B20843002848
:1033300002D02E48FEF779FEA4B2B4F5006F01D199
:10334000012000E000202B490978084203D00C211D
:103350002948FCF7C0FF10BD7C5900200008004838
:1033600098590020B459002080550020B05000200A
:10337000B08900087C5A0020B8890008805A0020D3
:10338000C0890008845A0020AC880008745A0020C4
:10339000C8880008785A0020000400482055002002
:1033A000AC560020AC580020DC5800200C590020FE
:1033B000585A00205C590020645A0020505A0020BE
:1033C0005C5A0020040000206C5A0020705A002033
:1033D00000000020545A0020605A0020985A002013
:1033E0006C570020685A002004ED00E024560020AD
:1033F00000FC0308145B0020EC57002001000020B3
:103400000A0012B2842A03D009B2C91C09180800A4
:103410007047EFF30580002801D0012000E0002074
:10342000C0B2704780B502F057FC002002BD80B5E5
:10343000FFF7EFFF002802D002F011FD01E002F0DB
:103440000AFD02BD38B584B004000D006069002893
:1034500015D0A069002812D0B4F90800FFF7CEFFFC
:10346000A16902916169019100902B002269216894
:10347000606802F015FB0390039805B030BDB4F905
:103480000800FFF7BBFF03A9019100902B00226900
:1034900092B22168606802F044FB0128ECD0002061
:1034A000EBE71CB54268002A0CD0012908D10321A2
:1034B0000091436800220021012002F0ECFF14E09B
:1034C000002012E001290FD103220021012003F086
:1034D00035F80400002C05D0002300220021200034
:1034E00003F062F8200000E0002016BD8120704744
:1034F0002DE9F8430400002C01D1012030E32078AD
:10350000C00740F1BE80DFF80009016811F00C012E
:1035100004290AD0016811F00C01082928D100689B
:1035200010F48030B0F5803F22D14FF48040B0FAE3
:1035300080F151F02001C9B24909012903D1DFF816
:10354000C418096806E0B0FA80F1B0FA80F1DFF83B
:10355000D0180968B0FA80F010F01F00C140C80709
:1035600040F18F806068002840F08B800120F7E2F6
:103570006068B0F5803F06D1DFF88808016851F433
:103580008031016026E0606800280AD1DFF8740805
:10359000016831F480310160016831F480210160FB
:1035A00018E06068B0F5A02F0AD1DFF8580801686C
:1035B00051F480210160016851F48031016009E01B
:1035C000DFF84008016831F480310160016831F4AE
:1035D00080210160DFF840180A6812091201A06812
:1035E00002430A606068002825D000F0D3FE050081
:1035F0004FF48040B0FA80F151F02001C9B249097E
:10360000012903D1DFF8FC17096806E0B0FA80F160
:10361000B0FA80F1DFF808180968B0FA80F010F00D
:103620001F00C140C8072CD400F0B4FE401B652821
:10363000DED3032094E200F0ADFE05004FF480409D
:10364000B0FA80F151F02001C9B24909012903D132
:10365000DFF8B017096806E0B0FA80F1B0FA80F13F
:10366000DFF8BC170968B0FA80F010F01F00C14005
:10367000C80706D500F08EFE401B6528DED3032068
:103680006EE2207880073CD5DFF87C07016811F0F6
:103690000C0F07D0016811F00C01082960D10068F7
:1036A000C0035DD45FF08040B0FA80F151F020019A
:1036B000C9B24909012903D1DFF84817096806E0B2
:1036C000B0FA80F1B0FA80F1DFF854170968B0FA67
:1036D00080F010F01F00C140C80704D52069012800
:1036E00001D001203CE2DFF81C0701685FF0F852CE
:1036F000B2FA82F231F0F801636913FA02F211436F
:1037000001602078000740F1C480A069002800F023
:103710009A8001205FF00041B1FA81F1DFF8FC26C8
:1037200012EB8102106000F035FE05005FF0804072
:10373000B0FA80F1B0FA80F1B0FA80F1DFF8E0166B
:103740000968B0FA80F010F01F00C140C80700F10E
:10375000A08000F01FFE401B0328E7D30320FFE1F9
:10376000206900283ED001205FF00041B1FA81F1CC
:10377000DFF8B02612EB8102106000F00BFE0500AE
:103780005FF08040B0FA80F151F02001C9B24909E0
:10379000012903D1DFF86C16096806E0B0FA80F160
:1037A000B0FA80F1DFF878160968B0FA80F010F00E
:1037B0001F00C140C80706D400F0ECFD401B0328E1
:1037C000DED30320CCE1DFF83C0601685FF0F8525D
:1037D000B2FA82F231F0F801636913FA02F211438E
:1037E00001608EE700205FF00041B1FA81F1DFF85F
:1037F000342612EB8102106000F0CCFD05005FF072
:103800008040B0FA80F151F02001C9B24909012984
:1038100003D1DFF8F015096806E0B0FA80F1B0FADC
:1038200080F1DFF8FC150968B0FA80F010F01F0095
:10383000C140C8077FF565AF00F0ACFD401B032811
:10384000DDD303208CE100205FF00041B1FA81F16B
:10385000DFF8C82512EB8102106000F09BFD050027
:103860005FF08040B0FA80F1B0FA80F1B0FA80F1F8
:10387000DFF8AC150968B0FA80F010F01F00C14005
:10388000C80706D500F086FD401B0328E8D30320B7
:1038900066E12078400740F1B1800026DFF88855C6
:1038A0002868C00009D4286850F080502860286833
:1038B00010F08050009000980126DFF8707538688D
:1038C000C00511D4386850F48070386000F062FD93
:1038D00080463868C00507D400F05CFDB0EB0800F6
:1038E0006528F6D303203BE1E068012806D1DFF824
:1038F0004005016851F00101016025E0E068002801
:103900000AD1DFF82C050168490849000160016807
:1039100031F00401016017E0E06805280AD1DFF802
:103920001005016851F004010160016851F00101C6
:10393000016009E0DFF8F804016849084900016006
:10394000016831F004010160E068002827D000F030
:1039500021FD07005FF08040B0FA80F1B0FA80F1FD
:1039600051F04001C9B24909022903D1DFF8C0145E
:10397000096804E0B0FA80F1DFF8A4140968B0FA2D
:1039800080F010F01F00C140C80730D400F002FDE5
:10399000C01B41F289318842DCD30320E0E000F013
:1039A000F9FC07005FF08040B0FA80F1B0FA80F1D6
:1039B00051F04001C9B24909022903D1DFF870145E
:1039C000096804E0B0FA80F1DFF854140968B0FA2D
:1039D00080F010F01F00C140C80708D500F0DAFCE5
:1039E000C01B41F289318842DCD30320B8E0F6B233
:1039F000012E03D1286830F080502860E06900284B
:103A000000F0AD80DFF80064306810F00C0008288A
:103A100000F09380E069022861D18027DFF80484F8
:103A20000020B7FA87F118EB8101086000F0B2FCC2
:103A300081464025B5FA85F050F02000C0B240091B
:103A4000012803D1DFF8BC03006806E0B5FA85F071
:103A5000B5FA85F0DFF8C8030068B5FA85F111F012
:103A60001F01C840C00707D500F094FCB0EB090067
:103A70000328DED3032073E0316831F47411606AE7
:103A80000143206A014331600120B7FA87F118EB46
:103A90008108C8F8000000F07DFC0400B5FA85F04C
:103AA00050F02000C0B24009012803D1DFF85403D0
:103AB000006806E0B5FA85F0B5FA85F0DFF8600336
:103AC0000068B5FA85F111F01F01C840C00746D45F
:103AD00000F060FC001B0328E0D3032040E000203E
:103AE0008021B1FA81F1DFF83C2312EB81021060F2
:103AF00000F050FC04004020B0FA80F151F02001A9
:103B0000C9B24909012903D1DFF8F812096806E0B2
:103B1000B0FA80F1B0FA80F1DFF804130968B0FA66
:103B200080F010F01F00C140C80718D500F032FC2B
:103B3000001B0328DFD3032012E0E069012801D134
:103B400001200DE0306810F48031226A914204D1E6
:103B500010F47010616A884201D0012000E000205A
:103B6000BDE8F2832DE9F04104000D000020002C97
:103B700001D10120D2E0DFF8BC62306810F007000C
:103B8000A8420BD23068C008C000284330603068BB
:103B900010F00700A84201D00120BFE02078800784
:103BA00007D5DFF864120A6832F0F002A068024319
:103BB0000A602078C00776D5606801281DD14FF4CF
:103BC0008040B0FA80F151F02001C9B249090129C1
:103BD00003D1DFF83012096806E0B0FA80F1B0FADC
:103BE00080F1DFF83C120968B0FA80F010F01F0095
:103BF000C140C8073CD4012090E0606802281BD176
:103C00004020B0FA80F151F02001C9B249090129E0
:103C100002D17C49096806E0B0FA80F1B0FA80F17F
:103C2000DFF8FC110968B0FA80F010F01F00C14005
:103C3000C8071DD4012071E05FF08040B0FA80F128
:103C400051F02001C9B24909012902D16D49096821
:103C500005E0B0FA80F1B0FA80F171490968B0FA74
:103C600080F010F01F00C140C80701D4012055E0CA
:103C7000654F39688908890060680143396000F040
:103C800089FB8046386810F00C006168B0EB810F4A
:103C900009D000F07FFBB0EB080041F28931884287
:103CA000F0D303203AE0306810F0070085420BD2D1
:103CB0003068C008C00028433060306810F007004A
:103CC000A84201D0012029E02078400706D54E49BE
:103CD0000A6832F4E062E06802430A602078000774
:103CE00007D54948016831F46051226951EAC2019F
:103CF000016000F015F8444909684F4A11F0F001DD
:103D00005FF07063B3FA83F3D940515CC840404917
:103D100008604048006800F06DFD0020BDE8F081BB
:103D200010B4002000200020002000203648016848
:103D300011F00C00042802D0082802D021E03F48EE
:103D400020E03F4811F470124FF47053B3FA83F33C
:103D5000DA40805C304A12683A4B12F00F025FF092
:103D60007044B4FA84F4E2409A5CC90306D533493E
:103D7000B1FBF2F201001000484301E03249484330
:103D800000E0224810BC704721480068704780B5A9
:103D9000FFF7FAFF1C4909682C4A11F4E0615FF44F
:103DA0006003B3FA83F3D940515CC84002BD80B5CB
:103DB000FFF7EAFF14490968244A11F460515FF4DF
:103DC000E013B3FA83F3D940515CC84002BD0F221F
:103DD00002600D4A136813F003034360136813F085
:103DE000F0038360136813F4E063C3601268D208C1
:103DF00012F4E06202610F48006810F007000860EA
:103E000070470000001002400410024000127A00C7
:103E1000A8000020A40000202C1002408004424290
:103E200024100240000042421C100240007000407A
:103E3000201002400020024070890008001BB700DB
:103E4000508900086089000800093D00C889000801
:103E50002DE9FC410400002000202068C0037DD52E
:103E60000026DFF81C522868C00009D4286850F0EA
:103E700080502860286810F080500090009801263B
:103E8000DFF800723868C00511D4386850F48070CB
:103E9000386000F07FFA80463868C00507D400F02B
:103EA00079FAB0EB08006528F6D30320E6E0DFF8E6
:103EB000D871386810F44070002842D0616811F45D
:103EC000407188423DD0386830F44070DFF8BC1152
:103ED0004FF400420123B2FA82FC11EB8C0CCCF8B7
:103EE00000300023B2FA82F211EB82010B603860DD
:103EF000C00726D500F04EFA80465FF08040B0FA49
:103F000080F1B0FA80F151F04001C9B249090229AB
:103F100001D1396804E0B0FA80F1DFF87411096862
:103F2000B0FA80F010F01F00C140C80709D400F0BB
:103F300031FAB0EB080041F289318842DDD3032029
:103F40009CE0396831F44071606801433960F6B231
:103F5000012E03D1286830F0805028602078C007F7
:103F600007D5DFF830110A6892089200A068024372
:103F70000A602078800707D5DFF818110A6832F444
:103F80004032E06802430A602078400707D5DFF836
:103F900004110A6832F44022206902430A60207842
:103FA000800607D5DFF8EC100A6832F01002E069ED
:103FB00002430A602068800307D5DFF8DC100A6836
:103FC00032F48002A06B02430A602078400607D5D5
:103FD000DFF8C0100A6832F02002206A02430A604B
:103FE0002078000707D5DFF8AC100A6832F44012D9
:103FF000606902430A602078C00607D5DFF8941094
:104000000A6832F44002A06902430A602068800511
:1040100007D5DFF884100A6832F40002E06A024330
:104020000A602078000607D5DFF870100A6832F4BD
:10403000F872606A02430A602068C00507D5DFF89D
:104040005C100A6832F47852A06A02430A60206861
:10405000C00407D5DFF83C100A6832F48072206B88
:1040600002430A602068800407D5DFF828100A6838
:1040700032F40072606B02430A600020BDE8F681F2
:104080001C10024000700040201002400004424218
:104090002410024030100240041002402C10024054
:1040A00003480168034A127889180160704700BF0D
:1040B000C85A0020AD00002062F30F2262F31F42B5
:1040C000401810F0030308D0C91A1FD3DB0748BFFC
:1040D00000F8012D28BF20F8022D130030B414463B
:1040E0001546103928BF20E93C00FAD8490728BFF7
:1040F00020E90C0048BF40F8042D890028BF20F8B3
:10410000022D48BF00F8012D30BC7047C91818BFF8
:1041100000F8012DCB0728BF00F8012D70470000E3
:10412000014648B1B0FA80F18840C91CC1F58461EC
:10413000090501EBD0214005704780B500F001F87A
:1041400002BDB42181804FF47A71C180B422028112
:1041500041810021C160002101611421416140F6CB
:10416000B8310183C821C16101210162D721818455
:10417000002181620221C1620021016300214163AB
:10418000002181637047C160704738B52DED088B01
:10419000B0EE418AF0EE618AB0EE429AF0EE629A99
:1041A000B0EE43AAF0EE63AAB0EE44BAF0EE64BA01
:1041B00051EC100B53EC182B02F04EFB04000D00D9
:1041C00051EC1B0B53EC1A2B02F046FB22002B0088
:1041D00000F0E6F804000D0051EC190B53EC182B1D
:1041E00002F03AFB02000B002000290000F0AAF9BF
:1041F00053EC1A2B02F0A2FB41EC100BBDEC088B28
:1042000031BD0000C1F30A5340F2FE329B1A14DDA7
:10421000D3F120034FEAE17208DDC90241EA5051AF
:1042200041F00040D84080185040704703F2E13020
:1042300010B1D24382F00040704700207047000068
:1042400018B40024009400680090002904D100985C
:1042500008321218009203E00098143212180092EB
:1042600000980360002012BC70474279012A01D1F6
:1042700002202BE0012242710222027102681268C0
:1042800001238B401A4303681A6000290CD101688E
:10429000096811F03C013C2913D10168496851F0CB
:1042A0000101026851600CE00168096811F47011A5
:1042B000B1F5701F05D10168496851F0020102682B
:1042C000516001210171002141710020704710B53A
:1042D000040020680068800416D52068406B8004C4
:1042E00012D504202071206950F0010020614FF4A4
:1042F0000050216848632068006830F480502168CD
:104300000860200002F0D7FB20680068800016D506
:104310002068406B800012D504202071206950F085
:10432000020020615FF00050216848632068006847
:1043300030F0805021680860200002F0BDFB10BD05
:1043400010B4002300234379012B01D102201EE089
:10435000012343710223037103681B6840F6FE7456
:104360009440A3430C6849680C439440234301687C
:104370000B6001680968C02313FA02F231EA0202F5
:1043800001680A600121017100214171002010BC07
:104390007047000001480068704700BFC85A0020FD
:1043A000B0B581EA030C0CF0004C40F2FF7515EA41
:1043B00011541DBF15EA1357AC42AF4239E0E4195E
:1043C00023EA455343F48013C90241F0004141EA16
:1043D000505EC7021100A7FB020200284FF0000048
:1043E000EEFB01204FF00001E3FB072118BF42F074
:1043F0000102401800214941E3FB0E01A4F580644D
:104400000F0302D252004041494154F101046CDDD6
:10441000470872F1004250F1000051EB0451A1F540
:1044200080115CBF41EA0C01B0BD4CEA055100208F
:10443000B0BD05EA1357AC4214BFAF4241E050EAA9
:10444000410E1CBF52EA430E02E061460020B0BD9F
:1044500024423C441BD15FEA070EF6D0090302BF99
:1044600001460020AEF1140EB1FA81F7AEEB07045D
:1044700001FA07FE0C37C7F1200100FA07F7C84020
:104480004EEA000E23EA455343F48013A2E733F0CB
:104490000043B3FA83F704BFB2FA82FE77440B3FBE
:1044A000E41BB7F1200E2FBF02FA0EF3BB40C7F199
:1044B000200E22FA0EFE38BF43EA0E03BA40641CF7
:1044C00082E750EA410E14BF52EA430E6FF000013A
:1044D0004FF4001717EB430F8ABF194617EB410F34
:1044E000B5E74CEA05510020B0BDD4F10104B4F1A8
:1044F00020070FDAC4F12007520828BF42F001025A
:1045000010FA07F501FA07F7E1BF2A43E040384304
:10451000E1400FE0352C98DCC7F1200452EA40025C
:1045200020FA07F218BF42F0010231FA07F0A14069
:104530000A43002172F1004250F1000051EB0C01DE
:10454000B0BD0000F0B540F2FF7581EA030C0CF03D
:10455000004C15EA11541DBF15EA1357AC42AF4287
:10456000E5E0BC41C1F31301C3F31303801A994181
:1045700043F4801304D2641E40004941801859411D
:10458000C90241EA5051B1FBF3F603FB1611A2FB3D
:104590000675D7EBC020A94102D2761E801859417A
:1045A000C90241EA5051B1FBF3FE03FB1E11A2FB0D
:1045B0000E75D7EBC020A94103D2AEF1010E8018D1
:1045C0005941890241EA9051760546EA8E2EB1FBA7
:1045D000F3F603FB1611A2FB0675D7EB8020A94169
:1045E00002D2761E80185941C90241EA50514EEA62
:1045F000060EB1FBF3F603FB1611A2FB0675D7EB13
:10460000C020A94102D2761E80185941C90241EA50
:104610005051B1FBF3F703FB1711A2FB0735D3EBA6
:10462000C020A94167F100070CBF004247F0010715
:1046300066F3D5274FEA1E31B80814F5806412DD01
:10464000BD0775F1004250EB0E5051EB045111F5CE
:10465000801F5CBF41EA0C01F0BD4CF07F6141F06E
:10466000E0410020F0BDBD076D0840EA0E5041F466
:104670008011D4F10104B4F120060ADAC4F1200655
:104680000200E04001FA06F3E1401843B24015434E
:104690000EE0342C13DCC6F1200445EA40056D0819
:1046A00020FA06F2154321FA06F0A1400D4300213D
:1046B00075F1004250F1000051EB0C01F0BD0020FB
:1046C0005FEA0C01F0BDCFB992185B41B3FA83F7F2
:1046D00004BFB2FA82F6BF190B3FB7F120062FBF15
:1046E00002FA06F3BB40C7F1200622FA06F638BFED
:1046F0003343BA401CB1E419641E33E77F4231F002
:104700000041B1FA81F404BFB0FA80F6A4190B3C61
:10471000B4F120062FBF00FA06F1A140C4F1200633
:1047200020FA06F638BF3143A0403C1B1AE7AC42E2
:104730001ABF05EA1357AF4212E050EA41061CBF08
:1047400052EA4306BFE750EA4107304661461CBFC4
:1047500041EA0551F0BD52EA430C08BFC143F0BD28
:1047600000204FF4001616EB410F98BF16EB430FD5
:1047700008BF16EB410F24BFC14305E016EB430F02
:104780000CBF61464CEA0551F0BD000001F000424B
:104790008B1AA3F16051B1F5801F0ADBB1F17F6F75
:1047A0001FD242EAC102C10071F1004142EB5070D8
:1047B00070470B15C3F10903212B10D2890241EA7E
:1047C000905180020128494141F0004121FA03F053
:1047D000C3F12003994071F100415041704710002E
:1047E00070476FF0000013EB103F5CBF000E42EA11
:1047F000C050704718B587B001000020002000228B
:104800003720FDF7B3F93720FDF7C1F915480168E6
:1048100051F020010160006810F020000090009825
:1048200001A902A8FFF7D3FAFFF7B1FA40000E4939
:10483000B0FBF1F0401E0D4C0D49216040F2E73114
:10484000E1606060002020610020A0602000FBF794
:104850009BFC002803D12000FBF7B2FC00E0012004
:1048600008B010BD1C10024040420F006C560020E2
:104870000014004080B50D48016851F0010101604D
:10488000006810F00100009000980948016851F09C
:1048900080510160006810F0805000900098002264
:1048A0000F217FF00100FDF761F901BD18100240F2
:1048B0001C10024010B50400002C01D101200EE0B4
:1048C0002079002804D1002060712000FDF7A0FEAF
:1048D000022020710020206101202071002010BDE5
:1048E000F8B504000D0016001F00002C01D10120B6
:1048F0003DE0606F002805D1002084F870002000A2
:10490000FDF7E5FE2420606720680068400840004D
:1049100021680860200002F03DFA012801D1012041
:1049200025E0606A002802D0200002F09FFB20688A
:10493000806850F48040216888602068806830F486
:104940000040054320688560760556EA07462068E2
:1049500000686FF31940064320680660206800680D
:1049600050F0010021680860200002F0ECFBF2BD6D
:104970007047000078B595B004000025002600209F
:104980000090002C01D101205AE12069002802D0BA
:1049900094F820000028206CC00653D4206C002816
:1049A0003DD1002060640020E0640020A06400206D
:1049B00084F83C002000FDF71EFF20688068C000DE
:1049C0002DD4200000F028FC0500206CC00626D461
:1049D0002800C0B2002822D1206C30F4885050F05A
:1049E000020020642068806830F0405021688860B0
:1049F0002068806850F0805021688860DFF84402A9
:104A00000068DFF84412B0FBF1F10A204143009145
:104A100002E00098401E009000980028F9D120681C
:104A20008068C00003D52068806880000AD5206CAB
:104A300030F0020050F010002064606C50F0010073
:104A400060640125206CC00600F1F1802800C0B22E
:104A5000002840F0EC8020688068400700F1E78083
:104A6000206C30F4807050F0020020642068B0F1B7
:104A7000A04F04D02068DFF8D411884202D1DFF8BB
:104A8000D01101E0DFF8CC112068B0F1A04F04D1C3
:104A9000DFF8B801019001981EE02068DFF8AC2132
:104AA000904204D15FF0A0400190019814E0DFF83B
:104AB000A8012268824204D1DFF8A0010190019888
:104AC0000AE02268DFF894319A4202D101900198FD
:104AD00002E00020019001982068806810F0030037
:104AE000012804D12068006810F0010000E00020D7
:104AF000002816D1019800280DD00198806810F088
:104B00000300012804D10198006810F0010000E0C2
:104B10000020002805D18A6832F4403260680243E0
:104B20008A60606B012802D04FF4805100E00021C0
:104B3000607E51EA4031E0680143A06801430E43C2
:104B400094F82000012813D1607E002806D1606A05
:104B5000401E400450F48030064309E0206C30F0E1
:104B6000020050F020002064606C50F0010060648E
:104B7000A06A012824D02068DFF8DC10884204D025
:104B80002068DFF8D810884216D1A06AB0F5307FCF
:104B900002D14FF4E07110E0A06AB0F5807F02D13D
:104BA0004FF4307109E0A06AB0F5E07F02D14FF414
:104BB000807102E0A16A00E0A16AE06A01430E434D
:104BC0002068806810F00C0F0DD12068C168DFF8F4
:104BD000900001402068C160207E94F830104900A8
:104BE00051EA80310E432068C168DFF87800014047
:104BF0000E432068C6602069012809D12068006B37
:104C000000090001E169491E08432168086305E0C5
:104C10002068006B000900012168086300206064BF
:104C2000206C30F0020050F00100206406E0206C9F
:104C300030F0020050F01000206401252800C0B2BE
:104C400016B070BDA800002040420F0000010050C7
:104C50000003005000070050000400500005005001
:104C6000FDBFFFFF07C0F0FF70B495B002000B005E
:104C7000002100200090D8680128FFD192F83C0064
:104C8000012801D1022003E2012082F83C001068D3
:104C90008068400700F1F2815868052811D206208B
:104CA0001468246B1F255E684643B540AC431D68FD
:104CB0005E6800FB06F015FA00F0204314682063DC
:104CC00040E058680A2813D206241068456B1F2656
:104CD0005868401F10FB04F08640B5431E685868B2
:104CE000401F10FB04F0864035431068456329E0FF
:104CF00058680F2813D206241068856B1F26586841
:104D00000A3810FB04F08640B5431E6858680A381C
:104D100010FB04F0864035431068856312E00624DA
:104D20001068C56B1F2658680F3810FB04F08640CA
:104D3000B5431E6858680F3810FB04F086403543B1
:104D40001068C5631068806810F00C0F40F0AB80ED
:104D500018680A2814D310688469072518680A3867
:104D6000032610FB06F08540AC439D6818680A389E
:104D7000032610FB06F085402C43106884610FE089
:104D80001068446907251E6803204643B540AC43BC
:104D90009D681E6803204643B5402C43106844615B
:104DA00058691468E468C4F3C104E4B2640010FAFA
:104DB00004F41869012806D03DD303281FD010D36E
:104DC00004282AD037E01068056EDFF8400405405B
:104DD000186855EA80652C4354F000441068046656
:104DE00061E01068456EDFF824040540186855EA54
:104DF00080652C4354F000441068446653E010680A
:104E0000856EDFF808040540186855EA80652C4374
:104E100054F000441068846645E01068C56EDFF801
:104E2000EC030540186855EA80652C4354F00044B3
:104E30001068C46637E01068006E10F0F8401C6817
:104E4000B0EB846F05D11068006E20F0004014684C
:104E500020661068406E10F0F8401C68B0EB846F5C
:104E600005D11068406E20F000401468606610683C
:104E7000806E10F0F8401C68B0EB846F05D11068AC
:104E8000806E20F000401468A0661068C06E10F0BC
:104E9000F8401C68B0EB846F05D11068C06E20F03C
:104EA00000401468E0661068806810F00300012874
:104EB00004D11068006810F0010000E00020002814
:104EC00040F0E180D86801280AD01068D0F8B040DE
:104ED000012518688540AC431068C0F8B04035E043
:104EE0001068D0F8B0400125186885402C43106840
:104EF000C0F8B04018680A2814D3106884690725E0
:104F000018680938032610FB06F08540AC439D68FD
:104F100018680938032610FB06F085402C431068FA
:104F2000846113E01068446907251868401C032653
:104F300010FB06F08540AC439D681868401C0326B2
:104F400010FB06F085402C43106844611068B0F1F6
:104F5000A04F03D01068504CA04202D1DFF8B042FD
:104F600001E0DFF8B0421868102802D1A068000202
:104F70000CD51868112802D1A068C00106D51868A0
:104F8000122840F08080A06840027CD41068B0F104
:104F9000A04F03D14048019001981AE010683E4D9F
:104FA000A84204D15FF0A0400190019811E03B4875
:104FB0001568854203D13A480190019809E01568C7
:104FC000374EB54202D10190019802E000200190D5
:104FD00001981068806810F00300012804D110685F
:104FE000006810F0010000E00020002840D1019886
:104FF00000280DD00198806810F00300012804D12A
:105000000198006810F0010000E0002000282FD176
:105010001868102818D11068B0F1A04F14D1A068FA
:1050200050F40000A060DFF874020068DFF870320E
:10503000B0FBF3F30A20434300930098002822D0EA
:105040000098401E0090F8E71868112808D11068F1
:10505000B0F1A04F04D1A06850F08070A06012E0C1
:10506000186812280FD1A06850F48000A0600AE0F0
:10507000106C50F020001064012104E0106C50F01E
:10508000200010640121002082F83C000800C0B21A
:1050900015B070BC704700000001005000040050C3
:1050A0000005005030B494B000220B68002B036858
:1050B000B3F1A04F04D1DFF8F4310093009B1EE060
:1050C0000368DFF8E841A34204D15FF0A0430093F6
:1050D000009B14E0DFF8CC3104689C4204D1DFF877
:1050E000C8310093009B0AE00468DFF8BC51AC4271
:1050F00002D10093009B02E000230093009B009BE1
:10510000002B01D101207DE090F83C30012B01D132
:10511000022077E0012380F83C3003689B685B073E
:1051200066D4009B9B685B0762D40368B3F1A04F11
:1051300004D00368DFF87441A34201D1344C00E08D
:10514000344C0B68002B2ED0A56835F460454B68B5
:105150001D4390F8303055EA4335A56003689B68DD
:1051600013F00303012B04D103681B6813F0010340
:1051700000E00023002B40D1009B9B6813F0030349
:10518000012B04D1009B1B6813F0010300E00023F6
:10519000002B32D1A568464B1D400B681D43896822
:1051A0000D43A56029E0A16831F46041A160016868
:1051B000896811F00301012904D10168096811F01F
:1051C000010100E00021002917D10099896811F040
:1051D0000301012904D10099096811F0010100E0DF
:1051E0000021002909D1A36831490B40A36004E0E4
:1051F000016C51F0200101640122002180F83C1073
:105200001000C0B214B030BC7047000000F0FF8343
:10521000000300500007005038B50400002020684B
:10522000806810F00300012804D12068006810F0A5
:10523000010000E0002000282ED02068806810F0D7
:105240000D0001281ED12068806850F002002168FE
:105250008860032021680860FFF79CF8050020683B
:105260008068C00718D5FFF795F8401B0328F6D3D0
:10527000206C50F010002064606C50F001006064FD
:1052800001200AE0206C50F010002064606C50F0A7
:1052900001006064012000E0002032BDA800002071
:1052A00040420F0000040050000500500001005073
:1052B000E0F0FFFF10B50400002C01D1012060E0F8
:1052C000606A00280020A06294F85D00002805D1E3
:1052D000002084F85C002000FDF7FAFA022084F830
:1052E0005D002068006830F040002168086040F2EE
:1052F0000172E068904201D3002101E04FF4805137
:10530000E068B0F5706F05D0E068B0F5E06F01D0EF
:105310000020A062206B002807D1E068904202D3F1
:105320000220206301E0012020636268A06802433C
:105330002069024360690243A06910F400700243CF
:10534000E0690243206A0243A06A024320680260C7
:10535000A269120C12F00402606A0243606B0243FD
:10536000E06802431143206841602068C06930F45E
:1053700000602168C86100202066012084F85D007B
:10538000002010BD10B50400002C01D101205EE00A
:10539000607F002804D1002020772000FDF722FB49
:1053A00002206077CA202168486253202168486241
:1053B000200000F064F9002806D0FF202168486230
:1053C00004206077012042E020688168DFF86C02E9
:1053D000014020688160206881686268206902431A
:1053E00060690243114320688160E06821680861B8
:1053F00020680069A16850EA0140216808612068BE
:10540000C06830F080002168C8602068806880062D
:105410000BD4200000F018F9002806D0FF202168E6
:10542000486204206077012011E02068006C30F4AD
:105430008020216808642068016CA069014320680D
:105440000164FF202168486201206077002010BDC0
:10545000F8B504000D000020207F012801D10220B2
:1054600078E00120207702206077002A1BD1206895
:105470008068400601D40020E870287800F01CF90C
:105480000700687800F018F90600A87800F014F911
:10549000FFB2F6B2360256EA0746C0B20643E878D3
:1054A00056EA00460FE020688068400601D40020DC
:1054B000E87028786E78360256EA0046A8780643E7
:1054C000E87856EA0046CA202168486253202168DD
:1054D0004862200000F0D3F8002808D0FF2021689F
:1054E00048620420607700202077012032E0DFF856
:1054F00050010640206806602068806830F48020F3
:105500002168886020688168EA682869024311433D
:10551000206881602068C06830F080002168C86021
:105520002068806880060DD4200000F08DF80028E7
:1055300008D0FF202168486204206077002020778F
:10554000012007E0FF2021684862012060770020E9
:1055500020770020F2BDF8B504000D000020207F68
:10556000012801D1022068E0012020770220607725
:10557000002A07D16878C00604D5687810F0EF00DB
:105580000A306870002A15D1E87800F095F8070015
:10559000687800F091F80600A87800F08DF8FFB266
:1055A000F6B2360256EA0746C0B20643287856EAF3
:1055B000403609E0E8786E78360256EA0046A87868
:1055C0000643287856EA4036CA20216848625320AC
:1055D00021684862200000F052F8002808D0FF201F
:1055E000216848620420607700202077012024E0B1
:1055F000DFF850000640206846602068C06830F040
:1056000080002168C8602068806880060DD4200072
:1056100000F01AF8002808D0FF2021684862042012
:10562000607700202077012007E0FF202168486292
:1056300001206077002020770020F2BDBFFF8FFFA0
:105640007F7F7F003FFFFF0038B504000020206807
:10565000C06830F0A0002168C860FEF79BFE05001E
:105660002068C068800608D4FEF794FE401B40F214
:10567000E9318842F4D3032000E0002032BD38B580
:10568000040000202068C068400613D45FF0FF309B
:105690002168C860FEF77EFE05002068C0684006ED
:1056A00008D4FEF777FE401B40F2E9318842F4D37C
:1056B000032000E0002032BD002101E0491C0A382F
:1056C0000200D2B20A2AF9D250EA0110C0B27047E1
:1056D00070B505001E00049C69602A81280000F056
:1056E00008F83100C9B2280000F01AF82C7628001A
:1056F00070BD80B500214176002141610021017417
:1057000000214174782141814FF4FA7181814FF475
:10571000C871C18100210176002100F001F801BDAE
:10572000817670474178C9B2490811F0010100291A
:1057300005D0417811F0FD014170012000E000200A
:10574000704710B50400607E002819D12189606877
:10575000FCF781F9002801D1012100E00021C9B244
:10576000207E4140A07E90EA010F01D0012000E0A0
:105770000020217860F300012170207810F00100F2
:105780002078C0071BD52078800718D4FEF702FECA
:105790006169401A6189884211D3207850F0020073
:1057A0002070207C401C2074FEF7F4FD606120789E
:1057B00050F040002070607850F001006070207858
:1057C000C00722D4207880071FD5207810F0FD0074
:1057D0002070207810F0FB002070207850F020001E
:1057E0002070FEF7D7FD6061207810F07F002070F8
:1057F000607810F00100002807D0607810F0FE00FB
:105800006070607850F0020060702078800725D5C5
:105810002078C00722D5FEF7BDFD6169401AA18935
:1058200088421BD32078C0B2800810F00100002805
:1058300014D1207850F004002070002020742078CB
:1058400050F010002070207850F0800020706078B8
:1058500010F0FE006070FEF79DFD6061FEF79AFD9E
:105860006169401AA18988420AD3207C002807D0A8
:10587000207C607400202074207850F00800207094
:1058800010BD000000230068503010EB8100026062
:10589000704700220068503010EB810000687047AC
:1058A00070B5050014001A0000200800C0B20028DE
:1058B00007D00800C0B2002803D00800C0B2F82802
:1058C00001DB022436E05E4E31702800C0B20028B1
:1058D00020D1049B5B485C4908605C485C490860D7
:1058E0005C485D4908605D485D49086000205D498D
:1058F00008605D485D4908605D485E4908605E4833
:105900005E490860DBB22100C9B2307801F0D2FCF8
:10591000040000E002242000C0B200280AD101F0F7
:105920002BFE002801D1032404E055480570012016
:10593000544908702000C0B270BD38B50024514DE4
:105940002878012805D14048006880470020287049
:1059500000E006242000C0B232BD7CB500204948DA
:105960000078002801D0062068E0684601F010FEAB
:10597000012862D19DF80000002805D002281AD025
:1059800003D3032859D058E057E0404C404A4149DE
:105990002000334B1B689847C0B200280AD12078FA
:1059A00027490978884202D02078002802D10220B5
:1059B00001F0E7FD41E0384C364D28680078207052
:1059C000364E01203070002205E013F832002178B5
:1059D000884208D0521C102A0CDA2B4B13F83200E4
:1059E0000028F2D106E02A49286803EBC202526877
:1059F000904730702548007800281DD03078002866
:105A000012D0234800210180217851F080012A68BA
:105A10000388D1540188491C018031782A680388A1
:105A2000D1540188491C018019480288296804481A
:105A30000078094B1B689847FFE7002076BD0000FF
:105A4000155B0020FB720008A05A002015730008A7
:105A5000A45A0020937300089C5A00202973000860
:105A6000A85A0020AC5A0020F3730008B05A002056
:105A70007D740008B45A0020EB740008B85A002066
:105A8000165B0020AC0000201C000020175B0020EB
:105A9000085B0020BC5A0020185B0020195B002026
:105AA00078B585B005000B98002807D1502080F309
:105AB0001188BFF34F8FBFF36F8FFEE70C9C002C54
:105AC00007D1502080F31188BFF34F8FBFF36F8F42
:105AD000FEE754260096009E542E07D0502080F3F7
