:020000040800F2
:10000000305E00209D790008097200080B7200081C
:100010000D7200080F720008117200080000000045
:10002000000000000000000000000000BD6D00089E
:100030001372000800000000656D0008096B0008DD
:10004000F9790008FD790008017A0008057A0008AE
:10005000097A00080D7A0008117A0008157A00085C
:10006000197A00081D7A0008217A0008257A00080C
:10007000297A00082D7A0008317A0008357A0008BC
:10008000157200081F720008397A00083D7A0008CE
:10009000417A0008457A0008497A00084D7A00083C
:1000A000517A0008557A000829720008597A000828
:1000B000617200085D7A0008617A0008657A0008BC
:1000C000697A00086D7A0008717A0008757A00086C
:1000D000797A00086B7200087D7A0008817A00083E
:1000E000BB720008857A0008897A00088D7A0008BA
:1000F000917A0008957A0008997A00089D7A00089C
:10010000000000000000000000000000A17A0008CC
:10011000A57A0008A97A0008D7720008E7720008DB
:10012000AD7A0008B17A0008B57A0008B97A0008FB
:10013000BD7A0008C17A000800000000000000003D
:10014000C57A0008C97A0008CD7A000800000000CE
:10015000000000000000000000000000000000009F
:100160000000000000000000D17A0008D57A0008E5
:10017000D97A000800000000000000000000000024
:1001800000000000DD7A000810B50400002C01D149
:10019000012014E094F83D00002805D1002084F8E7
:1001A0003C00200000F005FF022084F83D00211DE6
:1001B000206800F0E8FA012084F83D00002010BD1E
:1001C0000168C96851F001010268D16001688A685C
:1001D000DFF8D0110A40062A08D0B2F5803F05D0DA
:1001E0000168096851F00101006801600020704752
:1001F0000168C968490849000268D1600168096A54
:1002000041F2111211420BD10168096A40F24442D5
:10021000114205D101680968490849000068016078
:100220000020704710B50400002C01D1012014E01B
:1002300094F83D00002805D1002084F83C002000FF
:1002400000F01DFF022084F83D00211D206800F011
:100250009AFA012084F83D00002010BD10B504007A
:100260000122206800F0D6FC2068DFF83C118842AB
:1002700013D02068DFF8341188420ED02068DFF8F0
:100280003011884209D02068DFF82811884204D054
:100290002068DFF82411884201D1012000E000200D
:1002A000C0B2002805D02068406C50F4004021689E
:1002B000486420688168DFF8EC000140062908D016
:1002C000B1F5803F05D02068006850F0010021683A
:1002D0000860002010BD10B504000022206800F066
:1002E00099FC2068DFF8C010884213D02068DFF83E
:1002F000BC1088420ED02068DFF8B410884209D0C4
:100300002068DFF8B010884204D02068DFF8A81019
:10031000884201D1012000E00020C0B2002811D0A5
:100320002068006A41F2111108420BD12068006A6E
:1003300040F24441084205D12068406C30F400404E
:10034000216848642068006A41F2111108420BD10B
:100350002068006A40F24441084205D120680068E4
:100360004008400021680860002010BD10B504005E
:10037000002C01D1012014E094F83D00002805D1A3
:10038000002084F83C00200000F068FE022084F881
:100390003D00211D206800F0F6F9012084F83D00A1
:1003A000002010BD07000100002C01400034014076
:1003B00000400140004401400048014010B50400E5
:1003C0002068006980071AD52068C068800716D5A4
:1003D0007FF0020021680861012020772068806991
:1003E00010F0030F03D0200000F0D6FE05E020003F
:1003F00000F0D3FE200000F0D1FE0020207720681E
:10040000006940071AD52068C068400716D57FF0FC
:10041000040021680861022020772068806910F4B8
:10042000407F03D0200000F0B7FE05E0200000F080
:10043000B4FE200000F0B2FE0020207720680069A2
:1004400000071AD52068C068000716D57FF008009D
:1004500021680861042020772068C06910F0030F2C
:1004600003D0200000F098FE05E0200000F095FE8B
:10047000200000F093FE0020207720680069C0066D
:100480001AD52068C068C00616D57FF01000216814
:100490000861082020772068C06910F4407F03D0ED
:1004A000200000F079FE05E0200000F076FE20003C
:1004B00000F074FE0020207720680069C0070AD58C
:1004C0002068C068C00706D57FF001002168086178
:1004D000200000F016FF2068006900060AD5206899
:1004E000C068000606D57FF0800021680861200002
:1004F00000F039FF20680069C0050AD52068C0688F
:10050000000606D57FF4807021680861200000F0A5
:100510002BFF2068006940060AD52068C0684006A5
:1005200006D57FF0400021680861200000F01DFF23
:100530002068006980060AD52068C068800606D554
:100540007FF0200021680861200000F00FFF10BD3F
:1005500010B5040094F83C00012801D1022031E0DC
:10056000012084F83C00022084F83D00002A0AD0D3
:10057000042A0CD0082A0ED00C2A10D0102A12D02F
:10058000142A14D017E0206800F058F913E020680E
:1005900000F0A2F90FE0206800F0E3F90BE020681A
:1005A00000F01EFA07E0206800F049FA03E0206836
:1005B00000F071FAFFE7012084F83D00002084F884
:1005C0003C00002010BD38B504000D0094F83C003C
:1005D000012801D10220A6E0012084F83C0002207D
:1005E00084F83D00002A0AD0042A1FD0082A35D0FA
:1005F0000C2A4AD0102A60D0142A75D08CE0290029
:10060000206800F01BF92068806950F0080021681C
:1006100088612068806930F0040021688861206862
:100620008169286901432068816175E0290020689B
:1006300000F052F92068806950F4006021688861F8
:100640002068806930F48060216888612068806952
:10065000296950EA0120216888615DE0290020684D
:1006600000F07FF92068C06950F008002168C86177
:100670002068C06930F004002168C8612068C16941
:10068000286901432068C16146E02900206800F024
:10069000A7F92068C06950F400602168C86120682B
:1006A000C06930F480602168C8612068C069296928
:1006B00050EA01202168C8612EE02900206800F07E
:1006C000BEF92068406D50F0080021684865206838
:1006D000406D30F00400216848652068416D28694C
:1006E00001432068416517E02900206800F0D3F934
:1006F0002068406D50F40060216848652068406DB6
:1007000030F48060216848652068406D296950EAAE
:10071000012021684865FFE7012084F83D000020A2
:1007200084F83C00002032BD10B5040094F83C0071
:10073000012801D1022025E0012084F83C0002209C
:1007400084F83D00200000F0D4F9002807D00120F3
:1007500084F83D00002084F83C00012012E020686D
:10076000C06830F040002168C8602068C06830F47C
:1007700080402168C860012084F83D00002084F892
:100780003C00002010BD10B40468DFF8003498422B
:100790000ED0B0F1804F0BD0DFF8F423904207D099
:1007A000DFF8F023904203D0DFF8EC23904203D12E
:1007B00034F070044A68144398421AD0B0F1804F64
:1007C00017D0DFF8CC23904213D0DFF8C823904233
:1007D0000FD0DFF8C42390420BD0DFF8C023904243
:1007E00007D0DFF8BC23904203D0DFF8B823904253
:1007F00003D134F44074CA68144334F080044A6965
:10080000144304608A68C2620A68826298420FD008
:10081000DFF8842390420BD0DFF88023904207D08A
:10082000DFF87C23904203D0DFF87823904201D197
:10083000096901630121416110BC704770B4026A0B
:10084000520852000262056A43688469DFF858233F
:100850001440A408A4000A68144335F002058A680D
:100860001543DFF82863B0420FD0DFF82C23904205
:100870000BD0DFF82823904207D0DFF824239042E2
:1008800003D0DFF82023904205D135F00805CA686F
:10089000154335F00405B0420FD0DFF8FC2290423A
:1008A0000BD0DFF8F822904207D0DFF8F422904214
:1008B00003D0DFF8F022904207D133F4807333F491
:1008C00000734A6913438A6913434360846149682A
:1008D0004163056270BC704770B4026A32F0100266
:1008E0000262056A43688469DFF8C022144034F468
:1008F00040740A6854EA022435F020058A6855EAF3
:100900000215DFF88822904203D0DFF88C62B042F3
:1009100006D135F08005CE6855EA061535F040055C
:1009200090420CD0DFF87022904208D09B4A90424F
:1009300005D09B4A904202D09A4A904209D133F4A2
:10094000806333F400634A6953EA82038A6953EA95
:1009500082034360846149688163056270BC7047AB
:10096000000070B4026A32F480720262056A436861
:10097000C4698D4A1440A408A4000A68144335F4DD
:1009800000758A6855EA0225804A904202D0824E5C
:10099000B04206D135F40065CE6855EA062535F437
:1009A000806590420BD07C4A904208D07B4A9042AE
:1009B00005D07B4A904202D07A4A904209D133F462
:1009C000805333F400534A6953EA02138A6953EAA5
:1009D00002134360C4614968C163056270BC70471B
:1009E00030B4026A32F480520262036A4568C46914
:1009F0006E4A144034F440740A6854EA022433F412
:100A000000538A6853EA0233604A90420BD0624A2C
:100A1000904208D0614A904205D0614A904202D08B
:100A2000604A904204D135F480454A6955EA8215FE
:100A30004560C46149680164036230BC704730B4EA
:100A4000026A32F480320262036A4568446D564A93
:100A500014400A68144333F400338A6853EA0243AB
:100A60004A4A90420BD04C4A904208D04B4A90429E
:100A700005D04B4A904202D04A4A904204D135F404
:100A800080354A6955EA02254560446549688165B3
:100A9000036230BC704730B4026A32F480120262E2
:100AA000036A4568446D414A14400A6854EA0224C6
:100AB00033F400138A6853EA0253344A90420BD04D
:100AC000354A904208D0354A904205D0344A904287
:100AD00002D0344A904204D135F480254A6955EA5F
:100AE0008225456044654968C165036230BC704732
:100AF000000010B50268936833F070034A6813432E
:100B00002B4A13400A681343026893604A68002A1C
:100B100039D0102A37D0202A35D0302A33D0402A75
:100B20000CD0502A23D0602A27D0702A2CD10B69F0
:100B30008A68C968006800F062F825E00A68052A3A
:100B400001D1012021E00268136A0268126A52088A
:100B50005200046822620268926932F0F002096968
:100B600052EA011201688A61006803620CE00A69B6
:100B70008968006800F01EF806E00A698968006864
:100B800000F02AF800E0FFE7002010BD002C014033
:100B900000040040000800400034014000400140D3
:100BA00000440140004801408FFFFEFFFF8FFFFE21
:100BB000F8FFFEFF10B4046A036A5B085B0003627F
:100BC000836933F0F00353EA021334F00A0421433B
:100BD0008361016210BC704710B4036A33F01003E4
:100BE00003628369046A33F4704353EA023334F0D6
:100BF000A00454EA01148361046210BC704710B46D
:100C0000846834F47F44114351EA03212143816015
:100C100010BC704710B4012411F01F0314FA03F341
:100C2000046A34EA03030362036A11F01F0112FA33
:100C300001F11943016210BC704730B4002513E084
:100C400050F8042BD30744BFA9F101039A18091FD8
:100C5000042942F8045BFAD213468C0744BF15807E
:100C60009B1CC90748BF1D7050F8041B0029E7D121
:100C700030BC704710B588B01422002103A800F0E2
:100C800076FB0C220021684600F071FBDFF8C844B7
:100C90005FF080402060002060600020A060322073
:100CA000E060002020610020A0612000FFF76CFAC6
:100CB000002801D000F056FB07200390102004907C
:100CC00003A92000FFF730FD002801D000F04AFB07
:100CD00000200090002002906946200000F052FBA6
:100CE000002801D000F03EFB08B010BD10B58AB05E
:100CF0000C220021684600F03AFB1C22002103A8C8
:100D000000F035FBDFF85444DFF85404206009207C
:100D100060600020A06040F26710E0600020206169
:100D20000020A0612000FFF721FB002801D000F087
:100D300019FB00200090002002906946200000F07E
:100D400021FB002801D000F00DFB60200390002063
:100D500004900020059000200790002203A92000A5
:100D6000FFF731FC002801D000F0FCFA042203A9AF
:100D70002000FFF728FC002801D000F0F3FA082239
:100D800003A92000FFF71FFC002801D000F0EAFAB9
:100D9000200000F085F90AB010BD1FB50C2200211B
:100DA000684600F0E4FADFF8BC43DFF8BC032060DB
:100DB000472060600020A0600020E0600020A0616B
:100DC0002000FFF7E1F9002801D000F0CBFA002065
:100DD0000090002002906946200000F0D3FA00281D
:100DE00001D000F0BFFA1FBD18B595B00C2200214C
:100DF000684600F0BCFA1C2200210EA800F0B7FAE9
:100E00002C22002103A800F0B2FADFF86043DFF8DB
:100E100060032060472060600020A06040F21F3027
:100E2000E06000202061002060610020A0612000BF
:100E3000FFF7F8F9002801D000F094FA7020009034
:100E400000200190002002906946200000F09AFAEC
:100E5000002801D000F086FA30200E904FF4C870C0
:100E60000F9000201090002012900020139000207E
:100E700014900C220EA92000FFF76AFB002801D075
:100E800000F070FA002003900020049000200590EC
:100E900000200690002007904FF40050089000209A
:100EA000099000200A905FF000700B9000200C90D9
:100EB00000200D9003A9200000F0AEFA002801D018
:100EC00000F050FA200000F0EBF816B010BD10B59D
:100ED00092B01C2200210BA800F049FA2C2200211C
:100EE000684600F044FAA34CA348206000206060EC
:100EF0000020A0600020E0600020206100206061F0
:100F00000020A0612000FFF73FF9002801D000F089
:100F100029FA2000FFF72AFA002801D000F022FA6F
:100F200060200B9000200C9000200D9000200E906F
:100F300000200F90002010900020119000220BA99B
:100F40002000FFF740FB002801D000F00BFA002042
:100F500000900020019000200290002003900020CB
:100F600004904FF4005005900020069000200A9055
:100F70006946200000F050FA002801D000F0F2F994
:100F800012B010BD80B57D487D49016000214160EF
:100F9000002181600021C1600021016100214161C7
:100FA00000218161FFF7F0F8002801D000F0DAF9A4
:100FB00001BD80B50168B1F1804F12D1714801685F
:100FC00051F001010160006810F0010000900098EC
:100FD000002205211C2000F0C7FA1C2000F0D5FAE1
:100FE0003BE00168604A914212D16648016851F0C5
:100FF00010010160006810F01000009000980022BD
:101000000521362000F0B0FA362000F0BEFA24E0C8
:101010000168594A91420AD15B48016851F4003194
:101020000160006810F400300090009815E000683E
:101030005349884211D15448016851F4802101601C
:10104000006810F4802000900098002205211A20EA
:1010500000F08AFA1A2000F098FA01BD81B0006809
:101060003F49884209D14748016851F002010160B7
:10107000006810F002000090009801B0704781B045
:1010800000683B49884209D13F48016851F400514A
:101090000160006810F400500090009801B07047A3
:1010A00010B586B0040014220021684600F05FF9F4
:1010B00020682B49884230D13448016851F400310E
:1010C0000160016811F4003105910599016851F43E
:1010D00080210160006810F4802005900598C020F0
:1010E0000090022001900020029000200390022036
:1010F000049069465FF0904000F056FA012000909D
:101100000220019000200290002003900220049011
:1011100069461F4800F048FA1CE0206814498842DC
:1011200018D11A48016851F400210160006810F4D8
:101130000020059005984FF4007000900220019067
:10114000002002900020039004200490694611487A
:1011500000F02AFA06B010BDFC5600203C570020D3
:10116000000400407C57002000100040BC570020C5
:1011700000340140FC570020004401403C5800204E
:10118000004801401C100240181002401410024098
:10119000000400480008004870477047704700008E
:1011A00000B585B06348049063480390634802909B
:1011B0000020019062480090142301220021614820
:1011C00000F096FB6049614800F0A4FD05B000BD49
:1011D00038B500F0C5FD00F046F800F0D3FD00F092
:1011E00085FE00F0A1FE00F01CFF00F0E5FF01F01D
:1011F00067F8FFF73FFDFFF779FD00F0F1FEFFF71D
:1012000066FEFFF7BFFEFFF7EFFDFFF7C6FD504C90
:10121000504D2900200001F0D2F82068002801D1AB
:10122000012000E00020216811F1010F01D101210E
:1012300000E00021C0B2C9B2084300280BD05FF41F
:10124000E13020600D2020710020A0602B0094E888
:10125000070001F097F83B483F49086001F01BF98F
:1012600001F0B7FAFEE710B59EB02822002105A8CC
:1012700000F07DF814220021684600F078F83C2246
:1012800000210FA800F073F8012005905FF480346E
:101290000694002007900120099002200C900D94E4
:1012A0005FF480100E9005A801F0ECFA002801D040
:1012B00000F058F80F2000900220019000200290CA
:1012C0004FF480600390002004900221684601F0F2
:1012D00013FE002801D000F045F842F283000F9081
:1012E0000020119012944FF48070189000201C90F0
:1012F0000FA801F077FF002801D000F033F81EB0EE
:1013000010BD10B504002068B0F1804F03D10C214E
:101310000948FEF7E0FF20681049884202D10948D9
:1013200000F0E5FA20680E49884201D102F082F807
:1013300010BD00007C570020BC570020FC56002048
:10134000FC5800207C5800203C570020B458002056
:101350000000002000FC0308A459002000100040F9
:10136000001400407047704770477047704710B5D1
:10137000044610460A460146204602F067F8204619
:1013800010BD000070B490F83C20012A01D1022069
:101390003FE0012280F83C20022280F83D200268D4
:1013A000546802689368414D0268AA4203D00268FB
:1013B0003F4EB24203D134F470044A68144334F00F
:1013C00070040A681443026854600268AA4213D089
:1013D0000268B2F1804F0FD00268364CA2420BD0A7
:1013E0000268354CA24207D00268314CA24203D0B9
:1013F0000268324CA24205D133F0800389680B4366
:1014000001688B60012180F83D10002180F83C10BC
:10141000002070BC7047000010B4002390F83C20FE
:10142000012A01D102203EE0012280F83C201B0A63
:101430001B02CA68134333F440738A68134333F4BE
:1014400080634A68134333F400630A68134333F438
:1014500080530A69134333F400534A69134333F446
:1014600080438A6A134333F470238A6953EA024340
:1014700002680E4CA24203D002680D4CA2420CD16D
:1014800033F470034A6A53EA025333F08073CA6933
:10149000134333F00073096A0B4301684B64002166
:1014A00080F83C10002010BC70470000002C014068
:1014B00000340140000400400008004000400140AA
:1014C00010F00700334B1A684FF6FF010A4032490B
:1014D00051EA00210A431A6070472E480068C0F3A1
:1014E00002207047010049B2002908D4012210F0FF
:1014F0001F018A40294940B2400941F82020704725
:10150000020052B2002A04D40901254A40B2115403
:1015100007E00901234A40B210F00F00104400F820
:10152000041C704710B410F00700D0F10703052B1E
:1015300001D3042301E0D0F10703041D072C01D2DD
:10154000002000E0C01E012414FA03F35B1E1940C2
:10155000814014FA00F0401E1040084310BC704750
:1015600080B5FFF7ADFF01BD70B504000D0016009A
:101570000020FFF7B2FF32002900FFF7D3FF010080
:10158000200040B2FFF7BCFF70BD80B540B2FFF74E
:10159000A9FF01BD0CED00E00000FA0500E100E04C
:1015A00000E400E018ED00E0F8B40200002433E0AD
:1015B000052704E0DFF8C4319A42F9D1042714F07A
:1015C0000303DBB29B009F403E4323009B0845F88A
:1015D0002360DFF8AC512B6883434E68F60300D5D7
:1015E00003432B60674D2B6883434E68B60300D5D9
:1015F00003432B60644D2B6883434E68F60200D58D
:1016000003432B60614D2B6883434E68B60201D5BE
:10161000184303002B60641C0868E040002800F0B9
:1016200094800125086815FA04F318400028F2D0C8
:101630004B68012B08D04B68022B05D04B68112B4F
:1016400002D04B68122B16D1966803272300DBB219
:101650005B009F40BE43CF682300DBB25B009F402E
:101660003E4396605368A540AB434D68C5F30015F3
:10167000A5402B435360D66803252300DBB25B00F3
:1016800015FA03F39E438F682300DBB25B009F4093
:101690003E43D6604B68022B02D04B68122B17D109
:1016A0002300DB0802EB83031E6A0F2714F00703F5
:1016B000DBB29B009F40BE430F6914F00703DBB20F
:1016C0009B009F403E432300DB0802EB83031E6226
:1016D00016682300DBB25B009D40AE430D7915F028
:1016E00003052300DBB25B009D402E4316604B6870
:1016F000DB0090D5264B1D6855F001051D601B6869
:1017000013F001030093009B224D23009B0855F822
:1017100023600F2714F00303DBB29B009F40BE43FE
:10172000B2F1904F01D1002749E71B4B9A4201D1FA
:10173000012744E7194B9A4201D102273FE7184B92
:101740009A427FF437AF032739E7F1BC7047D2B232
:10175000002A02D089B2816101E089B281627047BA
:1017600080B510490A6803009BB21A4205D00200F6
:1017700092B20A6080B200F0CDFF01BD00100048B7
:101780000004014004040140080401400C0401402D
:1017900018100240080001400004004800080048FA
:1017A000000C00481404014010B52DED088B040016
:1017B00008000100C9B2652900DB64209FED5B4B86
:1017C0009FED5C3B9FED5D2B9FED5F1BB0EE418A73
:1017D000F0EE618AB0EE429AF0EE629AB0EE43AA61
:1017E000F0EE63AAB0EE44BAF0EE64BAC0B201F013
:1017F00061FE41EC100BB0EE4B4AF0EE6B4AB0EEDE
:101800004A3AF0EE6A3AB0EE492AF0EE692AB0EEB2
:10181000481AF0EE681A200001F08DFE51EC100B12
:1018200001F0C6FEE082BDEC088B10BD0121017500
:10183000704700210175704780B5C9B2002906D0F4
:1018400001224FF480414248FFF781FF05E000226A
:101850004FF480413E48FFF77AFF01BD38B50400E0
:10186000032020634025E16AE06901F0D4FE2B00EB
:101870000022E16AE06901F0B9FE6068002806D143
:1018800001224FF480713248FFF761FF08E0606881
:10189000012805D100224FF480712D48FFF757FF32
:1018A000A068002805D1012280212948FFF74FFFB9
:1018B00007E0A068012804D1002280212448FFF716
:1018C00046FF204D01224FF480412800FFF73FFFE3
:1018D000012240211E48FFF73AFF01224FF4004148
:1018E0002800FFF734FF206AFEF76AFC31BD70471D
:1018F0002DE9F8430400089D099E0A9FDDF82C801D
:10190000DDF83090200001F0E6FD12482060E5612E
:101910002762C4F82480C4F82890E6624FF47A6005
:10192000A0860120E0862000BDE8F28300000000D0
:10193000009076400000000000E06A4000000000D7
:1019400000005940000400480000000000000000B2
:10195000000800485C77000810B52DED088B0400E6
:1019600008000100C9B2652900DB64209FED334BFC
:101970009FED343B9FED332B9FED341BB0EE418A3E
:10198000F0EE618AB0EE429AF0EE629AB0EE43AAAF
:10199000F0EE63AAB0EE44BAF0EE64BAC0B201F061
:1019A00089FD41EC100BB0EE4B4AF0EE6B4AB0EE05
:1019B0004A3AF0EE6A3AB0EE492AF0EE692AB0EE01
:1019C000481AF0EE681A200001F0B5FD51EC100B3A
:1019D00001F0EEFDE082BDEC088B10BD4068704761
:1019E000007D704780B5012101750168C96A88478B
:1019F00001BD0021DFF83C2311600021DFF838230E
:101A000011600021DFF834231160002101750021ED
:101A1000C161704780B5C9B2002907D001224FF4D7
:101A20008041DFF81C03FFF792FE06E000224FF42E
:101A30008041DFF80C03FFF78AFE01BD00000000C3
:101A400000907640000000000000594000000000B7
:101A50000000000038B5040000202076DFF8E40222
:101A60000068000404D5207E50F00100207601E0DB
:101A7000207E2076B4480168490504D5217E51F0C6
:101A80000201217601E0217E21760068000504D55F
:101A9000207E50F00400207601E0207E2076207D1C
:101AA000002800F036816068002803D0012800F08B
:101AB00089800EE1207E01281ED0C0F0828003289C
:101AC0002ED042D3052803D067D3062851D078E022
:101AD000E08A98490860E08A9749086000209749A1
:101AE0000860012202219948FFF731FE00222021DF
:101AF0009348FFF72CFE64E0E08A8E4908600020DE
:101B00008D490860E08A8D490860012202218F48D2
:101B1000FFF71DFE002210218948FFF718FE50E054
:101B2000002084490860E08A83490860E08A83498C
:101B30000860834D012220212800FFF708FE0022C3
:101B400010212800FFF703FE3BE0E08A7949086096
:101B5000E08A794908600020784908600022022163
:101B60007A48FFF7F4FD012220217548FFF7EFFDC9
:101B700027E0E08A6F49086000206F490860E08A2A
:101B80006E490860002202217048FFF7E0FD012243
:101B900010216B48FFF7DBFD13E00020654908606A
:101BA000E08A65490860E08A64490860644D002263
:101BB00020212800FFF7CBFD012210212800FFF78C
:101BC000C6FD86E0207E01281ED0C0F0828003285A
:101BD0002ED042D3052803D067D3062851D078E011
:101BE000E08A54490860E08A53490860002053495C
:101BF0000860002202215548FFF7A9FD012220219B
:101C00004F48FFF7A4FD64E0E08A4A4908600020DD
:101C100049490860E08A49490860002202214B488E
:101C2000FFF795FD012210214548FFF790FD50E098
:101C3000002040490860E08A3F490860E08A3F4947
:101C400008603F4D002220212800FFF780FD01227F
:101C500010212800FFF77BFD3BE0E08A3549086052
:101C6000E08A3549086000203449086001220221D9
:101C70003648FFF76CFD002220213148FFF767FD51
:101C800027E0E08A2B49086000202B490860E08AA1
:101C90002A490860012202212C48FFF758FD002242
:101CA00010212748FFF753FD13E000202149086069
:101CB000E08A21490860E08A20490860204D01221D
:101CC00020212800FFF743FD002210212800FFF704
:101CD0003EFD206A002803D101F032FD206218E0A9
:101CE00001F02EFD0500206A281A01F0E3FB002216
:101CF000174B01F02BFD02000B000020154901F0ED
:101D0000F7FD0022144B01F021FD01F015FFE06109
:101D1000256231BD38B504000D00200001F0D7FB6D
:101D20000E4820600020E0610020206265622000F3
:101D300032BD0000380400403C0400403404004040
:101D4000000800481000004810080048000400483F
:101D50000000284000408F4000004E4020770008DF
:101D600080B50748016851F0100101600320FFF7BA
:101D7000F7FB002001F014FF01F052FF002002BD2C
:101D800000200240F8B586B0142200216846FFF713
:101D9000EEFA5148016851F400210160016811F424
:101DA000002105910599016851F4800101600168E5
:101DB00011F4800105910599016851F40031016029
:101DC000016811F4003105910599016851F48021F1
:101DD0000160016811F4802105910599016851F4B1
:101DE00080110160006810F480100590059844F29D
:101DF000FE173A4C002239002000FFF7A8FC4DF2F4
:101E0000C645374E002229003000FFF7A0FC4FF4F2
:101E10004050009000200190002002906946200070
:101E2000FFF7C2FB009701200190002002900020E4
:101E3000039069462000FFF7B7FB00950120019051
:101E4000002002900020039069463000FFF7ACFBB1
:101E50004FF420500090002001900020029069462D
:101E60003000FFF7A1FB4FF4004000901D4D01959D
:101E70000120029069465FF09040FFF795FB4FF418
:101E80004060009001950120029069462000FFF714
:101E90008BFB0420009000200190002002906946F6
:101EA0001148FFF781FB4FF4407000900220019031
:101EB000002002900320039009200490694630001E
:101EC000FFF772FB002205212820FFF74DFB282099
:101ED000FFF75BFB07B0F0BD14100240000800489C
:101EE0000004004800003110000C004880B50D4887
:101EF000016851F001010160006810F001000090DC
:101F00000098002205211020FFF72EFB1020FFF77C
:101F10003CFB002205211120FFF726FB1120FFF7D3
:101F200034FB01BD141002401FB50C22002168468D
:101F3000FFF71DFA264C27482060200001F090FE94
:101F4000002801D0FFF70EFA002000900020019039
:101F500000226946200001F0C9FB002801D0FFF7EC
:101F600001FA1FBD10B586B004001422002101A89B
:101F7000FFF7FDF920681749884226D11648016805
:101F800051F000510160006810F00050009000987E
:101F90001248016851F400310160006810F400300B
:101FA00000900098102001900320029000200390E0
:101FB00001A95FF09040FFF7F7FA002205213620D3
:101FC000FFF7D2FA3620FFF7E0FA06B010BD0000A6
:101FD000FC580020007400401C1002401410024005
:101FE00080B56A486A4901605FF4E13141600021CF
:101FF00081600021C160002101610C21416100214B
:1020000081610021C1610021016200214162082338
:102010000822002101F03AFE002801D0FFF7A2F9C2
:1020200001BD80B55B485C4901605FF4E13141600E
:10203000002181600021C160002101610C2141610A
:10204000002181610021C161002101620021416202
:1020500001F066FE002801D0FFF784F901BD38B514
:1020600086B00400142200216846FFF780F920683A
:10207000474988422CD14948016851F480410160A8
:10208000006810F48040059005984548016851F4B7
:1020900000310160006810F40030059005984FF49D
:1020A000B050009002200190002002900320039085
:1020B0000720049069465FF09040FFF775FA002210
:1020C00005212520FFF750FA2520FFF75EFA5AE098
:1020D00020683149884256D13248016851F40031B4
:1020E0000160006810F40030059005982C480168E4
:1020F00051F400310160006810F40030059005983B
:102100000C200090022001900020029003200390F8
:102110000720049069465FF09040FFF745FA224D92
:1021200022482860002068600020A8608020E860C5
:1021300000202861002068610020A8610020E8617B
:10214000280002F0E9F9002801D0FFF70BF9E56655
:102150006C62174D17482860102068600020A86046
:102160008020E86000202861002068610020A861CC
:102170000020E861280002F0CFF9002801D0FFF725
:10218000F1F8A5666C6207B030BD00002C54002049
:1021900000380140AC5400200044004018100240B8
:1021A000141002401C100240345600206C00024003
:1021B000785600208000024018B589B00C2200211A
:1021C00006A8FFF7D4F8182200216846FFF7CFF8D9
:1021D000394C5FF0A0402060002060600020A060CB
:1021E0000020206100206076002084F8200000207C
:1021F000E0620120A0620020E0600120E061002098
:1022000084F83000042060610020207600206063A4
:10221000200002F05DFA002801D0FFF7A3F80020AB
:10222000069006A9200002F0EBFD002801D0FFF780
:1022300099F80120009001200190002003900020D7
:10224000029000200490002005906946200002F0D2
:10225000B9FB002801D0FFF785F80AB010BD10B512
:1022600086B004001422002101A8FFF780F820683E
:10227000B0F1A04F1DD11148016851F080510160AB
:10228000016811F0805100910099016851F400310A
:102290000160006810F40030009000980320019065
:1022A000032002900020039001A95FF09040FFF707
:1022B0007BF906B010BD0000E45500201410024068
:1022C00080B52B482B4901604FF482714160002199
:1022D00081604FF44071C1600021016100214161C2
:1022E0004FF4007181610821C16100210162002168
:1022F0004162002181620721C1620021016308213E
:10230000416302F085FE002801D0FFF72BF801BDE4
:1023100010B586B004001422002101A8FFF727F8A9
:1023200020681449884221D11348016851F4805132
:102330000160006810F48050009000980F48016818
:1023400051F480210160006810F480200090009812
:102350003820019002200290002003900320049076
:102360000520059001A90648FFF71EF906B010BD2B
:102370002C5500200030014018100240141002407B
:1023800000040048F7B51C0003266F4600F047F82C
:10239000200000F02FF800250AE02800C0B257F80E
:1023A00020102800C0B214EB800000F044F86D1C2F
:1023B0002800C0B2B042F0D300F037F8F7BD30B417
:1023C0000322002308E01C00A4B251F824401D00A1
:1023D000ADB240F825405B1C1C00A4B29442F2D37D
:1023E00030BC70472248006810F0010090F00100F6
:1023F000C0B2704710B51F4C216851F00201216036
:102400001D490860206850F040002060FFF7EAFF97
:102410000028FBD0206830F00200206010BD174873
:10242000174901601749016070471248016851F06F
:1024300080010160704770B504000D000D4E3068DA
:1024400050F001003060FFF7CDFF0028FBD0258061
:10245000FFF7C8FF0028FBD0A41C2D0C2580FFF738
:10246000C1FF0028FBD0306840084000306070BDDC
:102470000C200240102002401420024004200240A0
:1024800023016745AB89EFCDB44B0360B4480860C6
:1024900080201060704780B594B0B248D0E9002326
:1024A000CDE90423012104A800F0C7F9AE49086072
:1024B000AE48D0E90023CDE90223012102A800F0B3
:1024C000BCF9AB490860AB48D0E90023CDE9002353
:1024D0000121684600F0B1F9A74908600DA8A74995
:1024E0001C2202F00DFE00210DA800F077F9A4498E
:1024F000086006A8A3491C2202F002FE002106A8DB
:1025000000F06CF9A049086015B000BD10B59F4CF3
:10251000002204212000FFF71AF901224FF4805114
:102520002000FFF714F901224FF480612000FFF72B
:102530000EF99748FFF792F9964C206801280BD1C5
:102540000020206000209449086000209349086022
:102550000C219348FDF782FE2068022801D100205B
:1025600020605FF080508F490860BFF34F8FBFF34A
:102570006F8FE1E780B58C4800210091036803224A
:102580000179002002F000FE02F04BFE8748FDF7C3
:1025900017FE02F056FE5FF0805082490860BFF3DC
:1025A0004F8FBFF36F8FF4E70020C0B2704738B58C
:1025B0000500080080B2002800D0491E0024DBB2CC
:1025C000002B02D0012B28D09CE089B200290FD02B
:1025D00002290FD00DD3042916D010D3062915D007
:1025E00013D3082914D012D30A2913D011D312E01F
:1025F00012E011E06E48FFF7F3F928700CE06C4828
:10260000FFF7ECF9287007E006E005E004E003E0DE
:1026100002E001E000E0012475E089B200290FD05A
:1026200002294DD029D304294CD04AD3062952D0AF
:1026300050D3082951D04FD30A295DD053D35FE03E
:10264000687800280CD15B4D286829680968496AB8
:102650008847002128682A681268926A90470BE030
:10266000544D012128682A681268926A90472868A8
:1026700029680968096A884743E0687800280FD10B
:102680004C4D286829680968496A884700212868EC
:1026900000F04FFF286829680968096A88470EE03A
:1026A000444D286829680968496A884701212868D3
:1026B00000F03FFF286829680968096A884720E018
:1026C0001FE01EE03B4A69781068126812681268C1
:1026D000904716E015E014E013E0374B324807C886
:1026E000FFF750FE0DE02878697851EA00210A20B2
:1026F00041432D48016004E068782B49087100E0EF
:10270000012400E002242000C0B232BD0120704745
:102710000120704780B5010089B2B1F5004F01D1A9
:10272000012100E00021020092B2B2F5806F01D1D8
:10273000012200E0002280B2B0F5006F01D101203B
:1027400000E00020C9B2D2B21143C0B20143002957
:1027500002D01748FFF77EF901BD00009055002018
:10276000A0500020CC79000888590020D4790008B6
:102770008C590020DC79000890590020C8780008A6
:1027800080590020E47800088459002000040048A3
:102790007C5800207C590020243401402400004053
:1027A000BC57002004ED00E0000000203C58002051
:1027B000B4580020A459002000FC030801000020A8
:1027C0000A0012B2842A03D009B2C91C09180800F1
:1027D000704780B502F0F4FE002002BD38B584B029
:1027E00004000D006069002815D0A069002812D0EF
:1027F000B4F90800FFF7E2FFA16902916169019154
:1028000000902B0022692168606802F0BDFD0390F2
:10281000039805B030BDB4F90800FFF7CFFF03A956
:10282000019100902B00226992B22168606802F049
:10283000ECFD0128ECD00020EBE71CB54268002A33
:102840000CD0012908D10321009143680022002106
:10285000012003F088FA14E0002012E001290FD1D2
:1028600003220021012003F0D1FA0400002C05D03E
:10287000002300220021200003F0FEFA200000E0E7
:10288000002016BD2DE9F8430400002C01D10120E1
:1028900030E32078C00740F1BE80DFF8000901680E
:1028A00011F00C0104290AD0016811F00C0108296B
:1028B00028D1006810F48030B0F5803F22D14FF469
:1028C0008040B0FA80F151F02001C9B249090129D4
:1028D00003D1DFF8C418096806E0B0FA80F1B0FA55
:1028E00080F1DFF8D0180968B0FA80F010F01F000E
:1028F000C140C80740F18F806068002840F08B809D
:102900000120F7E26068B0F5803F06D1DFF8880863
:10291000016851F48031016026E0606800280AD126
:10292000DFF87408016831F480310160016831F426
:102930008021016018E06068B0F5A02F0AD1DFF8AF
:102940005808016851F480210160016851F4803118
:10295000016009E0DFF84008016831F4803101606E
:10296000016831F480210160DFF840180A6812091B
:102970001201A06802430A606068002825D000F0B8
:10298000DFFE05004FF48040B0FA80F151F02001E5
:10299000C9B24909012903D1DFF8FC17096806E02B
:1029A000B0FA80F1B0FA80F1DFF808180968B0FADF
:1029B00080F010F01F00C140C8072CD400F0C0FE0A
:1029C000401B6528DED3032094E200F0B9FE050029
:1029D0004FF48040B0FA80F151F02001C9B24909AA
:1029E000012903D1DFF8B017096806E0B0FA80F1D9
:1029F000B0FA80F1DFF8BC170968B0FA80F010F087
:102A00001F00C140C80706D500F09AFE401B65288C
:102A1000DED303206EE2207880073CD5DFF87C0708
:102A2000016811F00C0F07D0016811F00C010829A2
:102A300060D10068C0035DD45FF08040B0FA80F1DF
:102A400051F02001C9B24909012903D1DFF8481723
:102A5000096806E0B0FA80F1B0FA80F1DFF85417A7
:102A60000968B0FA80F010F01F00C140C80704D513
:102A70002069012801D001203CE2DFF81C07016831
:102A80005FF0F852B2FA82F231F0F801636913FA9A
:102A900002F2114301602078000740F1C480A06970
:102AA000002800F09A8001205FF00041B1FA81F126
:102AB000DFF8FC2612EB8102106000F041FE0500F9
:102AC0005FF08040B0FA80F1B0FA80F1B0FA80F1A6
:102AD000DFF8E0160968B0FA80F010F01F00C1407E
:102AE000C80700F1A08000F02BFE401B0328E7D3AD
:102AF0000320FFE1206900283ED001205FF0004163
:102B0000B1FA81F1DFF8B02612EB8102106000F01B
:102B100017FE05005FF08040B0FA80F151F020010F
:102B2000C9B24909012903D1DFF86C16096806E02A
:102B3000B0FA80F1B0FA80F1DFF878160968B0FADF
:102B400080F010F01F00C140C80706D400F0F8FD67
:102B5000401B0328DED30320CCE1DFF83C060168EC
:102B60005FF0F852B2FA82F231F0F801636913FAB9
:102B700002F2114301608EE700205FF00041B1FADC
:102B800081F1DFF8342612EB8102106000F0D8FDED
:102B900005005FF08040B0FA80F151F02001C9B229
:102BA0004909012903D1DFF8F015096806E0B0FAF8
:102BB00080F1B0FA80F1DFF8FC150968B0FA80F016
:102BC00010F01F00C140C8077FF565AF00F0B8FDE9
:102BD000401B0328DDD303208CE100205FF000417F
:102BE000B1FA81F1DFF8C82512EB8102106000F024
:102BF000A7FD05005FF08040B0FA80F1B0FA80F1E7
:102C0000B0FA80F1DFF8AC150968B0FA80F010F086
:102C10001F00C140C80706D500F092FD401B0328E5
:102C2000E8D3032066E12078400740F1B180002618
:102C3000DFF888552868C00009D4286850F0805013
:102C40002860286810F08050009000980126DFF876
:102C500070753868C00511D4386850F480703860D9
:102C600000F06EFD80463868C00507D400F068FDAE
:102C7000B0EB08006528F6D303203BE1E0680128AB
:102C800006D1DFF84005016851F00101016025E03F
:102C9000E06800280AD1DFF82C05016849084900DE
:102CA0000160016831F00401016017E0E068052867
:102CB0000AD1DFF81005016851F0040101600168D4
:102CC00051F00101016009E0DFF8F80401684908EA
:102CD00049000160016831F004010160E0680028EA
:102CE00027D000F02DFD07005FF08040B0FA80F1A2
:102CF000B0FA80F151F04001C9B24909022903D16B
:102D0000DFF8C014096804E0B0FA80F1DFF8A41419
:102D10000968B0FA80F010F01F00C140C80730D435
:102D200000F00EFDC01B41F289318842DCD3032044
:102D3000E0E000F005FD07005FF08040B0FA80F1B0
:102D4000B0FA80F151F04001C9B24909022903D11A
:102D5000DFF87014096804E0B0FA80F1DFF8541469
:102D60000968B0FA80F010F01F00C140C80708D50C
:102D700000F0E6FCC01B41F289318842DCD303201D
:102D8000B8E0F6B2012E03D1286830F080502860F8
:102D9000E069002800F0AD80DFF80064306810F0D2
:102DA0000C00082800F09380E069022861D1802798
:102DB000DFF804840020B7FA87F118EB810108607E
:102DC00000F0BEFC81464025B5FA85F050F02000A9
:102DD000C0B24009012803D1DFF8BC03006806E057
:102DE000B5FA85F0B5FA85F0DFF8C8030068B5FAE2
:102DF00085F111F01F01C840C00707D500F0A0FC05
:102E0000B0EB09000328DED3032073E0316831F40E
:102E10007411606A0143206A014331600120B7FAEE
:102E200087F118EB8108C8F8000000F089FC040065
:102E3000B5FA85F050F02000C0B24009012803D156
:102E4000DFF85403006806E0B5FA85F0B5FA85F0BE
:102E5000DFF860030068B5FA85F111F01F01C84082
:102E6000C00746D400F06CFC001B0328E0D303200D
:102E700040E000208021B1FA81F1DFF83C2312EB21
:102E80008102106000F05CFC04004020B0FA80F188
:102E900051F02001C9B24909012903D1DFF8F81224
:102EA000096806E0B0FA80F1B0FA80F1DFF80413A7
:102EB0000968B0FA80F010F01F00C140C80718D5AB
:102EC00000F03EFC001B0328DFD3032012E0E06982
:102ED000012801D101200DE0306810F48031226A10
:102EE000914204D110F47010616A884201D001202F
:102EF00000E00020BDE8F2832DE9F04104000D0060
:102F00000020002C01D10120D2E0DFF8BC62306843
:102F100010F00700A8420BD23068C008C000284358
:102F20003060306810F00700A84201D00120BFE0F7
:102F30002078800707D5DFF864120A6832F0F002C3
:102F4000A06802430A602078C00776D5606801282F
:102F50001DD14FF48040B0FA80F151F02001C9B288
:102F60004909012903D1DFF83012096806E0B0FAF7
:102F700080F1B0FA80F1DFF83C120968B0FA80F015
:102F800010F01F00C140C8073CD4012090E06068E9
:102F900002281BD14020B0FA80F151F02001C9B2C3
:102FA0004909012902D17C49096806E0B0FA80F19B
:102FB000B0FA80F1DFF8FC110968B0FA80F010F087
:102FC0001F00C140C8071DD4012071E05FF08040A0
:102FD000B0FA80F151F02001C9B24909012902D1AA
:102FE0006D49096805E0B0FA80F1B0FA80F17149E5
:102FF0000968B0FA80F010F01F00C140C80701D482
:10300000012055E0654F39688908890060680143EF
:10301000396000F095FB8046386810F00C0061685C
:10302000B0EB810F09D000F08BFBB0EB080041F250
:1030300089318842F0D303203AE0306810F007006D
:1030400085420BD23068C008C00028433060306829
:1030500010F00700A84201D0012029E020784007A5
:1030600006D54E490A6832F4E062E06802430A601D
:103070002078000707D54948016831F4605122697A
:1030800051EAC201016000F015F8444909684F4A4D
:1030900011F0F0015FF07063B3FA83F3D940515C33
:1030A000C840404908604048006800F079FD0020B1
:1030B000BDE8F08110B40020002000200020002096
:1030C0003648016811F00C00042802D0082802D00C
:1030D00021E03F4820E03F4811F470124FF4705354
:1030E000B3FA83F3DA40805C304A12683A4B12F04C
:1030F0000F025FF07044B4FA84F4E2409A5CC903B2
:1031000006D53349B1FBF2F201001000484301E05B
:103110003249484300E0224810BC7047214800680B
:10312000704780B5FFF7FAFF1C4909682C4A11F473
:10313000E0615FF46003B3FA83F3D940515CC840A7
:1031400002BD80B5FFF7EAFF14490968244A11F46B
:1031500060515FF4E013B3FA83F3D940515CC84087
:1031600002BD0F2202600D4A136813F0030343608F
:10317000136813F0F0038360136813F4E063C36013
:103180001268D20812F4E06202610F48006810F081
:103190000700086070470000001002400410024061
:1031A00000127A0098000020940000202C100240A9
:1031B0008004424224100240000042421C1002409F
:1031C0000070004020100240002002408C7900086E
:1031D000001BB7006C7900087C79000800093D00ED
:1031E000E47900082DE9FC4104000020002020685B
:1031F000C0037DD50026DFF81C522868C00009D422
:10320000286850F080502860286810F080500090A6
:1032100000980126DFF800723868C00511D43868BC
:1032200050F48070386000F08BFA80463868C00532
:1032300007D400F085FAB0EB08006528F6D3032028
:10324000E6E0DFF8D871386810F44070002842D00A
:10325000616811F4407188423DD0386830F44070A4
:10326000DFF8BC114FF400420123B2FA82FC11EBEB
:103270008C0CCCF800300023B2FA82F211EB820100
:103280000B603860C00726D500F05AFA80465FF020
:103290008040B0FA80F1B0FA80F151F04001C9B23B
:1032A0004909022901D1396804E0B0FA80F1DFF858
:1032B00074110968B0FA80F010F01F00C140C8070F
:1032C00009D400F03DFAB0EB080041F289318842A0
:1032D000DDD303209CE0396831F44071606801431C
:1032E0003960F6B2012E03D1286830F08050286092
:1032F0002078C00707D5DFF830110A6892089200DD
:10330000A06802430A602078800707D5DFF818110B
:103310000A6832F44032E06802430A6020784007CD
:1033200007D5DFF804110A6832F44022206902430D
:103330000A602078800607D5DFF8EC100A6832F0C2
:103340001002E06902430A602068800307D5DFF8B5
:10335000DC100A6832F48002A06B02430A60207815
:10336000400607D5DFF8C0100A6832F02002206A54
:1033700002430A602078000707D5DFF8AC100A681E
:1033800032F44012606902430A602078C00607D513
:10339000DFF894100A6832F44002A06902430A6020
:1033A0002068800507D5DFF884100A6832F400022F
:1033B000E06A02430A602078000607D5DFF8701043
:1033C0000A6832F4F872606A02430A602068C00535
:1033D00007D5DFF85C100A6832F47852A06A02431D
:1033E0000A602068C00407D5DFF83C100A6832F490
:1033F0008072206B02430A602068800407D5DFF8E2
:1034000028100A6832F40072606B02430A600020E0
:10341000BDE8F6811C100240007000402010024000
:1034200000044242241002403010024004100240C6
:103430002C10024003480168034A12788918016081
:10344000704700BFD45900209D00002062F30F2276
:1034500062F31F42401810F0030308D0C91A1FD3AB
:10346000DB0748BF00F8012D28BF20F8022D13000C
:1034700030B414461546103928BF20E93C00FAD86C
:10348000490728BF20E90C0048BF40F8042D8900F7
:1034900028BF20F8022D48BF00F8012D30BC70472E
:1034A000C91818BF00F8012DCB0728BF00F8012D5F
:1034B00070470000014648B1B0FA80F18840C91C4D
:1034C000C1F58461090501EBD0214005704780B545
:1034D00000F005F802BD80B500F011F802BD002132
:1034E0004160002181601421C1604FF416710161B7
:1034F00000210175D721C18200210176704710B4E7
:1035000000244460002484601424C4604FF41674C2
:10351000046100240475D724C48200240476416029
:103520008260652B01D2C36001E06421C16010BCE0
:1035300070474160704738B52DED088BB0EE418A79
:10354000F0EE618AB0EE429AF0EE629AB0EE43AAD3
:10355000F0EE63AAB0EE44BAF0EE64BA51EC100B90
:1035600053EC182B02F0E0FD04000D0051EC1B0B96
:1035700053EC1A2B02F0D8FD22002B0000F0E6F8E5
:1035800004000D0051EC190B53EC182B02F0CCFD8C
:1035900002000B002000290000F0AAF953EC1A2BBE
:1035A00002F034FE41EC100BBDEC088B31BD000085
:1035B000C1F30A5340F2FE329B1A14DDD3F120030B
:1035C0004FEAE17208DDC90241EA505141F0004082
:1035D000D84080185040704703F2E13010B1D24318
:1035E00082F00040704700207047000018B40024AB
:1035F000009400680090002904D100980832121845
:10360000009203E0009814321218009200980360B0
:10361000002012BC70474279012A01D102202BE020
:1036200001224271022202710268126801238B405A
:103630001A4303681A6000290CD10168096811F067
:103640003C013C2913D10168496851F0010102682D
:1036500051600CE00168096811F47011B1F5701F38
:1036600005D10168496851F00201026851600121E9
:103670000171002141710020704710B504002068DD
:103680000068800416D52068406B800412D50420A1
:103690002071206950F0010020614FF40050216832
:1036A00048632068006830F480502168086020007A
:1036B00002F069FE20680068800016D52068406B23
:1036C000800012D504202071206950F00200206192
:1036D0005FF00050216848632068006830F0805037
:1036E00021680860200002F04FFE10BD10B40023D6
:1036F00000234379012B01D102201EE001234371F5
:103700000223037103681B6840F6FE749440A343D0
:103710000C6849680C439440234301680B600168BE
:103720000968C02313FA02F231EA020201680A6052
:103730000121017100214171002010BC704700007F
:1037400001480068704700BFD4590020B0B581EA35
:10375000030C0CF0004C40F2FF7515EA11541DBF2C
:1037600015EA1357AC42AF4239E0E41923EA455356
:1037700043F48013C90241F0004141EA505EC702A0
:103780001100A7FB020200284FF00000EEFB012011
:103790004FF00001E3FB072118BF42F0010240187F
:1037A00000214941E3FB0E01A4F580640F0302D21E
:1037B00052004041494154F101046CDD470872F167
:1037C000004250F1000051EB0451A1F580115CBFA3
:1037D00041EA0C01B0BD4CEA05510020B0BD05EA3C
:1037E0001357AC4214BFAF4241E050EA410E1CBF38
:1037F00052EA430E02E061460020B0BD24423C4440
:103800001BD15FEA070EF6D0090302BF0146002074
:10381000AEF1140EB1FA81F7AEEB070401FA07FE20
:103820000C37C7F1200100FA07F7C8404EEA000E36
:1038300023EA455343F48013A2E733F00043B3FA7D
:1038400083F704BFB2FA82FE77440B3FE41BB7F163
:10385000200E2FBF02FA0EF3BB40C7F1200E22FA52
:103860000EFE38BF43EA0E03BA40641C82E750EAFA
:10387000410E14BF52EA430E6FF000014FF40017DF
:1038800017EB430F8ABF194617EB410FB5E74CEA18
:1038900005510020B0BDD4F10104B4F120070FDAC6
:1038A000C4F12007520828BF42F0010210FA07F5C0
:1038B00001FA07F7E1BF2A43E0403843E1400FE057
:1038C000352C98DCC7F1200452EA400220FA07F2B6
:1038D00018BF42F0010231FA07F0A1400A4300216B
:1038E00072F1004250F1000051EB0C01B0BD00003C
:1038F000F0B540F2FF7581EA030C0CF0004C15EABC
:1039000011541DBF15EA1357AC42AF42E5E0BC416C
:10391000C1F31301C3F31303801A994143F48013D5
:1039200004D2641E4000494180185941C90241EA4D
:103930005051B1FBF3F603FB1611A2FB0675D7EB52
:10394000C020A94102D2761E80185941C90241EA1D
:103950005051B1FBF3FE03FB1E11A2FB0E75D7EB1A
:10396000C020A94103D2AEF1010E8018594189024D
:1039700041EA9051760546EA8E2EB1FBF3F603FB41
:103980001611A2FB0675D7EB8020A94102D2761E44
:1039900080185941C90241EA50514EEA060EB1FB66
:1039A000F3F603FB1611A2FB0675D7EBC020A94165
:1039B00002D2761E80185941C90241EA5051B1FB2A
:1039C000F3F703FB1711A2FB0735D3EBC020A94186
:1039D00067F100070CBF004247F0010766F3D527E7
:1039E0004FEA1E31B80814F5806412DDBD0775F189
:1039F000004250EB0E5051EB045111F5801F5CBF9B
:103A000041EA0C01F0BD4CF07F6141F0E041002043
:103A1000F0BDBD076D0840EA0E5041F48011D4F1AD
:103A20000104B4F120060ADAC4F120060200E040E5
:103A300001FA06F3E1401843B24015430EE0342C7E
:103A400013DCC6F1200445EA40056D0820FA06F2B1
:103A5000154321FA06F0A1400D43002175F1004203
:103A600050F1000051EB0C01F0BD00205FEA0C01A9
:103A7000F0BDCFB992185B41B3FA83F704BFB2FA35
:103A800082F6BF190B3FB7F120062FBF02FA06F3EB
:103A9000BB40C7F1200622FA06F638BF3343BA40CE
:103AA0001CB1E419641E33E77F4231F00041B1FAE2
:103AB00081F404BFB0FA80F6A4190B3CB4F12006DF
:103AC0002FBF00FA06F1A140C4F1200620FA06F645
:103AD00038BF3143A0403C1B1AE7AC421ABF05EA8D
:103AE0001357AF4212E050EA41061CBF52EA4306A8
:103AF000BFE750EA4107304661461CBF41EA055125
:103B0000F0BD52EA430C08BFC143F0BD00204FF4A2
:103B1000001616EB410F98BF16EB430F08BF16EBCC
:103B2000410F24BFC14305E016EB430F0CBF6146B4
:103B30004CEA0551F0BD000001F000428B1AA3F1E0
:103B40006051B1F5801F0ADBB1F17F6F1FD242EAED
:103B5000C102C10071F1004142EB507070470B157A
:103B6000C3F10903212B10D2890241EA905180024E
:103B70000128494141F0004121FA03F0C3F120033B
:103B8000994071F1004150417047100070476FF04B
:103B9000000013EB103F5CBF000E42EAC0507047BC
:103BA00018B587B001000020002000223720FDF763
:103BB000DBFC3720FDF7E9FC1548016851F02001D6
:103BC0000160006810F020000090009801A902A890
:103BD000FFF7C7FAFFF7A5FA40000E49B0FBF1F076
:103BE000401E0D4C0D49216040F2E731E1606060FC
:103BF000002020610020A0602000FCF7C5FA00280A
:103C000003D12000FCF7DCFA00E0012008B010BD71
:103C10001C10024040420F00BC560020001400401F
:103C200080B50D48016851F001010160006810F095
:103C30000100009000980948016851F0805101602E
:103C4000006810F080500090009800220F217FF053
:103C50000100FDF789FC01BD181002401C10024054
:103C600010B50400002C01D101200EE020790028BD
:103C700004D1002060712000FEF774F90220207149
:103C80000020206101202071002010BDF8B5040043
:103C90000D0016001F00002C01D101203DE0606FD7
:103CA000002805D1002084F870002000FEF7D7F925
:103CB0002420606720680068400840002168086090
:103CC000200000F099F9012801D1012025E0606A67
:103CD000002802D0200000F0FBFA2068806850F431
:103CE0008040216888602068806830F40040054387
:103CF00020688560760556EA0746206800686FF3FD
:103D000019400643206806602068006850F00100F2
:103D100021680860200000F048FBF2BD70470000F9
:103D200010B50400002C01D1012035E0A069002865
:103D3000FFD1606F002805D1002084F870002000BA
:103D4000FEF78DF924206067206800684008400075
:103D500021680860200000F04FF9012801D10120FE
:103D60001AE0606A002802D0200000F0B1FA206852
:103D7000406830F49040216848602068806830F0E6
:103D80002A00216888602068006850F001002168DE
:103D90000860200000F009FB10BD2DE9FC41060081
:103DA0000D0014001F00706F20285AD1002D03D081
:103DB000200080B2002801D1012053E096F8700065
:103DC000012801D102204DE0012086F8700000207A
:103DD000F06721207067FFF7B3FC8046A6F85040DB
:103DE000A6F85240B068B0F5805F04D13069002871
:103DF00001D1002414E02C00002511E02078316866
:103E00000885641C07E0002CF8D12888C005C00D87
:103E100031680885AD1CB6F85200401EA6F8520065
:103E2000B6F8520000280AD00097434600228021AD
:103E3000300000F0EEFA0028E5D0032012E00097F1
:103E4000434600224021300000F0E3FA002801D070
:103E5000032007E020207067002086F87000002013
:103E600000E00220BDE8F68138B504002068C16991
:103E7000206802682068836840F60F000840002828
:103E80000AD18D0608D5950606D5206E002802D0E9
:103E90002000216E8847AEE0002800F08D80D80712
:103EA00003D412F4907F00F0878011F00100C0B2BB
:103EB000002808D0D00506D5012025682862E06FCB
:103EC00050F00100E06788070BD513F00100C0B285
:103ED000002806D0022025682862E06F50F0040018
:103EE000E06748070BD513F00100C0B2002806D0E8
:103EF000042025682862E06F50F00200E0670807A0
:103F00000DD5900604D413F00103DBB2002B06D0CC
:103F1000082023681862E06F50F00800E067080589
:103F200009D5500107D54FF4006023681862E06F8F
:103F300050F02000E067E06F00283CD0880607D5ED
:103F4000900605D5206E002802D02000216E8847FB
:103F5000E06F21688968490602D410F0280F25D047
:103F6000200000F0AEFA2068806840061AD520686C
:103F7000806830F0400021688860E06E00280DD035
:103F80000FF26150E16E4863E06E00F0F0FA002835
:103F900011D0E06EE16E496B88470CE0200002F022
:103FA000F4F908E0200002F0F0F904E0200002F04B
:103FB000ECF90020E0671EE0C80209D5580207D5D9
:103FC0005FF48010216808622000FFF7A7FE12E06E
:103FD000080608D5100606D5606E002802D020001D
:103FE000616E884707E0480605D5500603D52000D6
:103FF00000F084FAFFE731BD38B504000021002548
:10400000A2682069024360690243E06902432068B4
:104010000368A64803401A4320680260206842688B
:1040200032F44052E068024320684260A269206A8C
:1040300002432068806830F4306002432068826068
:1040400020689B4A904215D19A48006810F00300FE
:10405000002805D0022809D006D3032802D007E0A3
:10406000012080E002207EE004207CE008207AE04D
:10407000102078E02068904A904219D18D4800685D
:1040800010F44030002809D0B0F5803F0AD0B0F5D8
:10409000003F09D0B0F5403F02D007E0002062E0C9
:1040A000022060E004205EE008205CE010205AE07E
:1040B0002068824A904219D17E48006810F440205E
:1040C000002809D0B0F5802F0AD0B0F5002F09D014
:1040D000B0F5402F02D007E0002044E0022042E08B
:1040E000042040E008203EE010203CE02068744AB4
:1040F000904219D16F48006810F44010002809D090
:10410000B0F5801F0AD0B0F5001F09D0B0F5401FF0
:1041100002D007E0002026E0022024E0042022E074
:10412000082020E010201EE02068664A904219D145
:104130006048006810F44000002809D0B0F5800FF6
:104140000AD0B0F5000F09D0B0F5400F02D007E05B
:10415000002008E0022006E0042004E0082002E03D
:10416000102000E01020E269B2F5004F4FD1C0B23C
:10417000002808D0012811D002281AD0042821D004
:1041800008282AD032E0FEF7CCFF6168490811EB1D
:1041900040016068B1FBF0F189B228E0FEF7D1FF81
:1041A0006168490811EB40016068B1FBF0F189B228
:1041B0001DE06068444911EB50016068B1FBF0F10B
:1041C00089B214E0FEF776FF6168490811EB4001FF
:1041D0006068B1FBF0F189B209E06068400810F551
:1041E00080306168B0FBF1F189B200E001254FF643
:1041F000F072B1F11000904207D20A40C1F34200C0
:10420000024392B22068C26048E0012546E0C0B295
:10421000002808D0012810D0022818D004281FD068
:10422000082827D02FE0FEF77CFF616810EB5100D3
:104230006168B0FBF1F189B226E0FEF782FF6168A8
:1042400010EB51006168B0FBF1F189B21CE06068CD
:104250001E4911EB50016068B1FBF0F189B213E027
:10426000FEF728FF616810EB51006168B0FBF1F1C7
:1042700089B209E06068400810F500406168B0FB51
:10428000F1F189B200E00125B1F110004FF6F072B2
:10429000904202D22068C16000E001250020206623
:1042A000002060662800C0B232BD0000F369FFFF45
:1042B00000380140301002400044004000480040F7
:1042C000004C0040005000400024F40000127A002E
:1042D00090F82410C90707D501684A6832F4003203
:1042E000816A0A4301684A6090F82410890707D55B
:1042F00001684A6832F48032C16A0A4301684A6040
:1043000090F82410490707D501684A6832F48022E2
:10431000016B0A4301684A6090F82410090707D529
:1043200001684A6832F40042416B0A4301684A60FE
:1043300090F82410C90607D501688A6832F48052C3
:10434000816B0A4301688A6090F82410890607D5BA
:1043500001688A6832F40052C16B0A4301688A60BE
:1043600090F82410490613D501684A6832F4801287
:10437000016C0A4301684A60016CB1F5801F07D1E6
:1043800001684A6832F4C002416C0A4301684A601D
:1043900090F82410090607D501684A6832F4002213
:1043A000816C0A4300684260704738B50400002001
:1043B000E067FFF7C5F905002068006800070DD524
:1043C0007FF07E4000902B0000225FF4001120005F
:1043D00000F01FF8002801D0032019E020680068D1
:1043E00040070DD57FF07E4000902B0000225FF447
:1043F0008001200000F00DF8002801D0032007E024
:10440000202060672020A067002084F87000002032
:1044100032BD2DE9F04105000E0090461F00069CBC
:104420002868C0693040B04201D1012000E000207E
:104430004146C9B2884241D114F1010FF0D0FFF7D3
:104440007FF9C01B844201D3002C14D12868006876
:1044500030F4D070296808602868806840084000FF
:1044600029688860202068672020A867002085F8D8
:104470007000032023E0286800684007D0D5286832
:10448000C0690005CCD54FF400602968086228682F
:10449000006830F4D0702968086028688068400897
:1044A000400029688860202068672020A8672020B5
:1044B000E867002085F87000032000E00020BDE8D8
:1044C000F0810168096831F4907102681160016837
:1044D00089684908490002689160202181670021AC
:1044E0000166704780B5406A0021A0F85A1000218B
:1044F000A0F8521001F049FF01BD000080B501682D
:10450000096831F0400102681160202141670021F3
:10451000416601F03BFF01BD10B504000020002CF6
:1045200001D1012022E0022084F8210020680168E6
:104530006FF30D116268A0680243E06802432069CE
:10454000024360690243A0690243E06902431143E8
:1045500020680160200000F096F80020A063012090
:1045600084F82100002084F82000002010BD10B540
:10457000002490F82110022903D004218163012432
:104580001BE00168096831F00E01026811600168E2
:10459000096849084900026811600122016C8A40DB
:1045A000C16B4A60012180F82110002180F82010A1
:1045B000416B002901D0416B88472000C0B210BD7B
:1045C00010B5C16B0B6801680C680422016C12FA0B
:1045D00001F10B4215D0610713D5016809688906FE
:1045E00005D40168096831F0040103681960016CA1
:1045F0008A40C16B4A60C16A002943D0C16A8847BA
:1046000040E00222016C12FA01F10B421BD0A1071B
:1046100019D501680968890608D40168096831F06C
:104620000A0103681960012180F82110016C8A4099
:10463000C16B4A60002180F82010816A002921D0D6
:10464000816A88471EE00822016C8A40134219D013
:10465000210717D50168096831F00E010268116061
:104660000122016C8A40C16B4A60012181630121F2
:1046700080F82110002180F82010016B002901D062
:10468000016B884710BD01680C4A91420AD202684A
:104690000B498A181421B2FBF1F189000164094920
:1046A000C16309E0026808498A181421B2FBF1F1DC
:1046B000890001640549C163704700000804024095
:1046C000F8FFFDBF00000240F8FBFDBF0004024000
:1046D00078B595B004000025002600200090002C3D
:1046E00001D101205AE12069002802D094F820006D
:1046F0000028206CC00653D4206C00283DD1002037
:1047000060640020E0640020A064002084F83C0085
:104710002000FDF7A4FD20688068C0002DD4200093
:1047200000F028FC0500206CC00626D42800C0B28A
:10473000002822D1206C30F4885050F00200206410
:104740002068806830F04050216888602068806868
:1047500050F0805021688860DFF844020068DFF87C
:104760004412B0FBF1F10A204143009102E00098AD
:10477000401E009000980028F9D120688068C00091
:1047800003D52068806880000AD5206C30F00200D4
:1047900050F010002064606C50F00100606401254E
:1047A000206CC00600F1F1802800C0B2002840F063
:1047B000EC8020688068400700F1E780206C30F4CE
:1047C000807050F0020020642068B0F1A04F04D047
:1047D0002068DFF8D411884202D1DFF8D01101E05F
:1047E000DFF8CC112068B0F1A04F04D1DFF8B80198
:1047F000019001981EE02068DFF8AC21904204D1BE
:104800005FF0A0400190019814E0DFF8A801226851
:10481000824204D1DFF8A001019001980AE02268E9
:10482000DFF894319A4202D10190019802E0002011
:10483000019001982068806810F00300012804D1DD
:104840002068006810F0010000E00020002816D168
:10485000019800280DD00198806810F0030001280D
:1048600004D10198006810F0010000E00020002849
:1048700005D18A6832F44032606802438A60606B16
:10488000012802D04FF4805100E00021607E51EAFF
:104890004031E0680143A06801430E4394F82000D2
:1048A000012813D1607E002806D1606A401E4004B2
:1048B00050F48030064309E0206C30F0020050F0E4
:1048C00020002064606C50F001006064A06A012840
:1048D00024D02068DFF8DC10884204D02068DFF89C
:1048E000D810884216D1A06AB0F5307F02D14FF4BB
:1048F000E07110E0A06AB0F5807F02D14FF4307112
:1049000009E0A06AB0F5E07F02D14FF4807102E0C7
:10491000A16A00E0A16AE06A01430E432068806852
:1049200010F00C0F0DD12068C168DFF89000014035
:104930002068C160207E94F83010490051EA80312F
:104940000E432068C168DFF8780001400E432068FC
:10495000C6602069012809D12068006B00090001A8
:10496000E169491E08432168086305E02068006B7F
:10497000000900012168086300206064206C30F0A9
:10498000020050F00100206406E0206C30F00200CC
:1049900050F01000206401252800C0B216B070BD90
:1049A0009800002040420F0000010050000300501A
:1049B000000700500004005000050050FDBFFFFF3D
:1049C00007C0F0FF70B495B002000B00002100207A
:1049D0000090D8680128FFD192F83C00012801D14D
:1049E000022003E2012082F83C0010688068400742
:1049F00000F1F2815868052811D206201468246B52
:104A00001F255E684643B540AC431D685E6800FBE9
:104A100006F015FA00F020431468206340E058685F
:104A20000A2813D206241068456B1F265868401FB9
:104A300010FB04F08640B5431E685868401F10FB09
:104A400004F0864035431068456329E058680F2814
:104A500013D206241068856B1F2658680A3810FB8D
:104A600004F08640B5431E6858680A3810FB04F00D
:104A7000864035431068856312E006241068C56BD4
:104A80001F2658680F3810FB04F08640B5431E6897
:104A900058680F3810FB04F0864035431068C56332
:104AA0001068806810F00C0F40F0AB8018680A287E
:104AB00014D310688469072518680A38032610FB88
:104AC00006F08540AC439D6818680A38032610FB41
:104AD00006F085402C43106884610FE0106844693B
:104AE00007251E6803204643B540AC439D681E68F9
:104AF00003204643B5402C4310684461586914684C
:104B0000E468C4F3C104E4B2640010FA04F4186960
:104B1000012806D03DD303281FD010D304282AD063
:104B200037E01068056EDFF840040540186855EA64
:104B300080652C4354F000441068046661E01068FE
:104B4000456EDFF824040540186855EA80652C435B
:104B500054F000441068446653E01068856EDFF836
:104B600008040540186855EA80652C4354F0004459
:104B70001068846645E01068C56EDFF8EC030540F8
:104B8000186855EA80652C4354F000441068C466E8
:104B900037E01068006E10F0F8401C68B0EB846FCE
:104BA00005D11068006E20F000401468206610687F
:104BB000406E10F0F8401C68B0EB846F05D11068AF
:104BC000406E20F00040146860661068806E10F03F
:104BD000F8401C68B0EB846F05D11068806E20F03F
:104BE00000401468A0661068C06E10F0F8401C68A1
:104BF000B0EB846F05D11068C06E20F000401468DF
:104C0000E0661068806810F00300012804D1106885
:104C1000006810F0010000E00020002840F0E18072
:104C2000D86801280AD01068D0F8B040012518686B
:104C30008540AC431068C0F8B04035E01068D0F84B
:104C4000B0400125186885402C431068C0F8B0407A
:104C500018680A2814D31068846907251868093869
:104C6000032610FB06F08540AC439D6818680938A0
:104C7000032610FB06F085402C431068846113E086
:104C80001068446907251868401C032610FB06F0CD
:104C90008540AC439D681868401C032610FB06F055
:104CA00085402C43106844611068B0F1A04F03D0D8
:104CB0001068504CA04202D1DFF8B04201E0DFF8AA
:104CC000B0421868102802D1A06800020CD51868FC
:104CD000112802D1A068C00106D51868122840F03A
:104CE0008080A06840027CD41068B0F1A04F03D14E
:104CF0004048019001981AE010683E4DA84204D146
:104D00005FF0A0400190019811E03B481568854292
:104D100003D13A480190019809E01568374EB54231
:104D200002D10190019802E00020019001981068E2
:104D3000806810F00300012804D11068006810F0AA
:104D4000010000E00020002840D1019800280DD08B
:104D50000198806810F00300012804D101980068D0
:104D600010F0010000E0002000282FD11868102862
:104D700018D11068B0F1A04F14D1A06850F4000011
:104D8000A060DFF874020068DFF87032B0FBF3F364
:104D90000A20434300930098002822D00098401E28
:104DA0000090F8E71868112808D11068B0F1A04FFA
:104DB00004D1A06850F08070A06012E0186812283A
:104DC0000FD1A06850F48000A0600AE0106C50F091
:104DD00020001064012104E0106C50F020001064E9
:104DE0000121002082F83C000800C0B215B070BC60
:104DF0007047000000010050000400500005005002
:104E000030B494B000220B68002B0368B3F1A04FBC
:104E100004D1DFF8F4310093009B1EE00368DFF853
:104E2000E841A34204D15FF0A0430093009B14E04B
:104E3000DFF8CC3104689C4204D1DFF8C83100931C
:104E4000009B0AE00468DFF8BC51AC4202D1009339
:104E5000009B02E000230093009B009B002B01D1EC
:104E600001207DE090F83C30012B01D1022077E059
:104E7000012380F83C3003689B685B0766D4009B85
:104E80009B685B0762D40368B3F1A04F04D003684A
:104E9000DFF87441A34201D1344C00E0344C0B687C
:104EA000002B2ED0A56835F460454B681D4390F863
:104EB000303055EA4335A56003689B6813F003035F
:104EC000012B04D103681B6813F0010300E00023E9
:104ED000002B40D1009B9B6813F00303012B04D1EE
:104EE000009B1B6813F0010300E00023002B32D16C
:104EF000A568464B1D400B681D4389680D43A5609E
:104F000029E0A16831F46041A1600168896811F06D
:104F10000301012904D10168096811F0010100E0D1
:104F20000021002917D10099896811F00301012996
:104F300004D10099096811F0010100E00021002965
:104F400009D1A36831490B40A36004E0016C51F022
:104F5000200101640122002180F83C101000C0B241
:104F600014B030BC7047000000F0FF830003005015
:104F70000007005038B5040000202068806810F059
:104F80000300012804D12068006810F0010000E04F
:104F9000002000282ED02068806810F00D00012825
:104FA0001ED12068806850F00200216888600320CC
:104FB00021680860FEF7C4FB050020688068C00710
:104FC00018D5FEF7BDFB401B0328F6D3206C50F02C
:104FD00010002064606C50F00100606401200AE061
:104FE000206C50F010002064606C50F00100606490
:104FF000012000E0002032BD9800002040420F0058
:10500000000400500005005000010050E0F0FFFFD8
:1050100010B50400002C01D1012060E0606A002876
:105020000020A06294F85D00002805D1002084F8DB
:105030005C002000FDF76CF9022084F85D00206818
:10504000006830F040002168086040F20172E068BA
:10505000904201D3002101E04FF48051E068B0F5A7
:10506000706F05D0E068B0F5E06F01D00020A0625D
:10507000206B002807D1E068904202D30220206311
:1050800001E0012020636268A068024320690243B6
:1050900060690243A06910F400700243E0690243B2
:1050A000206A0243A06A024320680260A269120CCF
:1050B00012F00402606A0243606B0243E06802433C
:1050C0001143206841602068C06930F400602168A5
:1050D000C86100202066012084F85D00002010BD1A
:1050E00062B38B0708D0521E11F8013B00F8013B58
:1050F00000F024808B07F6D1830740F0208000BFAA
:10510000103A07D330B4B1E83810103AA0E838109C
:10511000F9D230BC530724BFB1E80810A0E808104A
:1051200044BF51F8043B40F8043BD20724BF31F898
:10513000022B20F8022B44BF0B7803707047121F1C
:1051400017D35B0009D151F8043B20F8023B1B0C3C
:10515000121F20F8023BF6D20BE051F8043B00F896
:10516000013B1B0A20F8023B1B0C121F00F8013BFD
:10517000F3D238BF121D521E24BF11F8013B00F8B4
:10518000013BF8D87047000070B5050014001A0004
:1051900000200800C0B2002807D00800C0B20028D4
:1051A00003D00800C0B2F82801DB022436E05E4ECE
:1051B00031702800C0B2002820D1049B5B485C49B4
:1051C00008605C485C4908605C485D4908605D486F
:1051D0005D49086000205D4908605D485D490860E0
:1051E0005D485E4908605E485E490860DBB22100A8
:1051F000C9B2307801F0CCF8040000E002242000AD
:10520000C0B200280AD101F025FA002801D10324F8
:1052100004E0554805700120544908702000C0B2D0
:1052200070BD38B50024514D2878012805D140487B
:10523000006880470020287000E006242000C0B2EB
:1052400032BD7CB5002049480078002801D00620F6
:1052500068E0684601F00AFA012862D19DF8000072
:10526000002805D002281AD003D3032859D058E0CB
:1052700057E0404C404A41492000334B1B68984757
:10528000C0B200280AD1207827490978884202D084
:105290002078002802D1022001F0E1F941E0384CE9
:1052A000364D286800782070364E0120307000227C
:1052B00005E013F832002178884208D0521C102AE9
:1052C0000CDA2B4B13F832000028F2D106E02A4901
:1052D000286803EBC2025268904730702548007876
:1052E00000281DD03078002812D0234800210180EA
:1052F000217851F080012A680388D1540188491C23
:10530000018031782A680388D1540188491C0180C2
:1053100019480288296804480078094B1B68984797
:10532000FFE7002076BD0000205A0020D763000868
:10533000AC590020F1630008B05900206F640008E8
:10534000A859002005640008B4590020B85900206D
:10535000CF640008BC59002059650008C0590020DE
:10536000C7650008C4590020215A00209C00002075
:105370000C000020225A0020145A0020C859002096
:10538000235A0020245A002078B585B005000B98D8
:10539000002807D1502080F31188BFF34F8FBFF34F
:1053A0006F8FFEE70C9C002C07D1502080F31188F2
:1053B000BFF34F8FBFF36F8FFEE754260096009E1A
:1053C000542E07D0502080F31188BFF34F8FBFF3C6
:1053D0006F8FFEE7002C13D0002811D0206302202D
:1053E00084F8510000200390029404A801900A98C8
:1053F0000090280000F042F8200000F094F801E04E
:1054000000200490049806B070BD2DE9F84384B0E4
:105410000700884616009946300080B2800001F0EF
:1054200037F90500002D0BD0542001F031F90400AC
:10543000002C01D0256304E0280001F0B3F900E05E
:105440000024002C15D0002084F851000020039087
:1054500002940D9801900C9800904B46B6B2320021
:105460004146380000F00AF8200000F05CF8012006
:1054700001E05FF0FF3005B0BDE8F0832DE9F843AF
:1054800005001E000A9F386B00EB8200B0F1040893
:105490005FEAD8085FEAC80818F00700002807D0BC
:1054A000502080F31188BFF34F8FBFF36F8FFEE75B
:1054B000002200E0521C102A07D2885C07EB02038E
:1054C00083F83400885C0028F4D1DDF820900020B7
:1054D00087F84300B9F1070F01D35FF00609099C73
:1054E000C7F82C90C7F844900020B864381D01F02C
:1054F0000EFA17F1180001F00AFA3F61D9F1070915
:10550000C7F818907F620020F864002087F85000E8
:1055100032002900404601F037FA3860002C00D0F4
:105520002760BDE8F18338B5040001F0BDFADFF86B
:10553000BC140868401C0860DFF8B45428680028D0
:1055400006D12C60086801280DD100F06BFA0AE042
:10555000DFF8C4040068002805D1E06A2968C96A38
:10556000884200D32C60DFF8B4040168491C016054
:10557000DFF8AC140A680123E06A83401A430A602A
:10558000211DDFF8F024E36A1420434302EB0300FB
:1055900001F0C0F901F0A2FADFF87C0400680028ED
:1055A0000DD02868C06AE16A884208D25FF0805056
:1055B000DFF894150860BFF34F8FBFF36F8F31BDD5
:1055C00010B586B0002004900020039005AA03A91E
:1055D00004A8FCF759FFDFF82C46049802900398C2
:1055E0000190002000900023059ADFF81C160FF2AE
:1055F0000540FFF7C9FE20602068002801D0012087
:1056000000E00020012817D1502080F31188BFF35B
:105610004F8FBFF36F8F5FF0FF30DFF8F415086036
:105620000120DFF8F41308600020DFF8E8150860B7
:1056300001F0D3F906B010BD10F1010FFAD15020DE
:1056400080F31188BFF34F8FBFF36F8FFEE7DFF852
:10565000D4040168491C0160704770B5002400251E
:10566000DFF8C0643068002807D1502080F311882B
:10567000BFF34F8FBFF36F8FFEE701F015FA30686D
:10568000401E30603068002855D1DFF860030068A4
:10569000002826D14FE0C868C46814F1180001F052
:1056A00060F9201D01F05DF9DFF874130A68012329
:1056B000E06A83401A430A60211DDFF8B823E36AD9
:1056C0001420434302EB030001F024F9E06ADFF801
:1056D00020130968C96A884203D30120DFF84815FE
:1056E0000860DFF8281508680028D4D1002C01D004
:1056F00000F003FADFF820653468002C0CD000F0CD
:105700001EF8002803D00120DFF81C150860641E75
:10571000002CF4D100203060DFF80C050068002870
:1057200009D001255FF08050DFF81C140860BFF33A
:105730004F8FBFF36F8F01F0D1F9280070BDF8B51E
:105740000025DFF8E0030068002867D1DFF8C40413
:105750000468641C0460002C1AD1DFF8C0140868C7
:105760000068002807D0502080F31188BFF34F8FC6
:10577000BFF36F8FFEE70868DFF8A42413680B609F
:105780001060DFF8A0040168491C016000F0B5F961
:10579000DFF87C643068844230D322E0381D01F0A9
:1057A000E0F8B86A002803D017F1180001F0D9F822
:1057B000DFF86C120A680123F86A83401A430A6012
:1057C000391DDFF8B022FB6A1420434302EB0300CB
:1057D00001F0A0F8F86A86490968C96A884200D3CE
:1057E0000125DFF8381408680068002812D008681E
:1057F000C068C76878688442D0D230607C4800684E
:10580000DFF87012C26A14204243885802280AD373
:10581000012508E05FF0FF303060EFE7DFF8F803C4
:105820000168491C0160DFF800040068002800D00E
:1058300001252800F2BDDFF8EC020068002804D042
:105840000120DFF8E41308602AE00020DFF8D81315
:10585000086073480068B0FA80F1D1F11F0114228A
:10586000844B02FB01F01858002807D1502080F328
:105870001188BFF34F8FBFF36F8FFEE7514303EBE8
:105880000100416849684160416810F10802914295
:1058900002D14168496841604068C0685449086065
:1058A000704710B50C00002807D1502080F31188F4
:1058B000BFF34F8FBFF36F8FFEE7DFF8E813096880
:1058C000183101F033F80121200000F0AFF910BDCC
:1058D00010B5C068C468002C07D1502080F311882F
:1058E000BFF34F8FBFF36F8FFEE714F1180001F085
:1058F00038F88C480068002813D1201D01F031F8D9
:1059000047490A680123E06A83401A430A60211D5F
:10591000584AE36A1420434302EB030000F0FAFF05
:1059200005E014F11801DFF8E40200F0F3FF30485D
:105930000068C06AE16A884205D201200121DFF8CF
:105940006823116000E0002010BDDFF8D81209685C
:105950000160DFF8481309684160704738B50400FA
:105960000D00002C07D1502080F31188BFF34F8F1A
:10597000BFF36F8FFEE7002D07D1502080F3118811
:10598000BFF34F8FBFF36F8FFEE701F08DF8DFF8A5
:10599000840200686168411A2A6812F1010F01D17E
:1059A000002418E0DFF87C22126823689A4204D0B1
:1059B0006268904201D301240DE02868814207D239
:1059C0002868411A29602000FFF7BFFF002402E089
:1059D00000202860012401F081F8200032BD012060
:1059E000DFF8C4120860704700000000E85900208A
:1059F000D859002080B500F03FF81E480068022802
:105A0000F9D35FF08050DFF8F8110860BFF34F8FD3
:105A1000BFF36F8FEFE70000F4590020045A002015
:105A2000F059002038B5002407E01248142101FB8A
:105A300004F1084400F05CFF641C072CF5D3DFF888
:105A40006C42200000F054FFDFF86452280000F0A0
:105A50004FFFDFF8B80100F04BFF154800F048FF9A
:105A6000664800F045FFDFF8B4010460DFF8440247
:105A7000056031BDA053002038B514E001F014F8E2
:105A80000B48C068C468201D00F06BFFDFF81002EF
:105A90000168491E01602868401E286001F01EF858
:105AA000200000F009F8034D28680028E6D131BD38
:105AB0004C590020E459002010B5040094F851001E
:105AC000002806D1206B00F06DFE200000F06AFE79
:105AD00010BD94F85100012803D1200000F062FEAF
