:020000040800F2
:10000000B87200209DB70008CDB00008CFB000083E
:10001000D1B00008D3B00008D5B00008000000003F
:10002000000000000000000000000000918D0008AA
:10003000D7B0000800000000398D00088D7E000850
:10004000F1B70008F5B70008F9B70008FDB70008D8
:1000500001B8000805B8000809B800080DB8000884
:1000600011B8000815B8000819B800081DB8000834
:1000700021B8000825B8000829B800082DB80008E4
:1000800031B8000835B8000839B800083DB8000894
:10009000D9B0000841B8000845B8000849B80008C0
:1000A0004DB8000851B80008E3B0000855B8000882
:1000B00021B1000859B800085DB8000861B800080F
:1000C00065B8000869B800086DB8000871B8000884
:1000D00075B8000879B800082BB100087DB8000891
:1000E00081B8000885B8000889B800088DB80008F4
:1000F00091B8000895B8000899B800089DB80008A4
:10010000000000000000000000000000A1B800088E
:10011000A5B80008A9B800087BB100088BB1000899
:10012000ADB80008B1B80008B5B80008B9B8000803
:10013000BDB80008C1B800080000000000000000C1
:10014000C5B80008C9B80008CDB800080000000014
:10015000000000000000000000000000000000009F
:100160000000000000000000D1B80008D5B8000869
:10017000D9B80008000000000000000000000000E6
:1001800000000000DDB8000810B50400002C01D10B
:10019000012035E094F83D00002805D1002084F8C6
:1001A0003C00200001F0C8FA022084F83D00211D27
:1001B000206800F005FD012084F84800012084F843
:1001C0003E00012084F83F00012084F84000012017
:1001D00084F84100012084F84200012084F84300A3
:1001E000012084F84400012084F84500012084F8AF
:1001F0004600012084F84700012084F83D000020DB
:1002000010BD90F83D10012901D001203DE00221F0
:1002100080F83D100168C96851F001010268D160A1
:100220000168DFF8A420914217D00168B1F1804F36
:1002300013D00168DFF8942091420ED00168DFF8F6
:100240009020914209D00168DFF88820914204D0C3
:100250000168DFF88420914210D101688A68DFF8D4
:100260007C100A40062A0FD0B2F5803F0CD00168FE
:10027000096851F001010068016005E00168096842
:1002800051F0010100680160002070470168C968F1
:10029000490849000268D1600168096A41F21112F7
:1002A00011420BD10168096A40F24442114205D162
:1002B000016809684908490002681160012180F855
:1002C0003D10002070470000002C01400004004059
:1002D00000080040003401400040014007000100D8
:1002E00010B50400002C01D1012035E094F83D0048
:1002F000002805D1002084F83C00200001F03DF9E1
:10030000022084F83D00211D206800F059FC0120E6
:1003100084F84800012084F83E00012084F83F0062
:10032000012084F84000012084F84100012084F875
:100330004200012084F84300012084F84400012099
:1003400084F84500012084F84600012084F8470025
:10035000012084F83D00002010BD10B504000029E4
:1003600002D194F83E0015E0042902D194F83F0030
:1003700010E0082902D194F840000BE00C2902D1CA
:1003800094F8410006E0102902D194F8420001E0FF
:1003900094F84300012801D0012081E0002904D114
:1003A000022084F83E00C0B21FE0042904D10220DC
:1003B00084F83F00C0B218E0082904D1022084F874
:1003C0004000C0B211E00C2904D1022084F84100A1
:1003D000C0B20AE0102904D1022084F84200C0B261
:1003E00003E0022084F84300C0B20122206800F03C
:1003F00063FEDFF8B4102068884212D02068DFF86E
:10040000AC2090420DD02068DFF8A420904208D0A4
:100410002068DFF8A820904203D02068214A90424B
:1004200001D1012000E00020C0B2002805D02068E2
:10043000406C50F40040226850642068884217D015
:100440002068B0F1804F13D02068DFF86810884230
:100450000ED02068DFF86010884209D02068DFF8ED
:100460004C10884204D02068DFF84410884210D134
:1004700020688168DFF84800014006290FD0B1F5F7
:10048000803F0CD02068006850F0010021680860AF
:1004900005E02068006850F0010021680860002035
:1004A00010BD000000480140002C01400034014014
:1004B00000400140000400400008004000440140AA
:1004C0000700010010B50400002902D194F83E0095
:1004D00015E0042902D194F83F0010E0082902D168
:1004E00094F840000BE00C2902D194F8410006E09A
:1004F000102902D194F8420001E094F84300002949
:1005000002D194F844200BE0042902D194F845204C
:1005100006E0082902D194F8462001E094F847202B
:10052000C0B2012802D1D2B2012A01D001209BE041
:10053000002904D1022084F83E00C0B21FE0042943
:1005400004D1022084F83F00C0B218E0082904D189
:10055000022084F84000C0B211E00C2904D102202E
:1005600084F84100C0B20AE0102904D1022084F8C6
:100570004200C0B203E0022084F84300C0B2002968
:1005800004D1022084F84400C0B211E0042904D14F
:10059000022084F84500C0B20AE0082904D10220F4
:1005A00084F84600C0B203E0022084F84700C0B2DD
:1005B0000800002806D004280BD0082810D00C28EA
:1005C00015D01BE02068C06850F002002268D0609F
:1005D00014E02068C06850F004002268D0600DE08C
:1005E0002068C06850F008002268D06006E02068EB
:1005F000C06850F010002268D060FFE70122206838
:1006000000F05AFD20681949884215D02068B0F1E1
:10061000804F11D02068DFF8601088420CD020682D
:10062000DFF85810884207D020681149884203D06B
:1006300020681049884210D120688168DFF81001D5
:10064000014006290FD0B1F5803F0CD0206800682A
:1006500050F001002168086005E02068006850F053
:10066000010021680860002010BD0000002C01403E
:1006700000340140004001400004004000080040F8
:1006800070B504000D00002C01D101205EE094F84B
:100690003D00002805D1002084F83C00200001F036
:1006A0001BF8022084F83D0020688168DFF8B8015B
:1006B000014020688160211D206800F081FA2068D7
:1006C0008168206882692068036A28680143DFF82E
:1006D0009C010240A868AE6950EA06200243DFF898
:1006E00090010240DFF88C010240E868EE6950EAB0
:1006F0000620024328692E6A360356EA0016324362
:1007000033F0220333F0880368686D6950EA0510FE
:1007100003432068816020688261206803620120B1
:1007200084F84800012084F83E00C0B2012084F81B
:100730003F00C0B2012084F84400C0B2012084F818
:100740004500C0B2012084F83D00002070BD0000CB
:100750000700010038B5040094F83E0094F83F20EB
:1007600094F8443094F84550002910D1C0B20128C3
:1007700002D1DBB2012B01D0012073E0022084F80A
:100780003E00C0B2022084F84400C0B230E0042928
:1007900010D1D2B2012A02D1EDB2012D01D0012037
:1007A00060E0022084F83F00C0B2022084F84500D7
:1007B000C0B21DE0C0B2012808D1D2B2012A05D1D1
:1007C000DBB2012B02D1EDB2012D01D0012049E0B5
:1007D000022084F83E00C0B2022084F83F00C0B27C
:1007E000022084F84400C0B2022084F84500C0B260
:1007F000002902D004290CD017E001220021206832
:1008000000F05AFC2068C06850F002002168C860FF
:1008100021E001220421206800F04EFC2068C0681D
:1008200050F004002168C86015E001220021206812
:1008300000F042FC01220421206800F03DFC206809
:10084000C06850F002002168C8602068C06850F09D
:1008500004002168C8602068006850F00100216829
:100860000860002032BD0000F8BFFEFFFCFCFFFF67
:10087000F3F3FFFF0F0FFFFF10B5040020680069BE
:1008800080071AD52068C068800716D57FF002005F
:1008900021680861012020772068806910F0030F2B
:1008A00003D0200001F0F7F805E0200001F035F951
:1008B000200001F033F9002020772068006940070C
:1008C0001AD52068C068400716D57FF0040021685B
:1008D0000861022020772068806910F4407F03D0EF
:1008E000200001F0D8F805E0200001F016F9200002
:1008F00001F014F9002020772068006900071AD55C
:100900002068C068000716D57FF0080021680861DC
:10091000042020772068C06910F0030F03D0200066
:1009200001F0B9F805E0200001F0F7F8200001F02F
:10093000F5F80020207720680069C0061AD52068E5
:10094000C068C00616D57FF0100021680861082035
:1009500020772068C06910F4407F03D0200001F0A8
:100960009AF805E0200001F0D8F8200001F0D6F850
:100970000020207720680069C0070AD52068C06879
:10098000C00706D57FF0010021680861200001F052
:100990008EF82068006900060AD52068C068000645
:1009A00006D57FF0800021680861200001F0B7F8CB
:1009B00020680069C0050AD52068C068000606D511
:1009C0007FF4807021680861200001F0A9F8206898
:1009D000006940060AD52068C068400606D57FF049
:1009E000400021680861200001F09BF82068006940
:1009F00080060AD52068C068800606D57FF02000F2
:100A000021680861200001F08DF810BD38B50400A0
:100A10000D0094F83C00012801D10220A0E0012043
:100A200084F83C00002A0AD0042A1FD0082A35D0B6
:100A30000C2A4AD0102A60D0142A75D08CE02900E4
:100A4000206800F018F92068806950F008002168DB
:100A500088612068806930F004002168886120681E
:100A60008169286901432068816175E02900206857
:100A700000F04FF92068806950F4006021688861B7
:100A80002068806930F4806021688861206880690E
:100A9000296950EA0120216888615DE02900206809
:100AA00000F07BF92068C06950F008002168C86137
:100AB0002068C06930F004002168C8612068C169FD
:100AC000286901432068C16146E02900206800F0E0
:100AD000A4F92068C06950F400602168C8612068EA
:100AE000C06930F480602168C8612068C0692969E4
:100AF00050EA01202168C8612EE02900206800F03A
:100B0000BBF92068406D50F00800216848652068F6
:100B1000406D30F00400216848652068416D286907
:100B200001432068416517E02900206800F0D0F9F2
:100B30002068406D50F40060216848652068406D71
:100B400030F48060216848652068406D296950EA6A
:100B5000012021684865FFE7002084F83C00002060
:100B600032BD10B5040094F83C00012801D10220E8
:100B700025E0012084F83C00022084F83D0020009C
:100B800000F0D3F9002807D0012084F83D000020B0
:100B900084F83C00012012E02068C06830F040007A
:100BA0002168C8602068C06830F480402168C8604F
:100BB000012084F83D00002084F83C00002010BD96
:100BC00010B40468DFF8683498420ED0B0F1804F5A
:100BD0000BD0DFF86024904207D0DFF85C2490420D
:100BE00003D0DFF85824904203D134F070044A68EF
:100BF000144398421AD0B0F1804F17D0DFF8342454
:100C0000904213D0DFF8302490420FD0DFF82C242C
:100C100090420BD0DFF82824904207D0DFF824243C
:100C2000904203D0DFF82024904203D134F4407482
:100C3000CA68144334F080044A69144304608A6823
:100C4000C2620A68826298420FD0DFF8F0239042B5
:100C50000BD0DFF8EC23904207D0DFF8E823904276
:100C600003D0DFF8E423904201D109690163012137
:100C7000416110BC704770B4026A520852000262AF
:100C8000056A43688469DFF8C4231440A408A400FB
:100C90000A68144335F002058A681543DFF890634B
:100CA000B0420FD0DFF8942390420BD0DFF89023AE
:100CB000904207D0DFF88C23904203D0DFF88823DE
:100CC000904205D135F00805CA68154335F0040592
:100CD000B0420FD0DFF8642390420BD0DFF86023DE
:100CE000904207D0DFF85C23904203D0DFF858230E
:100CF000904207D133F4807333F400734A6913438D
:100D00008A6913434360846149684163056270BC2A
:100D1000704770B4026A32F010020262056A4368DA
:100D20008469DFF82C23144034F440740A6854EAD0
:100D3000022435F020058A6855EA0215DFF8F02212
:100D4000904203D0DFF8F462B04206D135F080055E
:100D5000CE6855EA061535F0400590420CD0DFF814
:100D6000DC22904208D0B64A904205D0B54A904263
:100D700002D0B54A904209D133F4806333F4006362
:100D80004A6953EA82038A6953EA820343608461B1
:100D900049688163056270BC704770B4026A32F4BE
:100DA00080720262056A4368C469A84A1440A408B4
:100DB000A4000A68144335F400758A6855EA0225D0
:100DC0009B4A904202D09D4EB04206D135F4006558
:100DD000CE6855EA062535F4806590420BD0974AD7
:100DE000904208D0964A904205D0964A904202D04E
:100DF000954A904209D133F4805333F400534A6941
:100E000053EA02138A6953EA02134360C4614968D2
:100E1000C163056270BC7047000030B4026A32F4EE
:100E200080520262036A4568C469894A144034F4F6
:100E300040740A6854EA022433F400538A6853EA7F
:100E400002337B4A90420BD07C4A904208D07C4AC5
:100E5000904205D07B4A904202D07B4A904204D116
:100E600035F480454A6955EA82154560C461496890
:100E70000164036230BC704730B4026A32F48032DD
:100E80000262036A4568446D704A14400A6814435C
:100E900033F400338A6853EA0243654A90420BD028
:100EA000664A904208D0664A904205D0654A904210
:100EB00002D0654A904204D135F480354A6955EA3A
:100EC00002254560446549688165036230BC70470E
:100ED00030B4026A32F480120262036A4568446DDB
:100EE0005B4A14400A6854EA022433F400138A6807
:100EF00053EA02534E4A90420BD0504A904208D0D7
:100F00004F4A904205D04F4A904202D04E4A9042FA
:100F100004D135F480254A6955EA82254560446547
:100F20004968C165036230BC704710B502689368B8
:100F300033F070034A681343464A13400A68134368
:100F4000026893604A68002A39D0102A37D0202AD4
:100F500035D0302A33D0402A0CD0502A23D0602AF2
:100F600027D0702A2CD10B698A68C968006800F004
:100F700098F825E00A68052A01D1012021E00268DD
:100F8000136A0268126A52085200046822620268F8
:100F9000926932F0F002096952EA011201688A612D
:100FA000006803620CE00A698968006800F054F880
:100FB00006E00A698968006800F060F800E0FFE771
:100FC000002010BD70B4046A64086400046285697E
:100FD000066A174CA0420ED0B0F1804F0BD0154CD2
:100FE000A04208D0144CA04205D0144CA04202D01C
:100FF000134CA04201D1012400E00024E4B2002CF3
:1010000003D0AD08AD002A4302E02A0052F00102ED
:1010100032F0F0021B0113F0F0031A4336F00A0617
:1010200011F00A0131438261016270BC7047000017
:10103000002C014000040040000800400034014042
:101040000040014000440140004801408FFFFEFF86
:10105000FF8FFFFEF8FFFEFF10B4046A036A5B080F
:101060005B000362836933F0F00353EA021334F048
:101070000A0421438361016210BC704710B4036A03
:1010800033F0100303628369046A33F4704353EA54
:10109000023334F0A00454EA01148361046210BCEA
:1010A000704710B4846834F47F44114351EA03213B
:1010B0002143816010BC704710B4012411F01F035C
:1010C00014FA03F3046A34EA03030362036A11F0B7
:1010D0001F0112FA01F11943016210BC704730B4CC
:1010E000002513E050F8042BD30744BFA9F10103F6
:1010F0009A18091F042942F8045BFAD213468C0798
:1011000044BF15809B1CC90748BF1D7050F8041BC5
:101110000029E7D130BC704718B595B00C220021EA
:10112000684600F000FD1C22002103A800F0FBFC33
:101130002C2200210AA800F0F6FCDFF86447DFF853
:1011400064072060092060600020A0604FF4B47044
:10115000E06000202061002060610020A06120008C
:10116000FFF7BEF8002801D000F0D6FC4020009028
:1011700000200190002002906946200000F062FDEE
:10118000002801D000F0C8FC6020039000200490EB
:101190000020059000200690002007900020089075
:1011A00000200990002203A92000FFF72FFC00284F
:1011B00001D000F0B1FC042203A92000FFF726FCB7
:1011C000002801D000F0A8FC082203A92000FFF7A6
:1011D0001DFC002801D000F09FFC0C2203A9200078
:1011E000FFF714FC002801D000F096FC00200A90C4
:1011F00000200B9000200C9000200D9000200E90FD
:101200004FF400500F9000201090002011905FF0DC
:101210000070129000201390002014900AA9200062
:1012200000F059FD002801D000F076FC200000F00D
:10123000F1FA16B010BD18B587B01022002103A82E
:1012400000F071FC0C220021684600F06CFCDFF815
:1012500058465FF08040206040F60F6060600020DC
:10126000A06044F62060E060002020618020A06142
:10127000002003900020049000200590002006909C
:1012800003A9200000F05AFC002801D000F044FC23
:1012900050200090002002906946200000F0D2FC0F
:1012A000002801D000F038FC08B010BD10B58CB09B
:1012B0002422002103A800F036FC0C2200216846FD
:1012C00000F031FCDFF8E445DFF8E40520600020A1
:1012D00060600020A0600020E0600020206100200D
:1012E000A0610120039000200490012005900020BF
:1012F000069000200790002008900120099000200F
:101300000A9000200B9003A92000FFF7B9F90028EC
:1013100001D000F001FC00200090002002906946FE
:10132000200000F08FFC002801D000F0F5FB0CB08D
:1013300010BD10B588B01422002103A800F0F3FB03
:101340000C220021684600F0EEFBDFF86845DFF86C
:1013500068052060012060600020A0600020E0603F
:10136000002020610020A0612000FEF70DFF002872
:1013700001D000F0D1FB072003900020049003A9C6
:101380002000FFF7EEFB002801D000F0C5FB002095
:101390000090002002906946200000F053FC0028D5
:1013A00001D000F0B9FB08B010BD1FB50C22002120
:1013B000684600F0B8FBDFF80445DFF8040520605C
:1013C000472060600020A0600020E0600020A06155
:1013D0002000FEF7D9FE002801D000F09DFB002080
:1013E0000090002002906946200000F02BFC0028AD
:1013F00001D000F091FB1FBD18B595B00C22002163
:10140000684600F090FB1C22002103A800F08BFB33
:101410002C2200210AA800F086FBDFF8A844DFF8A0
:10142000A8042060092060600020A0604FF4B47020
:10143000E06000202061002060610020A0612000A9
:10144000FEF74EFF002801D000F066FB0020009060
:1014500000200190002002906946200000F0F2FB7D
:10146000002801D000F058FB602003900020049079
:101470000020059000200690002007900020089092
:1014800000200990002203A92000FFF7BFFA0028DE
:1014900001D000F041FB042203A92000FFF7B6FAB7
:1014A000002801D000F038FB082203A92000FFF734
:1014B000ADFA002801D000F02FFB0C2203A9200078
:1014C000FFF7A4FA002801D000F026FB00200A90C4
:1014D00000200B9000200C9000200D9000200E901A
:1014E0004FF400500F9000201090002011905FF0FA
:1014F0000070129000201390002014900AA9200080
:1015000000F0E9FB002801D000F006FB200000F00D
:1015100081F916B010BD80B5DFF8B003DFF8B01365
:10152000016000214160002181600021C160002133
:1015300001610021416100218161FEF725FE002843
:1015400001D000F0E9FA01BD80B5DFF88803DFF8CB
:101550008813016000214160002181600021C16089
:10156000002101610021416100218161FEF70CFE33
:10157000002801D000F0D0FA01BD10B586B00400FB
:1015800014220021684600F0CEFA2068DFF8141318
:1015900088422DD1DFF84403016851F400610160F5
:1015A000006810F4006005900598DFF834030168C6
:1015B00051F400310160006810F400300590059886
:1015C0004020009002200190002002900020039013
:1015D0000620049069465FF0904000F0CFFB0022A7
:1015E00005211A2000F00EFD1A2000F01CFD38E045
:1015F0002068DFF8D412884233D1DFF8E0020168B6
:1016000051F400510160006810F4005005900598F5
:10161000DFF8CC02016851F480210160006810F409
:101620008020059005984020009002200190002025
:101630000290002003900A200490DFF8A842694637
:10164000200000F09BFB80200090022001900020F1
:10165000029000200390052004906946200000F0CD
:101660008DFB06B010BD10B586B004001422002119
:1016700001A800F058FA2068B0F1804F2AD1DFF8B5
:101680006802016851F001010160006810F001007A
:10169000009000989248016851F480110160006840
:1016A00010F4801000900098982001900220029081
:1016B00000200390002004900220059001A98B488F
:1016C00000F05CFB002205211C2000F09BFC1C208C
:1016D00000F0A9FC06B010BD10B586B004001422BD
:1016E000002101A800F01FFA20687149884221D129
:1016F0007D48016851F002010160006810F00200AD
:10170000009000987648016851F4802101600068DB
:1017100010F4802000900098302001900220029068
:1017200000200390002004900220059001A96D483C
:1017300000F024FB06B010BD10B586B004001422E2
:10174000002101A800F0EFF920685B4988420AD126
:101750006548016851F004010160006810F0040060
:101760000090009854E020685549884212D15E48A4
:10177000016851F010010160006810F01000009045
:10178000009800220521362000F03CFC362000F0B5
:101790004AFC3DE020684E4988420AD14F48016822
:1017A00051F400310160006810F40030009000989E
:1017B0002EE02068484988422AD14848016851F4FF
:1017C00080210160006810F4802000900098444857
:1017D000016851F400310160006810F4003000909D
:1017E00000988020019002200290002003900020A9
:1017F00004900120059001A95FF0904000F0BEFA2E
:10180000002205211A2000F0FDFB1A2000F00BFC3D
:1018100006B010BD10B586B0040014220021684641
:1018200000F081F920681F49884219D12C480168CD
:1018300051F400110160006810F400100590059843
:101840004FF4D4400090022001900020029000202C
:101850000390022004906946254800F08FFA1CE0AE
:1018600020681949884218D11D48016851F40021A7
:101870000160006810F40020059005984FF4707026
:10188000009002200190002002900020039004208C
:1018900004906946174800F071FA06B010BD0000C8
:1018A000D0690020002C01401C6A0020686A0020DA
:1018B00000040040B46A002000080040006B0020D3
:1018C000001000404C6B002000340140986B002059
:1018D00000440140E46B0020004801401810024021
:1018E00014100240000400481C100240000C004884
:1018F000001000480008004880B576480090764BFC
:10190000764A7749774801F012F9774801F0D5F91E
:10191000764801F0D2F9764801F0CFF901BD75485B
:10192000016851F0807101607348016851F0010154
:101930000160704738B501F0D7F900F059F801F0AF
:10194000E5F901F0D1FA01F022FB01F0CDFB01F045
:101950002FFCFFF7E1FBFFF76EFCFFF7A7FCFFF79B
:101960004BFD01F089FC01F0E9FC01F004FD01F000
:101970001FFDFFF7DEFCFFF718FDFFF7CCFDFFF7BB
:10198000E3FDFFF7CCFF012204215C4800F0C9FA17
:101990005B4C5C4D2900200001F0DDFD2068002833
:1019A00001D1012000E00020216811F1010F01D1D7
:1019B000012100E00021C0B2C9B2084300280BD0C9
:1019C0005FF4E13020600D2020710020A0602B002A
:1019D00094E8070001F0A2FD42484B4908604FF42B
:1019E000FA7001F01DFE01F038FE02F015F8FEE776
:1019F00010B59EB02821002205AC200002F062F84C
:101A0000142100226C46200002F05CF83C210022E8
:101A10000FAC200002F056F8012005905FF48030F2
:101A20000690002107910121099102210C910D904E
:101A30005FF480100E9005A802F078F8002801D01D
:101A400000F06AF80F200090022001900020029020
:101A50004FF480600390002004900221684602F059
:101A60009FFB002801D000F057F828480F90002075
:101A700012904FF48070189000201D9000201B9051
:101A800000201C900FA802F001FD002801D000F0FA
:101A900043F81EB010BD80B50068B0F1804F05D18D
:101AA0001949086809680968496B884701BD10B57C
:101AB000040020681649884205D11349086809685E
:101AC0000968C96B884720681249884201D102F031
:101AD00005FE10BD686A00201C6A0020D069002045
:101AE0004C6B0020C4670020C06C0020F06C00200C
:101AF000206D0020FCED00E0001000E00010004828
:101B00000400002000FC0308306E00208230020038
:101B10000010004000140040704770477047704745
:101B200070477047704710B5044610460A46014694
:101B3000204601F0C7FF204610BD000030B587B039
:101B400004000D00002C01D1012076E094F83D0046
:101B5000002805D1002084F83C002000FFF783FD19
:101B6000022084F83D00211D2068FFF729F8AB68AA
:101B7000032229682068FFF725FA2068806930F081
:101B80000C002168886120688169686801432068C9
:101B900081612068406850F08000216848602068BA
:101BA000806830F07000216888602068806850F09C
:101BB00040002168886020688168DFF88400014067
:101BC000206881602068806850F004002168886087
:101BD00000200490002005907020009000200690C6
:101BE0000020039000200290E86801906946206878
:101BF000FFF78FF82068406830F070002168486077
:101C00002068406850F0500021684860012084F846
:101C10004800012084F83E00C0B2012084F83F0053
:101C2000C0B2012084F84400C0B2012084F845000D
:101C3000C0B2012084F83D00002007B030BD000094
:101C4000F8FFFEFF70B490F83C20012A01D1022079
:101C50003FE0012280F83C20022280F83D2002680B
:101C6000546802689368404D0268AA4203D0026833
:101C7000404EB24203D134F470044A68144334F045
:101C800070040A681443026854600268AA4213D0C0
:101C90000268B2F1804F0FD00268344CA2420BD0E0
:101CA0000268334CA24207D00268324CA24203D0F1
:101CB0000268314CA24205D133F0800389680B439E
:101CC00001688B60012180F83D10002180F83C10F4
:101CD000002070BC704710B4002390F83C20012A0B
:101CE00001D102203EE0012280F83C201B0A1B02A9
:101CF000CA68134333F440738A68134333F4806330
:101D00004A68134333F400630A68134333F480537F
:101D10000A69134333F400534A69134333F480438D
:101D20008A6A134333F470238A6953EA02430268D0
:101D30000D4CA24203D002680E4CA2420CD133F4E7
:101D400070034A6A53EA025333F08073CA6913433B
:101D500033F00073096A0B4301684B64002180F87B
:101D60003C10002010BC7047002C014000040040D3
:101D7000000800400034014000400140F8B4020077
:101D8000002433E0052704E0DFF8A8319A42F9D1B6
:101D9000042714F00303DBB29B009F403E43230063
:101DA0009B0845F82360DFF890512B6883434E6809
:101DB000F60300D503432B60604D2B6883434E68C8
:101DC000B60300D503432B605D4D2B6883434E68FB
:101DD000F60200D503432B605A4D2B6883434E68AF
:101DE000B60201D5184303002B60641C0868E0406C
:101DF000002800F094800125086815FA04F31840C3
:101E00000028F2D04B68012B08D04B68022B05D07C
:101E10004B68112B02D04B68122B16D19668032702
:101E20002300DBB25B009F40BE43CF682300DBB2E0
:101E30005B009F403E4396605368A540AB434D68AE
:101E4000C5F30015A5402B435360D6680325230036
:101E5000DBB25B0015FA03F39E438F682300DBB20D
:101E60005B009F403E43D6604B68022B02D04B681C
:101E7000122B17D12300DB0802EB83031E6A0F2706
:101E800014F00703DBB29B009F40BE430F6914F0C0
:101E90000703DBB29B009F403E432300DB0802EBBD
:101EA00083031E6216682300DBB25B009D40AE43D5
:101EB0000D7915F003052300DBB25B009D402E4336
:101EC00016604B68DB0090D51F4B1D6855F001056F
:101ED0001D601B6813F001030093009B1B4D230042
:101EE0009B0855F823600F2714F00303DBB29B0017
:101EF0009F40BE43B2F1904F01D1002749E7144BF8
:101F00009A4201D1012744E7124B9A4201D102279C
:101F10003FE7114B9A427FF437AF032739E7F1BC13
:101F20007047D2B2002A02D089B2816101E089B241
:101F30008162704700100048000401400404014021
:101F4000080401400C040140181002400800014040
:101F50000004004800080048000C004810F007008A
:101F6000334B1A684FF6FF010A40324951EA00210B
:101F70000A431A6070472E480068C0F30220704779
:101F8000010049B2002908D4012210F01F018A4043
:101F9000294940B2400941F820207047020052B25E
:101FA000002A04D40901254A40B2115407E009016E
:101FB000234A40B210F00F00104400F8041C704790
:101FC00010B410F00700D0F10703052B01D3042350
:101FD00001E0D0F10703041D072C01D2002000E02E
:101FE000C01E012414FA03F35B1E1940814014FA49
:101FF00000F0401E1040084310BC704780B5FFF74A
:10200000ADFF01BD70B504000D0016000020FFF704
:10201000B2FF32002900FFF7D3FF0100200040B2D9
:10202000FFF7BCFF70BD80B540B2FFF7A9FF01BD4F
:102030000CED00E00000FA0500E100E000E400E043
:1020400018ED00E038B52DED088B05000C002000E0
:1020500080B240F2E931884201DB4FF47A74E86CD7
:1020600002F048FB41EC140BB0EE448AF0EE648AB7
:10207000286D02F03FFB41EC130BB0EE484AF0EE46
:10208000684A9FEDB92B9FEDBA1BB0EE418AF0EE86
:10209000618AB0EE429AF0EE629AB0EE43AAF0EE98
:1020A00063AAB0EE44BAF0EE64BAA4B2200002F023
:1020B00021FB41EC100BB0EE4B4AF0EE6B4AB0EE58
:1020C0004A3AF0EE6A3AB0EE492AF0EE692AB0EEEA
:1020D000481AF0EE681A280002F040FB51EC100B91
:1020E00002F078FBA5F85400BDEC088B31BD806888
:1020F0007047006A704780B5002101620168496B32
:10210000884701BD0021826D1268D1630021826D74
:10211000126851630021C26D1268D163012101620E
:1021200000214164704780B50168896A884701BD14
:1021300080B5C9B2002906D001220121DFF8380A92
:10214000FFF7EFFE05E000220121DFF82C0AFFF780
:10215000E8FE01BD704710B504000120A06302F045
:1021600031F9DFF8181AB0FBF1F0401EA16D0968D3
:10217000886202F027F9DFF8041AB0FBF1F0401E84
:10218000E16D096888620021A06DFEF7E6F8042180
:10219000A06DFEF7E2F80821A06DFEF7DEF80C2135
:1021A000A06DFEF7DAF80021E06DFEF7D6F8042105
:1021B000E06DFEF7D2F80821E06DFEF7CEF80C21B5
:1021C000E06DFEF7CAF8E06D0068C06A401CE0648C
:1021D000E06D0068C06A401C6421B0FBF1F10A2088
:1021E000414321650A21200022681268904702F0CD
:1021F000E9F8216E0968896A491CB0FBF1F002F028
:1022000079FA02000B000020DFF8741902F000FBDD
:1022100000225FF0804302F01FFC02F0EFFCA0649C
:102220000021606EFEF796FA0421606EFEF792FAC6
:102230000021206EFEF746F900224FF48061DFF89E
:102240003809FFF76EFEDFF83C4900224FF4806149
:102250002000FFF766FE00221021DFF82C09FFF7AF
:1022600060FE01224FF400412000FFF75AFE10BD2E
:1022700038B50400DFF8145900202860002060629F
:102280000020DFF80C190A68120604D5626A52F0C1
:102290000102626203E0626A5208520062620A68E6
:1022A000D20604D5626A52F00202626203E0626AF8
:1022B00032F0020262620968090704D5616A51F0CE
:1022C0000401616203E0616A31F004016162216A24
:1022D000002943D1A16B002903D0022909D004D3DE
:1022E0000BE0200000F049F807E0200000F076F94C
:1022F00003E0200000F0D7FAFFE7002803D0200019
:102300002168896A884700206060206C06281CD1FB
:1023100094ED0F0AB8EEC00AD4ED120A20EE200A9E
:1023200010EE100A02F09EFC02000B000020DFF805
:10233000501802F06DFA02F04DFA3C2148436064F7
:10234000002020640020E06308E0206C401C206432
:10235000E16B206E0068406B4118E1632868DFF88C
:102360003418086031BD00000000000000408F40BC
:10237000000000000000F03F704700218268002A42
:1023800003D0012A00F0958026E1426A012A20D07C
:10239000C0F08D80032A32D047D3052A03D070D3F2
:1023A000062A58D083E00022C36D1B68DA63C26C32
:1023B000836D1B681A640022836D1B689A63B0F8F2
:1023C0005420836D1B68DA63C26C806D00684263C1
:1023D0006EE00022836D1B685A63C26C836D1B68BC
:1023E0001A640022C36D1B681A64B0F85420836D10
:1023F0001B68DA63C26CC06D0068C26358E00022DB
:10240000836D1B68DA63C26C836D1B689A6300225C
:10241000C36D1B681A64B0F85420836D1B685A633F
:10242000C26CC06D0068C26342E00022C36D1B68CD
:10243000DA630022836D1B681A64C26C836D1B68AB
:102440009A63C26C836D1B68DA63B0F85420806DA8
:10245000006842632CE00022836D1B685A630022EF
:10246000836D1B681A64C26CC36D1B681A64C26CEE
:10247000836D1B68DA63B0F85420C06D0068C263D6
:1024800016E00022836D1B68DA630022836D1B68EF
:102490009A63C26CC36D1B681A64C26C836D1B683F
:1024A0005A63B0F85420C06D0068C26300E0012197
:1024B00092E0426A012A20D0C0F08D80032A32D0F7
:1024C00047D3052A03D070D3062A58D083E00022D0
:1024D000C36D1B68DA630022836D1B681A64C26CCB
:1024E000836D1B689A63C26C836D1B68DA63B0F8F6
:1024F0005420806D006842636EE00022836D1B688B
:102500005A630022836D1B681A64C26CC36D1B681A
:102510001A64C26C836D1B68DA63B0F85420C06D16
:102520000068C26358E00022836D1B68DA630022F2
:10253000836D1B689A63C26CC36D1B681A64C26C9E
:10254000836D1B685A63B0F85420C06D0068C26385
:1025500042E00022C36D1B68DA63C26C836D1B68A6
:102560001A640022836D1B689A63B0F85420836D4F
:102570001B68DA63C26C806D006842632CE0002245
:10258000836D1B685A63C26C836D1B681A640022DA
:10259000C36D1B681A64B0F85420836D1B68DA633E
:1025A000C26CC06D0068C26316E00022836D1B68B8
:1025B000DA63C26C836D1B689A630022C36D1B686B
:1025C0001A64B0F85420836D1B685A63C26CC06DE6
:1025D0000068C26300E001210800704738B50400BC
:1025E0000025A068002803D0012800F0AE8058E143
:1025F000606A012825D0C0F0A68003283BD054D3C0
:10260000052804D0C0F08580062868D09BE0002013
:10261000E16D0968C8631621200000F081FAE06CC2
:10262000A16D096808640020A16D09688863B4F889
:102630005400A16D09684863E06CA16D0968C86326
:1026400082E00020A16D096848631621200000F097
:1026500067FAE06CA16D096808640020E16D096803
:102660000864B4F85400E16D0968C863E06CA16DBA
:102670000968C86368E00020A16D0968C863162175
:10268000200000F04DFAE06CA16D0968886300201D
:10269000E16D09680864B4F85400E16D0968C86325
:1026A000E06CA16D096848634EE00020E16D0968A7
:1026B000C8631621200000F033FA0020A16D0968DC
:1026C0000864E06CA16D09688863E06CA16D09681D
:1026D0004863B4F85400A16D0968C86334E0002071
:1026E000A16D096848631621200000F019FA002046
:1026F000A16D09680864E06CE16D09680864E06C2C
:10270000E16D0968C863B4F85400A16D0968C86335
:102710001AE00020A16D0968C8631621200000F0AE
:10272000FFF90020A16D09688863E06CE16D09681C
:102730000864E06CE16D0968C863B4F85400A16DE9
:102740000968486300E00125ABE0606A012825D0F4
:10275000C0F0A68003283BD054D3052804D0C0F095
:102760008580062868D09BE00020E16D0968C86379
:102770001621200000F0D4F90020A16D096808643A
:10278000E06CA16D09688863E06CA16D096848631D
:10279000B4F85400A16D0968C86382E00020A16DFF
:1027A000096848631621200000F0BAF90020A16DE5
:1027B00009680864E06CE16D09680864E06CE16D2B
:1027C0000968C863B4F85400A16D0968C86368E07B
:1027D0000020A16D0968C8631621200000F0A0F94F
:1027E0000020A16D09688863E06CE16D09680864E8
:1027F000E06CE16D0968C863B4F85400A16D096824
:1028000048634EE00020E16D0968C863162120008E
:1028100000F086F9E06CA16D096808640020A16DE4
:1028200009688863B4F85400A16D09684863E06CD6
:10283000A16D0968C86334E00020A16D0968486390
:102840001621200000F06CF9E06CA16D09680864A5
:102850000020E16D09680864B4F85400E16D09686E
:10286000C863E06CA16D0968C8631AE00020A16D1F
:102870000968C8631621200000F052F9E06CA16DD0
:10288000096888630020E16D09680864B4F85400A1
:10289000E16D0968C863E06CA16D0968486300E0F8
:1028A0000125280032BD00218268002A03D0012AB8
:1028B00000F09B8032E1426A012A21D0C0F093806F
:1028C000032A34D04AD3052A03D075D3062A5CD014
:1028D00089E00022C36D1B68DA63C26C836D1B68DC
:1028E0001A640022836D1B689A63B0F85420836DCC
:1028F0001B68DA63B0F85420806D0068426373E0AF
:102900000022836D1B685A63C26C836D1B681A6456
:102910000022C36D1B681A64B0F85420836D1B68D5
:10292000DA63B0F85420C06D0068C2635CE0002236
:10293000836D1B68DA63C26C836D1B689A63002227
:10294000C36D1B681A64B0F85420836D1B685A630A
:10295000B0F85420C06D0068C26345E00022C36D2A
:102960001B68DA630022836D1B681A64C26C836D76
:102970001B689A63B0F85420836D1B68DA63B0F863
:102980005420806D006842632EE00022836D1B6836
:102990005A630022836D1B681A64C26CC36D1B6886
:1029A0001A64B0F85420836D1B68DA63B0F85420C1
:1029B000C06D0068C26317E00022836D1B68DA6394
:1029C0000022836D1B689A63C26CC36D1B681A6416
:1029D000B0F85420836D1B685A63B0F85420C06D62
:1029E0000068C26300E0012198E0426A012A21D018
:1029F000C0F09380032A34D04AD3052A03D075D37C
:102A0000062A5CD089E00022C36D1B68DA630022CD
:102A1000836D1B681A64C26C836D1B689A63B0F87F
:102A20005420836D1B68DA63B0F85420806D006811
:102A3000426373E00022836D1B685A630022836D3A
:102A40001B681A64C26CC36D1B681A64B0F854200A
:102A5000836D1B68DA63B0F85420C06D0068C263F0
:102A60005CE00022836D1B68DA630022836D1B68C3
:102A70009A63C26CC36D1B681A64B0F85420836DEE
:102A80001B685A63B0F85420C06D0068C26345E00B
:102A90000022C36D1B68DA63C26C836D1B681A6405
:102AA0000022836D1B689A63B0F85420836D1B6805
:102AB000DA63B0F85420806D006842632EE0002293
:102AC000836D1B685A63C26C836D1B681A64002295
:102AD000C36D1B681A64B0F85420836D1B68DA63F9
:102AE000B0F85420C06D0068C26317E00022836D07
:102AF0001B68DA63C26C836D1B689A630022C36D26
:102B00001B681A64B0F85420836D1B685A63B0F8D0
:102B10005420C06D0068C26300E0012108007047C6
:102B2000002001E000BF401C8842FBD370472DE924
:102B3000F04104000D0016001F00DDF81880200091
:102B400001F0E5FD144820600020E06300202064CF
:102B5000002060640020A0640020E0640020206564
:102B6000D720A4F85400A565E6652766C4F86480FC
:102B70002000BDE8F0810000000C0048C065520054
:102B80000000F03F0010004800080048041000E07A
:102B9000100C00482C6E00204CB5000810B5040045
:102BA000606A00286BD1E069002827D0022830D065
:102BB00064D22069616888421CD1206A00280DD146
:102BC0000122A18DA06AFFF7ACF96169A069091A19
:102BD000216100206060012020620EE00022A18DB2
:102BE000A06AFFF79EF9A0692061002060600020C4
:102BF000206202E06068401C60603FE0206A0128BB
:102C000006D10022A18DA06AFFF78BF90020206277
:102C100034E02069616888422CD1206A00281DD1E7
:102C20000122A18DA06AFFF77CF96169A069091AE8
:102C300021610020606001202062A068E168884274
:102C400008D1012060620020E0610020A060002027
:102C5000E06012E0A068401CA0600EE00022A18DA0
:102C6000A06AFFF75EF9A069206100206060002083
:102C7000206202E06068401C6060FFE708E001221B
:102C8000A18DA06AFFF74DF900206060012020624D
:102C900010BD10B5040008001100A062A18501223A
:102CA00089B2FFF73EF90120206010BD002141628A
:102CB0007047C1614261836170470021016000215A
:102CC0004160002181600021C160002101614FF459
:102CD0007A714161642181610121C1610121016237
:102CE000012141627047000080B50748016851F03A
:102CF000100101600320FFF781F9002001F0D6FFE9
:102D000002F014F8002002BD002002402DE9F84F27
:102D100086B0142200216846FEF705FF6D48016861
:102D200051F400110160016811F400110591059939
:102D3000016851F400210160016811F4002105913E
:102D40000599016851F480010160016811F4800166
:102D500005910599016851F400310160016811F491
:102D6000003105910599016851F4802101600168E5
:102D700011F4802105910599016851F480110160D9
:102D8000006810F480100590059848F2845B524C5E
:102D9000002259462000FFF7C4F84EF210054F4EAE
:102DA000002229003000FFF7BCF841F60747DFF8A2
:102DB0003081002239004046FFF7B3F840F26749FE
:102DC000DFF820A1002249465046FFF7AAF800226A
:102DD0004FF400715FF09040FFF7A3F8CDF800B01A
:102DE00001200190002002900020039069462000FD
:102DF000FEF7C4FF70200090002001900020029098
:102E000069462000FEF7BAFF0095012001900020DE
:102E100002900020039069463000FEF7AFFF2020AB
:102E20000090002001900020029069463000FEF7DB
:102E3000A5FF009701200190002002900020039040
:102E400069464046FEF79AFF4FF4985000900220E2
:102E5000019000200290032003900720049069460F
:102E60005046FEF78BFFCDF8009001200190002026
:102E700002900020039069465046FEF77FFF4FF412
:102E8000007000900120019000200290002003902B
:102E900069465FF09040FEF771FF08200090002027
:102EA00001900020029069464046FEF767FF4FF40C
:102EB00040700090022001900020029003200390B7
:102EC0000920049069464046FEF758FF07B0BDE868
:102ED000F08F00BF141002400010004800080048A6
:102EE00000040048000C004818B589B00C220021ED
:102EF00006A8FEF718FE182200216846FEF713FE0A
:102F0000734C5FF0A0402060002060600020A06053
:102F10000020206100206076002084F8200000203E
:102F2000E0620120A0620020E0600120E06100205A
:102F300084F8300004206061002020760020606367
:102F4000200001F013FF002801D0FEF7E5FD00206E
:102F5000069006A9200002F0A1FA002801D0FEF791
:102F6000DBFD06200090012001900020039000204E
:102F7000029000200490002005906946200002F095
:102F80006FF8002801D0FEF7C7FD0AB010BD10B5DC
:102F900086B0182200216846FEF7C5FD4D4C4E480C
:102FA0002060002060600020A060002020610020E0
:102FB0006076002084F820000020E0620120A062FA
:102FC0000020E0600120E061002084F8300004204F
:102FD00060610020207600206063200001F0C6FEC2
:102FE000002801D0FEF798FD0920009001200190F3
:102FF0000020039000200290002004900020059003
:103000006946200002F02CF8002801D0FEF784FD6C
:1030100006B010BD10B586B004001422002101A82E
:10302000FEF781FD2068B0F1A04F25D12B48016843
:10303000491C01600068012809D12948016851F044
:1030400080510160006810F0805000900098244882
:10305000016851F400210160006810F40020009024
:1030600000980F200190032002900020039001A9F6
:103070001C48FEF783FE28E020681749884224D1C7
:1030800016480168491C01600068012809D11448EC
:10309000016851F080510160006810F0805000908C
:1030A00000980F48016851F400210160006810F495
:1030B0000020009000980F20019003200290002033
:1030C000039001A90748FEF759FE06B010BD0000A5
:1030D000E46800203469002000010050086E0020E0
:1030E00014100240000800481FB50C220021684659
:1030F000FEF719FD2A4C2B482060200002F0D6FA7A
:10310000002801D0FEF708FD00200090002001906B
:1031100000226946200002F018FB002801D0FEF7CB
:10312000FBFC10226946200002F00FFB002801D0B2
:10313000FEF7F2FC1FBD10B586B00400142200217A
:1031400001A8FEF7F0FC20681649884226D11648EF
:10315000016851F000510160006810F000500090CB
:1031600000981248016851F400310160006810F4C1
:103170000030009000983020019003200290002041
:10318000039001A95FF09040FEF7F8FD00220521B1
:103190003620FEF737FF3620FEF745FF06B010BD9C
:1031A000886D0020007400401C1002401410024082
:1031B00080B52C482C4901604FF482714160002198
:1031C00081604FF4E061C160002101610021416133
:1031D0004FF4007181613821C16100210162002139
:1031E0004162002181620721C1620021016308213F
:1031F000416302F0D3FA002801D0FEF78DFC01BD37
:1032000010B586B004001422002101A8FEF78BFC43
:1032100020681549884222D11448016851F4804140
:103220000160006810F48040009000981048016828
:1032300051F480210160006810F480200090009813
:103240004FF4604001900220029000200390032080
:1032500004900520059001A90648FEF78FFD06B0F1
:1032600010BD00002C680020003800401C100240F7
:10327000141002400004004880B52C482C4901601D
:103280005FF4E1314160002181600021C1600021D3
:1032900001610C214161002181610021C161002196
:1032A00001620021416200230022002102F0F8FAAD
:1032B000002801D0FEF730FC01BD10B586B0040037
:1032C0001422002101A8FEF72EFC2068184988422C
:1032D0002AD11848016851F400310160006810F4E7
:1032E0000030009000981448016851F400310160EA
:1032F000006810F40030009000980E200190022029
:10330000029000200390032004900720059001A95B
:103310005FF09040FEF732FD002205212620FEF7E7
:1033200071FE2620FEF77FFE06B010BD406700202C
:10333000004400401C1002401410024080B56F4849
:103340006F49016050214160802181607F21C1600F
:103350000021016100214161002181610021C161E1
:10336000002101620021416202F0E4FA002801D04C
:10337000FEF7D2FB01BD80B5624863490160502170
:103380004160002181607F21C16000210161002135
:103390004161002181610021C161002101620021A0
:1033A000416202F0C7FA002801D0FEF7B5FB01BD6B
:1033B00080B5564856490160502141600021816026
:1033C0007F21C160002101610021416100218161F3
:1033D0000021C161002101620021416202F0AAFACC
:1033E000002801D0FEF798FB01BD10B586B004009F
:1033F000142200216846FEF796FB20684049884267
:103400002ED14448016851F480110160016811F423
:10341000801105910599016851F40031016000683F
:1034200010F40030059005984FF480400090032080
:1034300001900020029069463748FEF79FFC4FF448
:1034400080700090022001900020029000200390E4
:103450000820049069465FF09040FEF78FFC4BE037
:103460002068294988422ED12A48016851F48011E8
:103470000160016811F4801105910599016851F40A
:1034800000310160006810F40030059005984FF499
:1034900000600090032001900020029069461E48C1
:1034A000FEF76CFC4FF48060009002200190002039
:1034B0000290002003900820049069465FF090403D
:1034C000FEF75CFC18E020681149884214D11148CD
:1034D000016851F400310160006810F4003005907B
:1034E0000598012000900320019000200290694679
:1034F0005FF09040FEF742FC06B010BD306C00203B
:1035000024000140606C002030000140906C0020DD
:103510003400014014100240000C0048F7B51C00B4
:1035200003266F4600F047F8200000F02FF8002532
:103530000AE02800C0B257F820102800C0B214EBEF
:10354000800000F044F86D1C2800C0B2B042F0D3F7
:1035500000F037F8F7BD30B40322002308E01C0068
:10356000A4B251F824401D00ADB240F825405B1CC8
:103570001C00A4B29442F2D330BC704722480068C9
:1035800010F0010090F00100C0B2704710B51F4C60
:10359000216851F0020121601D490860206850F047
:1035A00040002060FFF7EAFF0028FBD0206830F0E1
:1035B0000200206010BD17481749016017490160DB
:1035C00070471248016851F080010160704770B582
:1035D00004000D000D4E306850F001003060FFF720
:1035E000CDFF0028FBD02580FFF7C8FF0028FBD0C7
:1035F000A41C2D0C2580FFF7C1FF0028FBD03068EC
:1036000040084000306070BD0C2002401020024095
:10361000142002400420024023016745AB89EFCD0E
:1036200038B5040002F0ECF9050014F1010F02D0E6
:1036300004480078241802F0E3F9401BA042FAD3B2
:1036400031BD00BF11020020DFF850330360DFF806
:103650005003086080201060704780B58EB007A8C6
:10366000DFF840131C2202F0E1F9002107A800F066
:10367000E3F9DFF8341308606846DFF830131C22E2
:1036800002F0D4F90021684600F0D6F9DFF82013E3
:1036900008600FB000BD2DE9FC4102F00BFA1420C8
:1036A00000F0F9F901224FF400715FF09040FEF74D
:1036B00038FC142000F0EFF900224FF400715FF0A5
:1036C0009040FEF72EFCBB4C206821680968096A0F
:1036D0008847B94DDFF8E4824FF4004241462800A4
:1036E000FFF7D7FAB64E4FF4005241463000FFF7CD
:1036F000D0FAB44F4FF4804241463800FFF7C9FA80
:1037000064234FF4FA6201213800FFF7D2FA38003F
:10371000FFF7CCFADFF8B08201224FF48061404617
:10372000FEF7FFFB01224FF400614046FEF7F9FB74
:1037300000F077F900902800FFF730FA3000FFF72B
:103740002DFA3800FFF72AFA20684068401C2168EB
:103750004860206840680A2804D120682168096808
:10376000896A8847DFF86482D8F80000012807D109
:103770000020C8F80000206821680968496A884765
:10378000D8F80000022807D10020C8F800002068FF
:1037900021680968C96A8847D8F8000003280BD156
:1037A0000020C8F800008A4802688A48016820683A
:1037B00023681B68DB699847D8F8000004280AD101
:1037C0000020C8F8000001228248016820682368B0
:1037D0001B68DB6998470121684600F067F9AAE792
:1037E00080B57D4800210091036803220179002003
:1037F00002F08CF902F0D7F902F0E5F95FF08050A1
:1038000076490860BFF34F8FBFF36F8FF4E7002056
:10381000C0B2704738B50500080080B2002800D05B
:10382000491E0024DBB2002B02D0012B28D0B0E0CF
:1038300089B200290FD002290FD00DD3042916D048
:1038400010D3062915D013D3082914D012D30A296E
:1038500013D011D312E012E011E06148FEF749FCE9
:1038600028700CE05E48FEF742FC287007E006E096
:1038700005E004E003E002E001E000E0012489E06B
:1038800089B200290FD002295BD037D304295AD03E
:1038900058D3062966D064D3082965D063D30A2992
:1038A00071D067D373E06878002813D1414D286840
:1038B000296809684969884700280BD12868296860
:1038C0000968C96A8847002128682A681268126B4B
:1038D000904712E0374D2868296809684969884788
:1038E00001280AD1012128682A681268126B9047C2
:1038F000286829680968496A884749E06878002883
:103900000FD12C4D286829680968C96A88470021A9
:10391000286800F021FF286829680968496A8847F3
:103920000EE0244D286829680968C96A8847012182
:10393000286800F011FF286829680968496A8847E3
:1039400026E025E024E00021287851EA002168786B
:103950000143184A89B210681268126812689047C9
:1039600016E015E014E013E01E4B1B4807C8FFF7F4
:10397000D5FD0DE02878697851EA00210A204143FD
:103980001548016004E068781349087100E00124DB
:1039900000E002242000C0B232BD00009068002088
:1039A000B461002090B60008146E0020ACB6000888
:1039B000186E0020306E0020C06C00200008004807
:1039C000F06C0020206D0020000400480C6E0020E8
:1039D000106E0020000000200400002004ED00E034
:1039E000C467002000FC03080120704701207047D5
:1039F000010000200A0012B2842A03D009B2C91CB7
:103A0000091808007047EFF30580002801D0012055
:103A100000E00020C0B2704780B502F00BFB002030
:103A200002BD80B5FFF7EFFF002802D002F0C5FB12
:103A300001E002F0BEFB02BD38B584B004000D0009
:103A40006069002815D0A069002812D0B4F90800D8
:103A5000FFF7CEFFA16902916169019100902B00EF
:103A600022692168606802F051F90390039805B05B
:103A700030BDB4F90800FFF7BBFF03A90191009026
:103A80002B00226992B22168606802F080F9012857
:103A9000ECD00020EBE780B50121B0FBF1F000286D
:103AA00000D1012002F0A0FA002002BD80B5012261
:103AB000B1FBF2F1002900D1012102F043FA00200C
:103AC00002BD000062F30F2262F31F42401810F0A3
:103AD000030308D0C91A1FD3DB0748BF00F8012D24
:103AE00028BF20F8022D130030B4144615461039B3
:103AF00028BF20E93C00FAD8490728BF20E90C007C
:103B000048BF40F8042D890028BF20F8022D48BF87
:103B100000F8012D30BC7047C91818BF00F8012DFE
:103B2000CB0728BF00F8012D704700002DE9F843AE
:103B30000400002C01D1012030E32078C00740F1BF
:103B4000BE80DFF80009016811F00C0104290AD0D9
:103B5000016811F00C01082928D1006810F48030A8
:103B6000B0F5803F22D14FF48040B0FA80F151F09F
:103B70002001C9B24909012903D1DFF8C418096835
:103B800006E0B0FA80F1B0FA80F1DFF8D0180968E9
:103B9000B0FA80F010F01F00C140C80740F18F80DC
:103BA0006068002840F08B800120F7E26068B0F583
:103BB000803F06D1DFF88808016851F48031016048
:103BC00026E0606800280AD1DFF87408016831F443
:103BD00080310160016831F48021016018E0606883
:103BE000B0F5A02F0AD1DFF85808016851F4802100
:103BF0000160016851F48031016009E0DFF840089C
:103C0000016831F480310160016831F48021016084
:103C1000DFF840180A6812091201A06802430A601E
:103C20006068002825D001F0EBFE05004FF48040CD
:103C3000B0FA80F151F02001C9B24909012903D13C
:103C4000DFF8FC17096806E0B0FA80F1B0FA80F1FD
:103C5000DFF808180968B0FA80F010F01F00C140C2
:103C6000C8072CD401F0CCFE401B6528DED303200E
:103C700094E201F0C5FE05004FF48040B0FA80F1F7
:103C800051F02001C9B24909012903D1DFF8B01769
:103C9000096806E0B0FA80F1B0FA80F1DFF8BC17ED
:103CA0000968B0FA80F010F01F00C140C80706D5BF
:103CB00001F0A6FE401B6528DED303206EE22078CB
:103CC00080073CD5DFF87C07016811F00C0F07D0A6
:103CD000016811F00C01082960D10068C0035DD4AF
:103CE0005FF08040B0FA80F151F02001C9B249097B
:103CF000012903D1DFF84817096806E0B0FA80F11E
:103D0000B0FA80F1DFF854170968B0FA80F010F0CB
:103D10001F00C140C80704D52069012801D0012037
:103D20003CE2DFF81C0701685FF0F852B2FA82F259
:103D300031F0F801636913FA02F21143016020784F
:103D4000000740F1C480A069002800F09A8001209B
:103D50005FF00041B1FA81F1DFF8FC2612EB81023D
:103D6000106001F04DFE05005FF08040B0FA80F178
:103D7000B0FA80F1B0FA80F1DFF8E0160968B0FA25
:103D800080F010F01F00C140C80700F1A08001F0D2
:103D900037FE401B0328E7D30320FFE120690028FA
:103DA0003ED001205FF00041B1FA81F1DFF8B0268A
:103DB00012EB8102106001F023FE05005FF08040ED
:103DC000B0FA80F151F02001C9B24909012903D1AB
:103DD000DFF86C16096806E0B0FA80F1B0FA80F1FD
:103DE000DFF878160968B0FA80F010F01F00C140C3
:103DF000C80706D401F004FE401B0328DED30320CD
:103E0000CCE1DFF83C0601685FF0F852B2FA82F2CA
:103E100031F0F801636913FA02F2114301608EE791
:103E200000205FF00041B1FA81F1DFF8342612EB97
:103E30008102106001F0E4FD05005FF08040B0FAFF
:103E400080F151F02001C9B24909012903D1DFF8FD
:103E5000F015096806E0B0FA80F1B0FA80F1DFF8F9
:103E6000FC150968B0FA80F010F01F00C140C807C7
:103E70007FF565AF01F0C4FD401B0328DDD30320AF
:103E80008CE100205FF00041B1FA81F1DFF8C82534
:103E900012EB8102106001F0B3FD05005FF080407D
:103EA000B0FA80F1B0FA80F1B0FA80F1DFF8AC1529
:103EB0000968B0FA80F010F01F00C140C80706D5AD
:103EC00001F09EFD401B0328E8D3032066E1207823
:103ED000400740F1B1800026DFF888552868C0000F
:103EE00009D4286850F080502860286810F080506D
:103EF000009000980126DFF870753868C00511D46D
:103F0000386850F48070386001F07AFD8046386877
:103F1000C00507D401F074FDB0EB08006528F6D3A6
:103F200003203BE1E068012806D1DFF84005016885
:103F300051F00101016025E0E06800280AD1DFF8B6
:103F40002C050168490849000160016831F004014D
:103F5000016017E0E06805280AD1DFF81005016864
:103F600051F004010160016851F00101016009E0B4
:103F7000DFF8F8040168490849000160016831F080
:103F800004010160E068002827D001F039FD070036
:103F90005FF08040B0FA80F1B0FA80F151F040015A
:103FA000C9B24909022903D1DFF8C014096804E045
:103FB000B0FA80F1DFF8A4140968B0FA80F010F0CC
:103FC0001F00C140C80730D401F01AFDC01B41F2E8
:103FD00089318842DCD30320E0E001F011FD0700C5
:103FE0005FF08040B0FA80F1B0FA80F151F040010A
:103FF000C9B24909022903D1DFF87014096804E045
:10400000B0FA80F1DFF854140968B0FA80F010F0CB
:104010001F00C140C80708D501F0F2FCC01B41F2E7
:1040200089318842DCD30320B8E0F6B2012E03D1F7
:10403000286830F080502860E069002800F0AD80EA
:10404000DFF80064306810F00C00082800F093805E
:10405000E069022861D18027DFF804840020B7FAE4
:1040600087F118EB8101086001F0CAFC8146402508
:10407000B5FA85F050F02000C0B24009012803D104
:10408000DFF8BC03006806E0B5FA85F0B5FA85F004
:10409000DFF8C8030068B5FA85F111F01F01C840C8
:1040A000C00707D501F0ACFCB0EB09000328DED354
:1040B000032073E0316831F47411606A0143206AAF
:1040C000014331600120B7FA87F118EB8108C8F885
:1040D000000001F095FC0400B5FA85F050F02000D6
:1040E000C0B24009012803D1DFF85403006806E09C
:1040F000B5FA85F0B5FA85F0DFF860030068B5FA27
:1041000085F111F01F01C840C00746D401F078FCCA
:10411000001B0328E0D3032040E000208021B1FAF7
:1041200081F1DFF83C2312EB8102106001F068FCA2
:1041300004004020B0FA80F151F02001C9B24909D1
:10414000012903D1DFF8F812096806E0B0FA80F11E
:10415000B0FA80F1DFF804130968B0FA80F010F0CB
:104160001F00C140C80718D501F04AFC001B0328F6
:10417000DFD3032012E0E069012801D101200DE026
:10418000306810F48031226A914204D110F470102A
:10419000616A884201D0012000E00020BDE8F2837E
:1041A0002DE9F04104000D000020002C01D1012078
:1041B000D2E0DFF8BC62306810F00700A8420BD2F2
:1041C0003068C008C00028433060306810F0070035
:1041D000A84201D00120BFE02078800707D5DFF892
:1041E00064120A6832F0F002A06802430A60207884
:1041F000C00776D5606801281DD14FF48040B0FA21
:1042000080F151F02001C9B24909012903D1DFF839
:104210003012096806E0B0FA80F1B0FA80F1DFF8F8
:104220003C120968B0FA80F010F01F00C140C807C6
:104230003CD4012090E0606802281BD14020B0FAF5
:1042400080F151F02001C9B24909012902D17C490C
:10425000096806E0B0FA80F1B0FA80F1DFF8FC11ED
:104260000968B0FA80F010F01F00C140C8071DD4E3
:10427000012071E05FF08040B0FA80F151F0200140
:10428000C9B24909012902D16D49096805E0B0FAAE
:1042900080F1B0FA80F171490968B0FA80F010F04D
:1042A0001F00C140C80701D4012055E0654F39689F
:1042B0008908890060680143396001F0A1FB8046EC
:1042C000386810F00C006168B0EB810F09D001F084
:1042D00097FBB0EB080041F289318842F0D303200C
:1042E0003AE0306810F0070085420BD23068C00811
:1042F000C00028433060306810F00700A84201D0A9
:10430000012029E02078400706D54E490A6832F49A
:10431000E062E06802430A602078000707D5494858
:10432000016831F46051226951EAC201016000F074
:1043300015F8444909684F4A11F0F0015FF07063C5
:10434000B3FA83F3D940515CC84040490860404803
:10435000006800F0ABFC0020BDE8F08110B4002044
:1043600000200020002000203648016811F00C00D9
:10437000042802D0082802D021E03F4820E03F482E
:1043800011F470124FF47053B3FA83F3DA40805C87
:10439000304A12683A4B12F00F025FF07044B4FAE0
:1043A00084F4E2409A5CC90306D53349B1FBF2F2CA
:1043B00001001000484301E03249484300E0224830
:1043C00010BC704721480068704780B5FFF7FAFFBE
:1043D0001C4909682C4A11F4E0615FF46003B3FAE8
:1043E00083F3D940515CC84002BD80B5FFF7EAFFB6
:1043F00014490968244A11F460515FF4E013B3FAD8
:1044000083F3D940515CC84002BD0F2202600D4ABF
:10441000136813F003034360136813F0F003836021
:10442000136813F4E063C3601268D20812F4E06208
:1044300002610F48006810F0070008607047000034
:10444000001002400410024000127A009C0000207C
:10445000980000202C1002408004424224100240A8
:10446000000042421C100240007000402010024038
:10447000002002407CB70008001BB7005CB70008B2
:104480006CB7000800093D00D8B700082DE9FC41D1
:1044900004000020002000262068C0037CD5DFF83F
:1044A0001C522868C00009D4286850F08050286049
:1044B000286810F08050009000980126DFF8007204
:1044C0003868C00511D4386850F48070386001F045
:1044D00097FA80463868C00507D401F091FAB0EB2E
:1044E00008006528F6D30320E6E0DFF8D8713868C5
:1044F00010F44070002842D0616811F44071884285
:104500003DD0386830F44070DFF8BC114FF4004201
:104510000123B2FA82FC11EB8C0CCCF800300023A2
:10452000B2FA82F211EB82010B603860C00726D527
:1045300001F066FA80465FF08040B0FA80F1B0FA90
:1045400080F151F04001C9B24909022901D139680D
:1045500004E0B0FA80F1DFF874110968B0FA80F075
:1045600010F01F00C140C80709D401F049FAB0EBB0
:10457000080041F289318842DDD303209CE039688C
:1045800031F44071606801433960F6B2012E03D105
:10459000286830F0805028602078C00707D5DFF801
:1045A00030110A6892089200A06802430A602078DD
:1045B000800707D5DFF818110A6832F44032E06846
:1045C00002430A602078400707D5DFF804110A6823
:1045D00032F44022206902430A602078800607D521
:1045E000DFF8EC100A6832F01002E06902430A605A
:1045F0002068800307D5DFF8DC100A6832F48002F7
:10460000A06B02430A602078400607D5DFF8C0108F
:104610000A6832F02002206A02430A60207800070C
:1046200007D5DFF8AC100A6832F440126069024323
:104630000A602078C00607D5DFF894100A6832F4C3
:104640004002A06902430A602068800507D5DFF8B0
:1046500084100A6832F40002E06A02430A6020789B
:10466000000607D5DFF870100A6832F4F872606A45
:1046700002430A602068C00507D5DFF85C100A68AD
:1046800032F47852A06A02430A602068C00407D559
:10469000DFF83C100A6832F48072206B02430A6033
:1046A0002068800407D5DFF828100A6832F4007209
:1046B000606B02430A600020BDE8F6811C100240D6
:1046C00000700040201002400004424224100240CA
:1046D00030100240041002402C10024003480168D0
:1046E000034A127889180160704700BF606E00208D
:1046F00011020020014648B1B0FA80F18840C91C7F
:10470000C1F58461090501EBD0214005704780B5F2
:1047100000F001F802BD002141600021816000210C
:10472000C160142101616E2181824FF47A71C182CE
:1047300040F6B8310183C821C16101210162002125
:104740004162022181620021C162002101630021D6
:1047500041630121816370478160704738B52DED59
:10476000088BB0EE418AF0EE618AB0EE429AF0EE2C
:10477000629AB0EE43AAF0EE63AAB0EE44BAF0EE4D
:1047800064BA51EC100B53EC182B01F0D7FE040067
:104790000D0051EC1B0B53EC1A2B01F0CFFE220045
:1047A0002B0000F059F904000D0051EC190B53ECEB
:1047B000182B01F0C3FE02000B002000290000F0BE
:1047C00027F853EC1A2B01F02BFF41EC100BBDEC3A
:1047D000088B31BDC1F30A5340F2FE329B1A14DD3F
:1047E000D3F120034FEAE17208DDC90241EA5051DA
:1047F00041F00040D84080185040704703F2E1304B
:1048000010B1D24382F00040704700207047000092
:10481000F0B540F2FF7581EA030C0CF0004C15EA8C
:1048200011541DBF15EA1357AC42AF42E5E0BC413D
:10483000C1F31301C3F31303801A994143F48013A6
:1048400004D2641E4000494180185941C90241EA1E
:104850005051B1FBF3F603FB1611A2FB0675D7EB23
:10486000C020A94102D2761E80185941C90241EAEE
:104870005051B1FBF3FE03FB1E11A2FB0E75D7EBEB
:10488000C020A94103D2AEF1010E8018594189021E
:1048900041EA9051760546EA8E2EB1FBF3F603FB12
:1048A0001611A2FB0675D7EB8020A94102D2761E15
:1048B00080185941C90241EA50514EEA060EB1FB37
:1048C000F3F603FB1611A2FB0675D7EBC020A94136
:1048D00002D2761E80185941C90241EA5051B1FBFB
:1048E000F3F703FB1711A2FB0735D3EBC020A94157
:1048F00067F100070CBF004247F0010766F3D527B8
:104900004FEA1E31B80814F5806412DDBD0775F159
:10491000004250EB0E5051EB045111F5801F5CBF6B
:1049200041EA0C01F0BD4CF07F6141F0E041002014
:10493000F0BDBD076D0840EA0E5041F48011D4F17E
:104940000104B4F120060ADAC4F120060200E040B6
:1049500001FA06F3E1401843B24015430EE0342C4F
:1049600013DCC6F1200445EA40056D0820FA06F282
:10497000154321FA06F0A1400D43002175F10042D4
:1049800050F1000051EB0C01F0BD00205FEA0C017A
:10499000F0BDCFB992185B41B3FA83F704BFB2FA06
:1049A00082F6BF190B3FB7F120062FBF02FA06F3BC
:1049B000BB40C7F1200622FA06F638BF3343BA409F
:1049C0001CB1E419641E33E77F4231F00041B1FAB3
:1049D00081F404BFB0FA80F6A4190B3CB4F12006B0
:1049E0002FBF00FA06F1A140C4F1200620FA06F616
:1049F00038BF3143A0403C1B1AE7AC421ABF05EA5E
:104A00001357AF4212E050EA41061CBF52EA430678
:104A1000BFE750EA4107304661461CBF41EA0551F5
:104A2000F0BD52EA430C08BFC143F0BD00204FF473
:104A3000001616EB410F98BF16EB430F08BF16EB9D
:104A4000410F24BFC14305E016EB430F0CBF614685
:104A50004CEA0551F0BD0000B0B581EA030C0CF042
:104A6000004C40F2FF7515EA11541DBF15EA1357AB
:104A7000AC42AF4239E0E41923EA455343F48013D2
:104A8000C90241F0004141EA505EC7021100A7FB94
:104A9000020200284FF00000EEFB01204FF0000161
:104AA000E3FB072118BF42F00102401800214941F1
:104AB000E3FB0E01A4F580640F0302D252004041D3
:104AC000494154F101046CDD470872F1004250F194
:104AD000000051EB0451A1F580115CBF41EA0C01CB
:104AE000B0BD4CEA05510020B0BD05EA1357AC42F9
:104AF00014BFAF4241E050EA410E1CBF52EA430EE0
:104B000002E061460020B0BD24423C441BD15FEA74
:104B1000070EF6D0090302BF01460020AEF1140EC5
:104B2000B1FA81F7AEEB070401FA07FE0C37C7F1C3
:104B3000200100FA07F7C8404EEA000E23EA455369
:104B400043F48013A2E733F00043B3FA83F704BFC2
:104B5000B2FA82FE77440B3FE41BB7F1200E2FBF61
:104B600002FA0EF3BB40C7F1200E22FA0EFE38BF48
:104B700043EA0E03BA40641C82E750EA410E14BFB8
:104B800052EA430E6FF000014FF4001717EB430F8A
:104B90008ABF194617EB410FB5E74CEA05510020D3
:104BA000B0BDD4F10104B4F120070FDAC4F120073D
:104BB000520828BF42F0010210FA07F501FA07F780
:104BC000E1BF2A43E0403843E1400FE0352C98DC58
:104BD000C7F1200452EA400220FA07F218BF42F05F
:104BE000010231FA07F0A1400A43002172F10042AC
:104BF00050F1000051EB0C01B0BD000001F000428B
:104C00008B1AA3F16051B1F5801F0ADBB1F17F6F00
:104C10001FD242EAC102C10071F1004142EB507063
:104C200070470B15C3F10903212B10D2890241EA09
:104C3000905180020128494141F0004121FA03F0DE
:104C4000C3F12003994071F10041504170471000B9
:104C500070476FF0000013EB103F5CBF000E42EA9C
:104C6000C0507047C0F3C75181B1FF2906D0C110B1
:104C7000400721F0E04101F16051704741020CBF53
:104C800040F4E0016FF000410020704700F0004167
:104C900000020AD0B0FA80FC00FA0CF001F1605179
:104CA000A1EB0C5101EBD0214005704718B587B03E
:104CB00001000020002000223720FDF7A3F9372053
:104CC000FDF7B1F91548016851F020010160006855
:104CD00010F020000090009801A902A8FFF795FBB2
:104CE000FFF773FB40000E49B0FBF1F0401E0D4C86
:104CF0000D49216040F2E731E160606000202061F1
:104D00000020A0602000FBF73FFA002803D120001C
:104D1000FBF777FA00E0012008B010BD1C1002403C
:104D200040420F00846900200014004080B50D4807
:104D3000016851F001010160006810F0010000906D
:104D400000980948016851F080510160006810F036
:104D500080500090009800220F217FF00100FDF7A5
:104D600051F901BD181002401C10024078B595B0F1
:104D700004000025002600200090002C01D1012015
:104D80005AE12069002802D094F820000028206C05
:104D9000C00653D4206C00283DD100206064002060
:104DA000E0640020A064002084F83C002000FEF7AE
:104DB00031F920688068C0002DD4200000F028FC64
:104DC0000500206CC00626D42800C0B2002822D1DD
:104DD000206C30F4885050F0020020642068806815
:104DE00030F04050216888602068806850F0805022
:104DF00021688860DFF844020068DFF84412B0FBE5
:104E0000F1F10A204143009102E00098401E009019
:104E100000980028F9D120688068C00003D5206878
:104E2000806880000AD5206C30F0020050F010003D
:104E30002064606C50F0010060640125206CC006A5
:104E400000F1F1802800C0B2002840F0EC8020681A
:104E50008068400700F1E780206C30F4807050F0EB
:104E6000020020642068B0F1A04F04D02068DFF871
:104E7000D411884202D1DFF8D01101E0DFF8CC1163
:104E80002068B0F1A04F04D1DFF8B801019001987B
:104E90001EE02068DFF8AC21904204D15FF0A04012
:104EA0000190019814E0DFF8A8012268824204D141
:104EB000DFF8A001019001980AE02268DFF8943140
:104EC0009A4202D10190019802E0002001900198DD
:104ED0002068806810F00300012804D12068006871
:104EE00010F0010000E00020002816D101980028F1
:104EF0000DD00198806810F00300012804D10198BA
:104F0000006810F0010000E00020002805D18A6848
:104F100032F44032606802438A60606B012802D03C
:104F20004FF4805100E00021607E51EA4031E0689A
:104F30000143A06801430E4394F82000012813D1D7
:104F4000607E002806D1606A401E400450F4803024
:104F5000064309E0206C30F0020050F0200020648D
:104F6000606C50F001006064A06A012824D02068C1
:104F7000DFF8DC10884204D02068DFF8D8108842BF
:104F800016D1A06AB0F5307F02D14FF4E07110E085
:104F9000A06AB0F5807F02D14FF4307109E0A06AB9
:104FA000B0F5E07F02D14FF4807102E0A16A00E029
:104FB000A16AE06A01430E432068806810F00C0F7C
:104FC0000DD12068C168DFF8900001402068C16001
:104FD000207E94F83010490051EA80310E43206859
:104FE000C168DFF8780001400E432068C660206980
:104FF000012809D12068006B00090001E169491E00
:1050000008432168086305E02068006B000900017F
:105010002168086300206064206C30F0020050F0CA
:105020000100206406E0206C30F0020050F0100017
:10503000206401252800C0B216B070BD9C0000207D
:1050400040420F00000100500003005000070050D4
:105050000004005000050050FDBFFFFF07C0F0FF37
:1050600070B495B002000B00002100200090D868B9
:105070000128FFD192F83C00012801D1022003E26F
:10508000012082F83C0010688068400700F1F2813E
:105090005868052811D206201468246B1F255E6805
:1050A0004643B540AC431D685E6800FB06F015FA48
:1050B00000F020431468206340E058680A2813D2A7
:1050C00006241068456B1F265868401F10FB04F02B
:1050D0008640B5431E685868401F10FB04F08640A8
:1050E00035431068456329E058680F2813D2062419
:1050F0001068856B1F2658680A3810FB04F086403C
:10510000B5431E6858680A3810FB04F086403543E2
:105110001068856312E006241068C56B1F26586866
:105120000F3810FB04F08640B5431E6858680F38EE
:1051300010FB04F0864035431068C5631068806832
:1051400010F00C0F40F0AB8018680A2814D31068D8
:105150008469072518680A38032610FB06F0854085
:10516000AC439D6818680A38032610FB06F085409A
:105170002C43106884610FE01068446907251E689D
:1051800003204643B540AC439D681E680320464358
:10519000B5402C431068446158691468E468C4F34E
:1051A000C104E4B2640010FA04F41869012806D0BE
:1051B0003DD303281FD010D304282AD037E010682D
:1051C000056EDFF840040540186855EA80652C43F9
:1051D00054F000441068046661E01068456EDFF822
:1051E00024040540186855EA80652C4354F00044B7
:1051F0001068446653E01068856EDFF808040540C7
:10520000186855EA80652C4354F0004410688466A1
:1052100045E01068C56EDFF8EC030540186855EAF4
:1052200080652C4354F000441068C46637E0106871
:10523000006E10F0F8401C68B0EB846F05D1106868
:10524000006E20F00040146820661068406E10F078
:10525000F8401C68B0EB846F05D11068406E20F0F8
:105260000040146860661068806E10F0F8401C689A
:10527000B0EB846F05D11068806E20F00040146898
:10528000A0661068C06E10F0F8401C68B0EB846F28
:1052900005D11068C06E20F000401468E066106808
:1052A000806810F00300012804D11068006810F035
:1052B000010000E00020002840F0E180D8680128CB
:1052C0000AD01068D0F8B040012518688540AC437A
:1052D0001068C0F8B04035E01068D0F8B040012543
:1052E000186885402C431068C0F8B04018680A2838
:1052F00014D310688469072518680938032610FB41
:1053000006F08540AC439D6818680938032610FBF9
:1053100006F085402C431068846113E010684469EE
:1053200007251868401C032610FB06F08540AC4397
:105330009D681868401C032610FB06F085402C432E
:10534000106844611068B0F1A04F03D01068504C51
:10535000A04202D1DFF8B04201E0DFF8B0421868A5
:10536000102802D1A06800020CD51868112802D1BB
:10537000A068C00106D51868122840F08080A06897
:1053800040027CD41068B0F1A04F03D14048019096
:1053900001981AE010683E4DA84204D15FF0A04089
:1053A0000190019811E03B481568854203D13A48C5
:1053B0000190019809E01568374EB54202D101907D
:1053C000019802E00020019001981068806810F0B8
:1053D0000300012804D11068006810F0010000E00B
:1053E0000020002840D1019800280DD00198806845
:1053F00010F00300012804D10198006810F00100AA
:1054000000E0002000282FD11868102818D110685B
:10541000B0F1A04F14D1A06850F40000A060DFF8F4
:1054200074020068DFF87032B0FBF3F30A204343E4
:1054300000930098002822D00098401E0090F8E7C2
:105440001868112808D11068B0F1A04F04D1A068E5
:1054500050F08070A06012E0186812280FD1A06888
:1054600050F48000A0600AE0106C50F0200010643E
:10547000012104E0106C50F0200010640121002094
:1054800082F83C000800C0B215B070BC7047000044
:1054900000010050000400500005005030B494B0EA
:1054A00000220B68002B0368B3F1A04F04D1DFF892
:1054B000F4310093009B1EE00368DFF8E841A3424B
:1054C00004D15FF0A0430093009B14E0DFF8CC31DF
:1054D00004689C4204D1DFF8C8310093009B0AE0C5
:1054E0000468DFF8BC51AC4202D10093009B02E09B
:1054F00000230093009B009B002B01D101207DE045
:1055000090F83C30012B01D1022077E0012380F894
:105510003C3003689B685B0766D4009B9B685B0715
:1055200062D40368B3F1A04F04D00368DFF874417C
:10553000A34201D1344C00E0344C0B68002B2ED038
:10554000A56835F460454B681D4390F8303055EA46
:105550004335A56003689B6813F00303012B04D156
:1055600003681B6813F0010300E00023002B40D107
:10557000009B9B6813F00303012B04D1009B1B6865
:1055800013F0010300E00023002B32D1A568464B45
:105590001D400B681D4389680D43A56029E0A16883
:1055A00031F46041A1600168896811F003010129AB
:1055B00004D10168096811F0010100E0002100290F
:1055C00017D10099896811F00301012904D10099CC
:1055D000096811F0010100E00021002909D1A36848
:1055E00031490B40A36004E0016C51F020010164DB
:1055F0000122002180F83C101000C0B214B030BC71
:105600007047000000F0FF830003005000070050C7
:1056100038B5040000202068806810F003000128DD
:1056200004D12068006810F0010000E0002000288C
:105630002ED02068806810F00D0001281ED120684F
:10564000806850F0020021688860032021680860AB
:1056500000F0D6F9050020688068C00718D500F072
:10566000CFF9401B0328F6D3206C50F010002064C3
:10567000606C50F00100606401200AE0206C50F082
:1056800010002064606C50F001006064012000E0B4
:10569000002032BD9C00002040420F00000400505A
:1056A0000005005000010050E0F0FFFF10B50400BD
:1056B000002C01D101200EE02079002804D1002027
:1056C00060712000FDF737FD02202071002020616D
:1056D00001202071002010BD10B504002068006872
:1056E000800416D52068406B800412D504202071F8
:1056F000206950F0010020614FF400502168486398
:105700002068006830F4805021680860200001F0B3
:1057100044F820680068800016D52068406B80003F
:1057200012D504202071206950F0020020615FF042
:105730000050216848632068006830F0805021687C
:105740000860200001F02AF810BD10B400230023E7
:105750004379012B01D102201EE001234371022372
:10576000037103681B6840F6FE749440A3430C6801
:1057700049680C439440234301680B600168096841
:10578000C02313FA02F231EA020201680A60012121
:10579000017100214171002010BC704710B5040058
:1057A000002C01D101207AE0606A002806D16068EF
:1057B000B0F5827F06D00020E06103E00020206188
:1057C000002060610020A06294F85D00002805D1EF
:1057D000002084F85C002000FDF712FD022084F810
:1057E0005D002068006830F0400021680860E068D3
:1057F00040F20171884201D3002001E04FF4805053
:10580000E168B1F5706F05D0E168B1F5E06F01D0E6
:105810000021A162616811F48271A26812F404424D
:105820001143227C12F002021143227D12F0010288
:105830001143A26912F400721143227F12F0380260
:10584000114394F8202012F080021143A26A12F44E
:105850000052114322681160A169090C11F0040182
:1058600094F8242012F01002114394F8342012F01E
:1058700008021143E26812F47062114310F4805080
:105880000843216848602068C06930F400602168DE
:10589000C86100202066012084F85D00002010BD52
:1058A000F8B504000D0016001F00002C01D10120E6
:1058B0003DE0A06F002805D1002084F8740020008E
:1058C000FDF7FBFC2420A06720680068400840002A
:1058D00021680860200001F052F9012801D101205F
:1058E00025E0606A002802D0200001F081FA2068DB
:1058F000806850F48040216888602068806830F4B7
:105900000040054320688560760556EA0746206812
:1059100000686FF31940064320680660206800683D
:1059200050F0010021680860200001F0CEFAF2BDBD
:105930007047000038B504000025002C03D094F80F
:105940002900C00601D5012555E0206A0028DFF8AE
:10595000AC00016851F001010160006810F0010025
:10596000009000982000FDF740FD94F829000028E1
:1059700002D1002084F82800606860600020009058
:10598000206800680090009931F070016068014360
:105990000091009931F08201A068014300910099C3
:1059A00031F44021A06901430091009830F4705017
:1059B000E16811F4705108430090009931F40041FE
:1059C000206901430091009931F44031606901433D
:1059D0000091009931F00C01E069014300910099B8
:1059E00031F40071206A0143009100982168086039
:1059F000012084F829002800C0B232BD18100240EE
:105A000001480068704700BF606E002062B38B07DA
:105A100008D0521E11F8013B00F8013B00F0248031
:105A20008B07F6D1830740F0208000BF103A07D3E0
:105A300030B4B1E83810103AA0E83810F9D230BCD0
:105A4000530724BFB1E80810A0E8081044BF51F87C
:105A5000043B40F8043BD20724BF31F8022B20F866
:105A6000022B44BF0B7803707047121F17D35B00E3
:105A700009D151F8043B20F8023B1B0C121F20F8FF
:105A8000023BF6D20BE051F8043B00F8013B1B0A45
:105A900020F8023B1B0C121F00F8013BF3D238BF69
:105AA000121D521E24BF11F8013B00F8013BF8D82B
:105AB0007047000010B5114C00221149200001F080
:105AC000CBFA002801D0FCF727F80E49200001F09E
:105AD000DBFA002801D0FCF71FF80B49200001F089
