:020000040800F2
:10000000C872002049B8000875B1000877B100082F
:1000100079B100087BB100087DB100080000000044
:10002000000000000000000000000000398E000801
:100030007FB1000800000000E18D0008357F000856
:100040009DB80008A1B80008A5B80008A9B8000824
:10005000ADB80008B1B80008B5B80008B9B80008D4
:10006000BDB80008C1B80008C5B80008C9B8000884
:10007000CDB80008D1B80008D5B80008D9B8000834
:10008000DDB80008E1B80008E5B80008E9B80008E4
:1000900081B10008EDB80008F1B80008F5B8000813
:1000A000F9B80008FDB800088BB1000801B90008D4
:1000B000C9B1000805B9000809B900080DB9000860
:1000C00011B9000815B9000819B900081DB90008D0
:1000D00021B9000825B90008D3B1000829B90008E2
:1000E0002DB9000831B9000835B9000839B9000840
:1000F0003DB9000841B9000845B9000849B90008F0
:100100000000000000000000000000004DB90008E1
:1001100051B9000855B9000823B2000833B20008ED
:1001200059B900085DB9000861B9000865B900084F
:1001300069B900086DB90008000000000000000067
:1001400071B9000875B9000879B90008000000000D
:10015000000000000000000000000000000000009F
:1001600000000000000000007DB9000881B900080F
:1001700085B9000800000000000000000000000039
:100180000000000089B9000810B50400002C01D15E
:10019000012035E094F83D00002805D1002084F8C6
:1001A0003C00200001F0C8FA022084F83D00211D27
:1001B000206800F005FD012084F84800012084F843
:1001C0003E00012084F83F00012084F84000012017
:1001D00084F84100012084F84200012084F84300A3
:1001E000012084F84400012084F84500012084F8AF
:1001F0004600012084F84700012084F83D000020DB
:1002000010BD90F83D10012901D001203DE00221F0
:1002100080F83D100168C96851F001010268D160A1
:100220000168DFF8A420914217D00168B1F1804F36
:1002300013D00168DFF8942091420ED00168DFF8F6
:100240009020914209D00168DFF88820914204D0C3
:100250000168DFF88420914210D101688A68DFF8D4
:100260007C100A40062A0FD0B2F5803F0CD00168FE
:10027000096851F001010068016005E00168096842
:1002800051F0010100680160002070470168C968F1
:10029000490849000268D1600168096A41F21112F7
:1002A00011420BD10168096A40F24442114205D162
:1002B000016809684908490002681160012180F855
:1002C0003D10002070470000002C01400004004059
:1002D00000080040003401400040014007000100D8
:1002E00010B50400002C01D1012035E094F83D0048
:1002F000002805D1002084F83C00200001F03DF9E1
:10030000022084F83D00211D206800F059FC0120E6
:1003100084F84800012084F83E00012084F83F0062
:10032000012084F84000012084F84100012084F875
:100330004200012084F84300012084F84400012099
:1003400084F84500012084F84600012084F8470025
:10035000012084F83D00002010BD10B504000029E4
:1003600002D194F83E0015E0042902D194F83F0030
:1003700010E0082902D194F840000BE00C2902D1CA
:1003800094F8410006E0102902D194F8420001E0FF
:1003900094F84300012801D0012081E0002904D114
:1003A000022084F83E00C0B21FE0042904D10220DC
:1003B00084F83F00C0B218E0082904D1022084F874
:1003C0004000C0B211E00C2904D1022084F84100A1
:1003D000C0B20AE0102904D1022084F84200C0B261
:1003E00003E0022084F84300C0B20122206800F03C
:1003F00063FEDFF8B4102068884212D02068DFF86E
:10040000AC2090420DD02068DFF8A420904208D0A4
:100410002068DFF8A820904203D02068214A90424B
:1004200001D1012000E00020C0B2002805D02068E2
:10043000406C50F40040226850642068884217D015
:100440002068B0F1804F13D02068DFF86810884230
:100450000ED02068DFF86010884209D02068DFF8ED
:100460004C10884204D02068DFF84410884210D134
:1004700020688168DFF84800014006290FD0B1F5F7
:10048000803F0CD02068006850F0010021680860AF
:1004900005E02068006850F0010021680860002035
:1004A00010BD000000480140002C01400034014014
:1004B00000400140000400400008004000440140AA
:1004C0000700010010B50400002902D194F83E0095
:1004D00015E0042902D194F83F0010E0082902D168
:1004E00094F840000BE00C2902D194F8410006E09A
:1004F000102902D194F8420001E094F84300002949
:1005000002D194F844200BE0042902D194F845204C
:1005100006E0082902D194F8462001E094F847202B
:10052000C0B2012802D1D2B2012A01D001209BE041
:10053000002904D1022084F83E00C0B21FE0042943
:1005400004D1022084F83F00C0B218E0082904D189
:10055000022084F84000C0B211E00C2904D102202E
:1005600084F84100C0B20AE0102904D1022084F8C6
:100570004200C0B203E0022084F84300C0B2002968
:1005800004D1022084F84400C0B211E0042904D14F
:10059000022084F84500C0B20AE0082904D10220F4
:1005A00084F84600C0B203E0022084F84700C0B2DD
:1005B0000800002806D004280BD0082810D00C28EA
:1005C00015D01BE02068C06850F002002268D0609F
:1005D00014E02068C06850F004002268D0600DE08C
:1005E0002068C06850F008002268D06006E02068EB
:1005F000C06850F010002268D060FFE70122206838
:1006000000F05AFD20681949884215D02068B0F1E1
:10061000804F11D02068DFF8601088420CD020682D
:10062000DFF85810884207D020681149884203D06B
:1006300020681049884210D120688168DFF81001D5
:10064000014006290FD0B1F5803F0CD0206800682A
:1006500050F001002168086005E02068006850F053
:10066000010021680860002010BD0000002C01403E
:1006700000340140004001400004004000080040F8
:1006800070B504000D00002C01D101205EE094F84B
:100690003D00002805D1002084F83C00200001F036
:1006A0001BF8022084F83D0020688168DFF8B8015B
:1006B000014020688160211D206800F081FA2068D7
:1006C0008168206882692068036A28680143DFF82E
:1006D0009C010240A868AE6950EA06200243DFF898
:1006E00090010240DFF88C010240E868EE6950EAB0
:1006F0000620024328692E6A360356EA0016324362
:1007000033F0220333F0880368686D6950EA0510FE
:1007100003432068816020688261206803620120B1
:1007200084F84800012084F83E00C0B2012084F81B
:100730003F00C0B2012084F84400C0B2012084F818
:100740004500C0B2012084F83D00002070BD0000CB
:100750000700010038B5040094F83E0094F83F20EB
:1007600094F8443094F84550002910D1C0B20128C3
:1007700002D1DBB2012B01D0012073E0022084F80A
:100780003E00C0B2022084F84400C0B230E0042928
:1007900010D1D2B2012A02D1EDB2012D01D0012037
:1007A00060E0022084F83F00C0B2022084F84500D7
:1007B000C0B21DE0C0B2012808D1D2B2012A05D1D1
:1007C000DBB2012B02D1EDB2012D01D0012049E0B5
:1007D000022084F83E00C0B2022084F83F00C0B27C
:1007E000022084F84400C0B2022084F84500C0B260
:1007F000002902D004290CD017E001220021206832
:1008000000F05AFC2068C06850F002002168C860FF
:1008100021E001220421206800F04EFC2068C0681D
:1008200050F004002168C86015E001220021206812
:1008300000F042FC01220421206800F03DFC206809
:10084000C06850F002002168C8602068C06850F09D
:1008500004002168C8602068006850F00100216829
:100860000860002032BD0000F8BFFEFFFCFCFFFF67
:10087000F3F3FFFF0F0FFFFF10B5040020680069BE
:1008800080071AD52068C068800716D57FF002005F
:1008900021680861012020772068806910F0030F2B
:1008A00003D0200001F0F7F805E0200001F035F951
:1008B000200001F033F9002020772068006940070C
:1008C0001AD52068C068400716D57FF0040021685B
:1008D0000861022020772068806910F4407F03D0EF
:1008E000200001F0D8F805E0200001F016F9200002
:1008F00001F014F9002020772068006900071AD55C
:100900002068C068000716D57FF0080021680861DC
:10091000042020772068C06910F0030F03D0200066
:1009200001F0B9F805E0200001F0F7F8200001F02F
:10093000F5F80020207720680069C0061AD52068E5
:10094000C068C00616D57FF0100021680861082035
:1009500020772068C06910F4407F03D0200001F0A8
:100960009AF805E0200001F0D8F8200001F0D6F850
:100970000020207720680069C0070AD52068C06879
:10098000C00706D57FF0010021680861200001F052
:100990008EF82068006900060AD52068C068000645
:1009A00006D57FF0800021680861200001F0B7F8CB
:1009B00020680069C0050AD52068C068000606D511
:1009C0007FF4807021680861200001F0A9F8206898
:1009D000006940060AD52068C068400606D57FF049
:1009E000400021680861200001F09BF82068006940
:1009F00080060AD52068C068800606D57FF02000F2
:100A000021680861200001F08DF810BD38B50400A0
:100A10000D0094F83C00012801D10220A0E0012043
:100A200084F83C00002A0AD0042A1FD0082A35D0B6
:100A30000C2A4AD0102A60D0142A75D08CE02900E4
:100A4000206800F018F92068806950F008002168DB
:100A500088612068806930F004002168886120681E
:100A60008169286901432068816175E02900206857
:100A700000F04FF92068806950F4006021688861B7
:100A80002068806930F4806021688861206880690E
:100A9000296950EA0120216888615DE02900206809
:100AA00000F07BF92068C06950F008002168C86137
:100AB0002068C06930F004002168C8612068C169FD
:100AC000286901432068C16146E02900206800F0E0
:100AD000A4F92068C06950F400602168C8612068EA
:100AE000C06930F480602168C8612068C0692969E4
:100AF00050EA01202168C8612EE02900206800F03A
:100B0000BBF92068406D50F00800216848652068F6
:100B1000406D30F00400216848652068416D286907
:100B200001432068416517E02900206800F0D0F9F2
:100B30002068406D50F40060216848652068406D71
:100B400030F48060216848652068406D296950EA6A
:100B5000012021684865FFE7002084F83C00002060
:100B600032BD10B5040094F83C00012801D10220E8
:100B700025E0012084F83C00022084F83D0020009C
:100B800000F0D3F9002807D0012084F83D000020B0
:100B900084F83C00012012E02068C06830F040007A
:100BA0002168C8602068C06830F480402168C8604F
:100BB000012084F83D00002084F83C00002010BD96
:100BC00010B40468DFF8683498420ED0B0F1804F5A
:100BD0000BD0DFF86024904207D0DFF85C2490420D
:100BE00003D0DFF85824904203D134F070044A68EF
:100BF000144398421AD0B0F1804F17D0DFF8342454
:100C0000904213D0DFF8302490420FD0DFF82C242C
:100C100090420BD0DFF82824904207D0DFF824243C
:100C2000904203D0DFF82024904203D134F4407482
:100C3000CA68144334F080044A69144304608A6823
:100C4000C2620A68826298420FD0DFF8F0239042B5
:100C50000BD0DFF8EC23904207D0DFF8E823904276
:100C600003D0DFF8E423904201D109690163012137
:100C7000416110BC704770B4026A520852000262AF
:100C8000056A43688469DFF8C4231440A408A400FB
:100C90000A68144335F002058A681543DFF890634B
:100CA000B0420FD0DFF8942390420BD0DFF89023AE
:100CB000904207D0DFF88C23904203D0DFF88823DE
:100CC000904205D135F00805CA68154335F0040592
:100CD000B0420FD0DFF8642390420BD0DFF86023DE
:100CE000904207D0DFF85C23904203D0DFF858230E
:100CF000904207D133F4807333F400734A6913438D
:100D00008A6913434360846149684163056270BC2A
:100D1000704770B4026A32F010020262056A4368DA
:100D20008469DFF82C23144034F440740A6854EAD0
:100D3000022435F020058A6855EA0215DFF8F02212
:100D4000904203D0DFF8F462B04206D135F080055E
:100D5000CE6855EA061535F0400590420CD0DFF814
:100D6000DC22904208D0B64A904205D0B54A904263
:100D700002D0B54A904209D133F4806333F4006362
:100D80004A6953EA82038A6953EA820343608461B1
:100D900049688163056270BC704770B4026A32F4BE
:100DA00080720262056A4368C469A84A1440A408B4
:100DB000A4000A68144335F400758A6855EA0225D0
:100DC0009B4A904202D09D4EB04206D135F4006558
:100DD000CE6855EA062535F4806590420BD0974AD7
:100DE000904208D0964A904205D0964A904202D04E
:100DF000954A904209D133F4805333F400534A6941
:100E000053EA02138A6953EA02134360C4614968D2
:100E1000C163056270BC7047000030B4026A32F4EE
:100E200080520262036A4568C469894A144034F4F6
:100E300040740A6854EA022433F400538A6853EA7F
:100E400002337B4A90420BD07C4A904208D07C4AC5
:100E5000904205D07B4A904202D07B4A904204D116
:100E600035F480454A6955EA82154560C461496890
:100E70000164036230BC704730B4026A32F48032DD
:100E80000262036A4568446D704A14400A6814435C
:100E900033F400338A6853EA0243654A90420BD028
:100EA000664A904208D0664A904205D0654A904210
:100EB00002D0654A904204D135F480354A6955EA3A
:100EC00002254560446549688165036230BC70470E
:100ED00030B4026A32F480120262036A4568446DDB
:100EE0005B4A14400A6854EA022433F400138A6807
:100EF00053EA02534E4A90420BD0504A904208D0D7
:100F00004F4A904205D04F4A904202D04E4A9042FA
:100F100004D135F480254A6955EA82254560446547
:100F20004968C165036230BC704710B502689368B8
:100F300033F070034A681343464A13400A68134368
:100F4000026893604A68002A39D0102A37D0202AD4
:100F500035D0302A33D0402A0CD0502A23D0602AF2
:100F600027D0702A2CD10B698A68C968006800F004
:100F700098F825E00A68052A01D1012021E00268DD
:100F8000136A0268126A52085200046822620268F8
:100F9000926932F0F002096952EA011201688A612D
:100FA000006803620CE00A698968006800F054F880
:100FB00006E00A698968006800F060F800E0FFE771
:100FC000002010BD70B4046A64086400046285697E
:100FD000066A174CA0420ED0B0F1804F0BD0154CD2
:100FE000A04208D0144CA04205D0144CA04202D01C
:100FF000134CA04201D1012400E00024E4B2002CF3
:1010000003D0AD08AD002A4302E02A0052F00102ED
:1010100032F0F0021B0113F0F0031A4336F00A0617
:1010200011F00A0131438261016270BC7047000017
:10103000002C014000040040000800400034014042
:101040000040014000440140004801408FFFFEFF86
:10105000FF8FFFFEF8FFFEFF10B4046A036A5B080F
:101060005B000362836933F0F00353EA021334F048
:101070000A0421438361016210BC704710B4036A03
:1010800033F0100303628369046A33F4704353EA54
:10109000023334F0A00454EA01148361046210BCEA
:1010A000704710B4846834F47F44114351EA03213B
:1010B0002143816010BC704710B4012411F01F035C
:1010C00014FA03F3046A34EA03030362036A11F0B7
:1010D0001F0112FA01F11943016210BC704730B4CC
:1010E000002513E050F8042BD30744BFA9F10103F6
:1010F0009A18091F042942F8045BFAD213468C0798
:1011000044BF15809B1CC90748BF1D7050F8041BC5
:101110000029E7D130BC704718B595B00C220021EA
:10112000684600F000FD1C22002103A800F0FBFC33
:101130002C2200210AA800F0F6FCDFF86447DFF853
:1011400064072060092060600020A0604FF4B47044
:10115000E06000202061002060610020A06120008C
:10116000FFF7BEF8002801D000F0D6FC4020009028
:1011700000200190002002906946200000F062FDEE
:10118000002801D000F0C8FC6020039000200490EB
:101190000020059000200690002007900020089075
:1011A00000200990002203A92000FFF72FFC00284F
:1011B00001D000F0B1FC042203A92000FFF726FCB7
:1011C000002801D000F0A8FC082203A92000FFF7A6
:1011D0001DFC002801D000F09FFC0C2203A9200078
:1011E000FFF714FC002801D000F096FC00200A90C4
:1011F00000200B9000200C9000200D9000200E90FD
:101200004FF400500F9000201090002011905FF0DC
:101210000070129000201390002014900AA9200062
:1012200000F059FD002801D000F076FC200000F00D
:10123000F1FA16B010BD18B587B01022002103A82E
:1012400000F071FC0C220021684600F06CFCDFF815
:1012500058465FF08040206040F60F6060600020DC
:10126000A06044F62060E060002020618020A06142
:10127000002003900020049000200590002006909C
:1012800003A9200000F05AFC002801D000F044FC23
:1012900050200090002002906946200000F0D2FC0F
:1012A000002801D000F038FC08B010BD10B58CB09B
:1012B0002422002103A800F036FC0C2200216846FD
:1012C00000F031FCDFF8E445DFF8E40520600020A1
:1012D00060600020A0600020E0600020206100200D
:1012E000A0610120039000200490012005900020BF
:1012F000069000200790002008900120099000200F
:101300000A9000200B9003A92000FFF7B9F90028EC
:1013100001D000F001FC00200090002002906946FE
:10132000200000F08FFC002801D000F0F5FB0CB08D
:1013300010BD10B588B01422002103A800F0F3FB03
:101340000C220021684600F0EEFBDFF86845DFF86C
:1013500068052060012060600020A0600020E0603F
:10136000002020610020A0612000FEF70DFF002872
:1013700001D000F0D1FB072003900020049003A9C6
:101380002000FFF7EEFB002801D000F0C5FB002095
:101390000090002002906946200000F053FC0028D5
:1013A00001D000F0B9FB08B010BD1FB50C22002120
:1013B000684600F0B8FBDFF80445DFF8040520605C
:1013C000472060600020A0600020E0600020A06155
:1013D0002000FEF7D9FE002801D000F09DFB002080
:1013E0000090002002906946200000F02BFC0028AD
:1013F00001D000F091FB1FBD18B595B00C22002163
:10140000684600F090FB1C22002103A800F08BFB33
:101410002C2200210AA800F086FBDFF8A844DFF8A0
:10142000A8042060092060600020A0604FF4B47020
:10143000E06000202061002060610020A0612000A9
:10144000FEF74EFF002801D000F066FB0020009060
:1014500000200190002002906946200000F0F2FB7D
:10146000002801D000F058FB602003900020049079
:101470000020059000200690002007900020089092
:1014800000200990002203A92000FFF7BFFA0028DE
:1014900001D000F041FB042203A92000FFF7B6FAB7
:1014A000002801D000F038FB082203A92000FFF734
:1014B000ADFA002801D000F02FFB0C2203A9200078
:1014C000FFF7A4FA002801D000F026FB00200A90C4
:1014D00000200B9000200C9000200D9000200E901A
:1014E0004FF400500F9000201090002011905FF0FA
:1014F0000070129000201390002014900AA9200080
:1015000000F0E9FB002801D000F006FB200000F00D
:1015100081F916B010BD80B5DFF8B003DFF8B01365
:10152000016000214160002181600021C160002133
:1015300001610021416100218161FEF725FE002843
:1015400001D000F0E9FA01BD80B5DFF88803DFF8CB
:101550008813016000214160002181600021C16089
:10156000002101610021416100218161FEF70CFE33
:10157000002801D000F0D0FA01BD10B586B00400FB
:1015800014220021684600F0CEFA2068DFF8141318
:1015900088422DD1DFF84403016851F400610160F5
:1015A000006810F4006005900598DFF834030168C6
:1015B00051F400310160006810F400300590059886
:1015C0004020009002200190002002900020039013
:1015D0000620049069465FF0904000F0CFFB0022A7
:1015E00005211A2000F00EFD1A2000F01CFD38E045
:1015F0002068DFF8D412884233D1DFF8E0020168B6
:1016000051F400510160006810F4005005900598F5
:10161000DFF8CC02016851F480210160006810F409
:101620008020059005984020009002200190002025
:101630000290002003900A200490DFF8A842694637
:10164000200000F09BFB80200090022001900020F1
:10165000029000200390052004906946200000F0CD
:101660008DFB06B010BD10B586B004001422002119
:1016700001A800F058FA2068B0F1804F2AD1DFF8B5
:101680006802016851F001010160006810F001007A
:10169000009000989248016851F480110160006840
:1016A00010F4801000900098982001900220029081
:1016B00000200390002004900220059001A98B488F
:1016C00000F05CFB002205211C2000F09BFC1C208C
:1016D00000F0A9FC06B010BD10B586B004001422BD
:1016E000002101A800F01FFA20687149884221D129
:1016F0007D48016851F002010160006810F00200AD
:10170000009000987648016851F4802101600068DB
:1017100010F4802000900098302001900220029068
:1017200000200390002004900220059001A96D483C
:1017300000F024FB06B010BD10B586B004001422E2
:10174000002101A800F0EFF920685B4988420AD126
:101750006548016851F004010160006810F0040060
:101760000090009854E020685549884212D15E48A4
:10177000016851F010010160006810F01000009045
:10178000009800220521362000F03CFC362000F0B5
:101790004AFC3DE020684E4988420AD14F48016822
:1017A00051F400310160006810F40030009000989E
:1017B0002EE02068484988422AD14848016851F4FF
:1017C00080210160006810F4802000900098444857
:1017D000016851F400310160006810F4003000909D
:1017E00000988020019002200290002003900020A9
:1017F00004900120059001A95FF0904000F0BEFA2E
:10180000002205211A2000F0FDFB1A2000F00BFC3D
:1018100006B010BD10B586B0040014220021684641
:1018200000F081F920681F49884219D12C480168CD
:1018300051F400110160006810F400100590059843
:101840004FF4D4400090022001900020029000202C
:101850000390022004906946254800F08FFA1CE0AE
:1018600020681949884218D11D48016851F40021A7
:101870000160006810F40020059005984FF4707026
:10188000009002200190002002900020039004208C
:1018900004906946174800F071FA06B010BD0000C8
:1018A000E0690020002C01402C6A0020786A0020AA
:1018B00000040040C46A002000080040106B0020B3
:1018C000001000405C6B002000340140A86B002039
:1018D00000440140F46B0020004801401810024011
:1018E00014100240000400481C100240000C004884
:1018F000001000480008004880B576480090764BFC
:10190000764A7749774801F046F9774801F011FAAD
:10191000764801F00EFA764801F00BFA01BD7548E1
:10192000016851F0807101607348016851F0010154
:101930000160704738B501F013FA00F059F801F072
:1019400021FA01F00DFB01F05EFB01F009FC01F052
:101950006BFCFFF7E1FBFFF76EFCFFF7A7FCFFF75F
:101960004BFD01F0C5FC01F025FD01F040FD01F04B
:101970005BFDFFF7DEFCFFF718FDFFF7CCFDFFF77F
:10198000E3FDFFF7CCFF012204215C4800F0C9FA17
:101990005B4C5C4D2900200001F019FE20680028F6
:1019A00001D1012000E00020216811F1010F01D1D7
:1019B000012100E00021C0B2C9B2084300280BD0C9
:1019C0005FF4E13020600D2020710020A0602B002A
:1019D00094E8070001F0DEFD42484B4908604FF4EF
:1019E000FA7001F059FE01F074FE02F069F8FEE7AA
:1019F00010B59EB02821002205AC200002F0B6F8F8
:101A0000142100226C46200002F0B0F83C21002294
:101A10000FAC200002F0AAF8012005905FF480309E
:101A20000690002107910121099102210C910D904E
:101A30005FF480100E9005A802F0CCF8002801D0C9
:101A400000F06AF80F200090022001900020029020
:101A50004FF480600390002004900221684602F059
:101A6000F3FB002801D000F057F828480F90002021
:101A700012904FF48070189000201D9000201B9051
:101A800000201C900FA802F055FD002801D000F0A6
:101A900043F81EB010BD80B50068B0F1804F05D18D
:101AA0001949086809680968896B884701BD10B53C
:101AB000040020681649884205D11349086809685E
:101AC0000968096C884720681249884201D102F0F0
:101AD00059FE10BD786A00202C6A0020E0690020C1
:101AE0005C6B0020C4670020D06C0020006D0020DB
:101AF000306D0020FCED00E0001000E00010004818
:101B00000400002000FC0308406E00208230020028
:101B10000010004000140040704770477047704745
:101B200070477047704710B5044610460A46014694
:101B3000204602F01BF8204610BD000030B587B0EB
:101B400004000D00002C01D1012076E094F83D0046
:101B5000002805D1002084F83C002000FFF783FD19
:101B6000022084F83D00211D2068FFF729F8AB68AA
:101B7000032229682068FFF725FA2068806930F081
:101B80000C002168886120688169686801432068C9
:101B900081612068406850F08000216848602068BA
:101BA000806830F07000216888602068806850F09C
:101BB00040002168886020688168DFF88400014067
:101BC000206881602068806850F004002168886087
:101BD00000200490002005907020009000200690C6
:101BE0000020039000200290E86801906946206878
:101BF000FFF78FF82068406830F070002168486077
:101C00002068406850F0500021684860012084F846
:101C10004800012084F83E00C0B2012084F83F0053
:101C2000C0B2012084F84400C0B2012084F845000D
:101C3000C0B2012084F83D00002007B030BD000094
:101C4000F8FFFEFF70B490F83C20012A01D1022079
:101C50003FE0012280F83C20022280F83D2002680B
:101C6000546802689368404D0268AA4203D0026833
:101C7000404EB24203D134F470044A68144334F045
:101C800070040A681443026854600268AA4213D0C0
:101C90000268B2F1804F0FD00268344CA2420BD0E0
:101CA0000268334CA24207D00268324CA24203D0F1
:101CB0000268314CA24205D133F0800389680B439E
:101CC00001688B60012180F83D10002180F83C10F4
:101CD000002070BC704710B4002390F83C20012A0B
:101CE00001D102203EE0012280F83C201B0A1B02A9
:101CF000CA68134333F440738A68134333F4806330
:101D00004A68134333F400630A68134333F480537F
:101D10000A69134333F400534A69134333F480438D
:101D20008A6A134333F470238A6953EA02430268D0
:101D30000D4CA24203D002680E4CA2420CD133F4E7
:101D400070034A6A53EA025333F08073CA6913433B
:101D500033F00073096A0B4301684B64002180F87B
:101D60003C10002010BC7047002C014000040040D3
:101D7000000800400034014000400140F8B4020077
:101D8000002433E0052704E0DFF8A8319A42F9D1B6
:101D9000042714F00303DBB29B009F403E43230063
:101DA0009B0845F82360DFF890512B6883434E6809
:101DB000F60300D503432B60604D2B6883434E68C8
:101DC000B60300D503432B605D4D2B6883434E68FB
:101DD000F60200D503432B605A4D2B6883434E68AF
:101DE000B60201D5184303002B60641C0868E0406C
:101DF000002800F094800125086815FA04F31840C3
:101E00000028F2D04B68012B08D04B68022B05D07C
:101E10004B68112B02D04B68122B16D19668032702
:101E20002300DBB25B009F40BE43CF682300DBB2E0
:101E30005B009F403E4396605368A540AB434D68AE
:101E4000C5F30015A5402B435360D6680325230036
:101E5000DBB25B0015FA03F39E438F682300DBB20D
:101E60005B009F403E43D6604B68022B02D04B681C
:101E7000122B17D12300DB0802EB83031E6A0F2706
:101E800014F00703DBB29B009F40BE430F6914F0C0
:101E90000703DBB29B009F403E432300DB0802EBBD
:101EA00083031E6216682300DBB25B009D40AE43D5
:101EB0000D7915F003052300DBB25B009D402E4336
:101EC00016604B68DB0090D51F4B1D6855F001056F
:101ED0001D601B6813F001030093009B1B4D230042
:101EE0009B0855F823600F2714F00303DBB29B0017
:101EF0009F40BE43B2F1904F01D1002749E7144BF8
:101F00009A4201D1012744E7124B9A4201D102279C
:101F10003FE7114B9A427FF437AF032739E7F1BC13
:101F20007047D2B2002A02D089B2816101E089B241
:101F30008162704700100048000401400404014021
:101F4000080401400C040140181002400800014040
:101F50000004004800080048000C004810F007008A
:101F6000334B1A684FF6FF010A40324951EA00210B
:101F70000A431A6070472E480068C0F30220704779
:101F8000010049B2002908D4012210F01F018A4043
:101F9000294940B2400941F820207047020052B25E
:101FA000002A04D40901254A40B2115407E009016E
:101FB000234A40B210F00F00104400F8041C704790
:101FC00010B410F00700D0F10703052B01D3042350
:101FD00001E0D0F10703041D072C01D2002000E02E
:101FE000C01E012414FA03F35B1E1940814014FA49
:101FF00000F0401E1040084310BC704780B5FFF74A
:10200000ADFF01BD70B504000D0016000020FFF704
:10201000B2FF32002900FFF7D3FF0100200040B2D9
:10202000FFF7BCFF70BD80B540B2FFF7A9FF01BD4F
:102030000CED00E00000FA0500E100E000E400E043
:1020400018ED00E038B52DED088B05000C002000E0
:1020500080B240F2E931884201DB4FF47A7420000B
:1020600080B2E865286D02F099FB41EC140BB0EEEC
:10207000448AF0EE648A686D02F090FB41EC130B29
:10208000B0EE484AF0EE684A9FED872B9FED881B23
:10209000B0EE418AF0EE618AB0EE429AF0EE629ABA
:1020A000B0EE43AAF0EE63AAB0EE44BAF0EE64BA22
:1020B000A4B2200002F072FB41EC100BB0EE4B4AD0
:1020C000F0EE6B4AB0EE4A3AF0EE6A3AB0EE492AC8
:1020D000F0EE692AB0EE481AF0EE681A280002F015
:1020E00091FB51EC100B02F0C9FBA5F85800BDECB8
:1020F000088B31BD80687047006A704738B50400AE
:1021000000202062B4F85850206DA4F85800200038
:102110002168896B884700280CD0200000F04BF91B
:1021200020002168896B8847002803D0200021689F
:10213000C96A8847A4F8585031BD0021826E1268E0
:10214000D1630021826E126851630021C26E126851
:10215000D1630121016200218164704780B501686B
:10216000C96A884701BD80B5C9B2002906D00122DD
:102170000121DFF87C0AFFF7D4FE05E000220121EF
:10218000DFF86C0AFFF7CDFE01BD704710B5040003
:102190000120A06302F06AF9DFF8581AB0FBF1F0F1
:1021A000401EA16E0968886202F060F9DFF8441AE7
:1021B000B0FBF1F0401EE16E096888620021A06E5C
:1021C000FEF7CBF80421A06EFEF7C7F80821A06E39
:1021D000FEF7C3F80C21A06EFEF7BFF80021E06EF9
:1021E000FEF7BBF80421E06EFEF7B7F80821E06EB9
:1021F000FEF7B3F80C21E06EFEF7AFF8E06E006872
:10220000C06A401C2065E06E0068C06A401C642102
:10221000B0FBF1F10A2041436165C821200022682A
:102220001268904702F022F9216F0968896A491CF7
:10223000B0FBF1F002F0B2FA02000B000020DFF870
:10224000B81902F039FB00225FF0804302F058FC1D
:1022500002F028FDE0640021606FFEF77BFA0421A4
:10226000606FFEF777FA0021206FFEF72BF900224E
:102270004FF48061DFF87809FFF753FEDFF87C49FF
:1022800000224FF480612000FFF74BFE0022102156
:10229000DFF86C09FFF745FE01224FF400412000F2
:1022A000FFF73FFE10BD00000000000000408F401F
:1022B000000000000000F03F70B50500DFF8446941
:1022C00000203060002068620024DFF83C090168CB
:1022D000090604D5696A51F00101696203E0696A7F
:1022E0004908490069620168C90604D5696A51F064
:1022F0000201696203E0696A31F002016962006803
:10230000000704D5686A50F00400686203E0686A58
:1023100030F004006862286A002840D1A86B0028C9
:1023200003D002280BD005D30EE0280000F059F8A6
:10233000040009E0280000F085F9040004E028000A
:1023400000F0E5FA0400FFE700206860686C0628EA
:102350001CD195ED100AB8EEC00AD5ED130A20EE97
:10236000200A10EE100A02F0D1FC02000B0000203F
:10237000DFF8841802F0A0FA02F080FA3C2148430A
:10238000A864002068640020286408E0686C401C91
:102390006864296C286F0068406B411829643068B4
:1023A000DFF868180860002C01D0012000E0002050
:1023B000C0B270BD704738B50400012084F83C00FD
:1023C00001206062002506E0200000F03BF9606A11
:1023D000401C60626D1C062DF6DB002084F83C007A
:1023E00031BD00218268002A03D0012A00F09580C7
:1023F00026E1426A012A20D0C0F08D80032A32D023
:1024000047D3052A03D070D3062A58D083E0002290
:10241000C36E1B68DA63026D836E1B681A64002248
:10242000836E1B689A63B0F85820836E1B68DA636A
:10243000026D806E006842636EE00022836E1B684E
:102440005A63026D836E1B681A640022C36E1B6898
:102450001A64B0F85820836E1B68DA63026DC06E90
:102460000068C26358E00022836E1B68DA63026D65
:10247000836E1B689A630022C36E1B681A64B0F8EF
:102480005820836E1B685A63026DC06E0068C26379
:1024900042E00022C36E1B68DA630022836E1B6871
:1024A0001A64026D836E1B689A63026D836E1B68EB
:1024B000DA63B0F85820806E006842632CE0002296
:1024C000836E1B685A630022836E1B681A64026D58
:1024D000C36E1B681A64026D836E1B68DA63B0F802
:1024E0005820C06E0068C26316E00022836E1B682D
:1024F000DA630022836E1B689A63026DC36E1B68E9
:102500001A64026D836E1B685A63B0F85820C06E5F
:102510000068C26300E0012192E0426A012A20D0F3
:10252000C0F08D80032A32D047D3052A03D070D360
:10253000062A58D083E00022C36E1B68DA630022AB
:10254000836E1B681A64026D836E1B689A63026D4A
:10255000836E1B68DA63B0F85820806E00684263AF
:102560006EE00022836E1B685A630022836E1B6834
:102570001A64026DC36E1B681A64026D836E1B6859
:10258000DA63B0F85820C06E0068C26358E00022D9
:10259000836E1B68DA630022836E1B689A63026D88
:1025A000C36E1B681A64026D836E1B685A63B0F8B1
:1025B0005820C06E0068C26342E00022C36E1B68F0
:1025C000DA63026D836E1B681A640022836E1B68D7
:1025D0009A63B0F85820836E1B68DA63026D806ED0
:1025E000006842632CE00022836E1B685A63026D10
:1025F000836E1B681A640022C36E1B681A64B0F8ED
:102600005820836E1B68DA63026DC06E0068C26377
:1026100016E00022836E1B68DA63026D836E1B680E
:102620009A630022C36E1B681A64B0F85820836E48
:102630001B685A63026DC06E0068C26300E001212E
:102640000800704738B504000025A068002803D0B2
:10265000012800F0AE8058E1606A012825D0C0F062
:10266000A68003283BD054D3052804D0C0F0858031
:10267000062868D09BE00020E16E0968C863162137
:10268000200000F081FA206DA16E09680864002026
:10269000A16E09688863B4F85800A16E09684863A0
:1026A000206DA16E0968C86382E00020A16E0968F0
:1026B00048631621200000F067FA206DA16E0968BA
:1026C00008640020E16E09680864B4F85800E16EFF
:1026D0000968C863206DA16E0968C86368E00020BE
:1026E000A16E0968C8631621200000F04DFA206D24
:1026F000A16E096888630020E16E09680864B4F877
:102700005800E16E0968C863206DA16E09684863CE
:102710004EE00020E16E0968C8631621200000F039
:1027200033FA0020A16E09680864206DA16E096863
:102730008863206DA16E09684863B4F85800A16EE3
:102740000968C86334E00020A16E09684863162157
:10275000200000F019FA0020A16E09680864206DBD
:10276000E16E09680864206DE16E0968C863B4F819
:102770005800A16E0968C8631AE00020A16E0968BC
:10278000C8631621200000F0FFF90020A16E09683F
:102790008863206DE16E09680864206DE16E096848
:1027A000C863B4F85800A16E0968486300E00125C9
:1027B000ABE0606A012825D0C0F0A68003283BD09A
:1027C00054D3052804D0C0F08580062868D09BE04B
:1027D0000020E16E0968C8631621200000F0D4F9DA
:1027E0000020A16E09680864206DA16E09688863E5
:1027F000206DA16E09684863B4F85800A16E09689D
:10280000C86382E00020A16E096848631621200099
:1028100000F0BAF90020A16E09680864206DE16E2D
:1028200009680864206DE16E0968C863B4F858004F
:10283000A16E0968C86368E00020A16E0968C863DA
:102840001621200000F0A0F90020A16E096888631D
:10285000206DE16E09680864206DE16E0968C86347
:10286000B4F85800A16E096848634EE00020E16E9C
:102870000968C8631621200000F086F9206DA16E5A
:10288000096808640020A16E09688863B4F85800DC
:10289000A16E09684863206DA16E0968C86334E0C1
:1028A0000020A16E096848631621200000F06CF931
:1028B000206DA16E096808640020E16E0968086453
:1028C000B4F85800E16E0968C863206DA16E09680C
:1028D000C8631AE00020A16E0968C86316212000B1
:1028E00000F052F9206DA16E096888630020E16E46
:1028F00009680864B4F85800E16E0968C863206D7F
:10290000A16E0968486300E00125280032BD00215E
:102910008268002A03D0012A00F09B8032E1426ADB
:10292000012A21D0C0F09380032A34D04AD3052A4B
:1029300003D075D3062A5CD089E00022C36E1B68E1
:10294000DA63026D836E1B681A640022836E1B6853
:102950009A63B0F85820836E1B68DA63B0F8582089
:10296000806E0068426373E00022836E1B685A63C6
:10297000026D836E1B681A640022C36E1B681A64A2
:10298000B0F85820836E1B68DA63B0F85820C06E28
:102990000068C2635CE00022836E1B68DA63026D2C
:1029A000836E1B689A630022C36E1B681A64B0F8BA
:1029B0005820836E1B685A63B0F85820C06E0068B8
:1029C000C26345E00022C36E1B68DA630022836E97
:1029D0001B681A64026D836E1B689A63B0F85820F6
:1029E000836E1B68DA63B0F85820806E006842631B
:1029F0002EE00022836E1B685A630022836E1B68E0
:102A00001A64026DC36E1B681A64B0F85820836E96
:102A10001B68DA63B0F85820C06E0068C26317E024
:102A20000022836E1B68DA630022836E1B689A6340
:102A3000026DC36E1B681A64B0F85820836E1B6861
:102A40005A63B0F85820C06E0068C26300E00121EC
:102A500098E0426A012A21D0C0F09380032A34D042
:102A60004AD3052A03D075D3062A5CD089E0002218
:102A7000C36E1B68DA630022836E1B681A64026DE2
:102A8000836E1B689A63B0F85820836E1B68DA6304
:102A9000B0F85820806E0068426373E00022836EB5
:102AA0001B685A630022836E1B681A64026DC36E32
:102AB0001B681A64B0F85820836E1B68DA63B0F89C
:102AC0005820C06E0068C2635CE00022836E1B6801
:102AD000DA630022836E1B689A63026DC36E1B6803
:102AE0001A64B0F85820836E1B685A63B0F85820F7
:102AF000C06E0068C26345E00022C36E1B68DA63E3
:102B0000026D836E1B681A640022836E1B689A63D1
:102B1000B0F85820836E1B68DA63B0F85820806ED6
:102B2000006842632EE00022836E1B685A63026DC8
:102B3000836E1B681A640022C36E1B681A64B0F8A7
:102B40005820836E1B68DA63B0F85820C06E0068A6
:102B5000C26317E00022836E1B68DA63026D836E26
:102B60001B689A630022C36E1B681A64B0F8582071
:102B7000836E1B685A63B0F85820C06E0068C26349
:102B800000E0012108007047002001E000BF401C68
:102B90008842FBD370472DE9F04104000D00160078
:102BA0001F00DDF81880200001F005FE18482060A5
:102BB000002084F83C000020206400206064002095
:102BC000A0640020E0640020206500206065D7201C
:102BD000A4F858000020E065002020660020606610
:102BE000A566E6662767C4F874802000BDE8F0811A
:102BF000000C0048C06552000000F03F0010004883
:102C000000080048041000E0100C00483C6E002052
:102C1000F4B5000810B50400606A00286BD1E069C3
:102C2000002827D0022830D064D220696168884209
:102C30001CD1206A00280DD10122A18DA06AFFF7C6
:102C400070F96169A069091A2161002060600120A2
:102C500020620EE00022A18DA06AFFF762F9A06950
:102C60002061002060600020206202E06068401C5B
:102C700060603FE0206A012806D10022A18DA06A91
:102C8000FFF74FF90020206234E020696168884234
:102C90002CD1206A00281DD10122A18DA06AFFF746
:102CA00040F96169A069091A216100206060012072
:102CB0002062A068E168884208D10120606200209B
:102CC000E0610020A0600020E06012E0A068401CED
:102CD000A0600EE00022A18DA06AFFF722F9A06992
:102CE0002061002060600020206202E06068401CDB
:102CF0006060FFE708E00122A18DA06AFFF711F9EB
:102D0000002060600120206210BD10B504000800A2
:102D10001100A062A185012289B2FFF702F901200A
:102D2000206010BD002141627047C1614261836132
:102D30007047002101600021416000218160002175
:102D4000C160002101614FF47A71416164218161A8
:102D50000121C1610121016201214162704700002E
:102D600080B50748016851F0100101600320FFF7AA
:102D700045F9002001F0EEFF02F02CF8002002BD22
:102D8000002002402DE9F84F86B014220021684649
:102D9000FEF7C9FE6D48016851F400110160016839
:102DA00011F4001105910599016851F400210160A9
:102DB000016811F4002105910599016851F4800121
:102DC0000160016811F4800105910599016851F4D1
:102DD00000310160016811F4003105910599016825
:102DE00051F480210160016811F480210591059959
:102DF000016851F480110160006810F480100590A2
:102E0000059848F2845B524C002259462000FFF797
:102E100088F84EF210054F4E002229003000FFF7CF
:102E200080F841F60747DFF830810022390040463C
:102E3000FFF777F840F26749DFF820A10022494602
:102E40005046FFF76EF800224FF400715FF090409B
:102E5000FFF767F8CDF800B0012001900020029044
:102E60000020039069462000FEF788FF7020009044
:102E7000002001900020029069462000FEF77EFFAE
:102E800000950120019000200290002003906946E7
:102E90003000FEF773FF20200090002001900020FA
:102EA000029069463000FEF769FF0097012001900B
:102EB000002002900020039069464046FEF75EFF26
:102EC0004FF49850009002200190002002900320BF
:102ED00003900720049069465046FEF74FFFCDF857
:102EE000009001200190002002900020039069468C
:102EF0005046FEF743FF4FF4007000900120019010
:102F0000002002900020039069465FF09040FEF799
:102F100035FF0820009000200190002002906946B3
:102F20004046FEF72BFF4FF44070009002200190C6
:102F30000020029003200390092004906946404637
:102F4000FEF71CFF07B0BDE8F08F00BF1410024071
:102F5000001000480008004800040048000C004829
:102F600018B589B00C22002106A8FEF7DCFD182256
:102F700000216846FEF7D7FD734C5FF0A04020604B
:102F8000002060600020A0600020206100206076AA
:102F9000002084F820000020E0620120A0620020D0
:102FA000E0600120E061002084F8300004206061CE
:102FB0000020207600206063200001F02BFF002815
:102FC00001D0FEF7A9FD0020069006A9200002F01E
:102FD000B9FA002801D0FEF79FFD062000900120DD
:102FE0000190002003900020029000200490002017
:102FF00005906946200002F087F8002801D0FEF70E
:103000008BFD0AB010BD10B586B0182200216846AD
:10301000FEF789FD4D4C4E48206000206060002086
:10302000A0600020206100206076002084F820004D
:103030000020E0620120A0620020E0600120E06149
:10304000002084F8300004206061002020760020F9
:103050006063200001F0DEFE002801D0FEF75CFD79
:103060000920009001200190002003900020029090
:1030700000200490002005906946200002F044F8EA
:10308000002801D0FEF748FD06B010BD10B586B08F
:1030900004001422002101A8FEF745FD2068B0F1CC
:1030A000A04F25D12B480168491C01600068012808
:1030B00009D12948016851F080510160006810F081
:1030C0008050009000982448016851F4002101606C
:1030D000006810F40020009000980F200190032059
:1030E00002900020039001A91C48FEF747FE28E04B
:1030F00020681749884224D116480168491C01609C
:103100000068012809D11448016851F0805101601C
:10311000006810F08050009000980F48016851F44A
:1031200000210160006810F40020009000980F203A
:103130000190032002900020039001A90748FEF7A8
:103140001DFE06B010BD0000F46800204469002098
:1031500000010050186E00201410024000080048C2
:103160001FB50C2200216846FEF7DDFC2A4C2B48D7
:103170002060200002F0EEFA002801D0FEF7CCFC1F
:10318000002000900020019000226946200002F0FB
:1031900030FB002801D0FEF7BFFC1022694620005A
:1031A00002F027FB002801D0FEF7B6FC1FBD10B5CA
:1031B00086B004001422002101A8FEF7B4FC2068A8
:1031C0001649884226D11648016851F00051016025
:1031D000006810F00050009000981248016851F407
:1031E00000310160006810F4003000900098302039
:1031F0000190032002900020039001A95FF090400D
:10320000FEF7BCFD002205213620FEF7FBFE36202E
:10321000FEF709FF06B010BD986D00200074004055
:103220001C1002401410024080B52C482C4901604B
:103230004FF482714160002181604FF4E061C16010
:1032400000210161002141614FF400718161382149
:10325000C1610021016200214162002181620721D8
:10326000C162002101630821416302F0EBFA0028EA
:1032700001D0FEF751FC01BD10B586B00400142248
:10328000002101A8FEF74FFC20681549884222D191
:103290001448016851F480410160006810F48040D6
:1032A000009000981048016851F480210160006886
:1032B00010F48020009000984FF4604001900220AC
:1032C000029000200390032004900520059001A99E
:1032D0000648FEF753FD06B010BD00003C68002014
:1032E000003800401C100240141002400004004846
:1032F00080B52C482C4901605FF4E1314160002128
:1033000081600021C160002101610C214161002127
:1033100081610021C161002101620021416200231D
:103320000022002102F010FB002801D0FEF7F4FB80
:1033300001BD10B586B004001422002101A8FEF7DB
:10334000F2FB2068184988422AD11848016851F4D4
:1033500000310160006810F40030009000981448BB
:10336000016851F400310160006810F400300090F1
:1033700000980E200190022002900020039003206C
:1033800004900720059001A95FF09040FEF7F6FC3D
:10339000002205212620FEF735FE2620FEF743FEFB
:1033A00006B010BD40670020004400401C100240E1
:1033B0001410024080B56F486F4901605021416090
:1033C000802181607F21C160002101610021416174
:1033D000002181610021C16100210162002141625F
:1033E00002F0FCFA002801D0FEF796FB01BD80B583
:1033F00062486349016050214160002181607F2162
:10340000C160002101610021416100218161002131
:10341000C161002101620021416202F0DFFA00284F
:1034200001D0FEF779FB01BD80B5564856490160D1
:1034300050214160002181607F21C1600021016134
:1034400000214161002181610021C16100210162EF
:103450000021416202F0C2FA002801D0FEF75CFBB5
:1034600001BD10B586B00400142200216846FEF7A5
:103470005AFB2068404988422ED14448016851F4E3
:1034800080110160016811F48011059105990168AE
:1034900051F400310160006810F400300590059887
:1034A0004FF4804000900320019000200290694674
:1034B0003748FEF763FC4FF48070009002200190C3
:1034C00000200290002003900820049069465FF0DD
:1034D0009040FEF753FC4BE02068294988422ED1EA
:1034E0002A48016851F480110160016811F48011CB
:1034F00005910599016851F400310160006810F4EC
:103500000030059005984FF4006000900320019072
:103510000020029069461E48FEF730FC4FF48060A0
:1035200000900220019000200290002003900820CB
:10353000049069465FF09040FEF720FC18E0206898
:103540001149884214D11148016851F400310160D9
:10355000006810F4003005900598012000900320C9
:1035600001900020029069465FF09040FEF706FC53
:1035700006B010BD406C002024000140706C00209B
:1035800030000140A06C00203400014014100240C3
:10359000000C0048F7B51C0003266F4600F047F802
:1035A000200000F02FF800250AE02800C0B257F8EC
:1035B00020102800C0B214EB800000F044F86D1C0D
:1035C0002800C0B2B042F0D300F037F8F7BD30B4F5
:1035D0000322002308E01C00A4B251F824401D007F
:1035E000ADB240F825405B1C1C00A4B29442F2D35B
:1035F00030BC70472248006810F0010090F00100D4
:10360000C0B2704710B51F4C216851F00201216013
:103610001D490860206850F040002060FFF7EAFF75
:103620000028FBD0206830F00200206010BD174851
:10363000174901601749016070471248016851F04D
:1036400080010160704770B504000D000D4E3068B8
:1036500050F001003060FFF7CDFF0028FBD025803F
:10366000FFF7C8FF0028FBD0A41C2D0C2580FFF716
:10367000C1FF0028FBD0306840084000306070BDBA
:103680000C2002401020024014200240042002407E
:1036900023016745AB89EFCD38B5040002F004FA89
:1036A000050014F1010F02D004480078241802F03C
:1036B000FBF9401BA042FAD331BD00BF110200202C
:1036C000DFF880330360DFF880030860802010603B
:1036D000704780B58EB007A8DFF870131C2202F087
:1036E000F9F9002107A800F0FBF9DFF8641308607E
:1036F0006846DFF860131C2202F0ECF900216846EE
:1037000000F0EEF9DFF8501308600FB000BD2DE9AE
:10371000FC4102F023FA142000F011FA01224FF4C8
:1037200000715FF09040FEF7FCFB142000F007FAF8
:1037300000224FF400715FF09040FEF7F2FBDFF8DB
:103740001C43206821680968496A8847DFF81053DC
:10375000DFF810834FF4004241462800FFF7D5FA06
:10376000DFF804634FF4005241463000FFF7CDFA12
:10377000DFF8F8724FF4804241463800FFF7C5FA8F
:1037800064234FF4FA6201213800FFF7CEFA3800C3
:10379000FFF7C8FADFF8D88201224FF48061404673
:1037A000FEF7BFFB01224FF400614046FEF7B9FB74
:1037B00000F08BF9009051E0002009E05FF0000874
:1037C000206821680968896988470028F4D10120A8
:1037D0004146C9B2014204D0206821680968C96A1B
:1037E0008847DFF89082D8F80000012807D1002030
:1037F000C8F80000206821680968896A8847D8F8F5
:103800000000022807D10020C8F8000020682168C5
:103810000968096B8847D8F8000003280BD10020FD
:10382000C8F800009448026894480168206823683A
:103830001B681B6A9847D8F8000004280AD10020AA
:10384000C8F8000001228D480168206823681B68C1
:103850001B6A98470121684600F07CF92800FFF7B1
:10386000D9F93000FFF7D6F93800FFF7D3F920680F
:103870004068401C216848602068406847F2305129
:1038800088429BD15FF001089AE780B57C4800210F
:103890000091036803220179002002F08BF902F005
:1038A000D6F902F0E4F95FF0805076490860BFF382
:1038B0004F8FBFF36F8FF4E70020C0B2704738B569
:1038C0000500080080B2002800D0491E0024DBB2A9
:1038D000002B02D0012B28D0B0E089B200290FD0F4
:1038E00002290FD00DD3042916D010D3062915D0E4
:1038F00013D3082914D012D30A2913D011D312E0FC
:1039000012E011E06048FEF7F7FB28700CE05E481B
:10391000FEF7F0FB287007E006E005E004E003E0B6
:1039200002E001E000E0012489E089B200290FD023
:1039300002295BD037D304295AD058D3062966D040
:1039400064D3082965D063D30A2971D067D373E0A3
:103950006878002813D1414D286829680968896969
:10396000884700280BD1286829680968096B8847AF
:10397000002128682A681268526B904712E0374D80
:103980002868296809688969884701280AD10121BE
:1039900028682A681268526B904728682968096865
:1039A000896A884749E0687800280FD12B4D28683C
:1039B00029680968096B88470021286800F020FF02
:1039C000286829680968896A88470EE0234D2868B5
:1039D00029680968096B88470121286800F010FFF1
:1039E000286829680968896A884726E025E024E074
:1039F0000021287851EA002168780143174A89B2EA
:103A00001068126812681268904716E015E014E01A
:103A100013E01E4B1A4807C8FFF7BCFD0DE02878DD
:103A2000697851EA00210A2041431548016004E009
:103A300068781349087100E0012400E002242000A6
:103A4000C0B232BDA0680020B46100203CB70008BD
:103A5000246E002058B70008286E0020406E002019
:103A6000D06C002000080048006D0020306D002060
:103A7000000400481C6E0020206E00200000002082
:103A80000400002004ED00E0C467002000FC0308EF
:103A90000120704701207047010000200A0012B287
:103AA000842A03D009B2C91C091808007047EFF333
:103AB0000580002801D0012000E00020C0B270473E
:103AC00080B502F00BFB002002BD80B5FFF7EFFFD1
:103AD000002802D002F0C5FB01E002F0BEFB02BDEF
:103AE00038B584B004000D006069002815D0A069C5
:103AF000002812D0B4F90800FFF7CEFFA1690291A7
:103B00006169019100902B0022692168606802F0D0
:103B100051F90390039805B030BDB4F90800FFF7E0
:103B2000BBFF03A9019100902B00226992B221688A
:103B3000606802F080F90128ECD00020EBE780B546
:103B40000121B0FBF1F0002800D1012002F0A0FA21
:103B5000002002BD80B50122B1FBF2F1002900D1A5
:103B6000012102F043FA002002BD000062F30F229F
:103B700062F31F42401810F0030308D0C91A1FD384
:103B8000DB0748BF00F8012D28BF20F8022D1300E5
:103B900030B414461546103928BF20E93C00FAD845
:103BA000490728BF20E90C0048BF40F8042D8900D0
:103BB00028BF20F8022D48BF00F8012D30BC704707
:103BC000C91818BF00F8012DCB0728BF00F8012D38
:103BD000704700002DE9F8430400002C01D10120BA
:103BE00030E32078C00740F1BE80DFF800090168AB
:103BF00011F00C0104290AD0016811F00C01082908
:103C000028D1006810F48030B0F5803F22D14FF405
:103C10008040B0FA80F151F02001C9B24909012970
:103C200003D1DFF8C418096806E0B0FA80F1B0FAF1
:103C300080F1DFF8D0180968B0FA80F010F01F00AA
:103C4000C140C80740F18F806068002840F08B8039
:103C50000120F7E26068B0F5803F06D1DFF8880800
:103C6000016851F48031016026E0606800280AD1C3
:103C7000DFF87408016831F480310160016831F4C3
:103C80008021016018E06068B0F5A02F0AD1DFF84C
:103C90005808016851F480210160016851F48031B5
:103CA000016009E0DFF84008016831F4803101600B
:103CB000016831F480210160DFF840180A681209B8
:103CC0001201A06802430A606068002825D001F054
:103CD000EBFE05004FF48040B0FA80F151F0200176
:103CE000C9B24909012903D1DFF8FC17096806E0C8
:103CF000B0FA80F1B0FA80F1DFF808180968B0FA7C
:103D000080F010F01F00C140C8072CD401F0CCFE99
:103D1000401B6528DED3032094E201F0C5FE0500B8
:103D20004FF48040B0FA80F151F02001C9B2490946
:103D3000012903D1DFF8B017096806E0B0FA80F175
:103D4000B0FA80F1DFF8BC170968B0FA80F010F023
:103D50001F00C140C80706D501F0A6FE401B65281C
:103D6000DED303206EE2207880073CD5DFF87C07A5
:103D7000016811F00C0F07D0016811F00C0108293F
:103D800060D10068C0035DD45FF08040B0FA80F17C
:103D900051F02001C9B24909012903D1DFF84817C0
:103DA000096806E0B0FA80F1B0FA80F1DFF8541744
:103DB0000968B0FA80F010F01F00C140C80704D5B0
:103DC0002069012801D001203CE2DFF81C070168CE
:103DD0005FF0F852B2FA82F231F0F801636913FA37
:103DE00002F2114301602078000740F1C480A0690D
:103DF000002800F09A8001205FF00041B1FA81F1C3
:103E0000DFF8FC2612EB8102106001F04DFE050088
:103E10005FF08040B0FA80F1B0FA80F1B0FA80F142
:103E2000DFF8E0160968B0FA80F010F01F00C1401A
:103E3000C80700F1A08001F037FE401B0328E7D33C
:103E40000320FFE1206900283ED001205FF00041FF
:103E5000B1FA81F1DFF8B02612EB8102106001F0B7
:103E600023FE05005FF08040B0FA80F151F02001A0
:103E7000C9B24909012903D1DFF86C16096806E0C7
:103E8000B0FA80F1B0FA80F1DFF878160968B0FA7C
:103E900080F010F01F00C140C80706D401F004FEF6
:103EA000401B0328DED30320CCE1DFF83C06016889
:103EB0005FF0F852B2FA82F231F0F801636913FA56
:103EC00002F2114301608EE700205FF00041B1FA79
:103ED00081F1DFF8342612EB8102106001F0E4FD7D
:103EE00005005FF08040B0FA80F151F02001C9B2C6
:103EF0004909012903D1DFF8F015096806E0B0FA95
:103F000080F1B0FA80F1DFF8FC150968B0FA80F0B2
:103F100010F01F00C140C8077FF565AF01F0C4FD78
:103F2000401B0328DDD303208CE100205FF000411B
:103F3000B1FA81F1DFF8C82512EB8102106001F0BF
:103F4000B3FD05005FF08040B0FA80F1B0FA80F177
:103F5000B0FA80F1DFF8AC150968B0FA80F010F023
:103F60001F00C140C80706D501F09EFD401B032875
:103F7000E8D3032066E12078400740F1B1800026B5
:103F8000DFF888552868C00009D4286850F08050B0
:103F90002860286810F08050009000980126DFF813
:103FA00070753868C00511D4386850F48070386076
:103FB00001F07AFD80463868C00507D401F074FD31
:103FC000B0EB08006528F6D303203BE1E068012848
:103FD00006D1DFF84005016851F00101016025E0DC
:103FE000E06800280AD1DFF82C050168490849007B
:103FF0000160016831F00401016017E0E068052804
:104000000AD1DFF81005016851F004010160016870
:1040100051F00101016009E0DFF8F8040168490886
:1040200049000160016831F004010160E068002886
:1040300027D001F039FD07005FF08040B0FA80F131
:10404000B0FA80F151F04001C9B24909022903D107
:10405000DFF8C014096804E0B0FA80F1DFF8A414B6
:104060000968B0FA80F010F01F00C140C80730D4D2
:1040700001F01AFDC01B41F289318842DCD30320D4
:10408000E0E001F011FD07005FF08040B0FA80F140
:10409000B0FA80F151F04001C9B24909022903D1B7
:1040A000DFF87014096804E0B0FA80F1DFF8541406
:1040B0000968B0FA80F010F01F00C140C80708D5A9
:1040C00001F0F2FCC01B41F289318842DCD30320AD
:1040D000B8E0F6B2012E03D1286830F08050286095
:1040E000E069002800F0AD80DFF80064306810F06F
:1040F0000C00082800F09380E069022861D1802735
:10410000DFF804840020B7FA87F118EB810108601A
:1041100001F0CAFC81464025B5FA85F050F0200038
:10412000C0B24009012803D1DFF8BC03006806E0F3
:10413000B5FA85F0B5FA85F0DFF8C8030068B5FA7E
:1041400085F111F01F01C840C00707D501F0ACFC94
:10415000B0EB09000328DED3032073E0316831F4AB
:104160007411606A0143206A014331600120B7FA8B
:1041700087F118EB8108C8F8000001F095FC0400F5
:10418000B5FA85F050F02000C0B24009012803D1F3
:10419000DFF85403006806E0B5FA85F0B5FA85F05B
:1041A000DFF860030068B5FA85F111F01F01C8401F
:1041B000C00746D401F078FC001B0328E0D303209D
:1041C00040E000208021B1FA81F1DFF83C2312EBBE
:1041D0008102106001F068FC04004020B0FA80F118
:1041E00051F02001C9B24909012903D1DFF8F812C1
:1041F000096806E0B0FA80F1B0FA80F1DFF8041344
:104200000968B0FA80F010F01F00C140C80718D547
:1042100001F04AFC001B0328DFD3032012E0E06911
:10422000012801D101200DE0306810F48031226AAC
:10423000914204D110F47010616A884201D00120CB
:1042400000E00020BDE8F2832DE9F04104000D00FC
:104250000020002C01D10120D2E0DFF8BC623068E0
:1042600010F00700A8420BD23068C008C0002843F5
:104270003060306810F00700A84201D00120BFE094
:104280002078800707D5DFF864120A6832F0F00260
:10429000A06802430A602078C00776D560680128CC
:1042A0001DD14FF48040B0FA80F151F02001C9B225
:1042B0004909012903D1DFF83012096806E0B0FA94
:1042C00080F1B0FA80F1DFF83C120968B0FA80F0B2
:1042D00010F01F00C140C8073CD4012090E0606886
:1042E00002281BD14020B0FA80F151F02001C9B260
:1042F0004909012902D17C49096806E0B0FA80F138
:10430000B0FA80F1DFF8FC110968B0FA80F010F023
:104310001F00C140C8071DD4012071E05FF080403C
:10432000B0FA80F151F02001C9B24909012902D146
:104330006D49096805E0B0FA80F1B0FA80F1714981
:104340000968B0FA80F010F01F00C140C80701D41E
:10435000012055E0654F396889088900606801438C
:10436000396001F0A1FB8046386810F00C006168EC
:10437000B0EB810F09D001F097FBB0EB080041F2E0
:1043800089318842F0D303203AE0306810F007000A
:1043900085420BD23068C008C000284330603068C6
:1043A00010F00700A84201D0012029E02078400742
:1043B00006D54E490A6832F4E062E06802430A60BA
:1043C0002078000707D54948016831F46051226917
:1043D00051EAC201016000F015F8444909684F4AEA
:1043E00011F0F0015FF07063B3FA83F3D940515CD0
:1043F000C840404908604048006800F0ABFC00201D
:10440000BDE8F08110B40020002000200020002032
:104410003648016811F00C00042802D0082802D0A8
:1044200021E03F4820E03F4811F470124FF47053F0
:10443000B3FA83F3DA40805C304A12683A4B12F0E8
:104440000F025FF07044B4FA84F4E2409A5CC9034E
:1044500006D53349B1FBF2F201001000484301E0F8
:104460003249484300E0224810BC704721480068A8
:10447000704780B5FFF7FAFF1C4909682C4A11F410
:10448000E0615FF46003B3FA83F3D940515CC84044
:1044900002BD80B5FFF7EAFF14490968244A11F408
:1044A00060515FF4E013B3FA83F3D940515CC84024
:1044B00002BD0F2202600D4A136813F0030343602C
:1044C000136813F0F0038360136813F4E063C360B0
:1044D0001268D20812F4E06202610F48006810F01E
:1044E00007000860704700000010024004100240FE
:1044F00000127A009C000020980000202C1002403E
:104500008004424224100240000042421C1002403B
:1045100000700040201002400020024028B800082F
:10452000001BB70008B8000818B8000800093D00D3
:1045300084B800082DE9FC4104000020002000267A
:104540002068C0037CD5DFF81C522868C00009D45D
:10455000286850F080502860286810F08050009043
:1045600000980126DFF800723868C00511D4386859
:1045700050F48070386001F097FA80463868C005C2
:1045800007D401F091FAB0EB08006528F6D30320B8
:10459000E6E0DFF8D871386810F44070002842D0A7
:1045A000616811F4407188423DD0386830F4407041
:1045B000DFF8BC114FF400420123B2FA82FC11EB88
:1045C0008C0CCCF800300023B2FA82F211EB82019D
:1045D0000B603860C00726D501F066FA80465FF0B0
:1045E0008040B0FA80F1B0FA80F151F04001C9B2D8
:1045F0004909022901D1396804E0B0FA80F1DFF8F5
:1046000074110968B0FA80F010F01F00C140C807AB
:1046100009D401F049FAB0EB080041F2893188422F
:10462000DDD303209CE0396831F4407160680143B8
:104630003960F6B2012E03D1286830F0805028602E
:104640002078C00707D5DFF830110A689208920079
:10465000A06802430A602078800707D5DFF81811A8
:104660000A6832F44032E06802430A60207840076A
:1046700007D5DFF804110A6832F4402220690243AA
:104680000A602078800607D5DFF8EC100A6832F05F
:104690001002E06902430A602068800307D5DFF852
:1046A000DC100A6832F48002A06B02430A602078B2
:1046B000400607D5DFF8C0100A6832F02002206AF1
:1046C00002430A602078000707D5DFF8AC100A68BB
:1046D00032F44012606902430A602078C00607D5B0
:1046E000DFF894100A6832F44002A06902430A60BD
:1046F0002068800507D5DFF884100A6832F40002CC
:10470000E06A02430A602078000607D5DFF87010DF
:104710000A6832F4F872606A02430A602068C005D1
:1047200007D5DFF85C100A6832F47852A06A0243B9
:104730000A602068C00407D5DFF83C100A6832F42C
:104740008072206B02430A602068800407D5DFF87E
:1047500028100A6832F40072606B02430A6000207D
:10476000BDE8F6811C10024000700040201002409D
:104770000004424224100240301002400410024063
:104780002C10024003480168034A1278891801601E
:10479000704700BF706E002011020020014648B132
:1047A000B0FA80F18840C91CC1F58461090501EBAC
:1047B000D0214005704780B500F001F802BD00210E
:1047C0004160002181600021C160142101616E21DE
:1047D00081824FF47A71C18240F6B8310183C821D9
:1047E000C161012101620021416202218162002137
:1047F000C16200210163002141630121816370478F
:104800008160704738B52DED088BB0EE418AF0EE2F
:10481000618AB0EE429AF0EE629AB0EE43AAF0EEF0
:1048200063AAB0EE44BAF0EE64BA51EC100B53EC4C
:10483000182B01F0D7FE04000D0051EC1B0B53ECBC
:104840001A2B01F0CFFE22002B0000F059F90400D2
:104850000D0051EC190B53EC182B01F0C3FE0200B4
:104860000B002000290000F027F853EC1A2B01F070
:104870002BFF41EC100BBDEC088B31BDC1F30A538B
:1048800040F2FE329B1A14DDD3F120034FEAE172AD
:1048900008DDC90241EA505141F00040D84080187B
:1048A0005040704703F2E13010B1D24382F0004033
:1048B0007047002070470000F0B540F2FF7581EAB4
:1048C000030C0CF0004C15EA11541DBF15EA1357E8
:1048D000AC42AF42E5E0BC41C1F31301C3F31303A3
:1048E000801A994143F4801304D2641E4000494168
:1048F00080185941C90241EA5051B1FBF3F603FB5C
:104900001611A2FB0675D7EBC020A94102D2761E74
:1049100080185941C90241EA5051B1FBF3FE03FB33
:104920001E11A2FB0E75D7EBC020A94103D2AEF138
:10493000010E80185941890241EA9051760546EAF4
:104940008E2EB1FBF3F603FB1611A2FB0675D7EB17
:104950008020A94102D2761E80185941C90241EA3D
:1049600050514EEA060EB1FBF3F603FB1611A2FB03
:104970000675D7EBC020A94102D2761E8018594196
:10498000C90241EA5051B1FBF3F703FB1711A2FB37
:104990000735D3EBC020A94167F100070CBF0042E7
:1049A00047F0010766F3D5274FEA1E31B80814F522
:1049B000806412DDBD0775F1004250EB0E5051EBE3
:1049C000045111F5801F5CBF41EA0C01F0BD4CF0B1
:1049D0007F6141F0E0410020F0BDBD076D0840EA75
:1049E0000E5041F48011D4F10104B4F120060ADA2A
:1049F000C4F120060200E04001FA06F3E14018434A
:104A0000B24015430EE0342C13DCC6F1200445EA15
:104A100040056D0820FA06F2154321FA06F0A14080
:104A20000D43002175F1004250F1000051EB0C01E3
:104A3000F0BD00205FEA0C01F0BDCFB992185B41D8
:104A4000B3FA83F704BFB2FA82F6BF190B3FB7F18E
:104A500020062FBF02FA06F3BB40C7F1200622FA58
:104A600006F638BF3343BA401CB1E419641E33E77D
:104A70007F4231F00041B1FA81F404BFB0FA80F610
:104A8000A4190B3CB4F120062FBF00FA06F1A14097
:104A9000C4F1200620FA06F638BF3143A0403C1B83
:104AA0001AE7AC421ABF05EA1357AF4212E050EAC8
:104AB00041061CBF52EA4306BFE750EA41073046B1
:104AC00061461CBF41EA0551F0BD52EA430C08BFE4
:104AD000C143F0BD00204FF4001616EB410F98BF04
:104AE00016EB430F08BF16EB410F24BFC14305E08F
:104AF00016EB430F0CBF61464CEA0551F0BD0000B8
:104B0000B0B581EA030C0CF0004C40F2FF7515EAD9
:104B100011541DBF15EA1357AC42AF4239E0E419F6
:104B200023EA455343F48013C90241F0004141EAAE
:104B3000505EC7021100A7FB020200284FF00000E0
:104B4000EEFB01204FF00001E3FB072118BF42F00C
:104B50000102401800214941E3FB0E01A4F58064E5
:104B60000F0302D252004041494154F101046CDD6F
:104B7000470872F1004250F1000051EB0451A1F5D9
:104B800080115CBF41EA0C01B0BD4CEA0551002028
:104B9000B0BD05EA1357AC4214BFAF4241E050EA42
:104BA000410E1CBF52EA430E02E061460020B0BD38
:104BB00024423C441BD15FEA070EF6D0090302BF32
:104BC00001460020AEF1140EB1FA81F7AEEB0704F6
:104BD00001FA07FE0C37C7F1200100FA07F7C840B9
:104BE0004EEA000E23EA455343F48013A2E733F064
:104BF0000043B3FA83F704BFB2FA82FE77440B3F57
:104C0000E41BB7F1200E2FBF02FA0EF3BB40C7F131
:104C1000200E22FA0EFE38BF43EA0E03BA40641C8F
:104C200082E750EA410E14BF52EA430E6FF00001D2
:104C30004FF4001717EB430F8ABF194617EB410FCC
:104C4000B5E74CEA05510020B0BDD4F10104B4F140
:104C500020070FDAC4F12007520828BF42F00102F2
:104C600010FA07F501FA07F7E1BF2A43E04038439D
:104C7000E1400FE0352C98DCC7F1200452EA4002F5
:104C800020FA07F218BF42F0010231FA07F0A14002
:104C90000A43002172F1004250F1000051EB0C0177
:104CA000B0BD000001F000428B1AA3F16051B1F5D4
:104CB000801F0ADBB1F17F6F1FD242EAC102C1003F
:104CC00071F1004142EB507070470B15C3F10903BD
:104CD000212B10D2890241EA9051800201284941DA
:104CE00041F0004121FA03F0C3F12003994071F132
:104CF000004150417047100070476FF0000013EB07
:104D0000103F5CBF000E42EAC0507047C0F3C7516D
:104D100081B1FF2906D0C110400721F0E04101F127
:104D20006051704741020CBF40F4E0016FF0004158
:104D30000020704700F0004100020AD0B0FA80FC69
:104D400000FA0CF001F16051A1EB0C5101EBD02104
:104D50004005704718B587B00100002000200022F0
:104D60003720FDF74FF93720FDF75DF91548016849
:104D700051F020010160006810F0200000900098C0
:104D800001A902A8FFF795FBFFF773FB40000E494E
:104D9000B0FBF1F0401E0D4C0D49216040F2E731AF
:104DA000E1606060002020610020A0602000FBF72F
:104DB000EBF9002803D12000FBF723FA00E00120E3
:104DC00008B010BD1C10024040420F009469002042
:104DD0000014004080B50D48016851F001010160E8
:104DE000006810F00100009000980948016851F037
:104DF00080510160006810F08050009000980022FF
:104E00000F217FF00100FDF7FDF801BD18100240F1
:104E10001C10024078B595B0040000250026002043
:104E20000090002C01D101205AE12069002802D015
:104E300094F820000028206CC00653D4206C002871
:104E40003DD1002060640020E0640020A0640020C8
:104E500084F83C002000FEF719F920688068C00043
:104E60002DD4200000F028FC0500206CC00626D4BC
:104E70002800C0B2002822D1206C30F4885050F0B5
:104E8000020020642068806830F04050216888600B
:104E90002068806850F0805021688860DFF8440204
:104EA0000068DFF84412B0FBF1F10A2041430091A1
:104EB00002E00098401E009000980028F9D1206878
:104EC0008068C00003D52068806880000AD5206C07
:104ED00030F0020050F010002064606C50F00100CF
:104EE00060640125206CC00600F1F1802800C0B28A
:104EF000002840F0EC8020688068400700F1E780DF
:104F0000206C30F4807050F0020020642068B0F112
:104F1000A04F04D02068DFF8D411884202D1DFF816
:104F2000D01101E0DFF8CC112068B0F1A04F04D11E
:104F3000DFF8B801019001981EE02068DFF8AC218D
:104F4000904204D15FF0A0400190019814E0DFF896
:104F5000A8012268824204D1DFF8A00101900198E3
:104F60000AE02268DFF894319A4202D10190019858
:104F700002E00020019001982068806810F0030092
:104F8000012804D12068006810F0010000E0002032
:104F9000002816D1019800280DD00198806810F0E3
:104FA0000300012804D10198006810F0010000E01E
:104FB0000020002805D18A6832F44032606802433C
:104FC0008A60606B012802D04FF4805100E000211C
:104FD000607E51EA4031E0680143A06801430E431E
:104FE00094F82000012813D1607E002806D1606A61
:104FF000401E400450F48030064309E0206C30F03D
:10500000020050F020002064606C50F001006064E9
:10501000A06A012824D02068DFF8DC10884204D080
:105020002068DFF8D810884216D1A06AB0F5307F2A
:1050300002D14FF4E07110E0A06AB0F5807F02D198
:105040004FF4307109E0A06AB0F5E07F02D14FF46F
:10505000807102E0A16A00E0A16AE06A01430E43A8
:105060002068806810F00C0F0DD12068C168DFF84F
:10507000900001402068C160207E94F83010490003
:1050800051EA80310E432068C168DFF878000140A2
:105090000E432068C6602069012809D12068006B92
:1050A00000090001E169491E08432168086305E021
:1050B0002068006B0009000121680863002060641B
:1050C000206C30F0020050F00100206406E0206CFB
:1050D00030F0020050F01000206401252800C0B21A
:1050E00016B070BD9C00002040420F00000100502F
:1050F000000300500007005000040050000500505D
:10510000FDBFFFFF07C0F0FF70B495B002000B00B9
:10511000002100200090D8680128FFD192F83C00BF
:10512000012801D1022003E2012082F83C0010682E
:105130008068400700F1F2815868052811D20620E6
:105140001468246B1F255E684643B540AC431D6858
:105150005E6800FB06F015FA00F020431468206337
:1051600040E058680A2813D206241068456B1F26B1
:105170005868401F10FB04F08640B5431E6858680D
:10518000401F10FB04F0864035431068456329E05A
:1051900058680F2813D206241068856B1F2658689C
:1051A0000A3810FB04F08640B5431E6858680A3878
:1051B00010FB04F0864035431068856312E0062436
:1051C0001068C56B1F2658680F3810FB04F0864026
:1051D000B5431E6858680F3810FB04F0864035430D
:1051E0001068C5631068806810F00C0F40F0AB8049
:1051F00018680A2814D310688469072518680A38C3
:10520000032610FB06F08540AC439D6818680A38F9
:10521000032610FB06F085402C43106884610FE0E4
:105220001068446907251E6803204643B540AC4317
:105230009D681E6803204643B5402C4310684461B6
:1052400058691468E468C4F3C104E4B2640010FA55
:1052500004F41869012806D03DD303281FD010D3C9
:1052600004282AD037E01068056EDFF840040540B6
:10527000186855EA80652C4354F0004410680466B1
:1052800061E01068456EDFF824040540186855EAAF
:1052900080652C4354F000441068446653E0106865
:1052A000856EDFF808040540186855EA80652C43D0
:1052B00054F000441068846645E01068C56EDFF85D
:1052C000EC030540186855EA80652C4354F000440F
:1052D0001068C46637E01068006E10F0F8401C6873
:1052E000B0EB846F05D11068006E20F000401468A8
:1052F00020661068406E10F0F8401C68B0EB846FB8
:1053000005D11068406E20F0004014686066106897
:10531000806E10F0F8401C68B0EB846F05D1106807
:10532000806E20F000401468A0661068C06E10F017
:10533000F8401C68B0EB846F05D11068C06E20F097
:1053400000401468E0661068806810F003000128CF
:1053500004D11068006810F0010000E0002000286F
:1053600040F0E180D86801280AD01068D0F8B04039
:10537000012518688540AC431068C0F8B04035E09E
:105380001068D0F8B0400125186885402C4310689B
:10539000C0F8B04018680A2814D31068846907253B
:1053A00018680938032610FB06F08540AC439D6859
:1053B00018680938032610FB06F085402C43106856
:1053C000846113E01068446907251868401C0326AF
:1053D00010FB06F08540AC439D681868401C03260E
:1053E00010FB06F085402C43106844611068B0F152
:1053F000A04F03D01068504CA04202D1DFF8B04259
:1054000001E0DFF8B0421868102802D1A06800025D
:105410000CD51868112802D1A068C00106D51868FB
:10542000122840F08080A06840027CD41068B0F15F
:10543000A04F03D14048019001981AE010683E4DFA
:10544000A84204D15FF0A0400190019811E03B48D0
:105450001568854203D13A480190019809E0156822
:10546000374EB54202D10190019802E00020019030
:1054700001981068806810F00300012804D11068BA
:10548000006810F0010000E00020002840D10198E1
:1054900000280DD00198806810F00300012804D185
:1054A0000198006810F0010000E0002000282FD1D2
:1054B0001868102818D11068B0F1A04F14D1A06856
:1054C00050F40000A060DFF874020068DFF870326A
:1054D000B0FBF3F30A20434300930098002822D046
:1054E0000098401E0090F8E71868112808D110684D
:1054F000B0F1A04F04D1A06850F08070A06012E01D
:10550000186812280FD1A06850F48000A0600AE04B
:10551000106C50F020001064012104E0106C50F079
:10552000200010640121002082F83C000800C0B275
:1055300015B070BC7047000000010050000400501E
:105540000005005030B494B000220B68002B0368B3
:10555000B3F1A04F04D1DFF8F4310093009B1EE0BB
:105560000368DFF8E841A34204D15FF0A043009351
:10557000009B14E0DFF8CC3104689C4204D1DFF8D2
:10558000C8310093009B0AE00468DFF8BC51AC42CC
:1055900002D10093009B02E000230093009B009B3C
:1055A000002B01D101207DE090F83C30012B01D18E
:1055B000022077E0012380F83C3003689B685B079A
:1055C00066D4009B9B685B0762D40368B3F1A04F6D
:1055D00004D00368DFF87441A34201D1344C00E0E9
:1055E000344C0B68002B2ED0A56835F460454B6811
:1055F0001D4390F8303055EA4335A56003689B6839
:1056000013F00303012B04D103681B6813F001039B
:1056100000E00023002B40D1009B9B6813F00303A4
:10562000012B04D1009B1B6813F0010300E0002351
:10563000002B32D1A568464B1D400B681D4389687D
:105640000D43A56029E0A16831F46041A1600168C3
:10565000896811F00301012904D10168096811F07A
:10566000010100E00021002917D10099896811F09B
:105670000301012904D10099096811F0010100E03A
:105680000021002909D1A36831490B40A36004E03F
:10569000016C51F0200101640122002180F83C10CE
:1056A0001000C0B214B030BC7047000000F0FF839F
:1056B000000300500007005038B5040000202068A7
:1056C000806810F00300012804D12068006810F001
:1056D000010000E0002000282ED02068806810F033
:1056E0000D0001281ED12068806850F0020021685A
:1056F000886003202168086000F0D6F90500206862
:105700008068C00718D500F0CFF9401B0328F6D3F6
:10571000206C50F010002064606C50F00100606458
:1057200001200AE0206C50F010002064606C50F002
:1057300001006064012000E0002032BD9C000020D8
:1057400040420F00000400500005005000010050CE
:10575000E0F0FFFF10B50400002C01D101200EE0A5
:105760002079002804D1002060712000FDF71FFD82
:10577000022020710020206101202071002010BD36
:1057800010B5040020680068800416D52068406BBE
:10579000800412D504202071206950F0010020619E
:1057A0004FF40050216848632068006830F480504E
:1057B00021680860200001F044F82068006880003B
:1057C00016D52068406B800012D504202071206916
:1057D00050F0020020615FF00050216848632068AB
:1057E000006830F0805021680860200001F02AF83D
:1057F00010BD10B4002300234379012B01D10220F6
:105800001EE0012343710223037103681B6840F605
:10581000FE749440A3430C6849680C4394402343AE
:1058200001680B6001680968C02313FA02F231EACB
:10583000020201680A60012101710021417100200A
:1058400010BC704710B50400002C01D101207AE093
:10585000606A002806D16068B0F5827F06D000201B
:10586000E06103E000202061002060610020A06270
:1058700094F85D00002805D1002084F85C00200029
:10588000FDF7FAFC022084F85D002068006830F023
:10589000400021680860E06840F20171884201D34D
:1058A000002001E04FF48050E168B1F5706F05D041
:1058B000E168B1F5E06F01D00021A162616811F4E7
:1058C0008271A26812F404421143227C12F0020297
:1058D0001143227D12F001021143A26912F40072F9
:1058E0001143227F12F03802114394F8202012F065
:1058F00080021143A26A12F400521143226811601F
:10590000A169090C11F0040194F8242012F010028E
:10591000114394F8342012F008021143E26812F4A3
:105920007062114310F48050084321684860206879
:10593000C06930F400602168C86100202066012041
:1059400084F85D00002010BDF8B504000D001600BD
:105950001F00002C01D101203DE0A06F002805D1DF
:10596000002084F874002000FDF7E3FC2420A067E9
:10597000206800684008400021680860200001F0AD
:1059800052F9012801D1012025E0606A002802D0E7
:10599000200001F081FA2068806850F4804021687E
:1059A00088602068806830F4004005432068856086
:1059B000760556EA0746206800686FF319400643EB
:1059C000206806602068006850F0010021680860C7
:1059D000200001F0CEFAF2BD7047000038B5040097
:1059E0000025002C03D094F82900C00601D501251C
:1059F00055E0206A0028DFF8AC00016851F0010191
:105A00000160006810F00100009000982000FDF790
:105A100028FD94F82900002802D1002084F82800ED
:105A20006068606000200090206800680090009925
:105A300031F07001606801430091009931F08201FA
:105A4000A06801430091009931F44021A06901430D
:105A50000091009830F47050E16811F470510843DF
:105A60000090009931F400412069014300910099B0
:105A700031F44031606901430091009931F00C012B
:105A8000E06901430091009931F40071206A0143FB
:105A90000091009821680860012084F829002800FE
:105AA000C0B232BD1810024001480068704700BF04
:105AB000706E002062B38B0708D0521E11F8013BB4
:105AC00000F8013B00F024808B07F6D1830740F0FB
:105AD000208000BF103A07D330B4B1E83810103A34
