:020000040800F2
:10000000E85F0020A9810008197A00081B7A00081F
:100010001D7A00081F7A0008217A000800000000FD
:10002000000000000000000000000000CD75000886
:10003000237A00080000000075750008BD720008F2
:10004000FD8100080182000805820008098200087D
:100050000D8200081182000815820008198200082C
:100060001D8200082182000825820008257A0008E8
:10007000298200082D82000831820008358200089C
:10008000398200083D82000841820008458200084C
:10009000498200084D8200085182000855820008FC
:1000A000598200085D8200082F7A000861820008EA
:1000B0006D7A000865820008777A00086982000876
:1000C0006D8200087182000875820008798200083C
:1000D0007D82000881820008817A000885820008FC
:1000E000898200088D8200089182000895820008AC
:1000F000998200089D820008A1820008A58200085C
:10010000000000000000000000000000A9820008BC
:10011000AD820008B1820008D17A0008E17A0008B7
:10012000B5820008B9820008BD820008C1820008BB
:10013000C5820008C982000800000000000000001D
:10014000CD820008D1820008D5820008000000009E
:10015000000000000000000000000000000000009F
:100160000000000000000000D9820008DD820008C5
:10017000E182000800000000000000000000000014
:1001800000000000E582000810B50400002C01D139
:10019000012035E094F83D00002805D1002084F8C6
:1001A0003C00200001F008F9022084F83D00211DE8
:1001B000206800F016FC012084F84800012084F833
:1001C0003E00012084F83F00012084F84000012017
:1001D00084F84100012084F84200012084F84300A3
:1001E000012084F84400012084F84500012084F8AF
:1001F0004600012084F84700012084F83D000020DB
:1002000010BD90F83D10012901D001203DE00221F0
:1002100080F83D100168C96851F001010268D160A1
:100220000168DFF8A420914217D00168B1F1804F36
:1002300013D00168DFF8942091420ED00168DFF8F6
:100240009020914209D00168DFF88820914204D0C3
:100250000168DFF88420914210D101688A68DFF8D4
:100260007C100A40062A0FD0B2F5803F0CD00168FE
:10027000096851F001010068016005E00168096842
:1002800051F0010100680160002070470168C968F1
:10029000490849000268D1600168096A41F21112F7
:1002A00011420BD10168096A40F24442114205D162
:1002B000016809684908490002681160012180F855
:1002C0003D10002070470000002C01400004004059
:1002D00000080040003401400040014007000100D8
:1002E00010B50400002C01D1012035E094F83D0048
:1002F000002805D1002084F83C00200001F075F9A9
:10030000022084F83D00211D206800F06AFB0120D6
:1003100084F84800012084F83E00012084F83F0062
:10032000012084F84000012084F84100012084F875
:100330004200012084F84300012084F84400012099
:1003400084F84500012084F84600012084F8470025
:10035000012084F83D00002010BD10B504000029E4
:1003600002D194F83E0015E0042902D194F83F0030
:1003700010E0082902D194F840000BE00C2902D1CA
:1003800094F8410006E0102902D194F8420001E0FF
:1003900094F84300012801D0012082E0002904D113
:1003A000022084F83E00C0B21FE0042904D10220DC
:1003B00084F83F00C0B218E0082904D1022084F874
:1003C0004000C0B211E00C2904D1022084F84100A1
:1003D000C0B20AE0102904D1022084F84200C0B261
:1003E00003E0022084F84300C0B20122206800F03C
:1003F00081FDDFF8B0102068884213D02068DFF854
:10040000A82090420ED02068DFF8A020904209D0AA
:100410002068DFF8A820904204D02068DFF89820F8
:10042000904201D1012000E00020C0B2002805D098
:100430002068406C50F40040226850642068884274
:1004400017D02068B0F1804F13D02068DFF860101B
:1004500088420ED02068DFF85C10884209D02068FE
:10046000DFF84410884204D02068DFF8401088424A
:1004700010D120688168DFF84800014006290FD0BC
:10048000B1F5803F0CD02068006850F00100216871
:10049000086005E02068006850F0010021680860ED
:1004A000002010BD002C01400034014000400140FC
:1004B00000040040000800400048014000440140A2
:1004C0000700010070B504000D00002C01D10120CF
:1004D0005EE094F83D00002805D1002084F83C003F
:1004E000200001F052F8022084F83D002068816865
:1004F000DFF8A000014020688160211D206800F025
:1005000070FA20688168206882692068036A286818
:100510000143DFF884000240A868AE6950EA062073
:100520000243DFF878000240DFF874000240E86818
:10053000EE6950EA0620024328692E6A360356EA1D
:100540000016324333F0220333F0880368686D6984
:1005500050EA0510034320688160206882612068AA
:100560000362012084F84800012084F83E00C0B2F4
:10057000012084F83F00C0B2012084F84400C0B2DA
:10058000012084F84500C0B2012084F83D0000201D
:1005900070BD0000F8BFFEFFFCFCFFFFF3F3FFFFA0
:1005A0000F0FFFFF10B504002068006980071AD5FF
:1005B0002068C068800716D57FF0020021680861B6
:1005C000012020772068806910F0030F03D02000FD
:1005D00001F09BF905E0200001F0E3F9200001F0B3
:1005E000E1F9002020772068006940071AD52068CB
:1005F000C068400716D57FF004002168086102201A
:1006000020772068806910F4407F03D0200001F03B
:100610007CF905E0200001F0C4F9200001F0C2F9E6
:10062000002020772068006900071AD52068C0687C
:10063000000716D57FF008002168086104202077A4
:100640002068C06910F0030F03D0200001F05DF9AD
:1006500005E0200001F0A5F9200001F0A3F9002039
:10066000207720680069C0061AD52068C068C006D7
:1006700016D57FF0100021680861082020772068D7
:10068000C06910F4407F03D0200001F03EF905E07E
:10069000200001F086F9200001F084F90020207785
:1006A00020680069C0070AD52068C068C00706D561
:1006B0007FF0010021680861200001F038F920680E
:1006C000006900060AD52068C068000606D57FF0DC
:1006D000800021680861200001F065F92068006948
:1006E000C0050AD52068C068000606D57FF4807072
:1006F00021680861200001F057F920680069400670
:100700000AD52068C068400606D57FF04000216801
:100710000861200001F049F92068006980060AD5C7
:100720002068C068800606D57FF020002168086137
:10073000200001F03BF910BD70B504000E0000254B
:1007400094F83C00012801D10220A2E0012084F8A5
:100750003C00002A0AD0042A1FD0082A35D00C2ACF
:100760004AD0102A60D0142A75D08CE0310020685D
:1007700000F092F92068806950F0080021688861D3
:100780002068806930F004002168886120688169F0
:10079000306901432068816176E03100206800F013
:1007A000C9F92068806950F4006021688861206878
:1007B000806930F4806021688861206880693169CF
:1007C00050EA0120216888615EE03100206800F075
:1007D000F5F92068C06950F008002168C8612068F8
:1007E000C06930F004002168C8612068C1693069BF
:1007F00001432068C16147E03100206800F01EFA23
:100800002068C06950F400602168C8612068C06930
:1008100030F480602168C8612068C069316950EA9D
:1008200001202168C8612FE03100206800F035FA0E
:100830002068406D50F00800216848652068406DD0
:1008400030F00400216848652068416D306901433B
:100850002068416518E03100206800F04AFA2068FD
:10086000406D50F40060216848652068406D30F4A8
:100870008060216848652068406D316950EA012038
:100880002168486500E00125002084F83C0028002C
:10089000C0B270BD38B50400002594F83C000128B2
:1008A00001D102206DE0012084F83C00022084F890
:1008B0003D0020688268DFF8A005024032F47F42E4
:1008C00020688260086800284DD010284BD020286E
:1008D00049D0302847D040283BD0502825D0602828
:1008E0002DD0702807D0B0F5805F03D0B0F5005F41
:1008F0000ED03DE03DE0CB684A688968206800F092
:10090000EEFA2068806850F077002168886030E057
:10091000CB684A688968206800F0E1FA206880683E
:1009200050F480402168886023E0CA6849682068E4
:1009300000F0A8FA5021206800F0C9FA19E0CA684E
:100940004968206800F0B0FA6021206800F0BFFA22
:100950000FE0CA684968206800F094FA40212068D6
:1009600000F0B5FA05E00968206800F0B0FA00E090
:100970000125012084F83D00002084F83C00280077
:10098000C0B232BD10B5040094F83C00012801D17A
:10099000022025E0012084F83C00022084F83D007C
:1009A000200000F0D3F9002807D0012084F83D0092
:1009B000002084F83C00012012E02068C06830F07C
:1009C00040002168C8602068C06830F48040216819
:1009D000C860012084F83D00002084F83C0000201D
:1009E00010BD10B40468DFF8743498420ED0B0F132
:1009F000804F0BD0DFF86824904207D0DFF86424E2
:100A0000904203D0DFF86024904203D134F07004A8
:100A10004A68144398421AD0B0F1804F17D0DFF8DB
:100A20004024904213D0DFF83C2490420FD0DFF8EE
:100A3000382490420BD0DFF83424904207D0DFF8FE
:100A40003024904203D0DFF82C24904203D134F4B8
:100A50004074CA68144334F080044A691443046043
:100A60008A68C2620A68826298420FD0DFF8F8236F
:100A700090420BD0DFF8F423904207D0DFF8F02348
:100A8000904203D0DFF8EC23904201D10969016361
:100A90000121416110BC704770B4026A52085200D3
:100AA0000262056A43688469DFF8CC231440A40815
:100AB000A4000A68144335F002058A681543DFF87C
:100AC0009C63B0420FD0DFF8A02390420BD0DFF838
:100AD0009C23904207D0DFF89823904203D0DFF8A0
:100AE0009423904205D135F00805CA68154335F0C6
:100AF0000405B0420FD0DFF8702390420BD0DFF82E
:100B00006C23904207D0DFF86823904203D0DFF8CF
:100B10006423904207D133F4807333F400734A693D
:100B200013438A69134343608461496841630562E2
:100B300070BC704770B4026A32F010020262056A3B
:100B400043688469DFF83423144034F440740A683D
:100B500054EA022435F020058A6855EA0215DFF8C8
:100B6000FC22904203D0DFF80063B04206D135F09A
:100B70008005CE6855EA061535F0400590420CD048
:100B8000DFF8E422904208D0B84A904205D0B84A33
:100B9000904202D0B74A904209D133F4806333F4D3
:100BA00000634A6953EA82038A6953EA8203436015
:100BB000846149688163056270BC704770B4026AE1
:100BC00032F480720262056A4368C469AA4A14401A
:100BD000A408A4000A68144335F400758A6855EA2D
:100BE00002259E4A904202D09F4EB04206D135F473
:100BF0000065CE6855EA062535F4806590420BD035
:100C0000994A904208D0994A904205D0984A904219
:100C100002D0984A904209D133F4805333F4005300
:100C20004A6953EA02138A6953EA02134360C461B2
:100C30004968C163056270BC7047000030B4026A45
:100C400032F480520262036A4568C4698B4A1440D8
:100C500034F440740A6854EA022433F400538A6876
:100C600053EA02337D4A90420BD07F4A904208D02B
:100C70007E4A904205D07E4A904202D07D4A904200
:100C800004D135F480454A6955EA82154560C4614E
:100C900049680164036230BC704730B4026A32F4C0
:100CA00080320262036A4568446D734A14400A68E0
:100CB000144333F400338A6853EA0243674A90428C
:100CC0000BD0694A904208D0684A904205D0684AE1
:100CD000904202D0674A904204D135F480354A6987
:100CE00055EA02254560446549688165036230BC68
:100CF000704730B4026A32F480120262036A4568B7
:100D0000446D5E4A14400A6854EA022433F4001326
:100D10008A6853EA0253514A90420BD0524A904299
:100D200008D0524A904205D0514A904202D0514ACE
:100D3000904204D135F480254A6955EA8225456000
:100D400044654968C165036230BC704738B500240A
:100D50000268936833F070034A681343484A1340AB
:100D60000A681343026893604A68002A39D0102A3F
:100D700037D0202A35D0302A33D0402A0CD0502A00
:100D800023D0602A27D0702A2CD10B698A68C968C1
:100D9000006800F0A4F826E00A68052A01D10120C5
:100DA00023E00268136A0268126A5208520005685A
:100DB0002A620268926932F0F002096952EA01126D
:100DC00001688A61006803620DE00A698968006849
:100DD00000F058F807E00A698968006800F064F8D4
:100DE00001E000E001242000C0B232BD70B4046A0A
:100DF0006408640004628569066A184CA0420ED03B
:100E0000B0F1804F0BD0164CA04208D0154CA04238
:100E100005D0154CA04202D0144CA04201D10124AF
:100E200000E00024E4B2002C03D0AD08AD002A435A
:100E300002E02A0052F0010232F0F0021B0113F02E
:100E4000F0031A4336F00A0611F00A0131438261B9
:100E5000016270BC7047000088FFFEFF002C01405B
:100E60000004004000080040003401400040014000
:100E700000440140004801408FFFFEFFFF8FFFFE4E
:100E8000F8FFFEFF10B4046A036A5B085B000362AC
:100E9000836933F0F00353EA021334F00A04214368
:100EA0008361016210BC704710B4036A33F0100311
:100EB00003628369046A33F4704353EA023334F003
:100EC000A00454EA01148361046210BC7047826874
:100ED00032F0700251F0070111438160704710B485
:100EE000846834F47F44114351EA03212143816033
:100EF00010BC704710B4012411F01F0314FA03F35F
:100F0000046A34EA03030362036A11F01F0112FA50
:100F100001F11943016210BC704730B4002513E0A1
:100F200050F8042BD30744BFA9F101039A18091FF5
:100F3000042942F8045BFAD213468C0744BF15809B
:100F40009B1CC90748BF1D7050F8041B0029E7D13E
:100F500030BC704718B599B01022002115A800F0D8
:100F600026FD0C220021684600F021FD1C220021F4
:100F70000EA800F01CFD2C22002103A800F017FD94
:100F8000DFF87047DFF87007206000206060002005
:100F9000A0604BF68030E06000202061002060619E
:100FA0008020A0612000FFF7EFF8002801D000F0BA
:100FB000F7FC4FF48050159015A92000FFF76AFC4C
:100FC000002801D000F0ECFC2000FFF789F9002890
:100FD00001D000F0E5FC40200090002001900020AE
:100FE00002906946200000F071FD002801D000F059
:100FF000D7FC60200E9000200F9000201090002061
:1010000011900020129000201390002014900022D4
:101010000EA92000FFF790FB002801D000F0C0FCD3
:1010200000200390002004900020059000200690EE
:10103000002007904FF400500890002009900020F5
:101040000A905FF000700B9000200C9000200D9033
:1010500003A9200000F083FD002801D000F0A0FCCF
:10106000200000F001FB1AB010BD18B587B01022A7
:10107000002103A800F09BFC0C220021684600F030
:1010800096FCDFF878465FF08040206040F60F6005
:1010900060600020A06044F62060E06000202061D5
:1010A0008020A06100200390002004900020059083
:1010B0000020069003A9200000F084FC002801D045
:1010C00000F06EFC50200090002002906946200045
:1010D00000F0FCFC002801D000F062FC08B010BD5C
:1010E00010B58CB02422002103A800F060FC0C2273
:1010F0000021684600F05BFCDFF80446DFF80406D8
:101100002060002060600020A0604FF6FF70E0606B
:10111000002020610020A0610120039000200490A5
:1011200001200590002006900020079000200890E4
:101130000120099000200A9000200B9003A92000B4
:10114000FFF7C0F9002801D000F02AFC0020009031
:10115000002002906946200000F0B8FC002801D071
:1011600000F01EFC0CB010BD10B588B01422002198
:1011700003A800F01CFC0C220021684600F017FCBC
:10118000DFF88445DFF884052060012060600020DE
:10119000A0604FF6FF70E060002020610020A06199
:1011A0002000FEF7F1FF002801D000F0F9FB072036
:1011B00003900020049003A92000FFF7E3FB002820
:1011C00001D000F0EDFB0020009000200290694665
:1011D000200000F07BFC002801D000F0E1FB08B00B
:1011E00010BD1FB50C220021684600F0E0FBDFF8BF
:1011F0002045DFF820052060472060600020A060C7
:101200004FF6FF70E0600020A0612000FEF7BCFFF9
:10121000002801D000F0C4FB0020009000200290C4
:101220006946200000F052FC002801D000F0B8FB15
:101230001FBD18B595B00C220021684600F0B7FB21
:101240001C22002103A800F0B2FB2C2200210AA8D6
:1012500000F0ADFBDFF8C044DFF8C00420600920D7
:1012600060600020A0604FF4B470E0600020206156
:10127000002060610020A0612000FFF731F8002805
:1012800001D000F08DFB0020009000200190002094
:1012900002906946200000F019FC002801D000F0FF
:1012A0007FFB602003900020049000200590002028
:1012B000069000200790002008900020099000224E
:1012C00003A92000FFF738FA002801D000F068FBDE
:1012D000042203A92000FFF72FFA002801D000F014
:1012E0005FFB082203A92000FFF726FA002801D09F
:1012F00000F056FB0C2203A92000FFF71DFA00287E
:1013000001D000F04DFB00200A9000200B9000203F
:101310000C9000200D9000200E904FF400500F9084
:1013200000201090002011905FF0007012900020BB
:101330001390002014900AA9200000F010FC00284F
:1013400001D000F02DFB200000F08EF916B010BD8A
:1013500080B5DFF8CC03DFF8CC13016000214160D9
:10136000002181604FF6FF71C16000210161002101
:10137000416100218161FEF707FF002801D000F0E4
:101380000FFB01BD80B5DFF8A003DFF8A0130160FB
:1013900000214160002181604FF6FF71C160002192
:1013A00001610021416100218161FEF7EDFE00280D
:1013B00001D000F0F5FA01BD10B586B0040014228A
:1013C0000021684600F0F3FA2068DFF82C13884209
:1013D0002DD1DFF85C03016851F400610160006801
:1013E00010F4006005900598DFF84803016851F497
:1013F00000310160006810F400300590059840202D
:10140000009002200190002002900020039006200E
:10141000049069465FF0904000F0F4FB0022052143
:101420001A2000F037FD1A2000F045FD73E0206817
:10143000DFF8D812884213D1DFF8FC02016851F0BE
:1014400004010160006810F0040005900598002276
:1014500005211E2000F01EFD1E2000F02CFD5AE08C
:101460002068DFF8B012884213D1DFF8CC0201689F
:1014700051F010010160006810F01000059005980F
:1014800000220521362000F005FD362000F013FD76
:1014900041E02068DFF88C1288420BD1DFF890021F
:1014A000016851F400310160006810F400300590CB
:1014B000059830E02068DFF8741288422BD1DFF8FD
:1014C0007002016851F480210160006810F48020EE
:1014D000059005989748016851F400310160006853
:1014E00010F40030059005988020009002200190B3
:1014F00000200290002003900120049069465FF0D4
:10150000904000F07FFB002205211A2000F0C2FC71
:101510001A2000F0D0FC06B010BD10B586B0040053
:101520001422002101A800F042FA2068B0F1804F97
:1015300029D18148016851F001010160006810F073
:101540000100009000987B48016851F4801101600F
:10155000006810F4801000900098982001900220FC
:10156000029000200390002004900220059001A921
:10157000724800F047FB002205211C2000F08AFC85
:101580001C2000F098FC06B010BD10B586B0040019
:101590001422002101A800F00AFA20685949884263
:1015A00021D16548016851F002010160006810F026
:1015B0000200009000985F48016851F480210160AA
:1015C000006810F4802000900098302001900220E4
:1015D000029000200390002004900220059001A9B1
:1015E000574800F00FFB06B010BD10B586B00400E0
:1015F00014220021684600F0DAF920684749884241
:1016000030D14B48016851F400510160006810F47A
:101610000050059005984748016851F48021016009
:10162000006810F48020059005984020009002206A
:10163000019000200290002003900A200490404C6A
:101640006946200000F0DEFA802000900220019020
:10165000002002900020039005200490694620009D
:1016600000F0D0FA06B010BD10B586B00400142208
:101670000021684600F09BF920681F49884219D173
:101680002C48016851F400110160006810F400104A
:10169000059005984FF40070009002200190002002
:1016A000029000200390022004906946254800F033
:1016B000A9FA1CE020681949884218D11D48016820
:1016C00051F400210160006810F400200590059895
:1016D0004FF47070009002200190002002900020D2
:1016E0000390042004906946174800F08BFA06B076
:1016F00010BD0000D8560020002C014024570020C7
:101700007057002000040040BC5700200008004033
:1017100008580020001000405458002000340140B8
:10172000A058002000440140EC580020004801402F
:1017300018100240141002401C100240000C004817
:10174000000400480010004800080048E0B5824846
:1017500002900020019081480090814B0022814935
:10176000814800F07CFD814800F04FFE804800F089
:101770004CFE804800F049FE07BD7F48016851F0EB
:10178000807101607D48016851F00101016070477E
:101790003EB500F051FE00F069F800F05FFE00F089
:1017A0004BFF00F0C0FF01F08BF801F0EDF8FFF700
:1017B000D1FBFFF75AFCFFF793FCFFF73AFD01F06E
:1017C00047F901F0A7F901F0C2F901F0DDF9FFF7DF
:1017D000CBFCFFF706FDFFF7BBFDFFF7D3FD01F0E4
:1017E00089FAFFF7CAFF664C664D2900200001F018
:1017F000B7FA2068002801D1012000E0002021680C
:1018000011F1010F01D1012100E00021C0B2C9B2E4
:1018100008435D4909780843002816D05FF4E13099
:1018200020600D2020710020A0606420E060C820AE
:101830002061012060610295210084B06846182271
:1018400001F004FB0FBC01F06BFA012204214F48A8
:1018500000F0AEFA44484E4908604FF4FA7001F0C7
:1018600039FB01F054FB01F079FDFEE780B59EB035
:101870002822002105A800F09AF8142200216846C9
:1018800000F095F83C2200210FA800F090F801200C
:1018900005905FF4803006900021079101210991A5
:1018A00002210C910D905FF480100E9005A801F0BC
:1018B000ABFD002801D000F073F80F20009002204B
:1018C0000190002002904FF480600390002004906B
:1018D0000221684602F0D2F8002801D000F060F83A
:1018E00043F282000F90002012904FF48070189005
:1018F00000201B9000201C900FA802F035FA002851
:1019000001D000F04DF81FB000BD80B50068B0F107
:10191000804F05D11E49086809680968096C884725
:1019200001BD80B50021114800F063FD01BD10B577
:10193000040020681749884207D1154A16480168F3
:10194000106812681268D26C904720681349884268
:1019500001D102F031FB10BD08580020D8560020FC
:10196000BC570020BC5A0020BC5400200C5A002058
:101970003C5A00206C5A0020FCED00E0001000E012
:101980000000002000FC0308DC5B00200010004881
:10199000605B002000080040240800400014004064
:1019A000704770477047704770477047704710B571
:1019B000044610460A460146204602F009FB20462E
:1019C00010BD000030B587B004000D00002C01D11F
:1019D000012076E094F83D00002805D1002084F82D
:1019E0003C002000FFF799FD022084F83D00211DF6
:1019F0002068FEF7F6FFAB68032229682068FFF72E
:101A0000F5F92068806930F00C0021688861206851
:101A1000816968680143206881612068406850F0EE
:101A20008000216848602068806830F0700021687C
:101A300088602068806850F04000216888602068D5
:101A40008168DFF884000140206881602068806838
:101A500050F0040021688860002004900020059068
:101A6000702000900020069000200390002002903B
:101A7000E868019069462068FFF75CF820684068D4
:101A800030F07000216848602068406850F05000D5
:101A900021684860012084F84800012084F83E0055
:101AA000C0B2012084F83F00C0B2012084F8440095
:101AB000C0B2012084F84500C0B2012084F83D0086
:101AC000002007B030BD0000F8FFFEFF70B490F8B2
:101AD0003C20012A01D102203FE0012280F83C2075
:101AE000022280F83D200268546802689368404DE5
:101AF0000268AA4203D00268404EB24203D134F4D5
:101B000070044A68144334F070040A68144302688D
:101B100054600268AA4213D00268B2F1804F0FD01D
:101B20000268344CA2420BD00268334CA24207D068
:101B30000268324CA24203D00268314CA24205D165
:101B400033F0800389680B4301688B60012180F8C2
:101B50003D10002180F83C10002070BC704710B48C
:101B6000002390F83C20012A01D102203EE001220E
:101B700080F83C201B0A1B02CA68134333F44073ED
:101B80008A68134333F480634A68134333F4006371
:101B90000A68134333F480530A69134333F4005340
:101BA0004A69134333F480438A6A134333F470233E
:101BB0008A6953EA024302680D4CA24203D00268CC
:101BC0000E4CA2420CD133F470034A6A53EA02531A
:101BD00033F08073CA69134333F00073096A0B430F
:101BE00001684B64002180F83C10002010BC704755
:101BF000002C014000040040000800400034014077
:101C000000400140F8B40200002433E0052704E05E
:101C1000DFF8B0319A42F9D1042714F00303DBB2A4
:101C20009B009F403E4323009B0845F82360DFF85C
:101C300098512B6883434E68F60300D503432B600D
:101C4000624D2B6883434E68B60300D503432B6077
:101C50005F4D2B6883434E68F60200D503432B602B
:101C60005C4D2B6883434E68B60201D518430300D0
:101C70002B60641C0868E040002800F09780012574
:101C8000086815FA04F318400028F2D00B7913F015
:101C90000303012B04D00B7913F00303022B16D19D
:101CA000966803272300DBB25B009F40BE43CF68EA
:101CB0002300DBB25B009F403E4396605368A54023
:101CC000AB434D68C5F30015A5402B4353600B791A
:101CD00013F00303032B0DD0D56803262300DBB2DA
:101CE0005B009E40B5438E682300DBB25B009E40E4
:101CF0003543D5600B7913F00303022B17D1230072
:101D0000DB0802EB83031D6A0F2614F00703DBB226
:101D10009B009E40B5430E6914F00703DBB29B00A5
:101D20009E4035432300DB0802EB83031D621568E8
:101D300003262300DBB25B009E40B5430E7916F00C
:101D400003062300DBB25B009E40354315604B6801
:101D500013F4403F8DD0204B1D6855F001051D60E8
:101D60001B6813F001030093009B1C4D23009B088C
:101D700055F823600F2714F00303DBB29B009F404C
:101D8000BE43B2F1904F01D1002746E7144B9A426F
:101D900001D1012741E7134B9A4201D102273CE7C9
:101DA000114B9A427FF434AF032736E7F1BC7047FA
:101DB000D2B2002A02D089B2816101E089B2816287
:101DC0007047000000100048000401400404014076
:101DD000080401400C0401401810024008000140B2
:101DE0000004004800080048000C004810F00700FC
:101DF000334B1A684FF6FF010A40324951EA00217D
:101E00000A431A6070472E480068C0F302207047EA
:101E1000010049B2002908D4012210F01F018A40B4
:101E2000294940B2400941F820207047020052B2CF
:101E3000002A04D40901254A40B2115407E00901DF
:101E4000234A40B210F00F00104400F8041C704701
:101E500010B410F00700D0F10703052B01D30423C1
:101E600001E0D0F10703041D072C01D2002000E09F
:101E7000C01E012414FA03F35B1E1940814014FABA
:101E800000F0401E1040084310BC704780B5FFF7BB
:101E9000ADFF01BD70B504000D0016000020FFF776
:101EA000B2FF32002900FFF7D3FF0100200040B24B
:101EB000FFF7BCFF70BD80B540B2FFF7A9FF01BDC1
:101EC0000CED00E00000FA0500E100E000E400E0B5
:101ED00018ED00E038B52DED088B05000C00200052
:101EE00080B240F2E931884201DB4FF47A7420007D
:101EF00080B2002800D10124288A02F09DF841EC2C
:101F0000140BB0EE448AF0EE648A688A02F094F80A
:101F100041EC130BB0EE484AF0EE684A9FEDB12B4E
:101F20009FEDB21BB0EE418AF0EE618AB0EE429AAC
:101F3000F0EE629AB0EE43AAF0EE63AAB0EE44BAB5
:101F4000F0EE64BAA4B2200002F076F841EC100B77
:101F5000B0EE4B4AF0EE6B4AB0EE4A3AF0EE6A3A17
:101F6000B0EE492AF0EE692AB0EE481AF0EE681A8F
:101F7000280002F097F851EC100B02F0CFF8E8823D
:101F8000BDEC088B31BD000038B52DED088B050088
:101F90000C00200080B240F2E931884201DB4FF4AE
:101FA0007A74200080B2002800D10124288A02F02F
:101FB00043F841EC140BB0EE448AF0EE648A688A70
:101FC00002F03AF841EC130BB0EE484AF0EE684AE2
:101FD0009FED842B9FED851BB0EE418AF0EE618A68
:101FE000B0EE429AF0EE629AB0EE43AAF0EE63AA27
:101FF000B0EE44BAF0EE64BAA4B2200002F01CF8CD
:1020000041EC100BB0EE4B4AF0EE6B4AB0EE4A3AA0
:10201000F0EE6A3AB0EE492AF0EE692AB0EE481ABC
:10202000F0EE681A280002F03DF851EC100B02F0B7
:1020300075F8A882BDEC088B31BD002903D00229B8
:1020400003D001D302E001E000E0FFE7704780F831
:102050006810704740687047006A704710B5040008
:10206000206A012815D16068002806D101224FF4AA
:1020700080719548FFF79CFE05E000224FF48071C7
:102080009148FFF795FE0020E16C09684863022043
:10209000206210BD016A002905D10021C26C1268BE
:1020A0005163012101627047016A002901D10321B6
:1020B0000162704780B5C9B2002905D00122012113
:1020C0008248FFF775FE04E0002201217F48FFF7F8
:1020D0006FFE01BD0EB430B50400A06C0068C06A8C
:1020E0006421B0FBF1F05A2110FB01F02082A06CBA
:1020F0000068C06A6421B0FBF1F00F2110FB01F011
:102100006082012020620020E062069989B22000EE
:10211000226812689047216D206C02F032F8E36962
:102120000022216D206C02F017F86068002806D1AB
:1021300001224FF480716448FFF73AFE08E06068BE
:10214000012805D100224FF480715F48FFF730FE6F
:10215000A068002809D1012280215B48FFF728FEF2
:102160000120616C096888620BE0A068012808D131
:10217000002280215448FFF71BFE0320616C096890
:10218000886200224FF480615048FFF711FE4E4DE7
:1021900001224FF480612800FFF70AFE012210217E
:1021A0004B48FFF705FE00224FF400412800FFF7DF
:1021B000FFFD484D002201212800FFF7F9FD012213
:1021C00004212800FFF7F4FD012202212800FFF777
:1021D000EFFD0021A06CFEF7C0F830BC5DF810FBED
:1021E000000000000000000000408F4000000000E0
:1021F0000000F03F70477047016A022902D00329AE
:1022000016D02BE0C18A826C1268526B914208D3BF
:10221000816C0968496B828A8918806C0068416307
:1022200005E0C18A826C126851630021016215E0E9
:10223000816C0968496B428A914208D3816C0968B4
:102240004A6B818A521A806C0068426305E0002163
:10225000826C1268516301210162FFE770472DE92A
:10226000F04704000D0016001F00DDF82080DDF8A7
:102270002490DDF828A0200001F0EBFE1648206035
:1022800025646764C4F84880C4F84CA02665C4F887
:1022900054900020A0650020E0650020206600200A
:1022A0006066012084F8680040F26310A4F86A00B8
:1022B00040F2DC50A4F86C000120206740206067E9
:1022C0002000BDE8F087000000100048000C004826
:1022D0000008004800040048307F000810B50400E2
:1022E000606A00286BD1E069002827D0022830D02E
:1022F00064D22069616888421CD1206A00280DD10F
:102300000122A18DA06AFFF753FD6169A069091A36
:10231000216100206060012020620EE00022A18D7A
:10232000A06AFFF745FDA0692061002060600020E1
:10233000206202E06068401C60603FE0206A012883
:1023400006D10022A18DA06AFFF732FD0020206295
:1023500034E02069616888422CD1206A00281DD1B0
:102360000122A18DA06AFFF723FD6169A069091A06
:1023700021610020606001202062A068E16888423D
:1023800008D1012060620020E0610020A0600020F0
:10239000E06012E0A068401CA0600EE00022A18D69
:1023A000A06AFFF705FDA0692061002060600020A1
:1023B000206202E06068401C6060FFE708E00122E4
:1023C000A18DA06AFFF7F4FC00206060012020626C
:1023D00010BD10B5040008001100A062A185012203
:1023E00089B2FFF7E5FC0120206010BD00214162A9
:1023F0007047002242620222C261C2688918C1602D
:102400007047C16142618361704700210160002112
:102410004160002181600021C160002101614FF411
:102420007A714161642181610121C16101210162EF
:10243000012141627047000080B50748016851F0F2
:10244000100101600320FFF721FD002001F02EFFA5
:1024500001F06CFF002002BD002002402DE9F84F82
:1024600086B0142200216846FFF7A1FA6D48016882
:1024700051F400110160016811F4001105910599F2
:10248000016851F400210160016811F400210591F7
:102490000599016851F480010160016811F480011F
:1024A00005910599016851F400310160016811F44A
:1024B000003105910599016851F48021016001689E
:1024C00011F4802105910599016851F48011016092
:1024D000006810F480100590059848F2845B524C17
:1024E000002259462000FFF763FC4EF210054F4EC4
:1024F000002229003000FFF75BFC41F60747DFF8B8
:102500003081002239004046FFF752FC40F2674913
:10251000DFF820A1002249465046FFF749FC00227F
:102520004FF400715FF09040FFF742FCCDF800B02F
:1025300001200190002002900020039069462000B5
:10254000FFF760FB702000900020019000200290B7
:1025500069462000FFF756FB0095012001900020FE
:1025600002900020039069463000FFF74BFB2020CB
:102570000090002001900020029069463000FFF793
:1025800041FB009701200190002002900020039061
:1025900069464046FFF736FB4FF498500090022002
:1025A00001900020029003200390072004906946C8
:1025B0005046FFF727FBCDF8009001200190002046
:1025C00002900020039069465046FFF71BFB4FF432
:1025D00000700090012001900020029000200390E4
:1025E00069465FF09040FFF70DFB08200090002047
:1025F00001900020029069464046FFF703FB4FF42C
:10260000407000900220019000200290032003906F
:102610000920049069464046FFF7F4FA07B0BDE888
:10262000F08F00BF1410024000100048000800485E
:1026300000040048000C004818B589B00C220021A5
:1026400006A8FFF7B4F9182200216846FFF7AFF992
:10265000934C5FF0A0402060002060600020A060EC
:102660000120206101206076002084F820000020F5
:10267000E0620120A0620020E0600420E06101200F
:1026800084F8300004206061002020760020606320
:10269000200001F06BFE002801D0FFF781F9002037
:1026A000069006A9200002F0F9F9002801D0FFF7F2
:1026B00077F906200090012001900020039004206B
:1026C000029000200490002005906946200001F04F
:1026D000C7FF002801D0FFF763F907200090022010
:1026E00001906946200001F0BBFF002801D0FFF7F0
:1026F00057F908200090032001906946200001F05E
:10270000AFFF002801D0FFF74BF90920009004200B
:1027100001906946200001F0A3FF002801D0FFF7D7
:102720003FF90AB010BD10B586B0182200216846E6
:10273000FFF73DF95B4C5C482060002060600020A2
:10274000A0600020206100206076002084F8200036
:102750000020E0620120A0620020E0600120E06132
:10276000002084F8300004206061002020760020E2
:102770006063200001F0FAFD002801D0FFF710F996
:102780000920009001200190002003900020029079
:1027900000200490002005906946200001F060FFB1
:1027A000002801D0FFF7FCF806B010BD38B586B0A0
:1027B00004001422002101A8FFF7F9F82068B0F105
:1027C000A04F41D139480168491C016000680128C7
:1027D00009D13748016851F080510160006810F05C
:1027E0008050009000983248016851F40021016047
:1027F000006810F40020009000980F200190032042
:1028000002900020039001A92A48FFF7FBF92A4D06
:102810002A482860002068600020A8608020E860C6
:102820004FF4807028614FF4806068612020A861B7
:102830000020E861280002F03DFA002801D0FFF7EF
:10284000AFF8A5636C6228E020681749884224D15C
:1028500016480168491C01600068012809D1144824
:10286000016851F080510160006810F080500090C4
:1028700000980F48016851F400210160006810F4CD
:102880000020009000980F2001900320029000206B
:10289000039001A90748FFF7B5F907B030BD000064
:1028A000EC5500203C560020000100503C5B00200D
:1028B0001410024000080048385900200800024067
:1028C0001FB50C2200216846FFF771F82A4C2B48EF
:1028D0002060200002F0EEFA002801D0FFF760F837
:1028E000002000900020019000226946200001F0A5
:1028F000B3FC002801D0FFF753F8102269462000EE
:1029000001F0AAFC002801D0FFF74AF81FBD10B55E
:1029100086B004001422002101A8FFF748F82068BF
:102920001649884226D11648016851F000510160CD
:10293000006810F00050009000981248016851F4AF
:1029400000310160006810F40030009000983020E1
:102950000190032002900020039001A95FF09040B5
:10296000FFF750F9002205213620FFF793FA3620B1
:10297000FFF7A1FA06B010BDBC5A00200074004059
:102980001C1002401410024080B52C482C490160F4
:102990004FF482714160002181604FF4E061C160B9
:1029A00000210161002141614FF4007181613821F2
:1029B000C161002101620021416200218162072181
:1029C000C162002101630821416302F089FA0028F5
:1029D00001D0FEF7E5FF01BD10B586B0040014225A
:1029E000002101A8FEF7E3FF20681549884222D1A3
:1029F0001448016851F480410160006810F480407F
:102A0000009000981048016851F48021016000682E
:102A100010F48020009000984FF460400190022054
:102A2000029000200390032004900520059001A946
:102A30000648FFF7E7F806B010BD00003455002047
:102A4000003800401C1002401410024000040048EE
:102A500080B52C482C4901605FF4E13141600021D0
:102A600081600021C160002101610C2141610021D0
:102A700081610021C16100210162002141620023C6
:102A80000022002102F0AEFA002801D0FEF788FFF4
:102A900001BD10B586B004001422002101A8FEF784
:102AA00086FF2068184988422AD11848016851F4E5
:102AB00000310160006810F4003000900098144864
:102AC000016851F400310160006810F4003000909A
:102AD00000980E2001900220029000200390032015
:102AE00004900720059001A95FF09040FFF78AF855
:102AF000002205212620FFF7CDF92620FFF7DBF97C
:102B000006B010BD38540020004400401C100240A4
:102B10001410024080B56F486F4901605021416038
:102B2000802181607F21C16000210161002141611C
:102B3000002181610021C161002101620021416207
:102B400002F09AFA002801D0FEF72AFF01BD80B5F5
:102B500062486349016050214160002181607F210A
:102B6000C1600021016100214161002181610021DA
:102B7000C161002101620021416202F07DFA00285A
:102B800001D0FEF70DFF01BD80B5564856490160E2
:102B900050214160002181607F21C16000210161DD
:102BA00000214161002181610021C1610021016298
:102BB0000021416202F060FA002801D0FEF7F0FE29
:102BC00001BD10B586B00400142200216846FEF74E
:102BD000EEFE2068404988422ED14448016851F4F5
:102BE00080110160016811F4801105910599016857
:102BF00051F400310160006810F400300590059830
:102C00004FF480400090032001900020029069461C
:102C10003748FEF7F7FF4FF48070009002200190D4
:102C200000200290002003900820049069465FF085
:102C30009040FEF7E7FF4BE02068294988422ED1FB
:102C40002A48016851F480110160016811F4801173
:102C500005910599016851F400310160006810F494
:102C60000030059005984FF400600090032001901B
:102C70000020029069461E48FEF7C4FF4FF48060B2
:102C80000090022001900020029000200390082074
:102C9000049069465FF09040FEF7B4FF18E02068AA
:102CA0001149884214D11148016851F40031016082
:102CB000006810F400300590059801200090032072
:102CC00001900020029069465FF09040FEF79AFF65
:102CD00006B010BD7C59002024000140AC590020F2
:102CE00030000140DC590020340001401410024043
:102CF000000C004880B50948016851F001010160ED
:102D0000006810F0010000900098002205210B20BF
:102D1000FFF7C0F80B20FFF7CEF801BD14100240FA
:102D20000FB4F8B50C9C062606AF00F049F8200059
:102D300000F031F800250AE02800C0B257F8201052
:102D40002800C0B214EB800000F046F86D1C28008B
:102D5000C0B2B042F0D300F039F8F1BC5DF814FB1A
:102D600030B40622002308E01C00A4B251F824402D
:102D70001D00ADB240F825405B1C1C00A4B294427B
:102D8000F2D330BC70472348006810F0010090F087
:102D90000100C0B2704710B51F4C216851F002010C
:102DA00021601E490860206850F040002060FFF755
:102DB000EAFF0028FBD0206830F00200206010BD40
:102DC00017481849016018490160704712480168A6
:102DD00051F080010160704770B504000D000E4E87
:102DE000306850F001003060FFF7CDFF0028FBD0C5
:102DF0002580FFF7C8FF0028FBD0A41C2D0C2580E0
:102E0000FFF7C1FF0028FBD0306840084000306069
:102E100070BD00000C20024010200240142002402F
:102E20000420024023016745AB89EFCD62B38B07D5
:102E300008D0521E11F8013B00F8013B00F024803D
:102E40008B07F6D1830740F0208000BF103A07D3EC
:102E500030B4B1E83810103AA0E83810F9D230BCDC
:102E6000530724BFB1E80810A0E8081044BF51F888
:102E7000043B40F8043BD20724BF31F8022B20F872
:102E8000022B44BF0B7803707047121F17D35B00EF
:102E900009D151F8043B20F8023B1B0C121F20F80B
:102EA000023BF6D20BE051F8043B00F8013B1B0A51
:102EB00020F8023B1B0C121F00F8013BF3D238BF75
:102EC000121D521E24BF11F8013B00F8013BF8D837
:102ED0007047000038B5040002F034F9050014F121
:102EE000010F02D004480078241802F02BF9401B8F
:102EF000A042FAD331BD00BFA9000020DFF8E833BB
:102F00000360DFF8E803086080201060704700B5B8
:102F100095B00EA8DFF8D8131C22FFF797FF002109
:102F20000EA800F02BFADFF8CC13086007A8DFF832
:102F3000C8131C22FFF78AFF002107A800F01EFA21
:102F4000DFF8B81308606846DFF8B4131C22FFF7F7
:102F50007DFF0021684600F011FADFF8A813086031
:102F600015B000BD2DE9FF41142000F036FA012212
:102F70004FF400715FF09040FEF71AFF142000F04C
:102F80002CFA00224FF400715FF09040FEF710FF22
:102F9000DFF87443DFF87453290083B068461822C1
:102FA000FFF754FF0EBC206826683668F66AB04703
:102FB000696920682268126852699047DFF85053A7
:102FC000DFF850834FF4004241462800FFF701FA32
:102FD000DFF844634FF4005241463000FFF7F9F93F
:102FE000DFF838734FF4804241463800FFF7F1F9BB
:102FF00064234FF4FA6201213800FFF702FA380027
:10300000FFF7F4F9DFF8188301224FF4806140469E
:10301000FEF7CEFE01224FF400614046FEF7C8FEE7
:1030200000F0A1F900902800FFF758F93000FFF7F1
:1030300055F93800FFF752F9DFF8E882D8F80000B8
:10304000012807D10020C8F800002068216809681D
:10305000496B8847D8F80000022807D10020C8F83B
:103060000000206821680968896B8847D8F800004B
:10307000032807D10020C8F80000206821680968EB
:10308000096B8847D8F80000042802D10020C8F84E
:1030900000000121684600F0ABF9C4E780B59B4809
:1030A00000210091036803220179002002F050F80A
:1030B00002F09BF802F0A9F8FCE780B500F053F9A4
:1030C00000909149086809680968896C884701215E
:1030D000684600F08DF9F4E70020C0B270477FB574
:1030E0000600080080B2002800D0491E0024DBB290
:1030F000002B02D0012B2ED0F1E089B200290FD095
:1031000002290FD00DD304291CD013D306291BD0BC
:1031100019D308291AD018D30A2919D017D318E0BF
:1031200018E017E07849086809680968096A88475B
:1031300030700FE07449086809680968C9698847F0
:10314000307007E006E005E004E003E002E001E0A3
:1031500000E00124C4E089B2002912D0022958D02D
:103160003AD3042957D055D306297DD061D30829F5
:1031700000F09A8079D30A2900F0AB80C0F0A080DB
:10318000ABE07078002813D15F4D28682968096882
:10319000096A884700281ED1286829680968896B50
:1031A0008847002128682A681268D26B904712E08D
:1031B000554D286829680968096A884701280AD195
:1031C000012128682A681268D26B9047286829680C
:1031D0000968096B884781E0707800280CD14A4D56
:1031E000286829680968096A8847012804D10021EC
:1031F000286800F055FF0BE0434D286829680968EE
:10320000096A8847012803D10121286800F048FF96
:1032100064E063E062E00021307851EA00217078D8
:103220000143394A89B2106812681268D26890471F
:1032300054E00025307855EA002570780543324A7D
:10324000290089B2106812681268126890472F49E5
:10325000CD603548029084B068461822FFF7F6FD2D
:103260000FBCFFF75DFD39E038E00025307855EA06
:10327000002570780543002D01D0012100E00021D8
:10328000214AC9B2106812681268126990471F4932
:103290004D612548029084B068461822FFF7D6FD9C
:1032A0000FBCFFF73DFD19E01F480290174984B09D
:1032B00068461822FFF7CAFD0FBCFFF731FD0DE08D
:1032C0003078717851EA00210A2041430F480160AB
:1032D00004E070780D49087100E0012400E0022448
:1032E0002000C0B204B070BD98550020AC50002042
:1032F000B8800008445B0020D4800008485B0020B0
:10330000F08000084C5B0020605B00200000002083
:103310000C5A0020000800483C5A00206C5A00203B
:1033200000040048405B002000FC030801207047B7
:1033300001207047010000200A0012B2842A03D045
:1033400009B2C91C091808007047EFF3058000286E
:1033500001D0012000E00020C0B2704780B502F02B
:103360008BF9002002BD80B5FFF7EFFF002802D0E7
:1033700002F045FA01E002F03EFA02BD38B584B031
:1033800004000D006069002815D0A069002812D043
:10339000B4F90800FFF7CEFFA169029161690191BC
:1033A00000902B0022692168606801F0D1FF039032
:1033B000039805B030BDB4F90800FFF7BBFF03A9BF
:1033C000019100902B00226992B22168606802F09E
:1033D00000F80128ECD00020EBE780B50121B0FB1C
:1033E000F1F0002800D1012002F020F9002002BDF8
:1033F00080B50122B1FBF2F1002900D1012102F0D8
:10340000C3F8002002BD00002DE9F8430400002CA1
:1034100001D1012030E32078C00740F1BE80DFF801
:103420000009016811F00C0104290AD0016811F0AB
:103430000C01082928D1006810F48030B0F5803FD5
:1034400022D14FF48040B0FA80F151F02001C9B28E
:103450004909012903D1DFF8C418096806E0B0FA68
:1034600080F1B0FA80F1DFF8D0180968B0FA80F086
:1034700010F01F00C140C80740F18F80606800282D
:1034800040F08B800120F7E26068B0F5803F06D104
:10349000DFF88808016851F48031016026E0606837
:1034A00000280AD1DFF87408016831F48031016026
:1034B000016831F48021016018E06068B0F5A02F48
:1034C0000AD1DFF85808016851F4802101600168D1
:1034D00051F48031016009E0DFF84008016831F4FF
:1034E00080310160016831F480210160DFF840180B
:1034F0000A6812091201A06802430A606068002885
:1035000025D001F01FFE05004FF48040B0FA80F195
:1035100051F02001C9B24909012903D1DFF8FC1794
:10352000096806E0B0FA80F1B0FA80F1DFF8081817
:103530000968B0FA80F010F01F00C140C8072CD411
:1035400001F000FE401B6528DED3032094E201F069
:10355000F9FD05004FF48040B0FA80F151F02001F0
:10356000C9B24909012903D1DFF8B017096806E09B
:10357000B0FA80F1B0FA80F1DFF8BC170968B0FA50
:1035800080F010F01F00C140C80706D501F0DAFD39
:10359000401B6528DED303206EE2207880073CD5EF
:1035A000DFF87C07016811F00C0F07D0016811F0FB
:1035B0000C01082960D10068C0035DD45FF0804031
:1035C000B0FA80F151F02001C9B24909012903D1B3
:1035D000DFF84817096806E0B0FA80F1B0FA80F128
:1035E000DFF854170968B0FA80F010F01F00C140EE
:1035F000C80704D52069012801D001203CE2DFF88A
:103600001C0701685FF0F852B2FA82F231F0F8015B
:10361000636913FA02F2114301602078000740F158
:10362000C480A069002800F09A8001205FF000416A
:10363000B1FA81F1DFF8FC2612EB8102106001F093
:1036400081FD05005FF08040B0FA80F1B0FA80F1B2
:10365000B0FA80F1DFF8E0160968B0FA80F010F0F7
:103660001F00C140C80700F1A08001F06BFD401BA6
:103670000328E7D30320FFE1206900283ED0012082
:103680005FF00041B1FA81F1DFF8B02612EB810260
:10369000106001F057FD05005FF08040B0FA80F146
:1036A00051F02001C9B24909012903D1DFF86C1694
:1036B000096806E0B0FA80F1B0FA80F1DFF8781618
:1036C0000968B0FA80F010F01F00C140C80706D4A6
:1036D00001F038FD401B0328DED30320CCE1DFF8E6
:1036E0003C0601685FF0F852B2FA82F231F0F8015C
:1036F000636913FA02F2114301608EE700205FF064
:103700000041B1FA81F1DFF8342612EB810210603A
:1037100001F018FD05005FF08040B0FA80F151F033
:103720002001C9B24909012903D1DFF8F015096860
:1037300006E0B0FA80F1B0FA80F1DFF8FC15096814
:10374000B0FA80F010F01F00C140C8077FF565AFE8
:1037500001F0F8FC401B0328DDD303208CE100209E
:103760005FF00041B1FA81F1DFF8C82512EB810268
:10377000106001F0E7FC05005FF08040B0FA80F1D6
:10378000B0FA80F1B0FA80F1DFF8AC150968B0FA50
:1037900080F010F01F00C140C80706D501F0D2FC30
:1037A000401B0328E8D3032066E12078400740F15E
:1037B000B1800026DFF888552868C00009D4286841
:1037C00050F080502860286810F0805000900098D9
:1037D0000126DFF870753868C00511D4386850F4D8
:1037E0008070386001F0AEFC80463868C00507D4B0
:1037F00001F0A8FCB0EB08006528F6D303203BE1FC
:10380000E068012806D1DFF84005016851F00101A8
:10381000016025E0E06800280AD1DFF82C05016886
:10382000490849000160016831F00401016017E0B6
:10383000E06805280AD1DFF81005016851F004019D
:103840000160016851F00101016009E0DFF8F8044E
:103850000168490849000160016831F00401016014
:10386000E068002827D001F06DFC07005FF0804081
:10387000B0FA80F1B0FA80F151F04001C9B24909C3
:10388000022903D1DFF8C014096804E0B0FA80F11E
:10389000DFF8A4140968B0FA80F010F01F00C140EE
:1038A000C80730D401F04EFCC01B41F28931884278
:1038B000DCD30320E0E001F045FC07005FF080402E
:1038C000B0FA80F1B0FA80F151F04001C9B2490973
:1038D000022903D1DFF87014096804E0B0FA80F11E
:1038E000DFF854140968B0FA80F010F01F00C140EE
:1038F000C80708D501F026FCC01B41F28931884277
:10390000DCD30320B8E0F6B2012E03D1286830F0F2
:1039100080502860E069002800F0AD80DFF8006486
:10392000306810F00C00082800F09380E06902284D
:1039300061D18027DFF804840020B7FA87F118EB03
:103940008101086001F0FEFB81464025B5FA85F053
:1039500050F02000C0B24009012803D1DFF8BC03B9
:10396000006806E0B5FA85F0B5FA85F0DFF8C8031F
:103970000068B5FA85F111F01F01C840C00707D5EE
:1039800001F0E0FBB0EB09000328DED3032073E075
:10399000316831F47411606A0143206A0143316077
:1039A0000120B7FA87F118EB8108C8F8000001F090
:1039B000C9FB0400B5FA85F050F02000C0B2400900
:1039C000012803D1DFF85403006806E0B5FA85F05A
:1039D000B5FA85F0DFF860030068B5FA85F111F0FB
:1039E0001F01C840C00746D401F0ACFB001B0328F0
:1039F000E0D3032040E000208021B1FA81F1DFF81C
:103A00003C2312EB8102106001F09CFB040040207B
:103A1000B0FA80F151F02001C9B24909012903D15E
:103A2000DFF8F812096806E0B0FA80F1B0FA80F128
:103A3000DFF804130968B0FA80F010F01F00C140ED
:103A4000C80718D501F07EFB001B0328DFD3032035
:103A500012E0E069012801D101200DE0306810F486
:103A60008031226A914204D110F47010616A884258
:103A700001D0012000E00020BDE8F2832DE9F041F3
:103A800004000D000020002C01D10120D2E0DFF85D
:103A9000BC62306810F00700A8420BD23068C00842
:103AA000C00028433060306810F00700A84201D001
:103AB0000120BFE02078800707D5DFF864120A688C
:103AC00032F0F002A06802430A602078C00776D581
:103AD000606801281DD14FF48040B0FA80F151F0A8
:103AE0002001C9B24909012903D1DFF83012096860
:103AF00006E0B0FA80F1B0FA80F1DFF83C12096814
:103B0000B0FA80F010F01F00C140C8073CD401207B
:103B100090E0606802281BD14020B0FA80F151F09B
:103B20002001C9B24909012902D17C49096806E08E
:103B3000B0FA80F1B0FA80F1DFF8FC110968B0FA50
:103B400080F010F01F00C140C8071DD4012071E0B3
:103B50005FF08040B0FA80F151F02001C9B249090C
:103B6000012902D16D49096805E0B0FA80F1B0FA87
:103B700080F171490968B0FA80F010F01F00C1406F
:103B8000C80701D4012055E0654F396889088900CC
:103B900060680143396001F0D5FA8046386810F05A
:103BA0000C006168B0EB810F09D001F0CBFAB0EBEB
:103BB000080041F289318842F0D303203AE03068AE
:103BC00010F0070085420BD23068C008C0002843BF
:103BD0003060306810F00700A84201D0012029E0D1
:103BE0002078400706D54E490A6832F4E062E06862
:103BF00002430A602078000707D54948016831F47C
:103C00006051226951EAC201016000F015F844498F
:103C100009684F4A11F0F0015FF07063B3FA83F363
:103C2000D940515CC840404908604048006800F0F5
:103C30003DFB0020BDE8F08110B4002000200020F2
:103C4000002000203648016811F00C00042802D042
:103C5000082802D021E03F4820E03F4811F47012CC
:103C60004FF47053B3FA83F3DA40805C304A126841
:103C70003A4B12F00F025FF07044B4FA84F4E24061
:103C80009A5CC90306D53349B1FBF2F2010010007A
:103C9000484301E03249484300E0224810BC7047E5
:103CA00021480068704780B5FFF7FAFF1C49096892
:103CB0002C4A11F4E0615FF46003B3FA83F3D94056
:103CC000515CC84002BD80B5FFF7EAFF144909689E
:103CD000244A11F460515FF4E013B3FA83F3D9403E
:103CE000515CC84002BD0F2202600D4A136813F0F8
:103CF00003034360136813F0F0038360136813F445
:103D0000E063C3601268D20812F4E06202610F48F7
:103D1000006810F0070008607047000000100240C3
:103D20000410024000127A00A4000020A00000202D
:103D30002C10024080044242241002400000424203
:103D40001C10024000700040201002400020024081
:103D500098810008001BB70078810008888100085E
:103D600000093D00E48100082DE9FC410400002029
:103D7000002000262068C0037CD5DFF81C5228688C
:103D8000C00009D4286850F080502860286810F0DE
:103D90008050009000980126DFF800723868C00556
:103DA00011D4386850F48070386001F0CBF9804647
:103DB0003868C00507D401F0C5F9B0EB08006528E4
:103DC000F6D30320E6E0DFF8D871386810F44070CD
:103DD000002842D0616811F4407188423DD03868B3
:103DE00030F44070DFF8BC114FF400420123B2FA06
:103DF00082FC11EB8C0CCCF800300023B2FA82F27A
:103E000011EB82010B603860C00726D501F09AF9EA
:103E100080465FF08040B0FA80F1B0FA80F151F056
:103E20004001C9B24909022901D1396804E0B0FA58
:103E300080F1DFF874110968B0FA80F010F01F000B
:103E4000C140C80709D401F07DF9B0EB080041F288
:103E500089318842DDD303209CE0396831F4407118
:103E6000606801433960F6B2012E03D1286830F052
:103E7000805028602078C00707D5DFF830110A6825
:103E800092089200A06802430A602078800707D554
:103E9000DFF818110A6832F44032E06802430A6021
:103EA0002078400707D5DFF804110A6832F4402271
:103EB000206902430A602078800607D5DFF8EC10FD
:103EC0000A6832F01002E06902430A602068800349
:103ED00007D5DFF8DC100A6832F48002A06B0243D9
:103EE0000A602078400607D5DFF8C0100A6832F073
:103EF0002002206A02430A602078000707D5DFF815
:103F0000AC100A6832F44012606902430A602078FB
:103F1000C00607D5DFF894100A6832F44002A069A1
:103F200002430A602068800507D5DFF884100A681C
:103F300032F40002E06A02430A602078000607D5E6
:103F4000DFF870100A6832F4F872606A02430A609F
:103F50002068C00507D5DFF85C100A6832F4785293
:103F6000A06A02430A602068C00407D5DFF83C104D
:103F70000A6832F48072206B02430A602068800471
:103F800007D5DFF828100A6832F40072606B02432C
:103F90000A600020BDE8F6811C100240007000405D
:103FA000201002400004424224100240301002401F
:103FB000041002402C10024003480168034A1278A2
:103FC00089180160704700BF905B0020A9000020A5
:103FD00062F30F2262F31F42401810F0030308D06F
:103FE000C91A1FD3DB0748BF00F8012D28BF20F8EE
:103FF000022D130030B414461546103928BF20E9AD
:104000003C00FAD8490728BF20E90C0048BF40F817
:10401000042D890028BF20F8022D48BF00F8012D8B
:1040200030BC7047C91818BF00F8012DCB0728BF56
:1040300000F8012D70470000014648B1B0FA80F148
:104040008840C91CC1F58461090501EBD0214005F8
:10405000704780B500F001F802BD002141600021E9
:1040600081600521C160002101820021418264211B
:1040700081820021C182002181610021C161012171
:10408000016200218184002181620221C16200213C
:10409000016300214163002181630221C1637047F4
:1040A0004160704738B52DED088BB0EE418AF0EED7
:1040B000618AB0EE429AF0EE629AB0EE43AAF0EE58
:1040C00063AAB0EE44BAF0EE64BA51EC100B53ECB4
:1040D000182B01F055FD04000D0051EC1B0B53ECA7
:1040E0001A2B01F04DFD22002B0001F0BBFD040056
:1040F0000D0051EC190B53EC182B01F041FD02009F
:104100000B002000290001F07FFE53EC1A2B01F078
:104110009FFF41EC100BBDEC088B31BDC1F30A537E
:1041200040F2FE329B1A14DDD3F120034FEAE17214
:1041300008DDC90241EA505141F00040D8408018E2
:104140005040704703F2E13010B1D24382F000409A
:10415000704700207047000018B4002400940068E5
:104160000090002904D1009808321218009203E050
:10417000009814321218009200980360002012BCBC
:1041800070474279012A01D102202BE001224271BD
:10419000022202710268126801238B401A430368ED
:1041A0001A6000290CD10168096811F03C013C2912
:1041B00013D10168496851F00101026851600CE0B7
:1041C0000168096811F47011B1F5701F05D101681B
:1041D000496851F00201026851600121017100211A
:1041E00041710020704710B5040020680068800409
:1041F00016D52068406B800412D5042020712069F8
:1042000050F0010020614FF400502168486320689D
:10421000006830F4805021680860200001F0D5FF6C
:1042200020680068800016D52068406B800012D599
:1042300004202071206950F0020020615FF00050DE
:10424000216848632068006830F080502168086069
:10425000200001F0BBFF10BD10B400230023437900
:10426000012B01D102201EE00123437102230371BF
:1042700003681B6840F6FE749440A3430C684968C9
:104280000C439440234301680B6001680968C02314
:1042900013FA02F231EA020201680A600121017197
:1042A00000214171002010BC7047000018B587B094
:1042B00001000020002000223720FDF7EBFD372011
:1042C000FDF7F9FD1548016851F020010160006813
:1042D00010F020000090009801A902A8FFF703FD4C
:1042E000FFF7E1FC40000E49B0FBF1F0401E0D4C21
:1042F0000D49216040F2E731E160606000202061FB
:104300000020A0602000FBF73FFF002803D1200021
:10431000FBF777FF00E0012008B010BD1C10024041
:1043200040420F008C5600200014004080B50D481C
:10433000016851F001010160006810F00100009077
:1043400000980948016851F080510160006810F040
:1043500080500090009800220F217FF00100FDF7AF
:1043600099FD01BD181002401C10024078B595B0AF
:1043700004000025002600200090002C01D101201F
:104380005AE12069002802D094F820000028206C0F
:10439000C00653D4206C00283DD10020606400206A
:1043A000E0640020A064002084F83C002000FEF7B8
:1043B000FDF920688068C0002DD4200000F028FCA2
:1043C0000500206CC00626D42800C0B2002822D1E7
:1043D000206C30F4885050F002002064206880681F
:1043E00030F04050216888602068806850F080502C
:1043F00021688860DFF844020068DFF84412B0FBEF
:10440000F1F10A204143009102E00098401E009023
:1044100000980028F9D120688068C00003D5206882
:10442000806880000AD5206C30F0020050F0100047
:104430002064606C50F0010060640125206CC006AF
:1044400000F1F1802800C0B2002840F0EC80206824
:104450008068400700F1E780206C30F4807050F0F5
:10446000020020642068B0F1A04F04D02068DFF87B
:10447000D411884202D1DFF8D01101E0DFF8CC116D
:104480002068B0F1A04F04D1DFF8B8010190019885
:104490001EE02068DFF8AC21904204D15FF0A0401C
:1044A0000190019814E0DFF8A8012268824204D14B
:1044B000DFF8A001019001980AE02268DFF894314A
:1044C0009A4202D10190019802E0002001900198E7
:1044D0002068806810F00300012804D1206800687B
:1044E00010F0010000E00020002816D101980028FB
:1044F0000DD00198806810F00300012804D10198C4
:10450000006810F0010000E00020002805D18A6852
:1045100032F44032606802438A60606B012802D046
:104520004FF4805100E00021607E51EA4031E068A4
:104530000143A06801430E4394F82000012813D1E1
:10454000607E002806D1606A401E400450F480302E
:10455000064309E0206C30F0020050F02000206497
:10456000606C50F001006064A06A012824D02068CB
:10457000DFF8DC10884204D02068DFF8D8108842C9
:1045800016D1A06AB0F5307F02D14FF4E07110E08F
:10459000A06AB0F5807F02D14FF4307109E0A06AC3
:1045A000B0F5E07F02D14FF4807102E0A16A00E033
:1045B000A16AE06A01430E432068806810F00C0F86
:1045C0000DD12068C168DFF8900001402068C1600B
:1045D000207E94F83010490051EA80310E43206863
:1045E000C168DFF8780001400E432068C66020698A
:1045F000012809D12068006B00090001E169491E0A
:1046000008432168086305E02068006B0009000189
:104610002168086300206064206C30F0020050F0D4
:104620000100206406E0206C30F0020050F0100021
:10463000206401252800C0B216B070BDA40000207F
:1046400040420F00000100500003005000070050DE
:104650000004005000050050FDBFFFFF07C0F0FF41
:1046600070B495B002000B00002100200090D868C3
:104670000128FFD192F83C00012801D1022003E279
:10468000012082F83C0010688068400700F1F28148
:104690005868052811D206201468246B1F255E680F
:1046A0004643B540AC431D685E6800FB06F015FA52
:1046B00000F020431468206340E058680A2813D2B1
:1046C00006241068456B1F265868401F10FB04F035
:1046D0008640B5431E685868401F10FB04F08640B2
:1046E00035431068456329E058680F2813D2062423
:1046F0001068856B1F2658680A3810FB04F0864046
:10470000B5431E6858680A3810FB04F086403543EC
:104710001068856312E006241068C56B1F26586870
:104720000F3810FB04F08640B5431E6858680F38F8
:1047300010FB04F0864035431068C563106880683C
:1047400010F00C0F40F0AB8018680A2814D31068E2
:104750008469072518680A38032610FB06F085408F
:10476000AC439D6818680A38032610FB06F08540A4
:104770002C43106884610FE01068446907251E68A7
:1047800003204643B540AC439D681E680320464362
:10479000B5402C431068446158691468E468C4F358
:1047A000C104E4B2640010FA04F41869012806D0C8
:1047B0003DD303281FD010D304282AD037E0106837
:1047C000056EDFF840040540186855EA80652C4303
:1047D00054F000441068046661E01068456EDFF82C
:1047E00024040540186855EA80652C4354F00044C1
:1047F0001068446653E01068856EDFF808040540D1
:10480000186855EA80652C4354F0004410688466AB
:1048100045E01068C56EDFF8EC030540186855EAFE
:1048200080652C4354F000441068C46637E010687B
:10483000006E10F0F8401C68B0EB846F05D1106872
:10484000006E20F00040146820661068406E10F082
:10485000F8401C68B0EB846F05D11068406E20F002
:104860000040146860661068806E10F0F8401C68A4
:10487000B0EB846F05D11068806E20F000401468A2
:10488000A0661068C06E10F0F8401C68B0EB846F32
:1048900005D11068C06E20F000401468E066106812
:1048A000806810F00300012804D11068006810F03F
:1048B000010000E00020002840F0E180D8680128D5
:1048C0000AD01068D0F8B040012518688540AC4384
:1048D0001068C0F8B04035E01068D0F8B04001254D
:1048E000186885402C431068C0F8B04018680A2842
:1048F00014D310688469072518680938032610FB4B
:1049000006F08540AC439D6818680938032610FB03
:1049100006F085402C431068846113E010684469F8
:1049200007251868401C032610FB06F08540AC43A1
:104930009D681868401C032610FB06F085402C4338
:10494000106844611068B0F1A04F03D01068504C5B
:10495000A04202D1DFF8B04201E0DFF8B0421868AF
:10496000102802D1A06800020CD51868112802D1C5
:10497000A068C00106D51868122840F08080A068A1
:1049800040027CD41068B0F1A04F03D140480190A0
:1049900001981AE010683E4DA84204D15FF0A04093
:1049A0000190019811E03B481568854203D13A48CF
:1049B0000190019809E01568374EB54202D1019087
:1049C000019802E00020019001981068806810F0C2
:1049D0000300012804D11068006810F0010000E015
:1049E0000020002840D1019800280DD0019880684F
:1049F00010F00300012804D10198006810F00100B4
:104A000000E0002000282FD11868102818D1106865
:104A1000B0F1A04F14D1A06850F40000A060DFF8FE
:104A20007C020068DFF87832B0FBF3F30A204343DE
:104A300000930098002822D00098401E0090F8E7CC
:104A40001868112808D11068B0F1A04F04D1A068EF
:104A500050F08070A06012E0186812280FD1A06892
:104A600050F48000A0600AE0106C50F02000106448
:104A7000012104E0106C50F020001064012100209E
:104A800082F83C000800C0B215B070BC704700004E
:104A900000010050000400500005005030B494B0F4
:104AA00000220B68002B0368B3F1A04F04D1DFF89C
:104AB000FC310093009B1EE00368DFF8F041A34245
:104AC00004D15FF0A0430093009B14E0DFF8D431E1
:104AD00004689C4204D1DFF8D0310093009B0AE0C7
:104AE0000468DFF8C451AC4202D10093009B02E09D
:104AF00000230093009B009B002B01D101207DE04F
:104B000090F83C30012B01D1022077E0012380F89E
:104B10003C3003689B685B0766D4009B9B685B071F
:104B200062D40368B3F1A04F04D00368DFF87C417E
:104B3000A34201D1344C00E0344C0B68002B2ED042
:104B4000A56835F460454B681D4390F8303055EA50
:104B50004335A56003689B6813F00303012B04D160
:104B600003681B6813F0010300E00023002B40D111
:104B7000009B9B6813F00303012B04D1009B1B686F
:104B800013F0010300E00023002B32D1A568484B4D
:104B90001D400B681D4389680D43A56029E0A1688D
:104BA00031F46041A1600168896811F003010129B5
:104BB00004D10168096811F0010100E00021002919
:104BC00017D10099896811F00301012904D10099D6
:104BD000096811F0010100E00021002909D1A36852
:104BE00033490B40A36004E0016C51F020010164E3
:104BF0000122002180F83C101000C0B214B030BC7B
:104C00007047000000F0FF830003005000070050D1
:104C100038B5040000202068806810F003000128E7
:104C200004D12068006810F0010000E00020002896
:104C300032D02068806810F00D00012822D1206851
:104C4000806850F0020021688860032021680860B5
:104C500000F078FA050020688068C0071CD500F0D5
:104C600071FA401B0328F6D320688068C007F2D58C
:104C7000206C50F010002064606C50F00100606403
:104C800001200AE0206C50F010002064606C50F0AD
:104C900001006064012000E0002032BDA40000207B
:104CA00040420F0000040050000500500001005079
:104CB000E0F0FFFF10B504000020002C01D101201E
:104CC00022E0022084F82100206801686FF30D11B2
:104CD0006268A0680243E068024320690243606999
:104CE0000243A0690243E069024311432068016066
:104CF000200000F0BAF80020A063012084F8210011
:104D0000002084F82000002010BD90F82110022916
:104D100006D004218163002180F82010012017E0D3
:104D20000168096831F00E010268116001680968C4
:104D300049084900026811600122016C8A40C16B78
:104D40004A60012180F82110002180F82010002005
:104D5000704710B5002490F82110022903D00421D7
:104D6000816301241BE00168096831F00E010268CB
:104D70001160016809684908490002681160012250
:104D8000016C8A40C16B4A60012180F8211000212A
:104D900080F82010416B002901D0416B884720002A
:104DA000C0B210BD10B5C16B0B6801680C6804225D
:104DB000016C12FA01F10B4215D0610713D501689D
:104DC0000968890605D40168096831F0040103689F
:104DD0001960016C8A40C16B4A60C16A002943D0E6
:104DE000C16A884740E00222016C12FA01F10B42CD
:104DF0001BD0A10719D501680968890608D4016884
:104E0000096831F00A0103681960012180F8211056
:104E1000016C8A40C16B4A60002180F82010816AD1
:104E2000002921D0816A88471EE00822016C8A404F
:104E3000134219D0210717D50168096831F00E0116
:104E4000026811600122016C8A40C16B4A60012135
:104E50008163012180F82110002180F82010016B6E
:104E6000002901D0016B884710BD01680C4A9142AE
:104E70000AD202680B498A181421B2FBF1F18900A9
:104E800001640949C16309E0026808498A181421CC
:104E9000B2FBF1F1890001640549C163704700006C
:104EA00008040240F8FFFDBF00000240F8FBFDBF10
:104EB0000004024010B50400002C01D101200EE0D6
:104EC0002079002804D1002060712000FDF71FFD2B
:104ED000022020710020206101202071002010BDDF
:104EE00010B50400002C01D101207AE0606A00288E
:104EF00006D16068B0F5827F06D00020E06103E053
:104F000000202061002060610020A06294F85D0014
:104F1000002805D1002084F85C002000FDF75CFD2E
:104F2000022084F85D002068006830F040002168AD
:104F30000860E06840F20171884201D3002001E07E
:104F40004FF48050E168B1F5706F05D0E168B1F5BC
:104F5000E06F01D00021A162616811F48271A26842
:104F600012F404421143227C12F002021143227D0A
:104F700012F001021143A26912F400721143227F60
:104F800012F03802114394F8202012F080021143ED
:104F9000A26A12F40052114322681160A169090C3F
:104FA00011F0040194F8242012F01002114394F837
:104FB000342012F008021143E26812F470621143C7
:104FC00010F480500843216848602068C06930F4BC
:104FD00000602168C86100202066012084F85D001F
:104FE000002010BDF8B504000D0016001F00002CB5
:104FF00001D101203DE0A06F002805D1002084F8F8
:1050000074002000FDF745FD2420A067206800689B
:105010004008400021680860200001F0F8FA0128EB
:1050200001D1012025E0606A002802D0200001F0B3
:1050300027FC2068806850F48040216888602068E0
:10504000806830F40040054320688560760556EAA4
:105050000746206800686FF3194006432068066021
:105060002068006850F0010021680860200001F00D
:1050700074FCF2BD7047000038B504000025002C18
:1050800003D094F82900C00601D5012555E0206A17
:105090000028DFF8AC00016851F0010101600068F0
:1050A00010F00100009000982000FDF78AFD94F8B0
:1050B0002900002802D1002084F828006068606080
:1050C00000200090206800680090009931F0700185
:1050D000606801430091009931F08201A0680143AA
:1050E0000091009931F44021A0690143009100989A
:1050F00030F47050E16811F4705108430090009949
:1051000031F40041206901430091009931F44031AC
:10511000606901430091009931F00C01E06901439D
:105120000091009931F40071206A014300910098C8
:1051300021680860012084F829002800C0B232BD2F
:105140001810024001480068704700BF905B0020C3
:1051500070B5050014001A0000200800C0B2002835
:1051600007D00800C0B2002803D00800C0B2F82859
:1051700001DB022436E05E4E31702800C0B2002808
:1051800020D1049B5B485C4908605C485C4908602E
:105190005C485D4908605D485D49086000205D49E4
:1051A00008605D485D4908605D485E4908605E488A
:1051B0005E490860DBB22100C9B2307801F0BCFC66
:1051C000040000E002242000C0B200280AD101F04F
:1051D00015FE002801D1032404E055480570012084
:1051E000544908702000C0B270BD38B50024514D3C
:1051F0002878012805D140480068804700202870A1
:1052000000E006242000C0B232BD7CB50020494831
:105210000078002801D0062068E0684601F0FAFD19
:10522000012862D19DF80000002805D002281AD07C
:1052300003D3032859D058E057E0404C404A414935
:105240002000334B1B689847C0B200280AD1207851
:1052500027490978884202D02078002802D102200C
:1052600001F0D1FD41E0384C364D286800782070BF
:10527000364E01203070002205E013F8320021780C
:10528000884208D0521C102A0CDA2B4B13F832003B
:105290000028F2D106E02A49286803EBC2025268CE
:1052A000904730702548007800281DD030780028BD
:1052B00012D0234800210180217851F080012A6812
:1052C0000388D1540188491C018031782A680388F9
:1052D000D1540188491C0180194802882968044872
:1052E0000078094B1B689847FFE7002076BD000057
:1052F000DD5B00207F6B0008685B0020996B000875
:105300006C5B0020176C0008645B0020AD6B00082C
:10531000705B0020745B0020776C0008785B0020D5
:10532000016D00087C5B00206F6D0008805B002031
:10533000DE5B0020A800002018000020DF5B0020BA
:10534000D05B0020845B0020E05B0020E15B00205C
:1053500078B585B005000B98002807D1502080F360
:105360001188BFF34F8FBFF36F8FFEE70C9C002CAB
:1053700007D1502080F31188BFF34F8FBFF36F8F99
:10538000FEE754260096009E542E07D0502080F34E
:105390001188BFF34F8FBFF36F8FFEE7002C13D040
:1053A000002811D02063022084F8510000200390CF
:1053B000029404A801900A980090280000F042F896
:1053C000200000F094F801E000200490049806B05A
:1053D00070BD2DE9F84384B0070088461600994651
:1053E000300080B2800001F02DFD0500002D0BD0B3
:1053F000542001F027FD0400002C01D0256304E0B7
:10540000280001F0A9FD00E00024002C15D00020A8
:1054100084F851000020039002940D9801900C989C
:1054200000904B46B6B232004146380000F00AF810
:10543000200000F05CF8012001E05FF0FF3005B0D3
:10544000BDE8F0832DE9F84305001E000A9F386B84
:1054500000EB8200B0F104085FEAD8085FEAC808F0
:1054600018F00700002807D0502080F31188BFF300
:105470004F8FBFF36F8FFEE7002200E0521C102A0F
:1054800007D2885C07EB020383F83400885C0028AD
:10549000F4D1DDF82090002087F84300B9F1070F20
:1054A00001D35FF00609099CC7F82C90C7F8449017
:1054B0000020B864381D01F004FE17F1180001F057
:1054C00000FE3F61D9F10709C7F818907F620020FC
:1054D000F864002087F8500032002900404601F0AF
:1054E0002DFE3860002C00D02760BDE8F18338B570
:1054F000040001F0B3FEDFF874140868401C086073
:10550000DFF86C542868002806D12C600868012850
:105510000DD100F049FA0AE0DFF8580400680028CD
:1055200005D1E06A2968C96A884200D32C60DFF897
:1055300048040168491C0160DFF840140A6801232F
:10554000E06A83401A430A60211DDFF83424E36ACD
:105550001420434302EB030001F0B6FD01F098FE76
:10556000DFF81004006800280DD02868C06AE16ADE
:10557000884208D25FF08050DFF830150860BFF332
:105580004F8FBFF36F8F31BD70B504000E00002543
:10559000002C07D1502080F31188BFF34F8FBFF349
:1055A0006F8FFEE7002E07D1502080F31188BFF3E4
:1055B0004F8FBFF36F8FFEE7DFF8400400680028CD
:1055C00007D0502080F31188BFF34F8FBFF36F8F48
:1055D000FEE700F098F8DFF86404006821687618A8
:1055E0002168884206D221688E4209D2B04207D291
:1055F000012505E021688E4201D3B04200D2012589
:105600002660002D04D00021361A300000F066FA22
:1056100000F07FF8002808D15FF08050DFF88C148C
:105620000860BFF34F8FBFF36F8F70BD10B50400DC
:105630000020002C14D0DFF8C4030068002807D035
:10564000502080F31188BFF34F8FBFF36F8FFEE7B9
:1056500000F059F80021200000F040FA00F059F85D
:10566000002808D15FF08050DFF840140860BFF3D5
:105670004F8FBFF36F8F10BD10B586B00020049020
:105680000020039005AA03A904A8FDF737FCDFF862
:105690002844049802900398019000200090002371
:1056A000059ADFF818140FF2DD20FFF751FE206095
:1056B0002068002801D0012000E00020012817D137
:1056C000502080F31188BFF34F8FBFF36F8F5FF0CF
:1056D000FF30DFF8F01308600120DFF8981208604F
:1056E0000020DFF85813086001F051FD06B010BD2E
:1056F00010F1010FFAD1502080F31188BFF34F8FC2
:10570000BFF36F8FFEE7DFF8F4020168491C016008
:10571000704770B500240025DFF8E062306800288B
:1057200007D1502080F31188BFF34F8FBFF36F8FE5
:10573000FEE701F093FD3068401E306030680028BD
:1057400055D1DFF828020068002826D14FE0C8684C
:10575000C46814F1180001F0DEFC201D01F0DBFC30
:10576000DFF818120A680123E06A83401A430A60CE
:10577000211DDFF80C22E36A1420434302EB0300EF
:1057800001F0A2FCE06ADFF8E8110968C96A884202
:1057900003D30120DFF840130860DFF82413086802
:1057A0000028D4D1002C01D000F06BF9DFF8186389
:1057B0003468002C0CD000F02AF8002803D0012017
:1057C000DFF814130860641E002CF4D10020306050
:1057D000DFF804030068002809D001255FF080503D
:1057E000DFF8C8120860BFF34F8FBFF36F8F01F06F
:1057F0004FFD280070BDDFF844020068704780B597
:1058000001F070FD0020DFF84403006802BDF8B528
:105810000025DFF8E8010068002864D1DFF81C02E9
:105820000468641C0460002C1AD1DFF8A012086818
:105830000068002807D0502080F31188BFF34F8FF5
:10584000BFF36F8FFEE70868DFF8842213680B60F0
:105850001060DFF880020168491C016000F011F956
:10586000DFF86062306884422ED320E0381D01F0FA
:1058700052FCB86A002803D017F1180001F04BFC65
:105880003E490A680123F86A83401A430A60391DB9
:105890003B4AFB6A1420434302EB030001F014FC73
:1058A000F86A33490968C96A884200D30125DFF8DC
:1058B0001C1208680068002811D00868C068C76812
:1058C00078688442D2D23060294800682C49C26A84
:1058D00014204243885802280AD3012508E05FF0CB
:1058E000FF303060F0E7DFF8E0010168491C01603B
:1058F000DFF8E4010068002800D001252800F2BD8F
:105900003E480068002804D00120DFF8CC11086070
:105910002AE00020DFF8C011086018480068B0FADB
:1059200080F1D1F11F011422154B02FB01F0185830
:10593000002807D1502080F31188BFF34F8FBFF3A9
:105940006F8FFEE7514303EB0100416849684160F6
:10595000416810F10802914202D1416849684160F2
:105960004068C0680249086070470000A45B0020DE
:10597000945B0020B05B0020C05B0020AC5B00208B
:10598000AC53002080B500F03BF8DFF8CC01006894
:105990000228F8D35FF08050DFF818110860BFF3D9
:1059A0004F8FBFF36F8FEEE738B5002408E0DFF8C4
:1059B000A801142101FB04F1084401F073FB641CED
:1059C000072CF4D3DFF89441200001F06BFBDFF8E3
:1059D0009051280001F066FBDFF8E40001F062FB63
:1059E000DFF8800101F05EFB314801F05BFBDFF87E
:1059F000DC000460DFF87001056031BDCC5B002085
:105A000038B515E001F02AFCDFF85801C068C46819
:105A1000201D01F080FBDFF838010168491E01609C
:105A20002868401E286001F033FC200000F008F8D0
:105A3000DFF8385128680028E4D131BDA85B002088
:105A400010B5040094F85100002806D1206B01F035
:105A500083FA200001F080FA10BD94F8510001286B
:105A600003D1200001F078FAF6E794F851000228FB
:105A7000F2D0502080F31188BFF34F8FBFF36F8FA8
:105A8000FEE7DFF8481008680068002805D15FF0DD
:105A9000FF30DFF83010086006E00868C068C068B2
:105AA0004068DFF8201008607047000004ED00E057
:105AB000205B002004ED00E0C85B0020EC810008C2
:105AC000F85A0020C45B0020B45B0020985B0020E3
:105AD0009C5B0020BC5B0020B85B0020F8B5050093
